{
  "contractName": "CarBlocksFactory",
  "abi": [
    {
      "anonymous": false,
      "inputs": [
        {
          "indexed": false,
          "internalType": "address",
          "name": "contractAddress",
          "type": "address"
        },
        {
          "indexed": false,
          "internalType": "string",
          "name": "name",
          "type": "string"
        },
        {
          "indexed": false,
          "internalType": "string",
          "name": "symbol",
          "type": "string"
        },
        {
          "indexed": false,
          "internalType": "string",
          "name": "energyType",
          "type": "string"
        }
      ],
      "name": "CarblocksCollectionCreated",
      "type": "event"
    },
    {
      "inputs": [
        {
          "internalType": "uint256",
          "name": "",
          "type": "uint256"
        }
      ],
      "name": "carblocksCollection",
      "outputs": [
        {
          "internalType": "address",
          "name": "",
          "type": "address"
        }
      ],
      "stateMutability": "view",
      "type": "function",
      "constant": true
    },
    {
      "inputs": [
        {
          "internalType": "string",
          "name": "_name",
          "type": "string"
        },
        {
          "internalType": "string",
          "name": "_symbol",
          "type": "string"
        },
        {
          "internalType": "string",
          "name": "_energyType",
          "type": "string"
        }
      ],
      "name": "createCarblocksCollection",
      "outputs": [
        {
          "internalType": "contract CarBlocks",
          "name": "",
          "type": "address"
        }
      ],
      "stateMutability": "nonpayable",
      "type": "function"
    }
  ],
  "bytecode": "0x608060405234801561001057600080fd5b50613b2f806100206000396000f3fe60806040523480156200001157600080fd5b50600436106200003a5760003560e01c8063a43a48d4146200003f578063e67bfc881462000075575b600080fd5b6200005d60048036038101906200005791906200023c565b620000ab565b6040516200006c9190620002b3565b60405180910390f35b6200009360048036038101906200008d91906200033e565b620000eb565b604051620000a291906200046f565b60405180910390f35b60008181548110620000bc57600080fd5b906000526020600020016000915054906101000a900473ffffffffffffffffffffffffffffffffffffffff1681565b6000808787878787876040516200010290620001e9565b6200011396959493929190620004f0565b604051809103906000f08015801562000130573d6000803e3d6000fd5b5090506000819080600181540180825580915050600190039060005260206000200160009091909190916101000a81548173ffffffffffffffffffffffffffffffffffffffff021916908373ffffffffffffffffffffffffffffffffffffffff1602179055507fc5482fdbb79166c381f7dc0286d3378a03121534fb63990490f3f82be44e436081898989898989604051620001d3979695949392919062000548565b60405180910390a1809150509695505050505050565b61354980620005b183390190565b600080fd5b600080fd5b6000819050919050565b620002168162000201565b81146200022257600080fd5b50565b60008135905062000236816200020b565b92915050565b600060208284031215620002555762000254620001f7565b5b6000620002658482850162000225565b91505092915050565b600073ffffffffffffffffffffffffffffffffffffffff82169050919050565b60006200029b826200026e565b9050919050565b620002ad816200028e565b82525050565b6000602082019050620002ca6000830184620002a2565b92915050565b600080fd5b600080fd5b600080fd5b60008083601f840112620002f857620002f7620002d0565b5b8235905067ffffffffffffffff811115620003185762000317620002d5565b5b602083019150836001820283011115620003375762000336620002da565b5b9250929050565b600080600080600080606087890312156200035e576200035d620001f7565b5b600087013567ffffffffffffffff8111156200037f576200037e620001fc565b5b6200038d89828a01620002df565b9650965050602087013567ffffffffffffffff811115620003b357620003b2620001fc565b5b620003c189828a01620002df565b9450945050604087013567ffffffffffffffff811115620003e757620003e6620001fc565b5b620003f589828a01620002df565b92509250509295509295509295565b6000819050919050565b60006200042f6200042962000423846200026e565b62000404565b6200026e565b9050919050565b600062000443826200040e565b9050919050565b6000620004578262000436565b9050919050565b62000469816200044a565b82525050565b60006020820190506200048660008301846200045e565b92915050565b600082825260208201905092915050565b82818337600083830152505050565b6000601f19601f8301169050919050565b6000620004cb83856200048c565b9350620004da8385846200049d565b620004e583620004ac565b840190509392505050565b600060608201905081810360008301526200050d81888a620004bd565b9050818103602083015262000524818688620004bd565b905081810360408301526200053b818486620004bd565b9050979650505050505050565b60006080820190506200055f600083018a620002a2565b81810360208301526200057481888a620004bd565b905081810360408301526200058b818688620004bd565b90508181036060830152620005a2818486620004bd565b90509897505050505050505056fe60806040523480156200001157600080fd5b50604051620035493803806200354983398181016040528101906200003791906200020d565b828281600090816200004a919062000511565b5080600190816200005c919062000511565b505050806008908162000070919062000511565b50505050620005f8565b6000604051905090565b600080fd5b600080fd5b600080fd5b600080fd5b6000601f19601f8301169050919050565b7f4e487b7100000000000000000000000000000000000000000000000000000000600052604160045260246000fd5b620000e38262000098565b810181811067ffffffffffffffff82111715620001055762000104620000a9565b5b80604052505050565b60006200011a6200007a565b9050620001288282620000d8565b919050565b600067ffffffffffffffff8211156200014b576200014a620000a9565b5b620001568262000098565b9050602081019050919050565b60005b838110156200018357808201518184015260208101905062000166565b60008484015250505050565b6000620001a6620001a0846200012d565b6200010e565b905082815260208101848484011115620001c557620001c462000093565b5b620001d284828562000163565b509392505050565b600082601f830112620001f257620001f16200008e565b5b8151620002048482602086016200018f565b91505092915050565b60008060006060848603121562000229576200022862000084565b5b600084015167ffffffffffffffff8111156200024a576200024962000089565b5b6200025886828701620001da565b935050602084015167ffffffffffffffff8111156200027c576200027b62000089565b5b6200028a86828701620001da565b925050604084015167ffffffffffffffff811115620002ae57620002ad62000089565b5b620002bc86828701620001da565b9150509250925092565b600081519050919050565b7f4e487b7100000000000000000000000000000000000000000000000000000000600052602260045260246000fd5b600060028204905060018216806200031957607f821691505b6020821081036200032f576200032e620002d1565b5b50919050565b60008190508160005260206000209050919050565b60006020601f8301049050919050565b600082821b905092915050565b600060088302620003997fffffffffffffffffffffffffffffffffffffffffffffffffffffffffffffffff826200035a565b620003a586836200035a565b95508019841693508086168417925050509392505050565b6000819050919050565b6000819050919050565b6000620003f2620003ec620003e684620003bd565b620003c7565b620003bd565b9050919050565b6000819050919050565b6200040e83620003d1565b620004266200041d82620003f9565b84845462000367565b825550505050565b600090565b6200043d6200042e565b6200044a81848462000403565b505050565b5b8181101562000472576200046660008262000433565b60018101905062000450565b5050565b601f821115620004c1576200048b8162000335565b62000496846200034a565b81016020851015620004a6578190505b620004be620004b5856200034a565b8301826200044f565b50505b505050565b600082821c905092915050565b6000620004e660001984600802620004c6565b1980831691505092915050565b6000620005018383620004d3565b9150826002028217905092915050565b6200051c82620002c6565b67ffffffffffffffff811115620005385762000537620000a9565b5b62000544825462000300565b6200055182828562000476565b600060209050601f83116001811462000589576000841562000574578287015190505b620005808582620004f3565b865550620005f0565b601f198416620005998662000335565b60005b82811015620005c3578489015182556001820191506020850194506020810190506200059c565b86831015620005e35784890151620005df601f891682620004d3565b8355505b6001600288020188555050505b505050505050565b612f4180620006086000396000f3fe608060405234801561001057600080fd5b50600436106100ea5760003560e01c806370a082311161008c578063b88d4fde11610066578063b88d4fde1461025b578063c87b56dd14610277578063e985e9c5146102a7578063f2a1d04d146102d7576100ea565b806370a08231146101f157806395d89b4114610221578063a22cb4651461023f576100ea565b8063095ea7b3116100c8578063095ea7b31461016d57806323b872dd1461018957806342842e0e146101a55780636352211e146101c1576100ea565b806301ffc9a7146100ef57806306fdde031461011f578063081812fc1461013d575b600080fd5b61010960048036038101906101049190611cbe565b610307565b6040516101169190611d06565b60405180910390f35b6101276103e9565b6040516101349190611db1565b60405180910390f35b61015760048036038101906101529190611e09565b61047b565b6040516101649190611e77565b60405180910390f35b61018760048036038101906101829190611ebe565b6104c1565b005b6101a3600480360381019061019e9190611efe565b6105d8565b005b6101bf60048036038101906101ba9190611efe565b610638565b005b6101db60048036038101906101d69190611e09565b610658565b6040516101e89190611e77565b60405180910390f35b61020b60048036038101906102069190611f51565b6106de565b6040516102189190611f8d565b60405180910390f35b610229610795565b6040516102369190611db1565b60405180910390f35b61025960048036038101906102549190611fd4565b610827565b005b61027560048036038101906102709190612149565b61083d565b005b610291600480360381019061028c9190611e09565b61089f565b60405161029e9190611db1565b60405180910390f35b6102c160048036038101906102bc91906121cc565b6109b1565b6040516102ce9190611d06565b60405180910390f35b6102f160048036038101906102ec9190612291565b610a45565b6040516102fe9190611f8d565b60405180910390f35b60007f80ac58cd000000000000000000000000000000000000000000000000000000007bffffffffffffffffffffffffffffffffffffffffffffffffffffffff1916827bffffffffffffffffffffffffffffffffffffffffffffffffffffffff191614806103d257507f5b5e139f000000000000000000000000000000000000000000000000000000007bffffffffffffffffffffffffffffffffffffffffffffffffffffffff1916827bffffffffffffffffffffffffffffffffffffffffffffffffffffffff1916145b806103e257506103e182610c6b565b5b9050919050565b6060600080546103f8906123e4565b80601f0160208091040260200160405190810160405280929190818152602001828054610424906123e4565b80156104715780601f1061044657610100808354040283529160200191610471565b820191906000526020600020905b81548152906001019060200180831161045457829003601f168201915b5050505050905090565b600061048682610cd5565b6004600083815260200190815260200160002060009054906101000a900473ffffffffffffffffffffffffffffffffffffffff169050919050565b60006104cc82610658565b90508073ffffffffffffffffffffffffffffffffffffffff168373ffffffffffffffffffffffffffffffffffffffff160361053c576040517f08c379a000000000000000000000000000000000000000000000000000000000815260040161053390612487565b60405180910390fd5b8073ffffffffffffffffffffffffffffffffffffffff1661055b610d20565b73ffffffffffffffffffffffffffffffffffffffff16148061058a575061058981610584610d20565b6109b1565b5b6105c9576040517f08c379a00000000000000000000000000000000000000000000000000000000081526004016105c090612519565b60405180910390fd5b6105d38383610d28565b505050565b6105e96105e3610d20565b82610de1565b610628576040517f08c379a000000000000000000000000000000000000000000000000000000000815260040161061f906125ab565b60405180910390fd5b610633838383610e76565b505050565b6106538383836040518060200160405280600081525061083d565b505050565b6000806106648361116f565b9050600073ffffffffffffffffffffffffffffffffffffffff168173ffffffffffffffffffffffffffffffffffffffff16036106d5576040517f08c379a00000000000000000000000000000000000000000000000000000000081526004016106cc90612617565b60405180910390fd5b80915050919050565b60008073ffffffffffffffffffffffffffffffffffffffff168273ffffffffffffffffffffffffffffffffffffffff160361074e576040517f08c379a0000000000000000000000000000000000000000000000000000000008152600401610745906126a9565b60405180910390fd5b600360008373ffffffffffffffffffffffffffffffffffffffff1673ffffffffffffffffffffffffffffffffffffffff168152602001908152602001600020549050919050565b6060600180546107a4906123e4565b80601f01602080910402602001604051908101604052809291908181526020018280546107d0906123e4565b801561081d5780601f106107f25761010080835404028352916020019161081d565b820191906000526020600020905b81548152906001019060200180831161080057829003601f168201915b5050505050905090565b610839610832610d20565b83836111ac565b5050565b61084e610848610d20565b83610de1565b61088d576040517f08c379a0000000000000000000000000000000000000000000000000000000008152600401610884906125ab565b60405180910390fd5b61089984848484611318565b50505050565b60606108aa82610cd5565b60006006600084815260200190815260200160002080546108ca906123e4565b80601f01602080910402602001604051908101604052809291908181526020018280546108f6906123e4565b80156109435780601f1061091857610100808354040283529160200191610943565b820191906000526020600020905b81548152906001019060200180831161092657829003601f168201915b505050505090506000610954611374565b905060008151036109695781925050506109ac565b60008251111561099e578082604051602001610986929190612705565b604051602081830303815290604052925050506109ac565b6109a78461138b565b925050505b919050565b6000600560008473ffffffffffffffffffffffffffffffffffffffff1673ffffffffffffffffffffffffffffffffffffffff16815260200190815260200160002060008373ffffffffffffffffffffffffffffffffffffffff1673ffffffffffffffffffffffffffffffffffffffff16815260200190815260200160002060009054906101000a900460ff16905092915050565b6000610a5160076113f3565b600060405180608001604052808d81526020018c8c8080601f016020809104026020016040519081016040528093929190818152602001838380828437600081840152601f19601f8201169050808301925050505050505081526020018a8a8080601f016020809104026020016040519081016040528093929190818152602001838380828437600081840152601f19601f82011690508083019250505050505050815260200188888080601f016020809104026020016040519081016040528093929190818152602001838380828437600081840152601f19601f820116905080830192505050505050508152509050600060096001816001815401808255809150500390600052602060002090600702019050838160000160006101000a81548160ff02191690836002811115610b8d57610b8c612729565b5b02179055508181600101600082015181600001556020820151816001019081610bb69190612904565b506040820151816002019081610bcc9190612904565b506060820151816003019081610be29190612904565b50905050600081600601819055506000610bfc6007611409565b9050610c088f82611417565b610c568188888080601f016020809104026020016040519081016040528093929190818152602001838380828437600081840152601f19601f82011690508083019250505050505050611435565b8093505050509b9a5050505050505050505050565b60007f01ffc9a7000000000000000000000000000000000000000000000000000000007bffffffffffffffffffffffffffffffffffffffffffffffffffffffff1916827bffffffffffffffffffffffffffffffffffffffffffffffffffffffff1916149050919050565b610cde816114a2565b610d1d576040517f08c379a0000000000000000000000000000000000000000000000000000000008152600401610d1490612617565b60405180910390fd5b50565b600033905090565b816004600083815260200190815260200160002060006101000a81548173ffffffffffffffffffffffffffffffffffffffff021916908373ffffffffffffffffffffffffffffffffffffffff160217905550808273ffffffffffffffffffffffffffffffffffffffff16610d9b83610658565b73ffffffffffffffffffffffffffffffffffffffff167f8c5be1e5ebec7d5bd14f71427d1e84f3dd0314c0f7b2291e5b200ac8c7c3b92560405160405180910390a45050565b600080610ded83610658565b90508073ffffffffffffffffffffffffffffffffffffffff168473ffffffffffffffffffffffffffffffffffffffff161480610e2f5750610e2e81856109b1565b5b80610e6d57508373ffffffffffffffffffffffffffffffffffffffff16610e558461047b565b73ffffffffffffffffffffffffffffffffffffffff16145b91505092915050565b8273ffffffffffffffffffffffffffffffffffffffff16610e9682610658565b73ffffffffffffffffffffffffffffffffffffffff1614610eec576040517f08c379a0000000000000000000000000000000000000000000000000000000008152600401610ee390612a48565b60405180910390fd5b600073ffffffffffffffffffffffffffffffffffffffff168273ffffffffffffffffffffffffffffffffffffffff1603610f5b576040517f08c379a0000000000000000000000000000000000000000000000000000000008152600401610f5290612ada565b60405180910390fd5b610f6883838360016114e3565b8273ffffffffffffffffffffffffffffffffffffffff16610f8882610658565b73ffffffffffffffffffffffffffffffffffffffff1614610fde576040517f08c379a0000000000000000000000000000000000000000000000000000000008152600401610fd590612a48565b60405180910390fd5b6004600082815260200190815260200160002060006101000a81549073ffffffffffffffffffffffffffffffffffffffff02191690556001600360008573ffffffffffffffffffffffffffffffffffffffff1673ffffffffffffffffffffffffffffffffffffffff168152602001908152602001600020600082825403925050819055506001600360008473ffffffffffffffffffffffffffffffffffffffff1673ffffffffffffffffffffffffffffffffffffffff16815260200190815260200160002060008282540192505081905550816002600083815260200190815260200160002060006101000a81548173ffffffffffffffffffffffffffffffffffffffff021916908373ffffffffffffffffffffffffffffffffffffffff160217905550808273ffffffffffffffffffffffffffffffffffffffff168473ffffffffffffffffffffffffffffffffffffffff167fddf252ad1be2c89b69c2b068fc378daa952ba7f163c4a11628f55a4df523b3ef60405160405180910390a461116a8383836001611609565b505050565b60006002600083815260200190815260200160002060009054906101000a900473ffffffffffffffffffffffffffffffffffffffff169050919050565b8173ffffffffffffffffffffffffffffffffffffffff168373ffffffffffffffffffffffffffffffffffffffff160361121a576040517f08c379a000000000000000000000000000000000000000000000000000000000815260040161121190612b46565b60405180910390fd5b80600560008573ffffffffffffffffffffffffffffffffffffffff1673ffffffffffffffffffffffffffffffffffffffff16815260200190815260200160002060008473ffffffffffffffffffffffffffffffffffffffff1673ffffffffffffffffffffffffffffffffffffffff16815260200190815260200160002060006101000a81548160ff0219169083151502179055508173ffffffffffffffffffffffffffffffffffffffff168373ffffffffffffffffffffffffffffffffffffffff167f17307eab39ab6107e8899845ad3d59bd9653f200f220920489ca2b5937696c318360405161130b9190611d06565b60405180910390a3505050565b611323848484610e76565b61132f8484848461160f565b61136e576040517f08c379a000000000000000000000000000000000000000000000000000000000815260040161136590612bd8565b60405180910390fd5b50505050565b606060405180602001604052806000815250905090565b606061139682610cd5565b60006113a0611374565b905060008151116113c057604051806020016040528060008152506113eb565b806113ca84611796565b6040516020016113db929190612705565b6040516020818303038152906040525b915050919050565b6001816000016000828254019250508190555050565b600081600001549050919050565b611431828260405180602001604052806000815250611864565b5050565b61143e826114a2565b61147d576040517f08c379a000000000000000000000000000000000000000000000000000000000815260040161147490612c6a565b60405180910390fd5b8060066000848152602001908152602001600020908161149d9190612904565b505050565b60008073ffffffffffffffffffffffffffffffffffffffff166114c48361116f565b73ffffffffffffffffffffffffffffffffffffffff1614159050919050565b600181111561160357600073ffffffffffffffffffffffffffffffffffffffff168473ffffffffffffffffffffffffffffffffffffffff16146115775780600360008673ffffffffffffffffffffffffffffffffffffffff1673ffffffffffffffffffffffffffffffffffffffff168152602001908152602001600020600082825461156f9190612cb9565b925050819055505b600073ffffffffffffffffffffffffffffffffffffffff168373ffffffffffffffffffffffffffffffffffffffff16146116025780600360008573ffffffffffffffffffffffffffffffffffffffff1673ffffffffffffffffffffffffffffffffffffffff16815260200190815260200160002060008282546115fa9190612ced565b925050819055505b5b50505050565b50505050565b60006116308473ffffffffffffffffffffffffffffffffffffffff166118bf565b15611789578373ffffffffffffffffffffffffffffffffffffffff1663150b7a02611659610d20565b8786866040518563ffffffff1660e01b815260040161167b9493929190612d76565b6020604051808303816000875af19250505080156116b757506040513d601f19601f820116820180604052508101906116b49190612dd7565b60015b611739573d80600081146116e7576040519150601f19603f3d011682016040523d82523d6000602084013e6116ec565b606091505b506000815103611731576040517f08c379a000000000000000000000000000000000000000000000000000000000815260040161172890612bd8565b60405180910390fd5b805181602001fd5b63150b7a0260e01b7bffffffffffffffffffffffffffffffffffffffffffffffffffffffff1916817bffffffffffffffffffffffffffffffffffffffffffffffffffffffff19161491505061178e565b600190505b949350505050565b6060600060016117a5846118e2565b01905060008167ffffffffffffffff8111156117c4576117c361201e565b5b6040519080825280601f01601f1916602001820160405280156117f65781602001600182028036833780820191505090505b509050600082602001820190505b600115611859578080600190039150507f3031323334353637383961626364656600000000000000000000000000000000600a86061a8153600a858161184d5761184c612e04565b5b04945060008503611804575b819350505050919050565b61186e8383611a35565b61187b600084848461160f565b6118ba576040517f08c379a00000000000000000000000000000000000000000000000000000000081526004016118b190612bd8565b60405180910390fd5b505050565b6000808273ffffffffffffffffffffffffffffffffffffffff163b119050919050565b600080600090507a184f03e93ff9f4daa797ed6e38ed64bf6a1f0100000000000000008310611940577a184f03e93ff9f4daa797ed6e38ed64bf6a1f010000000000000000838161193657611935612e04565b5b0492506040810190505b6d04ee2d6d415b85acef8100000000831061197d576d04ee2d6d415b85acef8100000000838161197357611972612e04565b5b0492506020810190505b662386f26fc1000083106119ac57662386f26fc1000083816119a2576119a1612e04565b5b0492506010810190505b6305f5e10083106119d5576305f5e10083816119cb576119ca612e04565b5b0492506008810190505b61271083106119fa5761271083816119f0576119ef612e04565b5b0492506004810190505b60648310611a1d5760648381611a1357611a12612e04565b5b0492506002810190505b600a8310611a2c576001810190505b80915050919050565b600073ffffffffffffffffffffffffffffffffffffffff168273ffffffffffffffffffffffffffffffffffffffff1603611aa4576040517f08c379a0000000000000000000000000000000000000000000000000000000008152600401611a9b90612e7f565b60405180910390fd5b611aad816114a2565b15611aed576040517f08c379a0000000000000000000000000000000000000000000000000000000008152600401611ae490612eeb565b60405180910390fd5b611afb6000838360016114e3565b611b04816114a2565b15611b44576040517f08c379a0000000000000000000000000000000000000000000000000000000008152600401611b3b90612eeb565b60405180910390fd5b6001600360008473ffffffffffffffffffffffffffffffffffffffff1673ffffffffffffffffffffffffffffffffffffffff16815260200190815260200160002060008282540192505081905550816002600083815260200190815260200160002060006101000a81548173ffffffffffffffffffffffffffffffffffffffff021916908373ffffffffffffffffffffffffffffffffffffffff160217905550808273ffffffffffffffffffffffffffffffffffffffff16600073ffffffffffffffffffffffffffffffffffffffff167fddf252ad1be2c89b69c2b068fc378daa952ba7f163c4a11628f55a4df523b3ef60405160405180910390a4611c4e600083836001611609565b5050565b6000604051905090565b600080fd5b600080fd5b60007fffffffff0000000000000000000000000000000000000000000000000000000082169050919050565b611c9b81611c66565b8114611ca657600080fd5b50565b600081359050611cb881611c92565b92915050565b600060208284031215611cd457611cd3611c5c565b5b6000611ce284828501611ca9565b91505092915050565b60008115159050919050565b611d0081611ceb565b82525050565b6000602082019050611d1b6000830184611cf7565b92915050565b600081519050919050565b600082825260208201905092915050565b60005b83811015611d5b578082015181840152602081019050611d40565b60008484015250505050565b6000601f19601f8301169050919050565b6000611d8382611d21565b611d8d8185611d2c565b9350611d9d818560208601611d3d565b611da681611d67565b840191505092915050565b60006020820190508181036000830152611dcb8184611d78565b905092915050565b6000819050919050565b611de681611dd3565b8114611df157600080fd5b50565b600081359050611e0381611ddd565b92915050565b600060208284031215611e1f57611e1e611c5c565b5b6000611e2d84828501611df4565b91505092915050565b600073ffffffffffffffffffffffffffffffffffffffff82169050919050565b6000611e6182611e36565b9050919050565b611e7181611e56565b82525050565b6000602082019050611e8c6000830184611e68565b92915050565b611e9b81611e56565b8114611ea657600080fd5b50565b600081359050611eb881611e92565b92915050565b60008060408385031215611ed557611ed4611c5c565b5b6000611ee385828601611ea9565b9250506020611ef485828601611df4565b9150509250929050565b600080600060608486031215611f1757611f16611c5c565b5b6000611f2586828701611ea9565b9350506020611f3686828701611ea9565b9250506040611f4786828701611df4565b9150509250925092565b600060208284031215611f6757611f66611c5c565b5b6000611f7584828501611ea9565b91505092915050565b611f8781611dd3565b82525050565b6000602082019050611fa26000830184611f7e565b92915050565b611fb181611ceb565b8114611fbc57600080fd5b50565b600081359050611fce81611fa8565b92915050565b60008060408385031215611feb57611fea611c5c565b5b6000611ff985828601611ea9565b925050602061200a85828601611fbf565b9150509250929050565b600080fd5b600080fd5b7f4e487b7100000000000000000000000000000000000000000000000000000000600052604160045260246000fd5b61205682611d67565b810181811067ffffffffffffffff821117156120755761207461201e565b5b80604052505050565b6000612088611c52565b9050612094828261204d565b919050565b600067ffffffffffffffff8211156120b4576120b361201e565b5b6120bd82611d67565b9050602081019050919050565b82818337600083830152505050565b60006120ec6120e784612099565b61207e565b90508281526020810184848401111561210857612107612019565b5b6121138482856120ca565b509392505050565b600082601f8301126121305761212f612014565b5b81356121408482602086016120d9565b91505092915050565b6000806000806080858703121561216357612162611c5c565b5b600061217187828801611ea9565b945050602061218287828801611ea9565b935050604061219387828801611df4565b925050606085013567ffffffffffffffff8111156121b4576121b3611c61565b5b6121c08782880161211b565b91505092959194509250565b600080604083850312156121e3576121e2611c5c565b5b60006121f185828601611ea9565b925050602061220285828601611ea9565b9150509250929050565b600080fd5b600080fd5b60008083601f84011261222c5761222b612014565b5b8235905067ffffffffffffffff8111156122495761224861220c565b5b60208301915083600182028301111561226557612264612211565b5b9250929050565b6003811061227957600080fd5b50565b60008135905061228b8161226c565b92915050565b600080600080600080600080600080600060e08c8e0312156122b6576122b5611c5c565b5b60006122c48e828f01611ea9565b9b505060206122d58e828f01611df4565b9a505060408c013567ffffffffffffffff8111156122f6576122f5611c61565b5b6123028e828f01612216565b995099505060608c013567ffffffffffffffff81111561232557612324611c61565b5b6123318e828f01612216565b975097505060808c013567ffffffffffffffff81111561235457612353611c61565b5b6123608e828f01612216565b955095505060a08c013567ffffffffffffffff81111561238357612382611c61565b5b61238f8e828f01612216565b935093505060c06123a28e828f0161227c565b9150509295989b509295989b9093969950565b7f4e487b7100000000000000000000000000000000000000000000000000000000600052602260045260246000fd5b600060028204905060018216806123fc57607f821691505b60208210810361240f5761240e6123b5565b5b50919050565b7f4552433732313a20617070726f76616c20746f2063757272656e74206f776e6560008201527f7200000000000000000000000000000000000000000000000000000000000000602082015250565b6000612471602183611d2c565b915061247c82612415565b604082019050919050565b600060208201905081810360008301526124a081612464565b9050919050565b7f4552433732313a20617070726f76652063616c6c6572206973206e6f7420746f60008201527f6b656e206f776e6572206f7220617070726f76656420666f7220616c6c000000602082015250565b6000612503603d83611d2c565b915061250e826124a7565b604082019050919050565b60006020820190508181036000830152612532816124f6565b9050919050565b7f4552433732313a2063616c6c6572206973206e6f7420746f6b656e206f776e6560008201527f72206f7220617070726f76656400000000000000000000000000000000000000602082015250565b6000612595602d83611d2c565b91506125a082612539565b604082019050919050565b600060208201905081810360008301526125c481612588565b9050919050565b7f4552433732313a20696e76616c696420746f6b656e2049440000000000000000600082015250565b6000612601601883611d2c565b915061260c826125cb565b602082019050919050565b60006020820190508181036000830152612630816125f4565b9050919050565b7f4552433732313a2061646472657373207a65726f206973206e6f74206120766160008201527f6c6964206f776e65720000000000000000000000000000000000000000000000602082015250565b6000612693602983611d2c565b915061269e82612637565b604082019050919050565b600060208201905081810360008301526126c281612686565b9050919050565b600081905092915050565b60006126df82611d21565b6126e981856126c9565b93506126f9818560208601611d3d565b80840191505092915050565b600061271182856126d4565b915061271d82846126d4565b91508190509392505050565b7f4e487b7100000000000000000000000000000000000000000000000000000000600052602160045260246000fd5b60008190508160005260206000209050919050565b60006020601f8301049050919050565b600082821b905092915050565b6000600883026127ba7fffffffffffffffffffffffffffffffffffffffffffffffffffffffffffffffff8261277d565b6127c4868361277d565b95508019841693508086168417925050509392505050565b6000819050919050565b60006128016127fc6127f784611dd3565b6127dc565b611dd3565b9050919050565b6000819050919050565b61281b836127e6565b61282f61282782612808565b84845461278a565b825550505050565b600090565b612844612837565b61284f818484612812565b505050565b5b818110156128735761286860008261283c565b600181019050612855565b5050565b601f8211156128b85761288981612758565b6128928461276d565b810160208510156128a1578190505b6128b56128ad8561276d565b830182612854565b50505b505050565b600082821c905092915050565b60006128db600019846008026128bd565b1980831691505092915050565b60006128f483836128ca565b9150826002028217905092915050565b61290d82611d21565b67ffffffffffffffff8111156129265761292561201e565b5b61293082546123e4565b61293b828285612877565b600060209050601f83116001811461296e576000841561295c578287015190505b61296685826128e8565b8655506129ce565b601f19841661297c86612758565b60005b828110156129a45784890151825560018201915060208501945060208101905061297f565b868310156129c157848901516129bd601f8916826128ca565b8355505b6001600288020188555050505b505050505050565b7f4552433732313a207472616e736665722066726f6d20696e636f72726563742060008201527f6f776e6572000000000000000000000000000000000000000000000000000000602082015250565b6000612a32602583611d2c565b9150612a3d826129d6565b604082019050919050565b60006020820190508181036000830152612a6181612a25565b9050919050565b7f4552433732313a207472616e7366657220746f20746865207a65726f2061646460008201527f7265737300000000000000000000000000000000000000000000000000000000602082015250565b6000612ac4602483611d2c565b9150612acf82612a68565b604082019050919050565b60006020820190508181036000830152612af381612ab7565b9050919050565b7f4552433732313a20617070726f766520746f2063616c6c657200000000000000600082015250565b6000612b30601983611d2c565b9150612b3b82612afa565b602082019050919050565b60006020820190508181036000830152612b5f81612b23565b9050919050565b7f4552433732313a207472616e7366657220746f206e6f6e20455243373231526560008201527f63656976657220696d706c656d656e7465720000000000000000000000000000602082015250565b6000612bc2603283611d2c565b9150612bcd82612b66565b604082019050919050565b60006020820190508181036000830152612bf181612bb5565b9050919050565b7f45524337323155524953746f726167653a2055524920736574206f66206e6f6e60008201527f6578697374656e7420746f6b656e000000000000000000000000000000000000602082015250565b6000612c54602e83611d2c565b9150612c5f82612bf8565b604082019050919050565b60006020820190508181036000830152612c8381612c47565b9050919050565b7f4e487b7100000000000000000000000000000000000000000000000000000000600052601160045260246000fd5b6000612cc482611dd3565b9150612ccf83611dd3565b9250828203905081811115612ce757612ce6612c8a565b5b92915050565b6000612cf882611dd3565b9150612d0383611dd3565b9250828201905080821115612d1b57612d1a612c8a565b5b92915050565b600081519050919050565b600082825260208201905092915050565b6000612d4882612d21565b612d528185612d2c565b9350612d62818560208601611d3d565b612d6b81611d67565b840191505092915050565b6000608082019050612d8b6000830187611e68565b612d986020830186611e68565b612da56040830185611f7e565b8181036060830152612db78184612d3d565b905095945050505050565b600081519050612dd181611c92565b92915050565b600060208284031215612ded57612dec611c5c565b5b6000612dfb84828501612dc2565b91505092915050565b7f4e487b7100000000000000000000000000000000000000000000000000000000600052601260045260246000fd5b7f4552433732313a206d696e7420746f20746865207a65726f2061646472657373600082015250565b6000612e69602083611d2c565b9150612e7482612e33565b602082019050919050565b60006020820190508181036000830152612e9881612e5c565b9050919050565b7f4552433732313a20746f6b656e20616c7265616479206d696e74656400000000600082015250565b6000612ed5601c83611d2c565b9150612ee082612e9f565b602082019050919050565b60006020820190508181036000830152612f0481612ec8565b905091905056fea264697066735822122053258676b14f5552e51cd1cac6143047733aec96b150b858db03d40febaaff3c64736f6c63430008110033a2646970667358221220350e5bae33ad6793b5b8200fc3f44616a2dbbb7e042641e1d273bfa976b883c564736f6c63430008110033",
  "immutableReferences": {},
  "source": "// SPDX-License-Identifier: MIT\npragma solidity 0.8.17;\n\nimport \"./CarBlocks.sol\";\n\n/// @title The CarBlocksFactory Smart Contract\n/// @author Quentin COLLETTE & Maxime LESBROS\n/// @notice Smart Contract allowing to create & manage Carblocks NFT collections\n/// @dev Stay away from this or you're facing sleep deprivation\ncontract CarBlocksFactory {\n    address[] public carblocksCollection;\n    event CarblocksCollectionCreated(\n        address contractAddress,\n        string name,\n        string symbol,\n        string energyType\n    );\n\n    function createCarblocksCollection(\n        string calldata _name,\n        string calldata _symbol,\n        string calldata _energyType\n    ) external returns (CarBlocks) {\n        CarBlocks carblocks = new CarBlocks(_name, _symbol, _energyType);\n        carblocksCollection.push(address(carblocks));\n\n        emit CarblocksCollectionCreated(\n            address(carblocks),\n            _name,\n            _symbol,\n            _energyType\n        );\n\n        return carblocks;\n    }\n}\n",
  "sourcePath": "/Users/quentin/Documents/Alyra/projects/CarBlocks/truffle/contracts/CarBlocksFactory.sol",
  "compiler": {
    "name": "solc",
    "version": "0.8.17+commit.8df45f5f.Emscripten.clang"
  },
  "schemaVersion": "3.4.10",
  "updatedAt": "2022-12-08T09:13:31.489Z",
  "networkType": "ethereum",
  "devdoc": {
    "author": "Quentin COLLETTE & Maxime LESBROS",
    "details": "Stay away from this or you're facing sleep deprivation",
    "kind": "dev",
    "methods": {},
    "title": "The CarBlocksFactory Smart Contract",
    "version": 1
  },
  "userdoc": {
    "kind": "user",
    "methods": {},
    "notice": "Smart Contract allowing to create & manage Carblocks NFT collections",
    "version": 1
  }
}