{
  "contractName": "CarBlocks",
  "abi": [
    {
      "inputs": [
        {
          "internalType": "string",
          "name": "_energyType",
          "type": "string"
        }
      ],
      "stateMutability": "nonpayable",
      "type": "constructor"
    },
    {
      "anonymous": false,
      "inputs": [
        {
          "indexed": true,
          "internalType": "address",
          "name": "owner",
          "type": "address"
        },
        {
          "indexed": true,
          "internalType": "address",
          "name": "approved",
          "type": "address"
        },
        {
          "indexed": true,
          "internalType": "uint256",
          "name": "tokenId",
          "type": "uint256"
        }
      ],
      "name": "Approval",
      "type": "event"
    },
    {
      "anonymous": false,
      "inputs": [
        {
          "indexed": true,
          "internalType": "address",
          "name": "owner",
          "type": "address"
        },
        {
          "indexed": true,
          "internalType": "address",
          "name": "operator",
          "type": "address"
        },
        {
          "indexed": false,
          "internalType": "bool",
          "name": "approved",
          "type": "bool"
        }
      ],
      "name": "ApprovalForAll",
      "type": "event"
    },
    {
      "anonymous": false,
      "inputs": [
        {
          "indexed": true,
          "internalType": "address",
          "name": "from",
          "type": "address"
        },
        {
          "indexed": true,
          "internalType": "address",
          "name": "to",
          "type": "address"
        },
        {
          "indexed": true,
          "internalType": "uint256",
          "name": "tokenId",
          "type": "uint256"
        }
      ],
      "name": "Transfer",
      "type": "event"
    },
    {
      "inputs": [
        {
          "internalType": "address",
          "name": "to",
          "type": "address"
        },
        {
          "internalType": "uint256",
          "name": "tokenId",
          "type": "uint256"
        }
      ],
      "name": "approve",
      "outputs": [],
      "stateMutability": "nonpayable",
      "type": "function"
    },
    {
      "inputs": [
        {
          "internalType": "address",
          "name": "owner",
          "type": "address"
        }
      ],
      "name": "balanceOf",
      "outputs": [
        {
          "internalType": "uint256",
          "name": "",
          "type": "uint256"
        }
      ],
      "stateMutability": "view",
      "type": "function",
      "constant": true
    },
    {
      "inputs": [],
      "name": "energyType",
      "outputs": [
        {
          "internalType": "string",
          "name": "",
          "type": "string"
        }
      ],
      "stateMutability": "view",
      "type": "function",
      "constant": true
    },
    {
      "inputs": [
        {
          "internalType": "uint256",
          "name": "tokenId",
          "type": "uint256"
        }
      ],
      "name": "getApproved",
      "outputs": [
        {
          "internalType": "address",
          "name": "",
          "type": "address"
        }
      ],
      "stateMutability": "view",
      "type": "function",
      "constant": true
    },
    {
      "inputs": [
        {
          "internalType": "address",
          "name": "owner",
          "type": "address"
        },
        {
          "internalType": "address",
          "name": "operator",
          "type": "address"
        }
      ],
      "name": "isApprovedForAll",
      "outputs": [
        {
          "internalType": "bool",
          "name": "",
          "type": "bool"
        }
      ],
      "stateMutability": "view",
      "type": "function",
      "constant": true
    },
    {
      "inputs": [],
      "name": "name",
      "outputs": [
        {
          "internalType": "string",
          "name": "",
          "type": "string"
        }
      ],
      "stateMutability": "view",
      "type": "function",
      "constant": true
    },
    {
      "inputs": [
        {
          "internalType": "uint256",
          "name": "tokenId",
          "type": "uint256"
        }
      ],
      "name": "ownerOf",
      "outputs": [
        {
          "internalType": "address",
          "name": "",
          "type": "address"
        }
      ],
      "stateMutability": "view",
      "type": "function",
      "constant": true
    },
    {
      "inputs": [
        {
          "internalType": "address",
          "name": "from",
          "type": "address"
        },
        {
          "internalType": "address",
          "name": "to",
          "type": "address"
        },
        {
          "internalType": "uint256",
          "name": "tokenId",
          "type": "uint256"
        }
      ],
      "name": "safeTransferFrom",
      "outputs": [],
      "stateMutability": "nonpayable",
      "type": "function"
    },
    {
      "inputs": [
        {
          "internalType": "address",
          "name": "from",
          "type": "address"
        },
        {
          "internalType": "address",
          "name": "to",
          "type": "address"
        },
        {
          "internalType": "uint256",
          "name": "tokenId",
          "type": "uint256"
        },
        {
          "internalType": "bytes",
          "name": "data",
          "type": "bytes"
        }
      ],
      "name": "safeTransferFrom",
      "outputs": [],
      "stateMutability": "nonpayable",
      "type": "function"
    },
    {
      "inputs": [
        {
          "internalType": "address",
          "name": "operator",
          "type": "address"
        },
        {
          "internalType": "bool",
          "name": "approved",
          "type": "bool"
        }
      ],
      "name": "setApprovalForAll",
      "outputs": [],
      "stateMutability": "nonpayable",
      "type": "function"
    },
    {
      "inputs": [
        {
          "internalType": "bytes4",
          "name": "interfaceId",
          "type": "bytes4"
        }
      ],
      "name": "supportsInterface",
      "outputs": [
        {
          "internalType": "bool",
          "name": "",
          "type": "bool"
        }
      ],
      "stateMutability": "view",
      "type": "function",
      "constant": true
    },
    {
      "inputs": [],
      "name": "symbol",
      "outputs": [
        {
          "internalType": "string",
          "name": "",
          "type": "string"
        }
      ],
      "stateMutability": "view",
      "type": "function",
      "constant": true
    },
    {
      "inputs": [
        {
          "internalType": "uint256",
          "name": "tokenId",
          "type": "uint256"
        }
      ],
      "name": "tokenURI",
      "outputs": [
        {
          "internalType": "string",
          "name": "",
          "type": "string"
        }
      ],
      "stateMutability": "view",
      "type": "function",
      "constant": true
    },
    {
      "inputs": [
        {
          "internalType": "address",
          "name": "from",
          "type": "address"
        },
        {
          "internalType": "address",
          "name": "to",
          "type": "address"
        },
        {
          "internalType": "uint256",
          "name": "tokenId",
          "type": "uint256"
        }
      ],
      "name": "transferFrom",
      "outputs": [],
      "stateMutability": "nonpayable",
      "type": "function"
    },
    {
      "inputs": [
        {
          "internalType": "address",
          "name": "",
          "type": "address"
        },
        {
          "internalType": "uint256",
          "name": "",
          "type": "uint256"
        }
      ],
      "name": "users",
      "outputs": [
        {
          "internalType": "uint256",
          "name": "",
          "type": "uint256"
        }
      ],
      "stateMutability": "view",
      "type": "function",
      "constant": true
    },
    {
      "inputs": [
        {
          "internalType": "uint256",
          "name": "_tokenId",
          "type": "uint256"
        }
      ],
      "name": "getCarblock",
      "outputs": [
        {
          "components": [
            {
              "internalType": "enum CarBlocks.CarState",
              "name": "carState",
              "type": "uint8"
            },
            {
              "components": [
                {
                  "internalType": "uint256",
                  "name": "circulationStartDate",
                  "type": "uint256"
                },
                {
                  "internalType": "string",
                  "name": "VIN",
                  "type": "string"
                },
                {
                  "internalType": "string",
                  "name": "brand",
                  "type": "string"
                },
                {
                  "internalType": "string",
                  "name": "model",
                  "type": "string"
                }
              ],
              "internalType": "struct CarBlocks.Car",
              "name": "car",
              "type": "tuple"
            },
            {
              "internalType": "uint256",
              "name": "price",
              "type": "uint256"
            },
            {
              "internalType": "bool",
              "name": "isForSale",
              "type": "bool"
            }
          ],
          "internalType": "struct CarBlocks.Carblock",
          "name": "",
          "type": "tuple"
        }
      ],
      "stateMutability": "view",
      "type": "function",
      "constant": true
    },
    {
      "inputs": [],
      "name": "getCarblocks",
      "outputs": [
        {
          "components": [
            {
              "internalType": "enum CarBlocks.CarState",
              "name": "carState",
              "type": "uint8"
            },
            {
              "components": [
                {
                  "internalType": "uint256",
                  "name": "circulationStartDate",
                  "type": "uint256"
                },
                {
                  "internalType": "string",
                  "name": "VIN",
                  "type": "string"
                },
                {
                  "internalType": "string",
                  "name": "brand",
                  "type": "string"
                },
                {
                  "internalType": "string",
                  "name": "model",
                  "type": "string"
                }
              ],
              "internalType": "struct CarBlocks.Car",
              "name": "car",
              "type": "tuple"
            },
            {
              "internalType": "uint256",
              "name": "price",
              "type": "uint256"
            },
            {
              "internalType": "bool",
              "name": "isForSale",
              "type": "bool"
            }
          ],
          "internalType": "struct CarBlocks.Carblock[]",
          "name": "",
          "type": "tuple[]"
        }
      ],
      "stateMutability": "view",
      "type": "function",
      "constant": true
    },
    {
      "inputs": [],
      "name": "getCarblocksForSale",
      "outputs": [
        {
          "components": [
            {
              "internalType": "enum CarBlocks.CarState",
              "name": "carState",
              "type": "uint8"
            },
            {
              "components": [
                {
                  "internalType": "uint256",
                  "name": "circulationStartDate",
                  "type": "uint256"
                },
                {
                  "internalType": "string",
                  "name": "VIN",
                  "type": "string"
                },
                {
                  "internalType": "string",
                  "name": "brand",
                  "type": "string"
                },
                {
                  "internalType": "string",
                  "name": "model",
                  "type": "string"
                }
              ],
              "internalType": "struct CarBlocks.Car",
              "name": "car",
              "type": "tuple"
            },
            {
              "internalType": "uint256",
              "name": "price",
              "type": "uint256"
            },
            {
              "internalType": "bool",
              "name": "isForSale",
              "type": "bool"
            }
          ],
          "internalType": "struct CarBlocks.Carblock[]",
          "name": "",
          "type": "tuple[]"
        }
      ],
      "stateMutability": "view",
      "type": "function",
      "constant": true
    },
    {
      "inputs": [
        {
          "internalType": "uint256",
          "name": "_tokenId",
          "type": "uint256"
        },
        {
          "internalType": "uint256",
          "name": "_price",
          "type": "uint256"
        }
      ],
      "name": "setPrice",
      "outputs": [],
      "stateMutability": "nonpayable",
      "type": "function"
    },
    {
      "inputs": [
        {
          "internalType": "uint256",
          "name": "_tokenId",
          "type": "uint256"
        },
        {
          "internalType": "uint256",
          "name": "_date",
          "type": "uint256"
        },
        {
          "internalType": "enum CarBlocks.MaintenanceType",
          "name": "_mType",
          "type": "uint8"
        },
        {
          "internalType": "uint256",
          "name": "_kilometers",
          "type": "uint256"
        },
        {
          "internalType": "string",
          "name": "_maintenanceURI",
          "type": "string"
        }
      ],
      "name": "addMaintenance",
      "outputs": [],
      "stateMutability": "nonpayable",
      "type": "function"
    },
    {
      "inputs": [
        {
          "internalType": "uint256",
          "name": "_tokenId",
          "type": "uint256"
        }
      ],
      "name": "getMaintenances",
      "outputs": [
        {
          "components": [
            {
              "internalType": "uint256",
              "name": "date",
              "type": "uint256"
            },
            {
              "internalType": "uint256",
              "name": "kilometers",
              "type": "uint256"
            },
            {
              "internalType": "enum CarBlocks.MaintenanceType",
              "name": "mType",
              "type": "uint8"
            },
            {
              "internalType": "string",
              "name": "maintenanceURI",
              "type": "string"
            }
          ],
          "internalType": "struct CarBlocks.Maintenance[]",
          "name": "",
          "type": "tuple[]"
        }
      ],
      "stateMutability": "view",
      "type": "function",
      "constant": true
    },
    {
      "inputs": [
        {
          "internalType": "address",
          "name": "_user",
          "type": "address"
        },
        {
          "internalType": "uint256",
          "name": "_circulationStartDate",
          "type": "uint256"
        },
        {
          "internalType": "string[]",
          "name": "_vInfo",
          "type": "string[]"
        },
        {
          "internalType": "enum CarBlocks.CarState",
          "name": "_state",
          "type": "uint8"
        },
        {
          "internalType": "bool",
          "name": "_isForSale",
          "type": "bool"
        }
      ],
      "name": "mintCarblock",
      "outputs": [
        {
          "internalType": "uint256",
          "name": "",
          "type": "uint256"
        }
      ],
      "stateMutability": "nonpayable",
      "type": "function"
    },
    {
      "inputs": [
        {
          "internalType": "address",
          "name": "_to",
          "type": "address"
        },
        {
          "internalType": "uint256",
          "name": "_tokenId",
          "type": "uint256"
        },
        {
          "internalType": "bytes",
          "name": "_data",
          "type": "bytes"
        }
      ],
      "name": "transferCarblockNFT",
      "outputs": [],
      "stateMutability": "payable",
      "type": "function",
      "payable": true
    }
  ],
  "bytecode": "0x60806040523480156200001157600080fd5b50604051620053f7380380620053f7833981810160405281019062000037919062000275565b6040518060400160405280600881526020017f436172426c6f636b0000000000000000000000000000000000000000000000008152506040518060400160405280600381526020017f43424b00000000000000000000000000000000000000000000000000000000008152508160009081620000b4919062000511565b508060019081620000c6919062000511565b5050508060089081620000da919062000511565b5050620005f8565b6000604051905090565b600080fd5b600080fd5b600080fd5b600080fd5b6000601f19601f8301169050919050565b7f4e487b7100000000000000000000000000000000000000000000000000000000600052604160045260246000fd5b6200014b8262000100565b810181811067ffffffffffffffff821117156200016d576200016c62000111565b5b80604052505050565b600062000182620000e2565b905062000190828262000140565b919050565b600067ffffffffffffffff821115620001b357620001b262000111565b5b620001be8262000100565b9050602081019050919050565b60005b83811015620001eb578082015181840152602081019050620001ce565b60008484015250505050565b60006200020e620002088462000195565b62000176565b9050828152602081018484840111156200022d576200022c620000fb565b5b6200023a848285620001cb565b509392505050565b600082601f8301126200025a5762000259620000f6565b5b81516200026c848260208601620001f7565b91505092915050565b6000602082840312156200028e576200028d620000ec565b5b600082015167ffffffffffffffff811115620002af57620002ae620000f1565b5b620002bd8482850162000242565b91505092915050565b600081519050919050565b7f4e487b7100000000000000000000000000000000000000000000000000000000600052602260045260246000fd5b600060028204905060018216806200031957607f821691505b6020821081036200032f576200032e620002d1565b5b50919050565b60008190508160005260206000209050919050565b60006020601f8301049050919050565b600082821b905092915050565b600060088302620003997fffffffffffffffffffffffffffffffffffffffffffffffffffffffffffffffff826200035a565b620003a586836200035a565b95508019841693508086168417925050509392505050565b6000819050919050565b6000819050919050565b6000620003f2620003ec620003e684620003bd565b620003c7565b620003bd565b9050919050565b6000819050919050565b6200040e83620003d1565b620004266200041d82620003f9565b84845462000367565b825550505050565b600090565b6200043d6200042e565b6200044a81848462000403565b505050565b5b8181101562000472576200046660008262000433565b60018101905062000450565b5050565b601f821115620004c1576200048b8162000335565b62000496846200034a565b81016020851015620004a6578190505b620004be620004b5856200034a565b8301826200044f565b50505b505050565b600082821c905092915050565b6000620004e660001984600802620004c6565b1980831691505092915050565b6000620005018383620004d3565b9150826002028217905092915050565b6200051c82620002c6565b67ffffffffffffffff81111562000538576200053762000111565b5b62000544825462000300565b6200055182828562000476565b600060209050601f83116001811462000589576000841562000574578287015190505b620005808582620004f3565b865550620005f0565b601f198416620005998662000335565b60005b82811015620005c3578489015182556001820191506020850194506020810190506200059c565b86831015620005e35784890151620005df601f891682620004d3565b8355505b6001600288020188555050505b505050505050565b614def80620006086000396000f3fe6080604052600436106101405760003560e01c806370a08231116100b6578063b88d4fde1161006f578063b88d4fde146104a6578063c87b56dd146104cf578063e985e9c51461050c578063ead06c9414610549578063eff2ef7b14610565578063f7d975771461059057610140565b806370a08231146103705780638d16a795146103ad57806395d89b41146103d8578063a148170914610403578063a22cb46514610440578063a82379011461046957610140565b8063095ea7b311610108578063095ea7b31461025057806323b872dd1461027957806342842e0e146102a257806350c9496a146102cb57806354a02f9e146102f65780636352211e1461033357610140565b806301ffc9a714610145578063056040261461018257806306fdde03146101ab57806307dd094f146101d6578063081812fc14610213575b600080fd5b34801561015157600080fd5b5061016c60048036038101906101679190613405565b6105b9565b604051610179919061344d565b60405180910390f35b34801561018e57600080fd5b506101a960048036038101906101a49190613528565b61069b565b005b3480156101b757600080fd5b506101c0610831565b6040516101cd9190613652565b60405180910390f35b3480156101e257600080fd5b506101fd60048036038101906101f89190613779565b6108c3565b60405161020a9190613822565b60405180910390f35b34801561021f57600080fd5b5061023a6004803603810190610235919061383d565b610c3f565b6040516102479190613879565b60405180910390f35b34801561025c57600080fd5b5061027760048036038101906102729190613894565b610c85565b005b34801561028557600080fd5b506102a0600480360381019061029b91906138d4565b610d9c565b005b3480156102ae57600080fd5b506102c960048036038101906102c491906138d4565b610dfc565b005b3480156102d757600080fd5b506102e0610e1c565b6040516102ed9190613652565b60405180910390f35b34801561030257600080fd5b5061031d60048036038101906103189190613894565b610eaa565b60405161032a9190613822565b60405180910390f35b34801561033f57600080fd5b5061035a6004803603810190610355919061383d565b610edb565b6040516103679190613879565b60405180910390f35b34801561037c57600080fd5b5061039760048036038101906103929190613927565b610f61565b6040516103a49190613822565b60405180910390f35b3480156103b957600080fd5b506103c2611018565b6040516103cf9190613bc9565b60405180910390f35b3480156103e457600080fd5b506103ed611374565b6040516103fa9190613652565b60405180910390f35b34801561040f57600080fd5b5061042a6004803603810190610425919061383d565b611406565b6040516104379190613c4e565b60405180910390f35b34801561044c57600080fd5b5061046760048036038101906104629190613c70565b611701565b005b34801561047557600080fd5b50610490600480360381019061048b919061383d565b611717565b60405161049d9190613e1d565b60405180910390f35b3480156104b257600080fd5b506104cd60048036038101906104c89190613f6f565b6118e9565b005b3480156104db57600080fd5b506104f660048036038101906104f1919061383d565b61194b565b6040516105039190613652565b60405180910390f35b34801561051857600080fd5b50610533600480360381019061052e9190613ff2565b611a5d565b604051610540919061344d565b60405180910390f35b610563600480360381019061055e9190614032565b611af1565b005b34801561057157600080fd5b5061057a611e3a565b6040516105879190613bc9565b60405180910390f35b34801561059c57600080fd5b506105b760048036038101906105b291906140a1565b612225565b005b60007f80ac58cd000000000000000000000000000000000000000000000000000000007bffffffffffffffffffffffffffffffffffffffffffffffffffffffff1916827bffffffffffffffffffffffffffffffffffffffffffffffffffffffff1916148061068457507f5b5e139f000000000000000000000000000000000000000000000000000000007bffffffffffffffffffffffffffffffffffffffffffffffffffffffff1916827bffffffffffffffffffffffffffffffffffffffffffffffffffffffff1916145b806106945750610693826122de565b5b9050919050565b856106a581610edb565b73ffffffffffffffffffffffffffffffffffffffff166106c3612348565b73ffffffffffffffffffffffffffffffffffffffff1614610719576040517f08c379a000000000000000000000000000000000000000000000000000000000815260040161071090614153565b60405180910390fd5b600b6000888152602001908152602001600020604051806080016040528088815260200186815260200187600381111561075657610755613980565b5b815260200185858080601f016020809104026020016040519081016040528093929190818152602001838380828437600081840152601f19601f820116905080830192505050505050508152509080600181540180825580915050600190039060005260206000209060040201600090919091909150600082015181600001556020820151816001015560408201518160020160006101000a81548160ff0219169083600381111561080b5761080a613980565b5b02179055506060820151816003019081610825919061437f565b50505050505050505050565b606060008054610840906141a2565b80601f016020809104026020016040519081016040528092919081815260200182805461086c906141a2565b80156108b95780601f1061088e576101008083540402835291602001916108b9565b820191906000526020600020905b81548152906001019060200180831161089c57829003601f168201915b5050505050905090565b60006108cf6007612350565b60006040518060800160405280888152602001878760008181106108f6576108f5614451565b5b9050602002810190610908919061448f565b8080601f016020809104026020016040519081016040528093929190818152602001838380828437600081840152601f19601f8201169050808301925050505050505081526020018787600181811061096457610963614451565b5b9050602002810190610976919061448f565b8080601f016020809104026020016040519081016040528093929190818152602001838380828437600081840152601f19601f820116905080830192505050505050508152602001878760028181106109d2576109d1614451565b5b90506020028101906109e4919061448f565b8080601f016020809104026020016040519081016040528093929190818152602001838380828437600081840152601f19601f82011690508083019250505050505050815250905060096040518060800160405280866002811115610a4c57610a4b613980565b5b815260200183815260200160008152602001851515815250908060018154018082558091505060019003906000526020600020906007020160009091909190915060008201518160000160006101000a81548160ff02191690836002811115610ab857610ab7613980565b5b0217905550602082015181600101600082015181600001556020820151816001019081610ae5919061437f565b506040820151816002019081610afb919061437f565b506060820151816003019081610b11919061437f565b5050506040820151816005015560608201518160060160006101000a81548160ff02191690831515021790555050506000610b4c6007612366565b9050610b588982612374565b610bca8188886003818110610b7057610b6f614451565b5b9050602002810190610b82919061448f565b8080601f016020809104026020016040519081016040528093929190818152602001838380828437600081840152601f19601f82011690508083019250505050505050612392565b600a60008a73ffffffffffffffffffffffffffffffffffffffff1673ffffffffffffffffffffffffffffffffffffffff16815260200190815260200160002081908060018154018082558091505060019003906000526020600020016000909190919091505580925050509695505050505050565b6000610c4a826123ff565b6004600083815260200190815260200160002060009054906101000a900473ffffffffffffffffffffffffffffffffffffffff169050919050565b6000610c9082610edb565b90508073ffffffffffffffffffffffffffffffffffffffff168373ffffffffffffffffffffffffffffffffffffffff1603610d00576040517f08c379a0000000000000000000000000000000000000000000000000000000008152600401610cf790614564565b60405180910390fd5b8073ffffffffffffffffffffffffffffffffffffffff16610d1f612348565b73ffffffffffffffffffffffffffffffffffffffff161480610d4e5750610d4d81610d48612348565b611a5d565b5b610d8d576040517f08c379a0000000000000000000000000000000000000000000000000000000008152600401610d84906145f6565b60405180910390fd5b610d97838361244a565b505050565b610dad610da7612348565b82612503565b610dec576040517f08c379a0000000000000000000000000000000000000000000000000000000008152600401610de390614688565b60405180910390fd5b610df7838383612598565b505050565b610e17838383604051806020016040528060008152506118e9565b505050565b60088054610e29906141a2565b80601f0160208091040260200160405190810160405280929190818152602001828054610e55906141a2565b8015610ea25780601f10610e7757610100808354040283529160200191610ea2565b820191906000526020600020905b815481529060010190602001808311610e8557829003601f168201915b505050505081565b600a6020528160005260406000208181548110610ec657600080fd5b90600052602060002001600091509150505481565b600080610ee783612891565b9050600073ffffffffffffffffffffffffffffffffffffffff168173ffffffffffffffffffffffffffffffffffffffff1603610f58576040517f08c379a0000000000000000000000000000000000000000000000000000000008152600401610f4f906146f4565b60405180910390fd5b80915050919050565b60008073ffffffffffffffffffffffffffffffffffffffff168273ffffffffffffffffffffffffffffffffffffffff1603610fd1576040517f08c379a0000000000000000000000000000000000000000000000000000000008152600401610fc890614786565b60405180910390fd5b600360008373ffffffffffffffffffffffffffffffffffffffff1673ffffffffffffffffffffffffffffffffffffffff168152602001908152602001600020549050919050565b6060600060098054905067ffffffffffffffff81111561103b5761103a613e44565b5b60405190808252806020026020018201604052801561107457816020015b6110616132c5565b8152602001906001900390816110595790505b509050600080600090505b60098054905081101561136b5760011515600982815481106110a4576110a3614451565b5b906000526020600020906007020160060160009054906101000a900460ff1615150361135857600981815481106110de576110dd614451565b5b90600052602060002090600702016040518060800160405290816000820160009054906101000a900460ff16600281111561111c5761111b613980565b5b600281111561112e5761112d613980565b5b8152602001600182016040518060800160405290816000820154815260200160018201805461115c906141a2565b80601f0160208091040260200160405190810160405280929190818152602001828054611188906141a2565b80156111d55780601f106111aa576101008083540402835291602001916111d5565b820191906000526020600020905b8154815290600101906020018083116111b857829003601f168201915b505050505081526020016002820180546111ee906141a2565b80601f016020809104026020016040519081016040528092919081815260200182805461121a906141a2565b80156112675780601f1061123c57610100808354040283529160200191611267565b820191906000526020600020905b81548152906001019060200180831161124a57829003601f168201915b50505050508152602001600382018054611280906141a2565b80601f01602080910402602001604051908101604052809291908181526020018280546112ac906141a2565b80156112f95780601f106112ce576101008083540402835291602001916112f9565b820191906000526020600020905b8154815290600101906020018083116112dc57829003601f168201915b5050505050815250508152602001600582015481526020016006820160009054906101000a900460ff16151515158152505083838151811061133e5761133d614451565b5b60200260200101819052508180611354906147d5565b9250505b8080611363906147d5565b91505061107f565b50819250505090565b606060018054611383906141a2565b80601f01602080910402602001604051908101604052809291908181526020018280546113af906141a2565b80156113fc5780601f106113d1576101008083540402835291602001916113fc565b820191906000526020600020905b8154815290600101906020018083116113df57829003601f168201915b5050505050905090565b61140e6132c5565b8161141881610edb565b73ffffffffffffffffffffffffffffffffffffffff16611436612348565b73ffffffffffffffffffffffffffffffffffffffff161461148c576040517f08c379a000000000000000000000000000000000000000000000000000000000815260040161148390614153565b60405180910390fd5b600960018461149b919061481d565b815481106114ac576114ab614451565b5b90600052602060002090600702016040518060800160405290816000820160009054906101000a900460ff1660028111156114ea576114e9613980565b5b60028111156114fc576114fb613980565b5b8152602001600182016040518060800160405290816000820154815260200160018201805461152a906141a2565b80601f0160208091040260200160405190810160405280929190818152602001828054611556906141a2565b80156115a35780601f10611578576101008083540402835291602001916115a3565b820191906000526020600020905b81548152906001019060200180831161158657829003601f168201915b505050505081526020016002820180546115bc906141a2565b80601f01602080910402602001604051908101604052809291908181526020018280546115e8906141a2565b80156116355780601f1061160a57610100808354040283529160200191611635565b820191906000526020600020905b81548152906001019060200180831161161857829003601f168201915b5050505050815260200160038201805461164e906141a2565b80601f016020809104026020016040519081016040528092919081815260200182805461167a906141a2565b80156116c75780601f1061169c576101008083540402835291602001916116c7565b820191906000526020600020905b8154815290600101906020018083116116aa57829003601f168201915b5050505050815250508152602001600582015481526020016006820160009054906101000a900460ff161515151581525050915050919050565b61171361170c612348565b83836128ce565b5050565b60608161172381610edb565b73ffffffffffffffffffffffffffffffffffffffff16611741612348565b73ffffffffffffffffffffffffffffffffffffffff1614611797576040517f08c379a000000000000000000000000000000000000000000000000000000000815260040161178e90614153565b60405180910390fd5b600b6000848152602001908152602001600020805480602002602001604051908101604052809291908181526020016000905b828210156118dd578382906000526020600020906004020160405180608001604052908160008201548152602001600182015481526020016002820160009054906101000a900460ff16600381111561182657611825613980565b5b600381111561183857611837613980565b5b815260200160038201805461184c906141a2565b80601f0160208091040260200160405190810160405280929190818152602001828054611878906141a2565b80156118c55780601f1061189a576101008083540402835291602001916118c5565b820191906000526020600020905b8154815290600101906020018083116118a857829003601f168201915b505050505081525050815260200190600101906117ca565b50505050915050919050565b6118fa6118f4612348565b83612503565b611939576040517f08c379a000000000000000000000000000000000000000000000000000000000815260040161193090614688565b60405180910390fd5b61194584848484612a3a565b50505050565b6060611956826123ff565b6000600660008481526020019081526020016000208054611976906141a2565b80601f01602080910402602001604051908101604052809291908181526020018280546119a2906141a2565b80156119ef5780601f106119c4576101008083540402835291602001916119ef565b820191906000526020600020905b8154815290600101906020018083116119d257829003601f168201915b505050505090506000611a00612a96565b90506000815103611a15578192505050611a58565b600082511115611a4a578082604051602001611a3292919061488d565b60405160208183030381529060405292505050611a58565b611a5384612aad565b925050505b919050565b6000600560008473ffffffffffffffffffffffffffffffffffffffff1673ffffffffffffffffffffffffffffffffffffffff16815260200190815260200160002060008373ffffffffffffffffffffffffffffffffffffffff1673ffffffffffffffffffffffffffffffffffffffff16815260200190815260200160002060009054906101000a900460ff16905092915050565b81611afb81610edb565b73ffffffffffffffffffffffffffffffffffffffff16611b19612348565b73ffffffffffffffffffffffffffffffffffffffff1614611b6f576040517f08c379a0000000000000000000000000000000000000000000000000000000008152600401611b6690614153565b60405180910390fd5b6000611b79612348565b9050611b8781868686612a3a565b60006001600a60008473ffffffffffffffffffffffffffffffffffffffff1673ffffffffffffffffffffffffffffffffffffffff16815260200190815260200160002080549050611bd8919061481d565b67ffffffffffffffff811115611bf157611bf0613e44565b5b604051908082528060200260200182016040528015611c1f5781602001602082028036833780820191505090505b509050600080600090505b600a60008573ffffffffffffffffffffffffffffffffffffffff1673ffffffffffffffffffffffffffffffffffffffff16815260200190815260200160002080549050811015611d765786600a60008673ffffffffffffffffffffffffffffffffffffffff1673ffffffffffffffffffffffffffffffffffffffff1681526020019081526020016000208281548110611cc657611cc5614451565b5b906000526020600020015414611d5557600a60008573ffffffffffffffffffffffffffffffffffffffff1673ffffffffffffffffffffffffffffffffffffffff1681526020019081526020016000208181548110611d2757611d26614451565b5b9060005260206000200154838360ff1681518110611d4857611d47614451565b5b6020026020010181815250505b8180611d60906148be565b9250508080611d6e906147d5565b915050611c2a565b5081600a60008573ffffffffffffffffffffffffffffffffffffffff1673ffffffffffffffffffffffffffffffffffffffff1681526020019081526020016000209080519060200190611dca929190613307565b50600a60008873ffffffffffffffffffffffffffffffffffffffff1673ffffffffffffffffffffffffffffffffffffffff16815260200190815260200160002086908060018154018082558091505060019003906000526020600020016000909190919091505550505050505050565b60606000611e46612348565b90506000600a60008373ffffffffffffffffffffffffffffffffffffffff1673ffffffffffffffffffffffffffffffffffffffff1681526020019081526020016000208054905067ffffffffffffffff811115611ea657611ea5613e44565b5b604051908082528060200260200182016040528015611edf57816020015b611ecc6132c5565b815260200190600190039081611ec45790505b50905060005b600a60008473ffffffffffffffffffffffffffffffffffffffff1673ffffffffffffffffffffffffffffffffffffffff1681526020019081526020016000208054905081101561221c576009600a60008573ffffffffffffffffffffffffffffffffffffffff1673ffffffffffffffffffffffffffffffffffffffff1681526020019081526020016000208281548110611f8257611f81614451565b5b906000526020600020015481548110611f9e57611f9d614451565b5b90600052602060002090600702016040518060800160405290816000820160009054906101000a900460ff166002811115611fdc57611fdb613980565b5b6002811115611fee57611fed613980565b5b8152602001600182016040518060800160405290816000820154815260200160018201805461201c906141a2565b80601f0160208091040260200160405190810160405280929190818152602001828054612048906141a2565b80156120955780601f1061206a57610100808354040283529160200191612095565b820191906000526020600020905b81548152906001019060200180831161207857829003601f168201915b505050505081526020016002820180546120ae906141a2565b80601f01602080910402602001604051908101604052809291908181526020018280546120da906141a2565b80156121275780601f106120fc57610100808354040283529160200191612127565b820191906000526020600020905b81548152906001019060200180831161210a57829003601f168201915b50505050508152602001600382018054612140906141a2565b80601f016020809104026020016040519081016040528092919081815260200182805461216c906141a2565b80156121b95780601f1061218e576101008083540402835291602001916121b9565b820191906000526020600020905b81548152906001019060200180831161219c57829003601f168201915b5050505050815250508152602001600582015481526020016006820160009054906101000a900460ff1615151515815250508282815181106121fe576121fd614451565b5b60200260200101819052508080612214906147d5565b915050611ee5565b50809250505090565b8161222f81610edb565b73ffffffffffffffffffffffffffffffffffffffff1661224d612348565b73ffffffffffffffffffffffffffffffffffffffff16146122a3576040517f08c379a000000000000000000000000000000000000000000000000000000000815260040161229a90614153565b60405180910390fd5b8160096001856122b3919061481d565b815481106122c4576122c3614451565b5b906000526020600020906007020160050181905550505050565b60007f01ffc9a7000000000000000000000000000000000000000000000000000000007bffffffffffffffffffffffffffffffffffffffffffffffffffffffff1916827bffffffffffffffffffffffffffffffffffffffffffffffffffffffff1916149050919050565b600033905090565b6001816000016000828254019250508190555050565b600081600001549050919050565b61238e828260405180602001604052806000815250612b15565b5050565b61239b82612b70565b6123da576040517f08c379a00000000000000000000000000000000000000000000000000000000081526004016123d190614959565b60405180910390fd5b806006600084815260200190815260200160002090816123fa919061437f565b505050565b61240881612b70565b612447576040517f08c379a000000000000000000000000000000000000000000000000000000000815260040161243e906146f4565b60405180910390fd5b50565b816004600083815260200190815260200160002060006101000a81548173ffffffffffffffffffffffffffffffffffffffff021916908373ffffffffffffffffffffffffffffffffffffffff160217905550808273ffffffffffffffffffffffffffffffffffffffff166124bd83610edb565b73ffffffffffffffffffffffffffffffffffffffff167f8c5be1e5ebec7d5bd14f71427d1e84f3dd0314c0f7b2291e5b200ac8c7c3b92560405160405180910390a45050565b60008061250f83610edb565b90508073ffffffffffffffffffffffffffffffffffffffff168473ffffffffffffffffffffffffffffffffffffffff16148061255157506125508185611a5d565b5b8061258f57508373ffffffffffffffffffffffffffffffffffffffff1661257784610c3f565b73ffffffffffffffffffffffffffffffffffffffff16145b91505092915050565b8273ffffffffffffffffffffffffffffffffffffffff166125b882610edb565b73ffffffffffffffffffffffffffffffffffffffff161461260e576040517f08c379a0000000000000000000000000000000000000000000000000000000008152600401612605906149eb565b60405180910390fd5b600073ffffffffffffffffffffffffffffffffffffffff168273ffffffffffffffffffffffffffffffffffffffff160361267d576040517f08c379a000000000000000000000000000000000000000000000000000000000815260040161267490614a7d565b60405180910390fd5b61268a8383836001612bb1565b8273ffffffffffffffffffffffffffffffffffffffff166126aa82610edb565b73ffffffffffffffffffffffffffffffffffffffff1614612700576040517f08c379a00000000000000000000000000000000000000000000000000000000081526004016126f7906149eb565b60405180910390fd5b6004600082815260200190815260200160002060006101000a81549073ffffffffffffffffffffffffffffffffffffffff02191690556001600360008573ffffffffffffffffffffffffffffffffffffffff1673ffffffffffffffffffffffffffffffffffffffff168152602001908152602001600020600082825403925050819055506001600360008473ffffffffffffffffffffffffffffffffffffffff1673ffffffffffffffffffffffffffffffffffffffff16815260200190815260200160002060008282540192505081905550816002600083815260200190815260200160002060006101000a81548173ffffffffffffffffffffffffffffffffffffffff021916908373ffffffffffffffffffffffffffffffffffffffff160217905550808273ffffffffffffffffffffffffffffffffffffffff168473ffffffffffffffffffffffffffffffffffffffff167fddf252ad1be2c89b69c2b068fc378daa952ba7f163c4a11628f55a4df523b3ef60405160405180910390a461288c8383836001612cd7565b505050565b60006002600083815260200190815260200160002060009054906101000a900473ffffffffffffffffffffffffffffffffffffffff169050919050565b8173ffffffffffffffffffffffffffffffffffffffff168373ffffffffffffffffffffffffffffffffffffffff160361293c576040517f08c379a000000000000000000000000000000000000000000000000000000000815260040161293390614ae9565b60405180910390fd5b80600560008573ffffffffffffffffffffffffffffffffffffffff1673ffffffffffffffffffffffffffffffffffffffff16815260200190815260200160002060008473ffffffffffffffffffffffffffffffffffffffff1673ffffffffffffffffffffffffffffffffffffffff16815260200190815260200160002060006101000a81548160ff0219169083151502179055508173ffffffffffffffffffffffffffffffffffffffff168373ffffffffffffffffffffffffffffffffffffffff167f17307eab39ab6107e8899845ad3d59bd9653f200f220920489ca2b5937696c3183604051612a2d919061344d565b60405180910390a3505050565b612a45848484612598565b612a5184848484612cdd565b612a90576040517f08c379a0000000000000000000000000000000000000000000000000000000008152600401612a8790614b7b565b60405180910390fd5b50505050565b606060405180602001604052806000815250905090565b6060612ab8826123ff565b6000612ac2612a96565b90506000815111612ae25760405180602001604052806000815250612b0d565b80612aec84612e64565b604051602001612afd92919061488d565b6040516020818303038152906040525b915050919050565b612b1f8383612f32565b612b2c6000848484612cdd565b612b6b576040517f08c379a0000000000000000000000000000000000000000000000000000000008152600401612b6290614b7b565b60405180910390fd5b505050565b60008073ffffffffffffffffffffffffffffffffffffffff16612b9283612891565b73ffffffffffffffffffffffffffffffffffffffff1614159050919050565b6001811115612cd157600073ffffffffffffffffffffffffffffffffffffffff168473ffffffffffffffffffffffffffffffffffffffff1614612c455780600360008673ffffffffffffffffffffffffffffffffffffffff1673ffffffffffffffffffffffffffffffffffffffff1681526020019081526020016000206000828254612c3d919061481d565b925050819055505b600073ffffffffffffffffffffffffffffffffffffffff168373ffffffffffffffffffffffffffffffffffffffff1614612cd05780600360008573ffffffffffffffffffffffffffffffffffffffff1673ffffffffffffffffffffffffffffffffffffffff1681526020019081526020016000206000828254612cc89190614b9b565b925050819055505b5b50505050565b50505050565b6000612cfe8473ffffffffffffffffffffffffffffffffffffffff1661314f565b15612e57578373ffffffffffffffffffffffffffffffffffffffff1663150b7a02612d27612348565b8786866040518563ffffffff1660e01b8152600401612d499493929190614c24565b6020604051808303816000875af1925050508015612d8557506040513d601f19601f82011682018060405250810190612d829190614c85565b60015b612e07573d8060008114612db5576040519150601f19603f3d011682016040523d82523d6000602084013e612dba565b606091505b506000815103612dff576040517f08c379a0000000000000000000000000000000000000000000000000000000008152600401612df690614b7b565b60405180910390fd5b805181602001fd5b63150b7a0260e01b7bffffffffffffffffffffffffffffffffffffffffffffffffffffffff1916817bffffffffffffffffffffffffffffffffffffffffffffffffffffffff191614915050612e5c565b600190505b949350505050565b606060006001612e7384613172565b01905060008167ffffffffffffffff811115612e9257612e91613e44565b5b6040519080825280601f01601f191660200182016040528015612ec45781602001600182028036833780820191505090505b509050600082602001820190505b600115612f27578080600190039150507f3031323334353637383961626364656600000000000000000000000000000000600a86061a8153600a8581612f1b57612f1a614cb2565b5b04945060008503612ed2575b819350505050919050565b600073ffffffffffffffffffffffffffffffffffffffff168273ffffffffffffffffffffffffffffffffffffffff1603612fa1576040517f08c379a0000000000000000000000000000000000000000000000000000000008152600401612f9890614d2d565b60405180910390fd5b612faa81612b70565b15612fea576040517f08c379a0000000000000000000000000000000000000000000000000000000008152600401612fe190614d99565b60405180910390fd5b612ff8600083836001612bb1565b61300181612b70565b15613041576040517f08c379a000000000000000000000000000000000000000000000000000000000815260040161303890614d99565b60405180910390fd5b6001600360008473ffffffffffffffffffffffffffffffffffffffff1673ffffffffffffffffffffffffffffffffffffffff16815260200190815260200160002060008282540192505081905550816002600083815260200190815260200160002060006101000a81548173ffffffffffffffffffffffffffffffffffffffff021916908373ffffffffffffffffffffffffffffffffffffffff160217905550808273ffffffffffffffffffffffffffffffffffffffff16600073ffffffffffffffffffffffffffffffffffffffff167fddf252ad1be2c89b69c2b068fc378daa952ba7f163c4a11628f55a4df523b3ef60405160405180910390a461314b600083836001612cd7565b5050565b6000808273ffffffffffffffffffffffffffffffffffffffff163b119050919050565b600080600090507a184f03e93ff9f4daa797ed6e38ed64bf6a1f01000000000000000083106131d0577a184f03e93ff9f4daa797ed6e38ed64bf6a1f01000000000000000083816131c6576131c5614cb2565b5b0492506040810190505b6d04ee2d6d415b85acef8100000000831061320d576d04ee2d6d415b85acef8100000000838161320357613202614cb2565b5b0492506020810190505b662386f26fc10000831061323c57662386f26fc10000838161323257613231614cb2565b5b0492506010810190505b6305f5e1008310613265576305f5e100838161325b5761325a614cb2565b5b0492506008810190505b612710831061328a5761271083816132805761327f614cb2565b5b0492506004810190505b606483106132ad57606483816132a3576132a2614cb2565b5b0492506002810190505b600a83106132bc576001810190505b80915050919050565b6040518060800160405280600060028111156132e4576132e3613980565b5b81526020016132f1613354565b8152602001600081526020016000151581525090565b828054828255906000526020600020908101928215613343579160200282015b82811115613342578251825591602001919060010190613327565b5b509050613350919061337c565b5090565b6040518060800160405280600081526020016060815260200160608152602001606081525090565b5b8082111561339557600081600090555060010161337d565b5090565b6000604051905090565b600080fd5b600080fd5b60007fffffffff0000000000000000000000000000000000000000000000000000000082169050919050565b6133e2816133ad565b81146133ed57600080fd5b50565b6000813590506133ff816133d9565b92915050565b60006020828403121561341b5761341a6133a3565b5b6000613429848285016133f0565b91505092915050565b60008115159050919050565b61344781613432565b82525050565b6000602082019050613462600083018461343e565b92915050565b6000819050919050565b61347b81613468565b811461348657600080fd5b50565b60008135905061349881613472565b92915050565b600481106134ab57600080fd5b50565b6000813590506134bd8161349e565b92915050565b600080fd5b600080fd5b600080fd5b60008083601f8401126134e8576134e76134c3565b5b8235905067ffffffffffffffff811115613505576135046134c8565b5b602083019150836001820283011115613521576135206134cd565b5b9250929050565b60008060008060008060a08789031215613545576135446133a3565b5b600061355389828a01613489565b965050602061356489828a01613489565b955050604061357589828a016134ae565b945050606061358689828a01613489565b935050608087013567ffffffffffffffff8111156135a7576135a66133a8565b5b6135b389828a016134d2565b92509250509295509295509295565b600081519050919050565b600082825260208201905092915050565b60005b838110156135fc5780820151818401526020810190506135e1565b60008484015250505050565b6000601f19601f8301169050919050565b6000613624826135c2565b61362e81856135cd565b935061363e8185602086016135de565b61364781613608565b840191505092915050565b6000602082019050818103600083015261366c8184613619565b905092915050565b600073ffffffffffffffffffffffffffffffffffffffff82169050919050565b600061369f82613674565b9050919050565b6136af81613694565b81146136ba57600080fd5b50565b6000813590506136cc816136a6565b92915050565b60008083601f8401126136e8576136e76134c3565b5b8235905067ffffffffffffffff811115613705576137046134c8565b5b602083019150836020820283011115613721576137206134cd565b5b9250929050565b6003811061373557600080fd5b50565b60008135905061374781613728565b92915050565b61375681613432565b811461376157600080fd5b50565b6000813590506137738161374d565b92915050565b60008060008060008060a08789031215613796576137956133a3565b5b60006137a489828a016136bd565b96505060206137b589828a01613489565b955050604087013567ffffffffffffffff8111156137d6576137d56133a8565b5b6137e289828a016136d2565b945094505060606137f589828a01613738565b925050608061380689828a01613764565b9150509295509295509295565b61381c81613468565b82525050565b60006020820190506138376000830184613813565b92915050565b600060208284031215613853576138526133a3565b5b600061386184828501613489565b91505092915050565b61387381613694565b82525050565b600060208201905061388e600083018461386a565b92915050565b600080604083850312156138ab576138aa6133a3565b5b60006138b9858286016136bd565b92505060206138ca85828601613489565b9150509250929050565b6000806000606084860312156138ed576138ec6133a3565b5b60006138fb868287016136bd565b935050602061390c868287016136bd565b925050604061391d86828701613489565b9150509250925092565b60006020828403121561393d5761393c6133a3565b5b600061394b848285016136bd565b91505092915050565b600081519050919050565b600082825260208201905092915050565b6000819050602082019050919050565b7f4e487b7100000000000000000000000000000000000000000000000000000000600052602160045260246000fd5b600381106139c0576139bf613980565b5b50565b60008190506139d1826139af565b919050565b60006139e1826139c3565b9050919050565b6139f1816139d6565b82525050565b613a0081613468565b82525050565b600082825260208201905092915050565b6000613a22826135c2565b613a2c8185613a06565b9350613a3c8185602086016135de565b613a4581613608565b840191505092915050565b6000608083016000830151613a6860008601826139f7565b5060208301518482036020860152613a808282613a17565b91505060408301518482036040860152613a9a8282613a17565b91505060608301518482036060860152613ab48282613a17565b9150508091505092915050565b613aca81613432565b82525050565b6000608083016000830151613ae860008601826139e8565b5060208301518482036020860152613b008282613a50565b9150506040830151613b1560408601826139f7565b506060830151613b286060860182613ac1565b508091505092915050565b6000613b3f8383613ad0565b905092915050565b6000602082019050919050565b6000613b5f82613954565b613b69818561395f565b935083602082028501613b7b85613970565b8060005b85811015613bb75784840389528151613b988582613b33565b9450613ba383613b47565b925060208a01995050600181019050613b7f565b50829750879550505050505092915050565b60006020820190508181036000830152613be38184613b54565b905092915050565b6000608083016000830151613c0360008601826139e8565b5060208301518482036020860152613c1b8282613a50565b9150506040830151613c3060408601826139f7565b506060830151613c436060860182613ac1565b508091505092915050565b60006020820190508181036000830152613c688184613beb565b905092915050565b60008060408385031215613c8757613c866133a3565b5b6000613c95858286016136bd565b9250506020613ca685828601613764565b9150509250929050565b600081519050919050565b600082825260208201905092915050565b6000819050602082019050919050565b60048110613ced57613cec613980565b5b50565b6000819050613cfe82613cdc565b919050565b6000613d0e82613cf0565b9050919050565b613d1e81613d03565b82525050565b6000608083016000830151613d3c60008601826139f7565b506020830151613d4f60208601826139f7565b506040830151613d626040860182613d15565b5060608301518482036060860152613d7a8282613a17565b9150508091505092915050565b6000613d938383613d24565b905092915050565b6000602082019050919050565b6000613db382613cb0565b613dbd8185613cbb565b935083602082028501613dcf85613ccc565b8060005b85811015613e0b5784840389528151613dec8582613d87565b9450613df783613d9b565b925060208a01995050600181019050613dd3565b50829750879550505050505092915050565b60006020820190508181036000830152613e378184613da8565b905092915050565b600080fd5b7f4e487b7100000000000000000000000000000000000000000000000000000000600052604160045260246000fd5b613e7c82613608565b810181811067ffffffffffffffff82111715613e9b57613e9a613e44565b5b80604052505050565b6000613eae613399565b9050613eba8282613e73565b919050565b600067ffffffffffffffff821115613eda57613ed9613e44565b5b613ee382613608565b9050602081019050919050565b82818337600083830152505050565b6000613f12613f0d84613ebf565b613ea4565b905082815260208101848484011115613f2e57613f2d613e3f565b5b613f39848285613ef0565b509392505050565b600082601f830112613f5657613f556134c3565b5b8135613f66848260208601613eff565b91505092915050565b60008060008060808587031215613f8957613f886133a3565b5b6000613f97878288016136bd565b9450506020613fa8878288016136bd565b9350506040613fb987828801613489565b925050606085013567ffffffffffffffff811115613fda57613fd96133a8565b5b613fe687828801613f41565b91505092959194509250565b60008060408385031215614009576140086133a3565b5b6000614017858286016136bd565b9250506020614028858286016136bd565b9150509250929050565b60008060006060848603121561404b5761404a6133a3565b5b6000614059868287016136bd565b935050602061406a86828701613489565b925050604084013567ffffffffffffffff81111561408b5761408a6133a8565b5b61409786828701613f41565b9150509250925092565b600080604083850312156140b8576140b76133a3565b5b60006140c685828601613489565b92505060206140d785828601613489565b9150509250929050565b7f4572726f723a20796f7520617265206e6f7420746865206f776e6572206f662060008201527f7468652063617200000000000000000000000000000000000000000000000000602082015250565b600061413d6027836135cd565b9150614148826140e1565b604082019050919050565b6000602082019050818103600083015261416c81614130565b9050919050565b7f4e487b7100000000000000000000000000000000000000000000000000000000600052602260045260246000fd5b600060028204905060018216806141ba57607f821691505b6020821081036141cd576141cc614173565b5b50919050565b60008190508160005260206000209050919050565b60006020601f8301049050919050565b600082821b905092915050565b6000600883026142357fffffffffffffffffffffffffffffffffffffffffffffffffffffffffffffffff826141f8565b61423f86836141f8565b95508019841693508086168417925050509392505050565b6000819050919050565b600061427c61427761427284613468565b614257565b613468565b9050919050565b6000819050919050565b61429683614261565b6142aa6142a282614283565b848454614205565b825550505050565b600090565b6142bf6142b2565b6142ca81848461428d565b505050565b5b818110156142ee576142e36000826142b7565b6001810190506142d0565b5050565b601f82111561433357614304816141d3565b61430d846141e8565b8101602085101561431c578190505b614330614328856141e8565b8301826142cf565b50505b505050565b600082821c905092915050565b600061435660001984600802614338565b1980831691505092915050565b600061436f8383614345565b9150826002028217905092915050565b614388826135c2565b67ffffffffffffffff8111156143a1576143a0613e44565b5b6143ab82546141a2565b6143b68282856142f2565b600060209050601f8311600181146143e957600084156143d7578287015190505b6143e18582614363565b865550614449565b601f1984166143f7866141d3565b60005b8281101561441f578489015182556001820191506020850194506020810190506143fa565b8683101561443c5784890151614438601f891682614345565b8355505b6001600288020188555050505b505050505050565b7f4e487b7100000000000000000000000000000000000000000000000000000000600052603260045260246000fd5b600080fd5b600080fd5b600080fd5b600080833560016020038436030381126144ac576144ab614480565b5b80840192508235915067ffffffffffffffff8211156144ce576144cd614485565b5b6020830192506001820236038313156144ea576144e961448a565b5b509250929050565b7f4552433732313a20617070726f76616c20746f2063757272656e74206f776e6560008201527f7200000000000000000000000000000000000000000000000000000000000000602082015250565b600061454e6021836135cd565b9150614559826144f2565b604082019050919050565b6000602082019050818103600083015261457d81614541565b9050919050565b7f4552433732313a20617070726f76652063616c6c6572206973206e6f7420746f60008201527f6b656e206f776e6572206f7220617070726f76656420666f7220616c6c000000602082015250565b60006145e0603d836135cd565b91506145eb82614584565b604082019050919050565b6000602082019050818103600083015261460f816145d3565b9050919050565b7f4552433732313a2063616c6c6572206973206e6f7420746f6b656e206f776e6560008201527f72206f7220617070726f76656400000000000000000000000000000000000000602082015250565b6000614672602d836135cd565b915061467d82614616565b604082019050919050565b600060208201905081810360008301526146a181614665565b9050919050565b7f4552433732313a20696e76616c696420746f6b656e2049440000000000000000600082015250565b60006146de6018836135cd565b91506146e9826146a8565b602082019050919050565b6000602082019050818103600083015261470d816146d1565b9050919050565b7f4552433732313a2061646472657373207a65726f206973206e6f74206120766160008201527f6c6964206f776e65720000000000000000000000000000000000000000000000602082015250565b60006147706029836135cd565b915061477b82614714565b604082019050919050565b6000602082019050818103600083015261479f81614763565b9050919050565b7f4e487b7100000000000000000000000000000000000000000000000000000000600052601160045260246000fd5b60006147e082613468565b91507fffffffffffffffffffffffffffffffffffffffffffffffffffffffffffffffff8203614812576148116147a6565b5b600182019050919050565b600061482882613468565b915061483383613468565b925082820390508181111561484b5761484a6147a6565b5b92915050565b600081905092915050565b6000614867826135c2565b6148718185614851565b93506148818185602086016135de565b80840191505092915050565b6000614899828561485c565b91506148a5828461485c565b91508190509392505050565b600060ff82169050919050565b60006148c9826148b1565b915060ff82036148dc576148db6147a6565b5b600182019050919050565b7f45524337323155524953746f726167653a2055524920736574206f66206e6f6e60008201527f6578697374656e7420746f6b656e000000000000000000000000000000000000602082015250565b6000614943602e836135cd565b915061494e826148e7565b604082019050919050565b6000602082019050818103600083015261497281614936565b9050919050565b7f4552433732313a207472616e736665722066726f6d20696e636f72726563742060008201527f6f776e6572000000000000000000000000000000000000000000000000000000602082015250565b60006149d56025836135cd565b91506149e082614979565b604082019050919050565b60006020820190508181036000830152614a04816149c8565b9050919050565b7f4552433732313a207472616e7366657220746f20746865207a65726f2061646460008201527f7265737300000000000000000000000000000000000000000000000000000000602082015250565b6000614a676024836135cd565b9150614a7282614a0b565b604082019050919050565b60006020820190508181036000830152614a9681614a5a565b9050919050565b7f4552433732313a20617070726f766520746f2063616c6c657200000000000000600082015250565b6000614ad36019836135cd565b9150614ade82614a9d565b602082019050919050565b60006020820190508181036000830152614b0281614ac6565b9050919050565b7f4552433732313a207472616e7366657220746f206e6f6e20455243373231526560008201527f63656976657220696d706c656d656e7465720000000000000000000000000000602082015250565b6000614b656032836135cd565b9150614b7082614b09565b604082019050919050565b60006020820190508181036000830152614b9481614b58565b9050919050565b6000614ba682613468565b9150614bb183613468565b9250828201905080821115614bc957614bc86147a6565b5b92915050565b600081519050919050565b600082825260208201905092915050565b6000614bf682614bcf565b614c008185614bda565b9350614c108185602086016135de565b614c1981613608565b840191505092915050565b6000608082019050614c39600083018761386a565b614c46602083018661386a565b614c536040830185613813565b8181036060830152614c658184614beb565b905095945050505050565b600081519050614c7f816133d9565b92915050565b600060208284031215614c9b57614c9a6133a3565b5b6000614ca984828501614c70565b91505092915050565b7f4e487b7100000000000000000000000000000000000000000000000000000000600052601260045260246000fd5b7f4552433732313a206d696e7420746f20746865207a65726f2061646472657373600082015250565b6000614d176020836135cd565b9150614d2282614ce1565b602082019050919050565b60006020820190508181036000830152614d4681614d0a565b9050919050565b7f4552433732313a20746f6b656e20616c7265616479206d696e74656400000000600082015250565b6000614d83601c836135cd565b9150614d8e82614d4d565b602082019050919050565b60006020820190508181036000830152614db281614d76565b905091905056fea264697066735822122036b1ed0046fdcfcdaf952fc81006d9b9be84cfdb5c65bf83c06c8e4549b5972d64736f6c63430008110033",
  "immutableReferences": {},
  "source": "// SPDX-License-Identifier: MIT\npragma solidity 0.8.17;\n\nimport \"../node_modules/@openzeppelin/contracts/token/ERC721/extensions/ERC721URIStorage.sol\";\nimport \"../node_modules/@openzeppelin/contracts/utils/Counters.sol\";\n\n/// @title The CarBlocks Smart Contract\n/// @author Quentin COLLETTE & Maxime LESBROS\n/// @notice Smart Contract allowing to manage NFT associated with cars\n/// @dev Stay away from this or you're facing sleep deprivation\ncontract CarBlocks is ERC721URIStorage {\n    using Counters for Counters.Counter;\n\n    /// @notice counter to increment id of carblock NFT\n    Counters.Counter private _tokenIds;\n\n    /// @notice this will differentiate the various collections (gasoline, diesel, hybrid...)\n    string public energyType;\n\n    /// @notice forcing the name and symbol for our Carblock token\n    string constant _name = \"CarBlock\";\n    string constant _symbol = \"CBK\";\n\n    /// @notice Defines the various states a car can be in\n    enum CarState {\n        circulation,\n        accident,\n        scrapped\n    }\n\n    /// @notice Defines the various maintenance types that can occur\n    enum MaintenanceType {\n        revision,\n        technicalControl,\n        partsChange,\n        tireChange\n    }\n\n    /// @notice Holds constant information about a Car\n    struct Car {\n        uint256 circulationStartDate;\n        string VIN;\n        string brand;\n        string model;\n    }\n\n    /// @notice Holds information linked to a maintenance operation\n    struct Maintenance {\n        uint256 date;\n        uint256 kilometers;\n        MaintenanceType mType;\n        string maintenanceURI;\n    }\n\n    /// @notice Defines the carblock NFT structure\n    struct Carblock {\n        CarState carState;\n        Car car;\n        uint256 price;\n        bool isForSale;\n    }\n\n    /// @notice Make sure contract caller is owner of _tokenId\n    modifier isNFTOwner(uint256 _tokenId) {\n        require(\n            _msgSender() == ownerOf(_tokenId),\n            \"Error: you are not the owner of the car\"\n        );\n        _;\n    }\n\n    /// @notice This array holds all the minted NFTs\n    Carblock[] private carblocksNFT;\n\n    //TODO : qui peut appeler users ?\n    mapping(address => uint256[]) public users; // address => [tokenID]\n    mapping(uint256 => Maintenance[]) private _allMaintenances; // tokenID => [Maintenance1, Maintenance2]\n\n    constructor(string memory _energyType) ERC721(_name, _symbol) {\n        energyType = _energyType;\n    }\n\n    /// @notice Retrieve NFT from token ID\n    /// @dev Get the Carblock struct with the NFT token ID\n    /// @param _tokenId NFT token ID\n    /// @return Carblock\n    function getCarblock(uint256 _tokenId)\n        external\n        view\n        isNFTOwner(_tokenId)\n        returns (Carblock memory)\n    {\n        return carblocksNFT[_tokenId - 1];\n    }\n\n    //TODO: accessible only to NFT owner ?\n    /// @notice Retrieve all NFTs of contract caller\n    /// @dev Get an array of Carblock struct with the NFT token ID\n    /// @return carblocks an array of carblock NFT\n    function getCarblocks() external view returns (Carblock[] memory) {\n        address _addr = _msgSender();\n        Carblock[] memory carblocks = new Carblock[](users[_addr].length);\n\n        for (uint256 i = 0; i < users[_addr].length; i++) {\n            carblocks[i] = carblocksNFT[users[_addr][i]];\n        }\n        return carblocks;\n    }\n\n    /// @notice Retrieve all NFTs that are for sale\n    /// @dev The returned array of Carblock might not be completely full\n    /// @return Carblock[] the list of carblocks NFT\n    function getCarblocksForSale() external view returns (Carblock[] memory) {\n        Carblock[] memory carblocksForSale = new Carblock[](\n            carblocksNFT.length\n        );\n        uint256 counter;\n        for (uint256 i = 0; i < carblocksNFT.length; i++) {\n            if (carblocksNFT[i].isForSale == true) {\n                carblocksForSale[counter] = carblocksNFT[i];\n                counter++;\n            }\n        }\n        return carblocksForSale;\n    }\n\n    /// @notice Allow NFT Owner to set a price for his car\n    /// @dev _\n    /// @param _tokenId NFT token ID\n    /// @param _price expected price\n    function setPrice(uint256 _tokenId, uint256 _price)\n        external\n        isNFTOwner(_tokenId)\n    {\n        carblocksNFT[_tokenId - 1].price = _price;\n    }\n\n    /// @notice Add a new maintenance to a specific NFT\n    /// @dev After the maintenance file has been upload to IPFS call this method to update maintenanceURI\n    /// @param _tokenId NFT token ID\n    /// @param _date Date of maintenance\n    /// @param _mType Type of maintenance (enum)\n    /// @param _kilometers Total distance of the car at time of maintenance\n    /// @param _maintenanceURI URI of maintenance JSON file on IPFS\n    function addMaintenance(\n        uint256 _tokenId,\n        uint256 _date,\n        MaintenanceType _mType,\n        uint256 _kilometers,\n        string calldata _maintenanceURI\n    ) external isNFTOwner(_tokenId) {\n        _allMaintenances[_tokenId].push(\n            Maintenance(_date, _kilometers, _mType, _maintenanceURI)\n        );\n    }\n\n    /// @notice Get list of all maintenances done on a car from a NFT token ID\n    /// @dev Return an array of Maintenance struct\n    /// @param _tokenId NFT token ID\n    /// @return Maintenance[]\n    function getMaintenances(uint256 _tokenId)\n        external\n        view\n        isNFTOwner(_tokenId)\n        returns (Maintenance[] memory)\n    {\n        return _allMaintenances[_tokenId];\n    }\n\n    //TODO : check memory vs calldata\n    //TODO : payable\n    /// @notice Allow user to mint a new Carblock NFT\n    /// @dev\n    /// @param _user address of the future owner of minted NFT\n    /// @param _circulationStartDate first circulation date of owner's car\n    /// @param _vInfo array with [VIN, brand, model, tokenURI] in this order\n    /// @param _state car's state (ENUM)\n    /// @param _isForSale wether the car is for sale\n    function mintCarblock(\n        address _user,\n        uint256 _circulationStartDate,\n        string[] calldata _vInfo,\n        CarState _state,\n        bool _isForSale\n    ) external returns (uint256) {\n        _tokenIds.increment(); // Increment NFT ID (starts at 0)\n\n        Car memory car = Car(\n            _circulationStartDate,\n            _vInfo[0],\n            _vInfo[1],\n            _vInfo[2]\n        );\n        carblocksNFT.push(Carblock(_state, car, 0, _isForSale));\n\n        uint256 newTokenId = _tokenIds.current();\n        _safeMint(_user, newTokenId);\n        _setTokenURI(newTokenId, _vInfo[3]);\n        users[_user].push(newTokenId);\n\n        return newTokenId;\n    }\n\n    /// @notice Transfer a NFT when an owner is selling his vehicle to new owner\n    /// @dev Uses _safeTransfer to update owner and update the 'users' mapping\n    /// @param _to address of the new NFT owner\n    /// @param _tokenId Token ID of NFT to transfer\n    /// @param _data additional data\n    function transferCarblockNFT(\n        address _to,\n        uint256 _tokenId,\n        bytes memory _data\n    ) external payable isNFTOwner(_tokenId) {\n        address sender = _msgSender();\n        _safeTransfer(sender, _to, _tokenId, _data);\n\n        uint256[] memory updatedTokensList = new uint256[](\n            users[sender].length - 1\n        );\n        uint8 counter;\n\n        for (uint256 i = 0; i < users[sender].length; i++) {\n            if (users[sender][i] != _tokenId) {\n                updatedTokensList[counter] = users[sender][i];\n            }\n            counter++;\n        }\n        users[sender] = updatedTokensList;\n        users[_to].push(_tokenId);\n    }\n}\n",
  "sourcePath": "/home/mlazzje/projects/alyra/CarBlocks/truffle/contracts/CarBlocks.sol",
  "compiler": {
    "name": "solc",
    "version": "0.8.17+commit.8df45f5f.Emscripten.clang"
  },
  "schemaVersion": "3.4.10",
  "updatedAt": "2022-12-09T00:22:51.301Z",
  "networkType": "ethereum",
  "devdoc": {
    "author": "Quentin COLLETTE & Maxime LESBROS",
    "details": "Stay away from this or you're facing sleep deprivation",
    "kind": "dev",
    "methods": {
      "addMaintenance(uint256,uint256,uint8,uint256,string)": {
        "details": "After the maintenance file has been upload to IPFS call this method to update maintenanceURI",
        "params": {
          "_date": "Date of maintenance",
          "_kilometers": "Total distance of the car at time of maintenance",
          "_mType": "Type of maintenance (enum)",
          "_maintenanceURI": "URI of maintenance JSON file on IPFS",
          "_tokenId": "NFT token ID"
        }
      },
      "approve(address,uint256)": {
        "details": "See {IERC721-approve}."
      },
      "balanceOf(address)": {
        "details": "See {IERC721-balanceOf}."
      },
      "getApproved(uint256)": {
        "details": "See {IERC721-getApproved}."
      },
      "getCarblock(uint256)": {
        "details": "Get the Carblock struct with the NFT token ID",
        "params": {
          "_tokenId": "NFT token ID"
        },
        "returns": {
          "_0": "Carblock"
        }
      },
      "getCarblocks()": {
        "details": "Get an array of Carblock struct with the NFT token ID",
        "returns": {
          "_0": "carblocks an array of carblock NFT"
        }
      },
      "getCarblocksForSale()": {
        "details": "The returned array of Carblock might not be completely full",
        "returns": {
          "_0": "Carblock[] the list of carblocks NFT"
        }
      },
      "getMaintenances(uint256)": {
        "details": "Return an array of Maintenance struct",
        "params": {
          "_tokenId": "NFT token ID"
        },
        "returns": {
          "_0": "Maintenance[]"
        }
      },
      "isApprovedForAll(address,address)": {
        "details": "See {IERC721-isApprovedForAll}."
      },
      "mintCarblock(address,uint256,string[],uint8,bool)": {
        "details": "@param _user address of the future owner of minted NFT",
        "params": {
          "_circulationStartDate": "first circulation date of owner's car",
          "_isForSale": "wether the car is for sale",
          "_state": "car's state (ENUM)",
          "_vInfo": "array with [VIN, brand, model, tokenURI] in this order"
        }
      },
      "name()": {
        "details": "See {IERC721Metadata-name}."
      },
      "ownerOf(uint256)": {
        "details": "See {IERC721-ownerOf}."
      },
      "safeTransferFrom(address,address,uint256)": {
        "details": "See {IERC721-safeTransferFrom}."
      },
      "safeTransferFrom(address,address,uint256,bytes)": {
        "details": "See {IERC721-safeTransferFrom}."
      },
      "setApprovalForAll(address,bool)": {
        "details": "See {IERC721-setApprovalForAll}."
      },
      "setPrice(uint256,uint256)": {
        "details": "_",
        "params": {
          "_price": "expected price",
          "_tokenId": "NFT token ID"
        }
      },
      "supportsInterface(bytes4)": {
        "details": "See {IERC165-supportsInterface}."
      },
      "symbol()": {
        "details": "See {IERC721Metadata-symbol}."
      },
      "tokenURI(uint256)": {
        "details": "See {IERC721Metadata-tokenURI}."
      },
      "transferCarblockNFT(address,uint256,bytes)": {
        "details": "Uses _safeTransfer to update owner and update the 'users' mapping",
        "params": {
          "_data": "additional data",
          "_to": "address of the new NFT owner",
          "_tokenId": "Token ID of NFT to transfer"
        }
      },
      "transferFrom(address,address,uint256)": {
        "details": "See {IERC721-transferFrom}."
      }
    },
    "title": "The CarBlocks Smart Contract",
    "version": 1
  },
  "userdoc": {
    "kind": "user",
    "methods": {
      "addMaintenance(uint256,uint256,uint8,uint256,string)": {
        "notice": "Add a new maintenance to a specific NFT"
      },
      "energyType()": {
        "notice": "this will differentiate the various collections (gasoline, diesel, hybrid...)"
      },
      "getCarblock(uint256)": {
        "notice": "Retrieve NFT from token ID"
      },
      "getCarblocks()": {
        "notice": "Retrieve all NFTs of contract caller"
      },
      "getCarblocksForSale()": {
        "notice": "Retrieve all NFTs that are for sale"
      },
      "getMaintenances(uint256)": {
        "notice": "Get list of all maintenances done on a car from a NFT token ID"
      },
      "mintCarblock(address,uint256,string[],uint8,bool)": {
        "notice": "Allow user to mint a new Carblock NFT"
      },
      "setPrice(uint256,uint256)": {
        "notice": "Allow NFT Owner to set a price for his car"
      },
      "transferCarblockNFT(address,uint256,bytes)": {
        "notice": "Transfer a NFT when an owner is selling his vehicle to new owner"
      }
    },
    "notice": "Smart Contract allowing to manage NFT associated with cars",
    "version": 1
  }
}