{
  "contractName": "CarBlocks",
  "abi": [
    {
      "inputs": [
        {
          "internalType": "string",
          "name": "_energyType",
          "type": "string"
        }
      ],
      "stateMutability": "nonpayable",
      "type": "constructor"
    },
    {
      "anonymous": false,
      "inputs": [
        {
          "indexed": true,
          "internalType": "address",
          "name": "owner",
          "type": "address"
        },
        {
          "indexed": true,
          "internalType": "address",
          "name": "approved",
          "type": "address"
        },
        {
          "indexed": true,
          "internalType": "uint256",
          "name": "tokenId",
          "type": "uint256"
        }
      ],
      "name": "Approval",
      "type": "event"
    },
    {
      "anonymous": false,
      "inputs": [
        {
          "indexed": true,
          "internalType": "address",
          "name": "owner",
          "type": "address"
        },
        {
          "indexed": true,
          "internalType": "address",
          "name": "operator",
          "type": "address"
        },
        {
          "indexed": false,
          "internalType": "bool",
          "name": "approved",
          "type": "bool"
        }
      ],
      "name": "ApprovalForAll",
      "type": "event"
    },
    {
      "anonymous": false,
      "inputs": [
        {
          "indexed": true,
          "internalType": "address",
          "name": "from",
          "type": "address"
        },
        {
          "indexed": true,
          "internalType": "address",
          "name": "to",
          "type": "address"
        },
        {
          "indexed": true,
          "internalType": "uint256",
          "name": "tokenId",
          "type": "uint256"
        }
      ],
      "name": "Transfer",
      "type": "event"
    },
    {
      "inputs": [
        {
          "internalType": "address",
          "name": "to",
          "type": "address"
        },
        {
          "internalType": "uint256",
          "name": "tokenId",
          "type": "uint256"
        }
      ],
      "name": "approve",
      "outputs": [],
      "stateMutability": "nonpayable",
      "type": "function"
    },
    {
      "inputs": [
        {
          "internalType": "address",
          "name": "owner",
          "type": "address"
        }
      ],
      "name": "balanceOf",
      "outputs": [
        {
          "internalType": "uint256",
          "name": "",
          "type": "uint256"
        }
      ],
      "stateMutability": "view",
      "type": "function"
    },
    {
      "inputs": [],
      "name": "energyType",
      "outputs": [
        {
          "internalType": "string",
          "name": "",
          "type": "string"
        }
      ],
      "stateMutability": "view",
      "type": "function"
    },
    {
      "inputs": [
        {
          "internalType": "uint256",
          "name": "tokenId",
          "type": "uint256"
        }
      ],
      "name": "getApproved",
      "outputs": [
        {
          "internalType": "address",
          "name": "",
          "type": "address"
        }
      ],
      "stateMutability": "view",
      "type": "function"
    },
    {
      "inputs": [
        {
          "internalType": "address",
          "name": "owner",
          "type": "address"
        },
        {
          "internalType": "address",
          "name": "operator",
          "type": "address"
        }
      ],
      "name": "isApprovedForAll",
      "outputs": [
        {
          "internalType": "bool",
          "name": "",
          "type": "bool"
        }
      ],
      "stateMutability": "view",
      "type": "function"
    },
    {
      "inputs": [],
      "name": "name",
      "outputs": [
        {
          "internalType": "string",
          "name": "",
          "type": "string"
        }
      ],
      "stateMutability": "view",
      "type": "function"
    },
    {
      "inputs": [
        {
          "internalType": "uint256",
          "name": "tokenId",
          "type": "uint256"
        }
      ],
      "name": "ownerOf",
      "outputs": [
        {
          "internalType": "address",
          "name": "",
          "type": "address"
        }
      ],
      "stateMutability": "view",
      "type": "function"
    },
    {
      "inputs": [
        {
          "internalType": "address",
          "name": "from",
          "type": "address"
        },
        {
          "internalType": "address",
          "name": "to",
          "type": "address"
        },
        {
          "internalType": "uint256",
          "name": "tokenId",
          "type": "uint256"
        }
      ],
      "name": "safeTransferFrom",
      "outputs": [],
      "stateMutability": "nonpayable",
      "type": "function"
    },
    {
      "inputs": [
        {
          "internalType": "address",
          "name": "from",
          "type": "address"
        },
        {
          "internalType": "address",
          "name": "to",
          "type": "address"
        },
        {
          "internalType": "uint256",
          "name": "tokenId",
          "type": "uint256"
        },
        {
          "internalType": "bytes",
          "name": "data",
          "type": "bytes"
        }
      ],
      "name": "safeTransferFrom",
      "outputs": [],
      "stateMutability": "nonpayable",
      "type": "function"
    },
    {
      "inputs": [
        {
          "internalType": "address",
          "name": "operator",
          "type": "address"
        },
        {
          "internalType": "bool",
          "name": "approved",
          "type": "bool"
        }
      ],
      "name": "setApprovalForAll",
      "outputs": [],
      "stateMutability": "nonpayable",
      "type": "function"
    },
    {
      "inputs": [
        {
          "internalType": "bytes4",
          "name": "interfaceId",
          "type": "bytes4"
        }
      ],
      "name": "supportsInterface",
      "outputs": [
        {
          "internalType": "bool",
          "name": "",
          "type": "bool"
        }
      ],
      "stateMutability": "view",
      "type": "function"
    },
    {
      "inputs": [],
      "name": "symbol",
      "outputs": [
        {
          "internalType": "string",
          "name": "",
          "type": "string"
        }
      ],
      "stateMutability": "view",
      "type": "function"
    },
    {
      "inputs": [
        {
          "internalType": "uint256",
          "name": "tokenId",
          "type": "uint256"
        }
      ],
      "name": "tokenURI",
      "outputs": [
        {
          "internalType": "string",
          "name": "",
          "type": "string"
        }
      ],
      "stateMutability": "view",
      "type": "function"
    },
    {
      "inputs": [
        {
          "internalType": "address",
          "name": "from",
          "type": "address"
        },
        {
          "internalType": "address",
          "name": "to",
          "type": "address"
        },
        {
          "internalType": "uint256",
          "name": "tokenId",
          "type": "uint256"
        }
      ],
      "name": "transferFrom",
      "outputs": [],
      "stateMutability": "nonpayable",
      "type": "function"
    },
    {
      "inputs": [
        {
          "internalType": "uint256",
          "name": "_tokenId",
          "type": "uint256"
        }
      ],
      "name": "getCarblock",
      "outputs": [
        {
          "components": [
            {
              "internalType": "uint256",
              "name": "tokenId",
              "type": "uint256"
            },
            {
              "internalType": "enum CarBlocks.CarState",
              "name": "carState",
              "type": "uint8"
            },
            {
              "components": [
                {
                  "internalType": "uint256",
                  "name": "circulationStartDate",
                  "type": "uint256"
                },
                {
                  "internalType": "string",
                  "name": "VIN",
                  "type": "string"
                },
                {
                  "internalType": "string",
                  "name": "brand",
                  "type": "string"
                },
                {
                  "internalType": "string",
                  "name": "model",
                  "type": "string"
                }
              ],
              "internalType": "struct CarBlocks.Car",
              "name": "car",
              "type": "tuple"
            },
            {
              "internalType": "uint256",
              "name": "price",
              "type": "uint256"
            },
            {
              "internalType": "bool",
              "name": "isForSale",
              "type": "bool"
            }
          ],
          "internalType": "struct CarBlocks.Carblock",
          "name": "",
          "type": "tuple"
        }
      ],
      "stateMutability": "view",
      "type": "function"
    },
    {
      "inputs": [],
      "name": "getCarblocks",
      "outputs": [
        {
          "components": [
            {
              "internalType": "uint256",
              "name": "tokenId",
              "type": "uint256"
            },
            {
              "internalType": "enum CarBlocks.CarState",
              "name": "carState",
              "type": "uint8"
            },
            {
              "components": [
                {
                  "internalType": "uint256",
                  "name": "circulationStartDate",
                  "type": "uint256"
                },
                {
                  "internalType": "string",
                  "name": "VIN",
                  "type": "string"
                },
                {
                  "internalType": "string",
                  "name": "brand",
                  "type": "string"
                },
                {
                  "internalType": "string",
                  "name": "model",
                  "type": "string"
                }
              ],
              "internalType": "struct CarBlocks.Car",
              "name": "car",
              "type": "tuple"
            },
            {
              "internalType": "uint256",
              "name": "price",
              "type": "uint256"
            },
            {
              "internalType": "bool",
              "name": "isForSale",
              "type": "bool"
            }
          ],
          "internalType": "struct CarBlocks.Carblock[]",
          "name": "",
          "type": "tuple[]"
        }
      ],
      "stateMutability": "view",
      "type": "function"
    },
    {
      "inputs": [],
      "name": "getCarblocksForSale",
      "outputs": [
        {
          "components": [
            {
              "internalType": "uint256",
              "name": "tokenId",
              "type": "uint256"
            },
            {
              "internalType": "enum CarBlocks.CarState",
              "name": "carState",
              "type": "uint8"
            },
            {
              "components": [
                {
                  "internalType": "uint256",
                  "name": "circulationStartDate",
                  "type": "uint256"
                },
                {
                  "internalType": "string",
                  "name": "VIN",
                  "type": "string"
                },
                {
                  "internalType": "string",
                  "name": "brand",
                  "type": "string"
                },
                {
                  "internalType": "string",
                  "name": "model",
                  "type": "string"
                }
              ],
              "internalType": "struct CarBlocks.Car",
              "name": "car",
              "type": "tuple"
            },
            {
              "internalType": "uint256",
              "name": "price",
              "type": "uint256"
            },
            {
              "internalType": "bool",
              "name": "isForSale",
              "type": "bool"
            }
          ],
          "internalType": "struct CarBlocks.Carblock[]",
          "name": "",
          "type": "tuple[]"
        }
      ],
      "stateMutability": "view",
      "type": "function"
    },
    {
      "inputs": [
        {
          "internalType": "uint256",
          "name": "_tokenId",
          "type": "uint256"
        },
        {
          "internalType": "uint256",
          "name": "_price",
          "type": "uint256"
        }
      ],
      "name": "setPrice",
      "outputs": [],
      "stateMutability": "nonpayable",
      "type": "function"
    },
    {
      "inputs": [
        {
          "internalType": "uint256",
          "name": "_tokenId",
          "type": "uint256"
        },
        {
          "internalType": "uint256",
          "name": "_date",
          "type": "uint256"
        },
        {
          "internalType": "enum CarBlocks.MaintenanceType",
          "name": "_mType",
          "type": "uint8"
        },
        {
          "internalType": "uint256",
          "name": "_kilometers",
          "type": "uint256"
        },
        {
          "internalType": "string",
          "name": "_maintenanceURI",
          "type": "string"
        }
      ],
      "name": "addMaintenance",
      "outputs": [],
      "stateMutability": "nonpayable",
      "type": "function"
    },
    {
      "inputs": [
        {
          "internalType": "uint256",
          "name": "_tokenId",
          "type": "uint256"
        }
      ],
      "name": "getMaintenances",
      "outputs": [
        {
          "components": [
            {
              "internalType": "uint256",
              "name": "date",
              "type": "uint256"
            },
            {
              "internalType": "uint256",
              "name": "kilometers",
              "type": "uint256"
            },
            {
              "internalType": "enum CarBlocks.MaintenanceType",
              "name": "mType",
              "type": "uint8"
            },
            {
              "internalType": "string",
              "name": "maintenanceURI",
              "type": "string"
            }
          ],
          "internalType": "struct CarBlocks.Maintenance[]",
          "name": "",
          "type": "tuple[]"
        }
      ],
      "stateMutability": "view",
      "type": "function"
    },
    {
      "inputs": [
        {
          "internalType": "address",
          "name": "_user",
          "type": "address"
        },
        {
          "internalType": "uint256",
          "name": "_circulationStartDate",
          "type": "uint256"
        },
        {
          "internalType": "string[]",
          "name": "_vInfo",
          "type": "string[]"
        },
        {
          "internalType": "enum CarBlocks.CarState",
          "name": "_state",
          "type": "uint8"
        },
        {
          "internalType": "bool",
          "name": "_isForSale",
          "type": "bool"
        }
      ],
      "name": "mintCarblock",
      "outputs": [
        {
          "internalType": "uint256",
          "name": "",
          "type": "uint256"
        }
      ],
      "stateMutability": "nonpayable",
      "type": "function"
    },
    {
      "inputs": [
        {
          "internalType": "uint256",
          "name": "_tokenId",
          "type": "uint256"
        },
        {
          "internalType": "uint256",
          "name": "_price",
          "type": "uint256"
        },
        {
          "internalType": "address",
          "name": "_recipient",
          "type": "address"
        }
      ],
      "name": "makeOffer",
      "outputs": [],
      "stateMutability": "nonpayable",
      "type": "function"
    },
    {
      "inputs": [
        {
          "internalType": "uint256",
          "name": "_tokenId",
          "type": "uint256"
        }
      ],
      "name": "getOffers",
      "outputs": [
        {
          "components": [
            {
              "internalType": "uint256",
              "name": "price",
              "type": "uint256"
            },
            {
              "internalType": "address",
              "name": "user",
              "type": "address"
            },
            {
              "internalType": "address",
              "name": "recipient",
              "type": "address"
            }
          ],
          "internalType": "struct CarBlocks.Offer[]",
          "name": "",
          "type": "tuple[]"
        }
      ],
      "stateMutability": "view",
      "type": "function"
    },
    {
      "inputs": [
        {
          "internalType": "uint256",
          "name": "_tokenId",
          "type": "uint256"
        },
        {
          "internalType": "address",
          "name": "_bider",
          "type": "address"
        }
      ],
      "name": "rejectOffer",
      "outputs": [],
      "stateMutability": "nonpayable",
      "type": "function"
    },
    {
      "inputs": [
        {
          "internalType": "uint256",
          "name": "_tokenId",
          "type": "uint256"
        }
      ],
      "name": "hasMadeOffer",
      "outputs": [
        {
          "internalType": "bool",
          "name": "",
          "type": "bool"
        }
      ],
      "stateMutability": "view",
      "type": "function"
    },
    {
      "inputs": [
        {
          "internalType": "uint256",
          "name": "_tokenId",
          "type": "uint256"
        },
        {
          "internalType": "address",
          "name": "_bider",
          "type": "address"
        }
      ],
      "name": "acceptOffer",
      "outputs": [],
      "stateMutability": "payable",
      "type": "function"
    },
    {
      "inputs": [
        {
          "internalType": "string",
          "name": "_brand",
          "type": "string"
        },
        {
          "internalType": "string",
          "name": "_model",
          "type": "string"
        }
      ],
      "name": "hasCar",
      "outputs": [
        {
          "internalType": "bool",
          "name": "",
          "type": "bool"
        }
      ],
      "stateMutability": "view",
      "type": "function"
    }
  ],
  "bytecode": "0x60806040523480156200001157600080fd5b5060405162003970380380620039708339810160408190526200003491620000c2565b60405180604001604052806008815260200167436172426c6f636b60c01b8152506040518060400160405280600381526020016243424b60e81b815250816000908162000082919062000226565b50600162000091828262000226565b5060089150620000a49050828262000226565b5050620002f2565b634e487b7160e01b600052604160045260246000fd5b60006020808385031215620000d657600080fd5b82516001600160401b0380821115620000ee57600080fd5b818501915085601f8301126200010357600080fd5b815181811115620001185762000118620000ac565b604051601f8201601f19908116603f01168101908382118183101715620001435762000143620000ac565b8160405282815288868487010111156200015c57600080fd5b600093505b8284101562000180578484018601518185018701529285019262000161565b600086848301015280965050505050505092915050565b600181811c90821680620001ac57607f821691505b602082108103620001cd57634e487b7160e01b600052602260045260246000fd5b50919050565b601f8211156200022157600081815260208120601f850160051c81016020861015620001fc5750805b601f850160051c820191505b818110156200021d5782815560010162000208565b5050505b505050565b81516001600160401b03811115620002425762000242620000ac565b6200025a8162000253845462000197565b84620001d3565b602080601f831160018114620002925760008415620002795750858301515b600019600386901b1c1916600185901b1785556200021d565b600085815260208120601f198616915b82811015620002c357888601518255948401946001909101908401620002a2565b5085821015620002e25787850151600019600388901b60f8161c191681555b5050505050600190811b01905550565b61366e80620003026000396000f3fe60806040526004361061019c5760003560e01c8063918d407d116100ec578063b88d4fde1161008a578063dfa49e6f11610064578063dfa49e6f146104b9578063e985e9c5146104e6578063eff2ef7b1461052f578063f7d975771461054457600080fd5b8063b88d4fde14610459578063c87b56dd14610479578063db9371c21461049957600080fd5b8063a1481709116100c6578063a1481709146103bf578063a22cb465146103ec578063a82379011461040c578063ad248ef61461043957600080fd5b8063918d407d1461037757806395d89b411461038a57806397d1a88d1461039f57600080fd5b806323b872dd116101595780636352211e116101335780636352211e146102f55780636457c4f81461031557806370a08231146103355780638d16a7951461035557600080fd5b806323b872dd146102a057806342842e0e146102c057806350c9496a146102e057600080fd5b806301ffc9a7146101a157806305604026146101d657806306fdde03146101f857806307dd094f1461021a578063081812fc14610248578063095ea7b314610280575b600080fd5b3480156101ad57600080fd5b506101c16101bc366004612b22565b610564565b60405190151581526020015b60405180910390f35b3480156101e257600080fd5b506101f66101f1366004612b3f565b6105b6565b005b34801561020457600080fd5b5061020d6106e8565b6040516101cd9190612c34565b34801561022657600080fd5b5061023a610235366004612c82565b61077a565b6040519081526020016101cd565b34801561025457600080fd5b50610268610263366004612d32565b610a6f565b6040516001600160a01b0390911681526020016101cd565b34801561028c57600080fd5b506101f661029b366004612d4b565b610a96565b3480156102ac57600080fd5b506101f66102bb366004612d75565b610bab565b3480156102cc57600080fd5b506101f66102db366004612d75565b610bdc565b3480156102ec57600080fd5b5061020d610bf7565b34801561030157600080fd5b50610268610310366004612d32565b610c85565b34801561032157600080fd5b506101f6610330366004612db1565b610ce5565b34801561034157600080fd5b5061023a610350366004612de6565b610e28565b34801561036157600080fd5b5061036a610eae565b6040516101cd9190612ec4565b6101f6610385366004612f26565b6111f1565b34801561039657600080fd5b5061020d611216565b3480156103ab57600080fd5b506101c16103ba366004612d32565b611225565b3480156103cb57600080fd5b506103df6103da366004612d32565b6112a8565b6040516101cd9190612f52565b3480156103f857600080fd5b506101f6610407366004612f65565b61155a565b34801561041857600080fd5b5061042c610427366004612d32565b611565565b6040516101cd9190612f8f565b34801561044557600080fd5b506101c16104543660046130d5565b6116e7565b34801561046557600080fd5b506101f6610474366004613139565b611810565b34801561048557600080fd5b5061020d610494366004612d32565b611848565b3480156104a557600080fd5b506101f66104b4366004612f26565b611958565b3480156104c557600080fd5b506104d96104d4366004612d32565b611b16565b6040516101cd91906131b5565b3480156104f257600080fd5b506101c161050136600461321b565b6001600160a01b03918216600090815260056020908152604080832093909416825291909152205460ff1690565b34801561053b57600080fd5b5061036a611bd5565b34801561055057600080fd5b506101f661055f366004613245565b611f1f565b60006001600160e01b031982166380ac58cd60e01b148061059557506001600160e01b03198216635b5e139f60e01b145b806105b057506301ffc9a760e01b6001600160e01b03198316145b92915050565b856105c081610c85565b6001600160a01b0316336001600160a01b0316146105f95760405162461bcd60e51b81526004016105f090613267565b60405180910390fd5b600b6000888152602001908152602001600020604051806080016040528088815260200186815260200187600381111561063557610635612e01565b815260200185858080601f0160208091040260200160405190810160405280939291908181526020018383808284376000920182905250939094525050835460018181018655948252602091829020845160049092020190815590830151818501556040830151600282018054949592949193509160ff19909116908360038111156106c3576106c3612e01565b0217905550606082015160038201906106dc9082613320565b50505050505050505050565b6060600080546106f79061329e565b80601f01602080910402602001604051908101604052809291908181526020018280546107239061329e565b80156107705780601f1061074557610100808354040283529160200191610770565b820191906000526020600020905b81548152906001019060200180831161075357829003601f168201915b5050505050905090565b600061078a600780546001019055565b60096040518060a001604052806107a060075490565b81526020018560028111156107b7576107b7612e01565b815260200160405180608001604052808a8152602001898960008181106107e0576107e06133e0565b90506020028101906107f291906133f6565b8080601f0160208091040260200160405190810160405280939291908181526020018383808284376000920191909152505050908252506020018989600181811061083f5761083f6133e0565b905060200281019061085191906133f6565b8080601f0160208091040260200160405190810160405280939291908181526020018383808284376000920191909152505050908252506020018989600281811061089e5761089e6133e0565b90506020028101906108b091906133f6565b8080601f0160208091040260200160405190810160405280939291908181526020018383808284376000920182905250939094525050918352506020808301829052861515604090930192909252835460018181018655948252908290208351600890920201908155908201518184018054939492939192909160ff19169083600281111561094157610941612e01565b02179055506040820151805160028301908155602082015160038401906109689082613320565b506040820151600282019061097d9082613320565b50606082015160038201906109929082613320565b505050606082015160068201556080909101516007918201805460ff1916911515919091179055546109c5908890611fd0565b610a306109d160075490565b868660038181106109e4576109e46133e0565b90506020028101906109f691906133f6565b8080601f01602080910402602001604051908101604052809392919081815260200183838082843760009201919091525061216992505050565b6001600160a01b0387166000908152600a6020526040902060075481546001810183556000928352602090922090910155600754979650505050505050565b6000610a7a826121fc565b506000908152600460205260409020546001600160a01b031690565b6000610aa182610c85565b9050806001600160a01b0316836001600160a01b031603610b0e5760405162461bcd60e51b815260206004820152602160248201527f4552433732313a20617070726f76616c20746f2063757272656e74206f776e656044820152603960f91b60648201526084016105f0565b336001600160a01b0382161480610b2a5750610b2a8133610501565b610b9c5760405162461bcd60e51b815260206004820152603d60248201527f4552433732313a20617070726f76652063616c6c6572206973206e6f7420746f60448201527f6b656e206f776e6572206f7220617070726f76656420666f7220616c6c00000060648201526084016105f0565b610ba6838361225e565b505050565b610bb533826122cc565b610bd15760405162461bcd60e51b81526004016105f090613444565b610ba683838361234a565b610ba683838360405180602001604052806000815250611810565b60088054610c049061329e565b80601f0160208091040260200160405190810160405280929190818152602001828054610c309061329e565b8015610c7d5780601f10610c5257610100808354040283529160200191610c7d565b820191906000526020600020905b815481529060010190602001808311610c6057829003601f168201915b505050505081565b6000818152600260205260408120546001600160a01b0316806105b05760405162461bcd60e51b8152602060048201526018602482015277115490cdcc8c4e881a5b9d985b1a59081d1bdad95b88125160421b60448201526064016105f0565b806001600160a01b0316610cf884610c85565b6001600160a01b031614610d4e5760405162461bcd60e51b815260206004820152601f60248201527f4572723a20726563697069656e74206e6f74206f776e6572206f66204e46540060448201526064016105f0565b6000838152600c6020526040902054600a11610da55760405162461bcd60e51b815260206004820152601660248201527508ae4e47440626040decccccae4e65e9c8ca840dac2f60531b60448201526064016105f0565b6000928352600c602090815260408085208151606081018352948552338584019081526001600160a01b039485169286019283528154600181810184559288529390962094516003909302909401918255935192810180549383166001600160a01b03199485161790559251600290930180549390911692909116919091179055565b60006001600160a01b038216610e925760405162461bcd60e51b815260206004820152602960248201527f4552433732313a2061646472657373207a65726f206973206e6f7420612076616044820152683634b21037bbb732b960b91b60648201526084016105f0565b506001600160a01b031660009081526003602052604090205490565b60095460609060009067ffffffffffffffff811115610ecf57610ecf613029565b604051908082528060200260200182016040528015610f0857816020015b610ef5612a5e565b815260200190600190039081610eed5790505b5090506000805b6009548110156111e95760098181548110610f2c57610f2c6133e0565b600091825260209091206007600890920201015460ff1615156001036111d75760098181548110610f5f57610f5f6133e0565b90600052602060002090600802016040518060a0016040529081600082015481526020016001820160009054906101000a900460ff166002811115610fa657610fa6612e01565b6002811115610fb757610fb7612e01565b81526020016002820160405180608001604052908160008201548152602001600182018054610fe59061329e565b80601f01602080910402602001604051908101604052809291908181526020018280546110119061329e565b801561105e5780601f106110335761010080835404028352916020019161105e565b820191906000526020600020905b81548152906001019060200180831161104157829003601f168201915b505050505081526020016002820180546110779061329e565b80601f01602080910402602001604051908101604052809291908181526020018280546110a39061329e565b80156110f05780601f106110c5576101008083540402835291602001916110f0565b820191906000526020600020905b8154815290600101906020018083116110d357829003601f168201915b505050505081526020016003820180546111099061329e565b80601f01602080910402602001604051908101604052809291908181526020018280546111359061329e565b80156111825780601f1061115757610100808354040283529160200191611182565b820191906000526020600020905b81548152906001019060200180831161116557829003601f168201915b5050509190925250505081526006820154602082015260079091015460ff16151560409091015283518490849081106111bd576111bd6133e0565b602002602001018190525081806111d3906134a7565b9250505b806111e1816134a7565b915050610f0f565b509092915050565b6111fb81836124bb565b6000828152600c6020526040812061121291612ab7565b5050565b6060600180546106f79061329e565b6000805b6000838152600c602052604090205481101561129f576000838152600c60205260409020805433919083908110611262576112626133e0565b60009182526020909120600160039092020101546001600160a01b03160361128d5750600192915050565b80611297816134a7565b915050611229565b50600092915050565b6112b0612a5e565b816112ba81610c85565b6001600160a01b0316336001600160a01b0316146112ea5760405162461bcd60e51b81526004016105f090613267565b60096112f76001856134c0565b81548110611307576113076133e0565b90600052602060002090600802016040518060a0016040529081600082015481526020016001820160009054906101000a900460ff16600281111561134e5761134e612e01565b600281111561135f5761135f612e01565b8152602001600282016040518060800160405290816000820154815260200160018201805461138d9061329e565b80601f01602080910402602001604051908101604052809291908181526020018280546113b99061329e565b80156114065780601f106113db57610100808354040283529160200191611406565b820191906000526020600020905b8154815290600101906020018083116113e957829003601f168201915b5050505050815260200160028201805461141f9061329e565b80601f016020809104026020016040519081016040528092919081815260200182805461144b9061329e565b80156114985780601f1061146d57610100808354040283529160200191611498565b820191906000526020600020905b81548152906001019060200180831161147b57829003601f168201915b505050505081526020016003820180546114b19061329e565b80601f01602080910402602001604051908101604052809291908181526020018280546114dd9061329e565b801561152a5780601f106114ff5761010080835404028352916020019161152a565b820191906000526020600020905b81548152906001019060200180831161150d57829003601f168201915b5050509190925250505081526006820154602082015260079091015460ff16151560409091015291505b50919050565b6112123383836125f4565b60608161157181610c85565b6001600160a01b0316336001600160a01b0316146115a15760405162461bcd60e51b81526004016105f090613267565b6000838152600b6020908152604080832080548251818502810185019093528083529193909284015b828210156116db578382906000526020600020906004020160405180608001604052908160008201548152602001600182015481526020016002820160009054906101000a900460ff16600381111561162557611625612e01565b600381111561163657611636612e01565b815260200160038201805461164a9061329e565b80601f01602080910402602001604051908101604052809291908181526020018280546116769061329e565b80156116c35780601f10611698576101008083540402835291602001916116c3565b820191906000526020600020905b8154815290600101906020018083116116a657829003601f168201915b505050505081525050815260200190600101906115ca565b50505050915050919050565b6000806116f2611bd5565b905060005b8151811015611805578460405160200161171191906134d3565b60405160208183030381529060405280519060200120828281518110611739576117396133e0565b6020026020010151604001516040015160405160200161175991906134d3565b60405160208183030381529060405280519060200120036117f3578360405160200161178591906134d3565b604051602081830303815290604052805190602001208282815181106117ad576117ad6133e0565b602002602001015160400151606001516040516020016117cd91906134d3565b60405160208183030381529060405280519060200120036117f3576001925050506105b0565b806117fd816134a7565b9150506116f7565b506000949350505050565b61181a33836122cc565b6118365760405162461bcd60e51b81526004016105f090613444565b611842848484846126c2565b50505050565b6060611853826121fc565b6000828152600660205260408120805461186c9061329e565b80601f01602080910402602001604051908101604052809291908181526020018280546118989061329e565b80156118e55780601f106118ba576101008083540402835291602001916118e5565b820191906000526020600020905b8154815290600101906020018083116118c857829003601f168201915b50505050509050600061190360408051602081019091526000815290565b90508051600003611915575092915050565b81511561194757808260405160200161192f9291906134ef565b60405160208183030381529060405292505050919050565b611950846126f5565b949350505050565b8161196281610c85565b6001600160a01b0316336001600160a01b0316146119925760405162461bcd60e51b81526004016105f090613267565b60005b6000848152600c6020526040902054811015611842576000848152600c6020526040902080546001600160a01b0385169190839081106119d7576119d76133e0565b60009182526020909120600160039092020101546001600160a01b031603611b04576000848152600c602052604090208054611a15906001906134c0565b81548110611a2557611a256133e0565b9060005260206000209060030201600c60008681526020019081526020016000208281548110611a5757611a576133e0565b60009182526020808320845460039093020191825560018085015490830180546001600160a01b03199081166001600160a01b03938416179091556002958601549590930180549093169416939093179055858152600c90915260409020805480611ac457611ac461351e565b6000828152602081206003600019909301928302019081556001810180546001600160a01b03199081169091556002909101805490911690559055611842565b80611b0e816134a7565b915050611995565b606081611b2281610c85565b6001600160a01b0316336001600160a01b031614611b525760405162461bcd60e51b81526004016105f090613267565b6000838152600c6020908152604080832080548251818502810185019093528083529193909284015b828210156116db5760008481526020908190206040805160608101825260038602909201805483526001808201546001600160a01b0390811685870152600290920154909116918301919091529083529092019101611b7b565b336000908152600a60205260408120546060919067ffffffffffffffff811115611c0157611c01613029565b604051908082528060200260200182016040528015611c3a57816020015b611c27612a5e565b815260200190600190039081611c1f5790505b50905060005b336000908152600a602052604090205481101561155457336000908152600a60205260409020805460099160019184908110611c7e57611c7e6133e0565b9060005260206000200154611c9391906134c0565b81548110611ca357611ca36133e0565b90600052602060002090600802016040518060a0016040529081600082015481526020016001820160009054906101000a900460ff166002811115611cea57611cea612e01565b6002811115611cfb57611cfb612e01565b81526020016002820160405180608001604052908160008201548152602001600182018054611d299061329e565b80601f0160208091040260200160405190810160405280929190818152602001828054611d559061329e565b8015611da25780601f10611d7757610100808354040283529160200191611da2565b820191906000526020600020905b815481529060010190602001808311611d8557829003601f168201915b50505050508152602001600282018054611dbb9061329e565b80601f0160208091040260200160405190810160405280929190818152602001828054611de79061329e565b8015611e345780601f10611e0957610100808354040283529160200191611e34565b820191906000526020600020905b815481529060010190602001808311611e1757829003601f168201915b50505050508152602001600382018054611e4d9061329e565b80601f0160208091040260200160405190810160405280929190818152602001828054611e799061329e565b8015611ec65780601f10611e9b57610100808354040283529160200191611ec6565b820191906000526020600020905b815481529060010190602001808311611ea957829003601f168201915b5050509190925250505081526006820154602082015260079091015460ff1615156040909101528251839083908110611f0157611f016133e0565b60200260200101819052508080611f17906134a7565b915050611c40565b81611f2981610c85565b6001600160a01b0316336001600160a01b031614611f595760405162461bcd60e51b81526004016105f090613267565b816009611f676001866134c0565b81548110611f7757611f776133e0565b600091825260209091206006600890920201015560016009611f9982866134c0565b81548110611fa957611fa96133e0565b60009182526020909120600890910201600701805460ff1916911515919091179055505050565b6001600160a01b0382166120265760405162461bcd60e51b815260206004820181905260248201527f4552433732313a206d696e7420746f20746865207a65726f206164647265737360448201526064016105f0565b6000818152600260205260409020546001600160a01b03161561208b5760405162461bcd60e51b815260206004820152601c60248201527f4552433732313a20746f6b656e20616c7265616479206d696e7465640000000060448201526064016105f0565b612099600083836001612769565b6000818152600260205260409020546001600160a01b0316156120fe5760405162461bcd60e51b815260206004820152601c60248201527f4552433732313a20746f6b656e20616c7265616479206d696e7465640000000060448201526064016105f0565b6001600160a01b038216600081815260036020908152604080832080546001019055848352600290915280822080546001600160a01b0319168417905551839291907fddf252ad1be2c89b69c2b068fc378daa952ba7f163c4a11628f55a4df523b3ef908290a45050565b6000828152600260205260409020546001600160a01b03166121e45760405162461bcd60e51b815260206004820152602e60248201527f45524337323155524953746f726167653a2055524920736574206f66206e6f6e60448201526d32bc34b9ba32b73a103a37b5b2b760911b60648201526084016105f0565b6000828152600660205260409020610ba68282613320565b6000818152600260205260409020546001600160a01b031661225b5760405162461bcd60e51b8152602060048201526018602482015277115490cdcc8c4e881a5b9d985b1a59081d1bdad95b88125160421b60448201526064016105f0565b50565b600081815260046020526040902080546001600160a01b0319166001600160a01b038416908117909155819061229382610c85565b6001600160a01b03167f8c5be1e5ebec7d5bd14f71427d1e84f3dd0314c0f7b2291e5b200ac8c7c3b92560405160405180910390a45050565b6000806122d883610c85565b9050806001600160a01b0316846001600160a01b0316148061231f57506001600160a01b0380821660009081526005602090815260408083209388168352929052205460ff165b806119505750836001600160a01b031661233884610a6f565b6001600160a01b031614949350505050565b826001600160a01b031661235d82610c85565b6001600160a01b0316146123835760405162461bcd60e51b81526004016105f090613534565b6001600160a01b0382166123e55760405162461bcd60e51b8152602060048201526024808201527f4552433732313a207472616e7366657220746f20746865207a65726f206164646044820152637265737360e01b60648201526084016105f0565b6123f28383836001612769565b826001600160a01b031661240582610c85565b6001600160a01b03161461242b5760405162461bcd60e51b81526004016105f090613534565b600081815260046020908152604080832080546001600160a01b03199081169091556001600160a01b0387811680865260038552838620805460001901905590871680865283862080546001019055868652600290945282852080549092168417909155905184937fddf252ad1be2c89b69c2b068fc378daa952ba7f163c4a11628f55a4df523b3ef91a4505050565b6124c633838361234a565b60005b336000908152600a60205260409020548110156125c757336000908152600a60205260409020805483919083908110612504576125046133e0565b9060005260206000200154036125b557336000908152600a602052604090208054612531906001906134c0565b81548110612541576125416133e0565b6000918252602080832090910154338352600a909152604090912080548390811061256e5761256e6133e0565b6000918252602080832090910192909255338152600a9091526040902080548061259a5761259a61351e565b600190038181906000526020600020016000905590556125c7565b806125bf816134a7565b9150506124c9565b506001600160a01b039091166000908152600a602090815260408220805460018101825590835291200155565b816001600160a01b0316836001600160a01b0316036126555760405162461bcd60e51b815260206004820152601960248201527f4552433732313a20617070726f766520746f2063616c6c65720000000000000060448201526064016105f0565b6001600160a01b03838116600081815260056020908152604080832094871680845294825291829020805460ff191686151590811790915591519182527f17307eab39ab6107e8899845ad3d59bd9653f200f220920489ca2b5937696c31910160405180910390a3505050565b6126cd84848461234a565b6126d9848484846127f1565b6118425760405162461bcd60e51b81526004016105f090613579565b6060612700826121fc565b600061271760408051602081019091526000815290565b905060008151116127375760405180602001604052806000815250612762565b80612741846128f2565b6040516020016127529291906134ef565b6040516020818303038152906040525b9392505050565b6001811115611842576001600160a01b038416156127af576001600160a01b038416600090815260036020526040812080548392906127a99084906134c0565b90915550505b6001600160a01b03831615611842576001600160a01b038316600090815260036020526040812080548392906127e69084906135cb565b909155505050505050565b60006001600160a01b0384163b156128e757604051630a85bd0160e11b81526001600160a01b0385169063150b7a02906128359033908990889088906004016135de565b6020604051808303816000875af1925050508015612870575060408051601f3d908101601f1916820190925261286d9181019061361b565b60015b6128cd573d80801561289e576040519150601f19603f3d011682016040523d82523d6000602084013e6128a3565b606091505b5080516000036128c55760405162461bcd60e51b81526004016105f090613579565b805181602001fd5b6001600160e01b031916630a85bd0160e11b149050611950565b506001949350505050565b606060006128ff83612986565b600101905060008167ffffffffffffffff81111561291f5761291f613029565b6040519080825280601f01601f191660200182016040528015612949576020820181803683370190505b5090508181016020015b600019016f181899199a1a9b1b9c1cb0b131b232b360811b600a86061a8153600a8504945084612953575b509392505050565b60008072184f03e93ff9f4daa797ed6e38ed64bf6a1f0160401b83106129c55772184f03e93ff9f4daa797ed6e38ed64bf6a1f0160401b830492506040015b6d04ee2d6d415b85acef810000000083106129f1576d04ee2d6d415b85acef8100000000830492506020015b662386f26fc100008310612a0f57662386f26fc10000830492506010015b6305f5e1008310612a27576305f5e100830492506008015b6127108310612a3b57612710830492506004015b60648310612a4d576064830492506002015b600a83106105b05760010192915050565b6040805160a08101909152600080825260208201908152602001612aa36040518060800160405280600081526020016060815260200160608152602001606081525090565b815260006020820181905260409091015290565b508054600082556003029060005260206000209081019061225b91905b80821115612b0857600081556001810180546001600160a01b03199081169091556002820180549091169055600301612ad4565b5090565b6001600160e01b03198116811461225b57600080fd5b600060208284031215612b3457600080fd5b813561276281612b0c565b60008060008060008060a08789031215612b5857600080fd5b8635955060208701359450604087013560048110612b7557600080fd5b935060608701359250608087013567ffffffffffffffff80821115612b9957600080fd5b818901915089601f830112612bad57600080fd5b813581811115612bbc57600080fd5b8a6020828501011115612bce57600080fd5b6020830194508093505050509295509295509295565b60005b83811015612bff578181015183820152602001612be7565b50506000910152565b60008151808452612c20816020860160208601612be4565b601f01601f19169290920160200192915050565b6020815260006127626020830184612c08565b80356001600160a01b0381168114612c5e57600080fd5b919050565b803560038110612c5e57600080fd5b80358015158114612c5e57600080fd5b60008060008060008060a08789031215612c9b57600080fd5b612ca487612c47565b955060208701359450604087013567ffffffffffffffff80821115612cc857600080fd5b818901915089601f830112612cdc57600080fd5b813581811115612ceb57600080fd5b8a60208260051b8501011115612d0057600080fd5b602083019650809550505050612d1860608801612c63565b9150612d2660808801612c72565b90509295509295509295565b600060208284031215612d4457600080fd5b5035919050565b60008060408385031215612d5e57600080fd5b612d6783612c47565b946020939093013593505050565b600080600060608486031215612d8a57600080fd5b612d9384612c47565b9250612da160208501612c47565b9150604084013590509250925092565b600080600060608486031215612dc657600080fd5b8335925060208401359150612ddd60408501612c47565b90509250925092565b600060208284031215612df857600080fd5b61276282612c47565b634e487b7160e01b600052602160045260246000fd5b805182526000602082015160038110612e3257612e32612e01565b80602085015250604082015160a06040850152805160a08501526020810151608060c0860152612e66610120860182612c08565b90506040820151609f19808784030160e0880152612e848383612c08565b92506060840151935080878403016101008801525050612ea48183612c08565b91505060608301516060850152608083015161297e608086018215159052565b6000602080830181845280855180835260408601915060408160051b870101925083870160005b82811015612f1957603f19888603018452612f07858351612e17565b94509285019290850190600101612eeb565b5092979650505050505050565b60008060408385031215612f3957600080fd5b82359150612f4960208401612c47565b90509250929050565b6020815260006127626020830184612e17565b60008060408385031215612f7857600080fd5b612f8183612c47565b9150612f4960208401612c72565b60006020808301818452808551808352604092508286019150828160051b87010184880160005b8381101561301b57603f19898403018552815160808151855288820151898601528782015160048110612feb57612feb612e01565b8589015260609182015191850181905261300781860183612c08565b968901969450505090860190600101612fb6565b509098975050505050505050565b634e487b7160e01b600052604160045260246000fd5b600067ffffffffffffffff8084111561305a5761305a613029565b604051601f8501601f19908116603f0116810190828211818310171561308257613082613029565b8160405280935085815286868601111561309b57600080fd5b858560208301376000602087830101525050509392505050565b600082601f8301126130c657600080fd5b6127628383356020850161303f565b600080604083850312156130e857600080fd5b823567ffffffffffffffff8082111561310057600080fd5b61310c868387016130b5565b9350602085013591508082111561312257600080fd5b5061312f858286016130b5565b9150509250929050565b6000806000806080858703121561314f57600080fd5b61315885612c47565b935061316660208601612c47565b925060408501359150606085013567ffffffffffffffff81111561318957600080fd5b8501601f8101871361319a57600080fd5b6131a98782356020840161303f565b91505092959194509250565b602080825282518282018190526000919060409081850190868401855b8281101561320e57815180518552868101516001600160a01b0390811688870152908601511685850152606090930192908501906001016131d2565b5091979650505050505050565b6000806040838503121561322e57600080fd5b61323783612c47565b9150612f4960208401612c47565b6000806040838503121561325857600080fd5b50508035926020909101359150565b6020808252601b908201527f4572723a206e6f7420746865206f776e6572206f6620746f6b656e0000000000604082015260600190565b600181811c908216806132b257607f821691505b60208210810361155457634e487b7160e01b600052602260045260246000fd5b601f821115610ba657600081815260208120601f850160051c810160208610156132f95750805b601f850160051c820191505b8181101561331857828155600101613305565b505050505050565b815167ffffffffffffffff81111561333a5761333a613029565b61334e81613348845461329e565b846132d2565b602080601f831160018114613383576000841561336b5750858301515b600019600386901b1c1916600185901b178555613318565b600085815260208120601f198616915b828110156133b257888601518255948401946001909101908401613393565b50858210156133d05787850151600019600388901b60f8161c191681555b5050505050600190811b01905550565b634e487b7160e01b600052603260045260246000fd5b6000808335601e1984360301811261340d57600080fd5b83018035915067ffffffffffffffff82111561342857600080fd5b60200191503681900382131561343d57600080fd5b9250929050565b6020808252602d908201527f4552433732313a2063616c6c6572206973206e6f7420746f6b656e206f776e6560408201526c1c881bdc88185c1c1c9bdd9959609a1b606082015260800190565b634e487b7160e01b600052601160045260246000fd5b6000600182016134b9576134b9613491565b5060010190565b818103818111156105b0576105b0613491565b600082516134e5818460208701612be4565b9190910192915050565b60008351613501818460208801612be4565b835190830190613515818360208801612be4565b01949350505050565b634e487b7160e01b600052603160045260246000fd5b60208082526025908201527f4552433732313a207472616e736665722066726f6d20696e636f72726563742060408201526437bbb732b960d91b606082015260800190565b60208082526032908201527f4552433732313a207472616e7366657220746f206e6f6e20455243373231526560408201527131b2b4bb32b91034b6b83632b6b2b73a32b960711b606082015260800190565b808201808211156105b0576105b0613491565b6001600160a01b038581168252841660208201526040810183905260806060820181905260009061361190830184612c08565b9695505050505050565b60006020828403121561362d57600080fd5b815161276281612b0c56fea2646970667358221220d2d2b1f889a50c2d9e09ede452eaab004c0010fa503bfdb8c2064140ce0f669164736f6c63430008110033",
  "immutableReferences": {},
  "source": "// SPDX-License-Identifier: MIT\npragma solidity 0.8.17;\n\nimport \"../node_modules/@openzeppelin/contracts/token/ERC721/extensions/ERC721URIStorage.sol\";\nimport \"../node_modules/@openzeppelin/contracts/utils/Counters.sol\";\n\n/// @title The CarBlocks Smart Contract\n/// @author Quentin COLLETTE & Maxime LESBROS\n/// @notice Smart Contract allowing to manage NFT associated with cars\n/// @dev Stay away from this or you're facing sleep deprivation\ncontract CarBlocks is ERC721URIStorage {\n    using Counters for Counters.Counter;\n\n    /// @notice counter to increment id of carblock NFT\n    Counters.Counter private _tokenIds;\n\n    /// @notice this will differentiate the various collections (gasoline, diesel, hybrid...)\n    string public energyType;\n\n    /// @notice forcing the name and symbol for our Carblock token\n    string constant _NAME = \"CarBlock\";\n    string constant _SYMBOL = \"CBK\";\n\n    /// @notice Defines the various states a car can be in\n    enum CarState {\n        circulation,\n        accident,\n        scrapped\n    }\n\n    /// @notice Defines the various maintenance types that can occur\n    enum MaintenanceType {\n        revision,\n        technicalControl,\n        partsChange,\n        tireChange\n    }\n\n    /// @notice Holds constant information about a Car\n    struct Car {\n        uint256 circulationStartDate;\n        string VIN;\n        string brand;\n        string model;\n    }\n\n    /// @notice Holds information linked to a maintenance operation\n    struct Maintenance {\n        uint256 date;\n        uint256 kilometers;\n        MaintenanceType mType;\n        string maintenanceURI;\n    }\n\n    /// @notice Defines the carblock NFT structure\n    struct Carblock {\n        uint256 tokenId;\n        CarState carState;\n        Car car;\n        uint256 price;\n        bool isForSale;\n    }\n\n    ///@notice Defines a way to store offers made by users\n    struct Offer {\n        uint256 price;\n        address user;\n        address recipient;\n    }\n\n    /// @notice Make sure contract caller is owner of _tokenId\n    modifier isNFTOwner(uint256 _tokenId) {\n        require(msg.sender == ownerOf(_tokenId), \"Err: not the owner of token\");\n        _;\n    }\n\n    /// @notice This array holds all the minted NFTs\n    Carblock[] private carblocksNFT;\n\n    //TODO : qui peut appeler _users ?\n    mapping(address => uint256[]) private _users; // address => [tokenID]\n    mapping(uint256 => Maintenance[]) private _allMaintenances; // tokenID => [Maintenance1, Maintenance2]\n    mapping(uint256 => Offer[]) private _allOffers; // tokenId => [{price, user}]\n\n    constructor(string memory _energyType) ERC721(_NAME, _SYMBOL) {\n        energyType = _energyType;\n    }\n\n    /// @notice Retrieve NFT from token ID\n    /// @dev Get the Carblock struct with the NFT token ID\n    /// @param _tokenId NFT token ID\n    /// @return Carblock\n    function getCarblock(uint256 _tokenId)\n        external\n        view\n        isNFTOwner(_tokenId)\n        returns (Carblock memory)\n    {\n        return carblocksNFT[_tokenId - 1];\n    }\n\n    //TODO: accessible only to NFT owner ?\n    /// @notice Retrieve all NFTs of contract caller\n    /// @dev Get an array of Carblock struct with the NFT token ID\n    /// @return carblocks an array of carblock NFT\n    function getCarblocks() public view returns (Carblock[] memory) {\n        Carblock[] memory carblocks = new Carblock[](_users[msg.sender].length);\n\n        for (uint256 i = 0; i < _users[msg.sender].length; i++) {\n            carblocks[i] = carblocksNFT[_users[msg.sender][i] - 1];\n        }\n        return carblocks;\n    }\n\n    /// @notice Retrieve all NFTs that are for sale\n    /// @dev The returned array of Carblock might not be completely full\n    /// @return Carblock[] the list of carblocks NFT\n    function getCarblocksForSale() external view returns (Carblock[] memory) {\n        Carblock[] memory carblocksForSale = new Carblock[](\n            carblocksNFT.length\n        );\n        uint256 counter;\n        for (uint256 i = 0; i < carblocksNFT.length; i++) {\n            if (carblocksNFT[i].isForSale == true) {\n                carblocksForSale[counter] = carblocksNFT[i];\n                counter++;\n            }\n        }\n        return carblocksForSale;\n    }\n\n    /// @notice Allow NFT Owner to set a price for his car\n    /// @dev _\n    /// @param _tokenId NFT token ID\n    /// @param _price expected price\n    function setPrice(uint256 _tokenId, uint256 _price)\n        external\n        isNFTOwner(_tokenId)\n    {\n        carblocksNFT[_tokenId - 1].price = _price;\n        carblocksNFT[_tokenId - 1].isForSale = true;\n    }\n\n    /// @notice Add a new maintenance to a specific NFT\n    /// @dev After the maintenance file has been upload to IPFS call this method to update maintenanceURI\n    /// @param _tokenId NFT token ID\n    /// @param _date Date of maintenance\n    /// @param _mType Type of maintenance (enum)\n    /// @param _kilometers Total distance of the car at time of maintenance\n    /// @param _maintenanceURI URI of maintenance JSON file on IPFS\n    function addMaintenance(\n        uint256 _tokenId,\n        uint256 _date,\n        MaintenanceType _mType,\n        uint256 _kilometers,\n        string calldata _maintenanceURI\n    ) external isNFTOwner(_tokenId) {\n        _allMaintenances[_tokenId].push(\n            Maintenance(_date, _kilometers, _mType, _maintenanceURI)\n        );\n    }\n\n    /// @notice Get list of all maintenances done on a car from a NFT token ID\n    /// @dev Return an array of Maintenance struct\n    /// @param _tokenId NFT token ID\n    /// @return Maintenance[]\n    function getMaintenances(uint256 _tokenId)\n        external\n        view\n        isNFTOwner(_tokenId)\n        returns (Maintenance[] memory)\n    {\n        return _allMaintenances[_tokenId];\n    }\n\n    //TODO : check memory vs calldata\n    //TODO : payable\n    /// @notice Allow user to mint a new Carblock NFT\n    /// @dev We use _mint instead of _safeMint as we don't need to check if _user is a contract\n    /// @param _user address of the future owner of minted NFT\n    /// @param _circulationStartDate first circulation date of owner's car\n    /// @param _vInfo array with [VIN, brand, model, tokenURI] in this order\n    /// @param _state car's state (ENUM)\n    /// @param _isForSale wether the car is for sale\n    function mintCarblock(\n        address _user,\n        uint256 _circulationStartDate,\n        string[] calldata _vInfo,\n        CarState _state,\n        bool _isForSale\n    ) external returns (uint256) {\n        _tokenIds.increment(); // Increment NFT ID (starts at 0)\n\n        carblocksNFT.push(\n            Carblock(\n                _tokenIds.current(),\n                _state,\n                Car(_circulationStartDate, _vInfo[0], _vInfo[1], _vInfo[2]),\n                0,\n                _isForSale\n            )\n        );\n\n        //uint256 newTokenId = _tokenIds.current();\n        _mint(_user, _tokenIds.current());\n        _setTokenURI(_tokenIds.current(), _vInfo[3]);\n        _users[_user].push(_tokenIds.current());\n\n        return _tokenIds.current();\n    }\n\n    /** -- OFFERS MANAGEMENT --*/\n\n    /// @notice Allow user to make an offer for NFT\n    /// @dev Limit to 10 offers per NFT\n    /// @param _tokenId Token ID of NFT that user wants to purchase\n    /// @param _price price offer of user\n    /// @param _recipient address of offer recipient\n    function makeOffer(\n        uint256 _tokenId,\n        uint256 _price,\n        address _recipient\n    ) external {\n        require(\n            ownerOf(_tokenId) == _recipient,\n            \"Err: recipient not owner of NFT\"\n        );\n        require(_allOffers[_tokenId].length < 10, \"Err: 10 offers/NFT max\");\n        _allOffers[_tokenId].push(Offer(_price, msg.sender, _recipient));\n    }\n\n    /// @notice Allow user to retrieve all offers for a NFT\n    /// @dev Limit to 10 offers per NFT\n    /// @param _tokenId Token ID of NFT that user wants to purchase\n    /// @return allOffers an array of offers\n    function getOffers(uint256 _tokenId)\n        external\n        view\n        isNFTOwner(_tokenId)\n        returns (Offer[] memory)\n    {\n        return _allOffers[_tokenId];\n    }\n\n    /// @notice Reject an offer\n    /// @dev Remove offer of _bider from allOffers\n    /// @param _tokenId of offer to reject\n    /// @param _bider address of user who made the offer\n    function rejectOffer(uint256 _tokenId, address _bider)\n        external\n        isNFTOwner(_tokenId)\n    {\n        for (uint256 i = 0; i < _allOffers[_tokenId].length; i++) {\n            if (_allOffers[_tokenId][i].user == _bider) {\n                // We switch with the last element in array\n                _allOffers[_tokenId][i] = _allOffers[_tokenId][\n                    _allOffers[_tokenId].length - 1\n                ];\n                _allOffers[_tokenId].pop();\n                break;\n            }\n        }\n    }\n\n    /// @notice Check if user has made an offer on NFT\n    /// @param _tokenId NFT token ID\n    /// @return bool true if contract caller has already made an offer\n    function hasMadeOffer(uint256 _tokenId) external view returns (bool) {\n        for (uint256 i = 0; i < _allOffers[_tokenId].length; i++) {\n            if (_allOffers[_tokenId][i].user == msg.sender) {\n                return true;\n            }\n        }\n        return false;\n    }\n\n    /// @notice Accept an offer and transfer NFT to bider\n    /// @dev Delete all offers in _allOffers and call transfertCarblockNFT\n    /// @param _tokenId NFT token ID\n    /// @param _bider user that made the accepted offer\n    function acceptOffer(uint256 _tokenId, address _bider) external payable {\n        transferCarblockNFT(_bider, _tokenId);\n        delete _allOffers[_tokenId];\n    }\n\n    /** - OFFERS MANAGEMENT - */\n\n    //TODO : check visibility\n    /// @notice Transfer a NFT when an owner is selling his vehicle to new owner\n    /// @dev Uses _transfer to update owner and update the '_users' mapping (don't need _safeTransfer for same reason as _safeMint)\n    /// @param _to address of the new NFT owner\n    /// @param _tokenId Token ID of NFT to transfer\n    function transferCarblockNFT(address _to, uint256 _tokenId) internal {\n        _transfer(msg.sender, _to, _tokenId);\n\n        for (uint256 i = 0; i < _users[msg.sender].length; i++) {\n            if (_users[msg.sender][i] == _tokenId) {\n                // We switch with the last element of array\n                _users[msg.sender][i] = _users[msg.sender][\n                    _users[msg.sender].length - 1\n                ];\n                _users[msg.sender].pop();\n                break;\n            }\n        }\n        _users[_to].push(_tokenId);\n    }\n\n    /// @notice Check if user has a specific brand & model of car so that he can give his opinion\n    /// @dev Uses getCarblocks to retrieve list of car and then string compares _brand & _model\n    /// @param _brand brand of car\n    /// @param _model model of car\n    function hasCar(string memory _brand, string memory _model)\n        external\n        view\n        returns (bool)\n    {\n        Carblock[] memory carblocks = getCarblocks();\n        for (uint256 i = 0; i < carblocks.length; i++) {\n            if (\n                (keccak256(abi.encodePacked(carblocks[i].car.brand)) ==\n                    keccak256(abi.encodePacked(_brand)))\n            ) {\n                if (\n                    (keccak256(abi.encodePacked(carblocks[i].car.model)) ==\n                        keccak256(abi.encodePacked(_model)))\n                ) {\n                    return true;\n                }\n            }\n        }\n        return false;\n    }\n}\n",
  "sourcePath": "/home/mlazzje/projects/alyra/CarBlocks/truffle/contracts/CarBlocks.sol",
  "compiler": {
    "name": "solc",
    "version": "0.8.17+commit.8df45f5f.Emscripten.clang"
  },
  "schemaVersion": "3.4.10",
  "updatedAt": "2022-12-11T19:28:22.928Z",
  "devdoc": {
    "author": "Quentin COLLETTE & Maxime LESBROS",
    "details": "Stay away from this or you're facing sleep deprivation",
    "kind": "dev",
    "methods": {
      "acceptOffer(uint256,address)": {
        "details": "Delete all offers in _allOffers and call transfertCarblockNFT",
        "params": {
          "_bider": "user that made the accepted offer",
          "_tokenId": "NFT token ID"
        }
      },
      "addMaintenance(uint256,uint256,uint8,uint256,string)": {
        "details": "After the maintenance file has been upload to IPFS call this method to update maintenanceURI",
        "params": {
          "_date": "Date of maintenance",
          "_kilometers": "Total distance of the car at time of maintenance",
          "_mType": "Type of maintenance (enum)",
          "_maintenanceURI": "URI of maintenance JSON file on IPFS",
          "_tokenId": "NFT token ID"
        }
      },
      "approve(address,uint256)": {
        "details": "See {IERC721-approve}."
      },
      "balanceOf(address)": {
        "details": "See {IERC721-balanceOf}."
      },
      "getApproved(uint256)": {
        "details": "See {IERC721-getApproved}."
      },
      "getCarblock(uint256)": {
        "details": "Get the Carblock struct with the NFT token ID",
        "params": {
          "_tokenId": "NFT token ID"
        },
        "returns": {
          "_0": "Carblock"
        }
      },
      "getCarblocks()": {
        "details": "Get an array of Carblock struct with the NFT token ID",
        "returns": {
          "_0": "carblocks an array of carblock NFT"
        }
      },
      "getCarblocksForSale()": {
        "details": "The returned array of Carblock might not be completely full",
        "returns": {
          "_0": "Carblock[] the list of carblocks NFT"
        }
      },
      "getMaintenances(uint256)": {
        "details": "Return an array of Maintenance struct",
        "params": {
          "_tokenId": "NFT token ID"
        },
        "returns": {
          "_0": "Maintenance[]"
        }
      },
      "getOffers(uint256)": {
        "details": "Limit to 10 offers per NFT",
        "params": {
          "_tokenId": "Token ID of NFT that user wants to purchase"
        },
        "returns": {
          "_0": "allOffers an array of offers"
        }
      },
      "hasCar(string,string)": {
        "details": "Uses getCarblocks to retrieve list of car and then string compares _brand & _model",
        "params": {
          "_brand": "brand of car",
          "_model": "model of car"
        }
      },
      "hasMadeOffer(uint256)": {
        "params": {
          "_tokenId": "NFT token ID"
        },
        "returns": {
          "_0": "bool true if contract caller has already made an offer"
        }
      },
      "isApprovedForAll(address,address)": {
        "details": "See {IERC721-isApprovedForAll}."
      },
      "makeOffer(uint256,uint256,address)": {
        "details": "Limit to 10 offers per NFT",
        "params": {
          "_price": "price offer of user",
          "_recipient": "address of offer recipient",
          "_tokenId": "Token ID of NFT that user wants to purchase"
        }
      },
      "mintCarblock(address,uint256,string[],uint8,bool)": {
        "details": "We use _mint instead of _safeMint as we don't need to check if _user is a contract",
        "params": {
          "_circulationStartDate": "first circulation date of owner's car",
          "_isForSale": "wether the car is for sale",
          "_state": "car's state (ENUM)",
          "_user": "address of the future owner of minted NFT",
          "_vInfo": "array with [VIN, brand, model, tokenURI] in this order"
        }
      },
      "name()": {
        "details": "See {IERC721Metadata-name}."
      },
      "ownerOf(uint256)": {
        "details": "See {IERC721-ownerOf}."
      },
      "rejectOffer(uint256,address)": {
        "details": "Remove offer of _bider from allOffers",
        "params": {
          "_bider": "address of user who made the offer",
          "_tokenId": "of offer to reject"
        }
      },
      "safeTransferFrom(address,address,uint256)": {
        "details": "See {IERC721-safeTransferFrom}."
      },
      "safeTransferFrom(address,address,uint256,bytes)": {
        "details": "See {IERC721-safeTransferFrom}."
      },
      "setApprovalForAll(address,bool)": {
        "details": "See {IERC721-setApprovalForAll}."
      },
      "setPrice(uint256,uint256)": {
        "details": "_",
        "params": {
          "_price": "expected price",
          "_tokenId": "NFT token ID"
        }
      },
      "supportsInterface(bytes4)": {
        "details": "See {IERC165-supportsInterface}."
      },
      "symbol()": {
        "details": "See {IERC721Metadata-symbol}."
      },
      "tokenURI(uint256)": {
        "details": "See {IERC721Metadata-tokenURI}."
      },
      "transferFrom(address,address,uint256)": {
        "details": "See {IERC721-transferFrom}."
      }
    },
    "title": "The CarBlocks Smart Contract",
    "version": 1
  },
  "userdoc": {
    "kind": "user",
    "methods": {
      "acceptOffer(uint256,address)": {
        "notice": "Accept an offer and transfer NFT to bider"
      },
      "addMaintenance(uint256,uint256,uint8,uint256,string)": {
        "notice": "Add a new maintenance to a specific NFT"
      },
      "energyType()": {
        "notice": "this will differentiate the various collections (gasoline, diesel, hybrid...)"
      },
      "getCarblock(uint256)": {
        "notice": "Retrieve NFT from token ID"
      },
      "getCarblocks()": {
        "notice": "Retrieve all NFTs of contract caller"
      },
      "getCarblocksForSale()": {
        "notice": "Retrieve all NFTs that are for sale"
      },
      "getMaintenances(uint256)": {
        "notice": "Get list of all maintenances done on a car from a NFT token ID"
      },
      "getOffers(uint256)": {
        "notice": "Allow user to retrieve all offers for a NFT"
      },
      "hasCar(string,string)": {
        "notice": "Check if user has a specific brand & model of car so that he can give his opinion"
      },
      "hasMadeOffer(uint256)": {
        "notice": "Check if user has made an offer on NFT"
      },
      "makeOffer(uint256,uint256,address)": {
        "notice": "Allow user to make an offer for NFT"
      },
      "mintCarblock(address,uint256,string[],uint8,bool)": {
        "notice": "Allow user to mint a new Carblock NFT"
      },
      "rejectOffer(uint256,address)": {
        "notice": "Reject an offer"
      },
      "setPrice(uint256,uint256)": {
        "notice": "Allow NFT Owner to set a price for his car"
      }
    },
    "notice": "Smart Contract allowing to manage NFT associated with cars",
    "version": 1
  }
}