{
  "contractName": "CarBlocksFactory",
  "abi": [
    {
      "anonymous": false,
      "inputs": [
        {
          "indexed": false,
          "internalType": "address",
          "name": "contractAddress",
          "type": "address"
        },
        {
          "indexed": false,
          "internalType": "string",
          "name": "energyType",
          "type": "string"
        }
      ],
      "name": "CarblocksCollectionCreated",
      "type": "event"
    },
    {
      "inputs": [
        {
          "internalType": "string",
          "name": "_energyType",
          "type": "string"
        }
      ],
      "name": "createCarblocksCollection",
      "outputs": [
        {
          "internalType": "contract CarBlocks",
          "name": "",
          "type": "address"
        }
      ],
      "stateMutability": "nonpayable",
      "type": "function"
    },
    {
      "inputs": [],
      "name": "getCarblocksCollection",
      "outputs": [
        {
          "internalType": "contract CarBlocks[]",
          "name": "",
          "type": "address[]"
        }
      ],
      "stateMutability": "view",
      "type": "function",
      "constant": true
    }
  ],
  "bytecode": "0x608060405234801561001057600080fd5b50615877806100206000396000f3fe60806040523480156200001157600080fd5b50600436106200003a5760003560e01c8063254849b1146200003f5780637cf4fac11462000061575b600080fd5b6200004962000097565b60405162000058919062000367565b60405180910390f35b6200007f600480360381019062000079919062000403565b62000127565b6040516200008e919062000469565b60405180910390f35b606060008054806020026020016040519081016040528092919081815260200182805480156200011d57602002820191906000526020600020905b8160009054906101000a900473ffffffffffffffffffffffffffffffffffffffff1673ffffffffffffffffffffffffffffffffffffffff1681526020019060010190808311620000d2575b5050505050905090565b60008083836040516200013a9062000211565b62000147929190620004ea565b604051809103906000f08015801562000164573d6000803e3d6000fd5b5090506000819080600181540180825580915050600190039060005260206000200160009091909190916101000a81548173ffffffffffffffffffffffffffffffffffffffff021916908373ffffffffffffffffffffffffffffffffffffffff1602179055507f646172d1b74d78964951a692116dfccb57fb54892ea25f0f13da9b41227fcaaf818585604051620001ff9392919062000535565b60405180910390a18091505092915050565b6152d6806200056c83390190565b600081519050919050565b600082825260208201905092915050565b6000819050602082019050919050565b600073ffffffffffffffffffffffffffffffffffffffff82169050919050565b6000819050919050565b600062000296620002906200028a846200024b565b6200026b565b6200024b565b9050919050565b6000620002aa8262000275565b9050919050565b6000620002be826200029d565b9050919050565b620002d081620002b1565b82525050565b6000620002e48383620002c5565b60208301905092915050565b6000602082019050919050565b60006200030a826200021f565b6200031681856200022a565b935062000323836200023b565b8060005b838110156200035a5781516200033e8882620002d6565b97506200034b83620002f0565b92505060018101905062000327565b5085935050505092915050565b60006020820190508181036000830152620003838184620002fd565b905092915050565b600080fd5b600080fd5b600080fd5b600080fd5b600080fd5b60008083601f840112620003bd57620003bc62000395565b5b8235905067ffffffffffffffff811115620003dd57620003dc6200039a565b5b602083019150836001820283011115620003fc57620003fb6200039f565b5b9250929050565b600080602083850312156200041d576200041c6200038b565b5b600083013567ffffffffffffffff8111156200043e576200043d62000390565b5b6200044c85828601620003a4565b92509250509250929050565b6200046381620002b1565b82525050565b600060208201905062000480600083018462000458565b92915050565b600082825260208201905092915050565b82818337600083830152505050565b6000601f19601f8301169050919050565b6000620004c5838562000486565b9350620004d483858462000497565b620004df83620004a6565b840190509392505050565b6000602082019050818103600083015262000507818486620004b7565b90509392505050565b60006200051d826200024b565b9050919050565b6200052f8162000510565b82525050565b60006040820190506200054c600083018662000524565b818103602083015262000561818486620004b7565b905094935050505056fe60806040523480156200001157600080fd5b50604051620052d6380380620052d6833981810160405281019062000037919062000275565b6040518060400160405280600881526020017f436172426c6f636b0000000000000000000000000000000000000000000000008152506040518060400160405280600381526020017f43424b00000000000000000000000000000000000000000000000000000000008152508160009081620000b4919062000511565b508060019081620000c6919062000511565b5050508060089081620000da919062000511565b5050620005f8565b6000604051905090565b600080fd5b600080fd5b600080fd5b600080fd5b6000601f19601f8301169050919050565b7f4e487b7100000000000000000000000000000000000000000000000000000000600052604160045260246000fd5b6200014b8262000100565b810181811067ffffffffffffffff821117156200016d576200016c62000111565b5b80604052505050565b600062000182620000e2565b905062000190828262000140565b919050565b600067ffffffffffffffff821115620001b357620001b262000111565b5b620001be8262000100565b9050602081019050919050565b60005b83811015620001eb578082015181840152602081019050620001ce565b60008484015250505050565b60006200020e620002088462000195565b62000176565b9050828152602081018484840111156200022d576200022c620000fb565b5b6200023a848285620001cb565b509392505050565b600082601f8301126200025a5762000259620000f6565b5b81516200026c848260208601620001f7565b91505092915050565b6000602082840312156200028e576200028d620000ec565b5b600082015167ffffffffffffffff811115620002af57620002ae620000f1565b5b620002bd8482850162000242565b91505092915050565b600081519050919050565b7f4e487b7100000000000000000000000000000000000000000000000000000000600052602260045260246000fd5b600060028204905060018216806200031957607f821691505b6020821081036200032f576200032e620002d1565b5b50919050565b60008190508160005260206000209050919050565b60006020601f8301049050919050565b600082821b905092915050565b600060088302620003997fffffffffffffffffffffffffffffffffffffffffffffffffffffffffffffffff826200035a565b620003a586836200035a565b95508019841693508086168417925050509392505050565b6000819050919050565b6000819050919050565b6000620003f2620003ec620003e684620003bd565b620003c7565b620003bd565b9050919050565b6000819050919050565b6200040e83620003d1565b620004266200041d82620003f9565b84845462000367565b825550505050565b600090565b6200043d6200042e565b6200044a81848462000403565b505050565b5b8181101562000472576200046660008262000433565b60018101905062000450565b5050565b601f821115620004c1576200048b8162000335565b62000496846200034a565b81016020851015620004a6578190505b620004be620004b5856200034a565b8301826200044f565b50505b505050565b600082821c905092915050565b6000620004e660001984600802620004c6565b1980831691505092915050565b6000620005018383620004d3565b9150826002028217905092915050565b6200051c82620002c6565b67ffffffffffffffff81111562000538576200053762000111565b5b62000544825462000300565b6200055182828562000476565b600060209050601f83116001811462000589576000841562000574578287015190505b620005808582620004f3565b865550620005f0565b601f198416620005998662000335565b60005b82811015620005c3578489015182556001820191506020850194506020810190506200059c565b86831015620005e35784890151620005df601f891682620004d3565b8355505b6001600288020188555050505b505050505050565b614cce80620006086000396000f3fe6080604052600436106101405760003560e01c806370a08231116100b6578063b88d4fde1161006f578063b88d4fde146104a6578063c33e0dfd146104cf578063c87b56dd146104eb578063e985e9c514610528578063eff2ef7b14610565578063f7d975771461059057610140565b806370a08231146103705780638d16a795146103ad57806395d89b41146103d8578063a148170914610403578063a22cb46514610440578063a82379011461046957610140565b8063095ea7b311610108578063095ea7b31461025057806323b872dd1461027957806342842e0e146102a257806350c9496a146102cb57806354a02f9e146102f65780636352211e1461033357610140565b806301ffc9a714610145578063056040261461018257806306fdde03146101ab57806307dd094f146101d6578063081812fc14610213575b600080fd5b34801561015157600080fd5b5061016c6004803603810190610167919061335a565b6105b9565b60405161017991906133a2565b60405180910390f35b34801561018e57600080fd5b506101a960048036038101906101a4919061347d565b61069b565b005b3480156101b757600080fd5b506101c0610831565b6040516101cd91906135a7565b60405180910390f35b3480156101e257600080fd5b506101fd60048036038101906101f891906136ce565b6108c3565b60405161020a9190613777565b60405180910390f35b34801561021f57600080fd5b5061023a60048036038101906102359190613792565b610c3f565b60405161024791906137ce565b60405180910390f35b34801561025c57600080fd5b50610277600480360381019061027291906137e9565b610c85565b005b34801561028557600080fd5b506102a0600480360381019061029b9190613829565b610d9c565b005b3480156102ae57600080fd5b506102c960048036038101906102c49190613829565b610dfc565b005b3480156102d757600080fd5b506102e0610e1c565b6040516102ed91906135a7565b60405180910390f35b34801561030257600080fd5b5061031d600480360381019061031891906137e9565b610eaa565b60405161032a9190613777565b60405180910390f35b34801561033f57600080fd5b5061035a60048036038101906103559190613792565b610edb565b60405161036791906137ce565b60405180910390f35b34801561037c57600080fd5b506103976004803603810190610392919061387c565b610f61565b6040516103a49190613777565b60405180910390f35b3480156103b957600080fd5b506103c2611018565b6040516103cf9190613b1e565b60405180910390f35b3480156103e457600080fd5b506103ed611374565b6040516103fa91906135a7565b60405180910390f35b34801561040f57600080fd5b5061042a60048036038101906104259190613792565b611406565b6040516104379190613ba3565b60405180910390f35b34801561044c57600080fd5b5061046760048036038101906104629190613bc5565b611701565b005b34801561047557600080fd5b50610490600480360381019061048b9190613792565b611717565b60405161049d9190613d72565b60405180910390f35b3480156104b257600080fd5b506104cd60048036038101906104c89190613ec4565b6118e9565b005b6104e960048036038101906104e491906137e9565b61194b565b005b3480156104f757600080fd5b50610512600480360381019061050d9190613792565b611c82565b60405161051f91906135a7565b60405180910390f35b34801561053457600080fd5b5061054f600480360381019061054a9190613f47565b611d94565b60405161055c91906133a2565b60405180910390f35b34801561057157600080fd5b5061057a611e28565b6040516105879190613b1e565b60405180910390f35b34801561059c57600080fd5b506105b760048036038101906105b29190613f87565b612213565b005b60007f80ac58cd000000000000000000000000000000000000000000000000000000007bffffffffffffffffffffffffffffffffffffffffffffffffffffffff1916827bffffffffffffffffffffffffffffffffffffffffffffffffffffffff1916148061068457507f5b5e139f000000000000000000000000000000000000000000000000000000007bffffffffffffffffffffffffffffffffffffffffffffffffffffffff1916827bffffffffffffffffffffffffffffffffffffffffffffffffffffffff1916145b80610694575061069382612316565b5b9050919050565b856106a581610edb565b73ffffffffffffffffffffffffffffffffffffffff166106c3612380565b73ffffffffffffffffffffffffffffffffffffffff1614610719576040517f08c379a000000000000000000000000000000000000000000000000000000000815260040161071090614039565b60405180910390fd5b600b60008881526020019081526020016000206040518060800160405280888152602001868152602001876003811115610756576107556138d5565b5b815260200185858080601f016020809104026020016040519081016040528093929190818152602001838380828437600081840152601f19601f820116905080830192505050505050508152509080600181540180825580915050600190039060005260206000209060040201600090919091909150600082015181600001556020820151816001015560408201518160020160006101000a81548160ff0219169083600381111561080b5761080a6138d5565b5b021790555060608201518160030190816108259190614265565b50505050505050505050565b60606000805461084090614088565b80601f016020809104026020016040519081016040528092919081815260200182805461086c90614088565b80156108b95780601f1061088e576101008083540402835291602001916108b9565b820191906000526020600020905b81548152906001019060200180831161089c57829003601f168201915b5050505050905090565b60006108cf6007612388565b60006040518060800160405280888152602001878760008181106108f6576108f5614337565b5b90506020028101906109089190614375565b8080601f016020809104026020016040519081016040528093929190818152602001838380828437600081840152601f19601f8201169050808301925050505050505081526020018787600181811061096457610963614337565b5b90506020028101906109769190614375565b8080601f016020809104026020016040519081016040528093929190818152602001838380828437600081840152601f19601f820116905080830192505050505050508152602001878760028181106109d2576109d1614337565b5b90506020028101906109e49190614375565b8080601f016020809104026020016040519081016040528093929190818152602001838380828437600081840152601f19601f82011690508083019250505050505050815250905060096040518060800160405280866002811115610a4c57610a4b6138d5565b5b815260200183815260200160008152602001851515815250908060018154018082558091505060019003906000526020600020906007020160009091909190915060008201518160000160006101000a81548160ff02191690836002811115610ab857610ab76138d5565b5b0217905550602082015181600101600082015181600001556020820151816001019081610ae59190614265565b506040820151816002019081610afb9190614265565b506060820151816003019081610b119190614265565b5050506040820151816005015560608201518160060160006101000a81548160ff02191690831515021790555050506000610b4c600761239e565b9050610b5889826123ac565b610bca8188886003818110610b7057610b6f614337565b5b9050602002810190610b829190614375565b8080601f016020809104026020016040519081016040528093929190818152602001838380828437600081840152601f19601f820116905080830192505050505050506125c9565b600a60008a73ffffffffffffffffffffffffffffffffffffffff1673ffffffffffffffffffffffffffffffffffffffff16815260200190815260200160002081908060018154018082558091505060019003906000526020600020016000909190919091505580925050509695505050505050565b6000610c4a82612636565b6004600083815260200190815260200160002060009054906101000a900473ffffffffffffffffffffffffffffffffffffffff169050919050565b6000610c9082610edb565b90508073ffffffffffffffffffffffffffffffffffffffff168373ffffffffffffffffffffffffffffffffffffffff1603610d00576040517f08c379a0000000000000000000000000000000000000000000000000000000008152600401610cf79061444a565b60405180910390fd5b8073ffffffffffffffffffffffffffffffffffffffff16610d1f612380565b73ffffffffffffffffffffffffffffffffffffffff161480610d4e5750610d4d81610d48612380565b611d94565b5b610d8d576040517f08c379a0000000000000000000000000000000000000000000000000000000008152600401610d84906144dc565b60405180910390fd5b610d978383612681565b505050565b610dad610da7612380565b8261273a565b610dec576040517f08c379a0000000000000000000000000000000000000000000000000000000008152600401610de39061456e565b60405180910390fd5b610df78383836127cf565b505050565b610e17838383604051806020016040528060008152506118e9565b505050565b60088054610e2990614088565b80601f0160208091040260200160405190810160405280929190818152602001828054610e5590614088565b8015610ea25780601f10610e7757610100808354040283529160200191610ea2565b820191906000526020600020905b815481529060010190602001808311610e8557829003601f168201915b505050505081565b600a6020528160005260406000208181548110610ec657600080fd5b90600052602060002001600091509150505481565b600080610ee783612ac8565b9050600073ffffffffffffffffffffffffffffffffffffffff168173ffffffffffffffffffffffffffffffffffffffff1603610f58576040517f08c379a0000000000000000000000000000000000000000000000000000000008152600401610f4f906145da565b60405180910390fd5b80915050919050565b60008073ffffffffffffffffffffffffffffffffffffffff168273ffffffffffffffffffffffffffffffffffffffff1603610fd1576040517f08c379a0000000000000000000000000000000000000000000000000000000008152600401610fc89061466c565b60405180910390fd5b600360008373ffffffffffffffffffffffffffffffffffffffff1673ffffffffffffffffffffffffffffffffffffffff168152602001908152602001600020549050919050565b6060600060098054905067ffffffffffffffff81111561103b5761103a613d99565b5b60405190808252806020026020018201604052801561107457816020015b611061613284565b8152602001906001900390816110595790505b509050600080600090505b60098054905081101561136b5760011515600982815481106110a4576110a3614337565b5b906000526020600020906007020160060160009054906101000a900460ff1615150361135857600981815481106110de576110dd614337565b5b90600052602060002090600702016040518060800160405290816000820160009054906101000a900460ff16600281111561111c5761111b6138d5565b5b600281111561112e5761112d6138d5565b5b8152602001600182016040518060800160405290816000820154815260200160018201805461115c90614088565b80601f016020809104026020016040519081016040528092919081815260200182805461118890614088565b80156111d55780601f106111aa576101008083540402835291602001916111d5565b820191906000526020600020905b8154815290600101906020018083116111b857829003601f168201915b505050505081526020016002820180546111ee90614088565b80601f016020809104026020016040519081016040528092919081815260200182805461121a90614088565b80156112675780601f1061123c57610100808354040283529160200191611267565b820191906000526020600020905b81548152906001019060200180831161124a57829003601f168201915b5050505050815260200160038201805461128090614088565b80601f01602080910402602001604051908101604052809291908181526020018280546112ac90614088565b80156112f95780601f106112ce576101008083540402835291602001916112f9565b820191906000526020600020905b8154815290600101906020018083116112dc57829003601f168201915b5050505050815250508152602001600582015481526020016006820160009054906101000a900460ff16151515158152505083838151811061133e5761133d614337565b5b60200260200101819052508180611354906146bb565b9250505b8080611363906146bb565b91505061107f565b50819250505090565b60606001805461138390614088565b80601f01602080910402602001604051908101604052809291908181526020018280546113af90614088565b80156113fc5780601f106113d1576101008083540402835291602001916113fc565b820191906000526020600020905b8154815290600101906020018083116113df57829003601f168201915b5050505050905090565b61140e613284565b8161141881610edb565b73ffffffffffffffffffffffffffffffffffffffff16611436612380565b73ffffffffffffffffffffffffffffffffffffffff161461148c576040517f08c379a000000000000000000000000000000000000000000000000000000000815260040161148390614039565b60405180910390fd5b600960018461149b9190614703565b815481106114ac576114ab614337565b5b90600052602060002090600702016040518060800160405290816000820160009054906101000a900460ff1660028111156114ea576114e96138d5565b5b60028111156114fc576114fb6138d5565b5b8152602001600182016040518060800160405290816000820154815260200160018201805461152a90614088565b80601f016020809104026020016040519081016040528092919081815260200182805461155690614088565b80156115a35780601f10611578576101008083540402835291602001916115a3565b820191906000526020600020905b81548152906001019060200180831161158657829003601f168201915b505050505081526020016002820180546115bc90614088565b80601f01602080910402602001604051908101604052809291908181526020018280546115e890614088565b80156116355780601f1061160a57610100808354040283529160200191611635565b820191906000526020600020905b81548152906001019060200180831161161857829003601f168201915b5050505050815260200160038201805461164e90614088565b80601f016020809104026020016040519081016040528092919081815260200182805461167a90614088565b80156116c75780601f1061169c576101008083540402835291602001916116c7565b820191906000526020600020905b8154815290600101906020018083116116aa57829003601f168201915b5050505050815250508152602001600582015481526020016006820160009054906101000a900460ff161515151581525050915050919050565b61171361170c612380565b8383612b05565b5050565b60608161172381610edb565b73ffffffffffffffffffffffffffffffffffffffff16611741612380565b73ffffffffffffffffffffffffffffffffffffffff1614611797576040517f08c379a000000000000000000000000000000000000000000000000000000000815260040161178e90614039565b60405180910390fd5b600b6000848152602001908152602001600020805480602002602001604051908101604052809291908181526020016000905b828210156118dd578382906000526020600020906004020160405180608001604052908160008201548152602001600182015481526020016002820160009054906101000a900460ff166003811115611826576118256138d5565b5b6003811115611838576118376138d5565b5b815260200160038201805461184c90614088565b80601f016020809104026020016040519081016040528092919081815260200182805461187890614088565b80156118c55780601f1061189a576101008083540402835291602001916118c5565b820191906000526020600020905b8154815290600101906020018083116118a857829003601f168201915b505050505081525050815260200190600101906117ca565b50505050915050919050565b6118fa6118f4612380565b8361273a565b611939576040517f08c379a00000000000000000000000000000000000000000000000000000000081526004016119309061456e565b60405180910390fd5b61194584848484612c71565b50505050565b8061195581610edb565b73ffffffffffffffffffffffffffffffffffffffff16611973612380565b73ffffffffffffffffffffffffffffffffffffffff16146119c9576040517f08c379a00000000000000000000000000000000000000000000000000000000081526004016119c090614039565b60405180910390fd5b60006119d3612380565b90506119e08185856127cf565b60005b600a60008373ffffffffffffffffffffffffffffffffffffffff1673ffffffffffffffffffffffffffffffffffffffff16815260200190815260200160002080549050811015611c155783600a60008473ffffffffffffffffffffffffffffffffffffffff1673ffffffffffffffffffffffffffffffffffffffff1681526020019081526020016000208281548110611a7f57611a7e614337565b5b906000526020600020015403611c0257600a60008373ffffffffffffffffffffffffffffffffffffffff1673ffffffffffffffffffffffffffffffffffffffff1681526020019081526020016000206001600a60008573ffffffffffffffffffffffffffffffffffffffff1673ffffffffffffffffffffffffffffffffffffffff16815260200190815260200160002080549050611b1d9190614703565b81548110611b2e57611b2d614337565b5b9060005260206000200154600a60008473ffffffffffffffffffffffffffffffffffffffff1673ffffffffffffffffffffffffffffffffffffffff1681526020019081526020016000208281548110611b8a57611b89614337565b5b9060005260206000200181905550600a60008373ffffffffffffffffffffffffffffffffffffffff1673ffffffffffffffffffffffffffffffffffffffff168152602001908152602001600020805480611be757611be6614737565b5b60019003818190600052602060002001600090559055611c15565b8080611c0d906146bb565b9150506119e3565b50600a60008573ffffffffffffffffffffffffffffffffffffffff1673ffffffffffffffffffffffffffffffffffffffff16815260200190815260200160002083908060018154018082558091505060019003906000526020600020016000909190919091505550505050565b6060611c8d82612636565b6000600660008481526020019081526020016000208054611cad90614088565b80601f0160208091040260200160405190810160405280929190818152602001828054611cd990614088565b8015611d265780601f10611cfb57610100808354040283529160200191611d26565b820191906000526020600020905b815481529060010190602001808311611d0957829003601f168201915b505050505090506000611d37612ccd565b90506000815103611d4c578192505050611d8f565b600082511115611d81578082604051602001611d699291906147a2565b60405160208183030381529060405292505050611d8f565b611d8a84612ce4565b925050505b919050565b6000600560008473ffffffffffffffffffffffffffffffffffffffff1673ffffffffffffffffffffffffffffffffffffffff16815260200190815260200160002060008373ffffffffffffffffffffffffffffffffffffffff1673ffffffffffffffffffffffffffffffffffffffff16815260200190815260200160002060009054906101000a900460ff16905092915050565b60606000611e34612380565b90506000600a60008373ffffffffffffffffffffffffffffffffffffffff1673ffffffffffffffffffffffffffffffffffffffff1681526020019081526020016000208054905067ffffffffffffffff811115611e9457611e93613d99565b5b604051908082528060200260200182016040528015611ecd57816020015b611eba613284565b815260200190600190039081611eb25790505b50905060005b600a60008473ffffffffffffffffffffffffffffffffffffffff1673ffffffffffffffffffffffffffffffffffffffff1681526020019081526020016000208054905081101561220a576009600a60008573ffffffffffffffffffffffffffffffffffffffff1673ffffffffffffffffffffffffffffffffffffffff1681526020019081526020016000208281548110611f7057611f6f614337565b5b906000526020600020015481548110611f8c57611f8b614337565b5b90600052602060002090600702016040518060800160405290816000820160009054906101000a900460ff166002811115611fca57611fc96138d5565b5b6002811115611fdc57611fdb6138d5565b5b8152602001600182016040518060800160405290816000820154815260200160018201805461200a90614088565b80601f016020809104026020016040519081016040528092919081815260200182805461203690614088565b80156120835780601f1061205857610100808354040283529160200191612083565b820191906000526020600020905b81548152906001019060200180831161206657829003601f168201915b5050505050815260200160028201805461209c90614088565b80601f01602080910402602001604051908101604052809291908181526020018280546120c890614088565b80156121155780601f106120ea57610100808354040283529160200191612115565b820191906000526020600020905b8154815290600101906020018083116120f857829003601f168201915b5050505050815260200160038201805461212e90614088565b80601f016020809104026020016040519081016040528092919081815260200182805461215a90614088565b80156121a75780601f1061217c576101008083540402835291602001916121a7565b820191906000526020600020905b81548152906001019060200180831161218a57829003601f168201915b5050505050815250508152602001600582015481526020016006820160009054906101000a900460ff1615151515815250508282815181106121ec576121eb614337565b5b60200260200101819052508080612202906146bb565b915050611ed3565b50809250505090565b8161221d81610edb565b73ffffffffffffffffffffffffffffffffffffffff1661223b612380565b73ffffffffffffffffffffffffffffffffffffffff1614612291576040517f08c379a000000000000000000000000000000000000000000000000000000000815260040161228890614039565b60405180910390fd5b8160096001856122a19190614703565b815481106122b2576122b1614337565b5b906000526020600020906007020160050181905550600160096001856122d89190614703565b815481106122e9576122e8614337565b5b906000526020600020906007020160060160006101000a81548160ff021916908315150217905550505050565b60007f01ffc9a7000000000000000000000000000000000000000000000000000000007bffffffffffffffffffffffffffffffffffffffffffffffffffffffff1916827bffffffffffffffffffffffffffffffffffffffffffffffffffffffff1916149050919050565b600033905090565b6001816000016000828254019250508190555050565b600081600001549050919050565b600073ffffffffffffffffffffffffffffffffffffffff168273ffffffffffffffffffffffffffffffffffffffff160361241b576040517f08c379a000000000000000000000000000000000000000000000000000000000815260040161241290614812565b60405180910390fd5b61242481612d4c565b15612464576040517f08c379a000000000000000000000000000000000000000000000000000000000815260040161245b9061487e565b60405180910390fd5b612472600083836001612d8d565b61247b81612d4c565b156124bb576040517f08c379a00000000000000000000000000000000000000000000000000000000081526004016124b29061487e565b60405180910390fd5b6001600360008473ffffffffffffffffffffffffffffffffffffffff1673ffffffffffffffffffffffffffffffffffffffff16815260200190815260200160002060008282540192505081905550816002600083815260200190815260200160002060006101000a81548173ffffffffffffffffffffffffffffffffffffffff021916908373ffffffffffffffffffffffffffffffffffffffff160217905550808273ffffffffffffffffffffffffffffffffffffffff16600073ffffffffffffffffffffffffffffffffffffffff167fddf252ad1be2c89b69c2b068fc378daa952ba7f163c4a11628f55a4df523b3ef60405160405180910390a46125c5600083836001612eb3565b5050565b6125d282612d4c565b612611576040517f08c379a000000000000000000000000000000000000000000000000000000000815260040161260890614910565b60405180910390fd5b806006600084815260200190815260200160002090816126319190614265565b505050565b61263f81612d4c565b61267e576040517f08c379a0000000000000000000000000000000000000000000000000000000008152600401612675906145da565b60405180910390fd5b50565b816004600083815260200190815260200160002060006101000a81548173ffffffffffffffffffffffffffffffffffffffff021916908373ffffffffffffffffffffffffffffffffffffffff160217905550808273ffffffffffffffffffffffffffffffffffffffff166126f483610edb565b73ffffffffffffffffffffffffffffffffffffffff167f8c5be1e5ebec7d5bd14f71427d1e84f3dd0314c0f7b2291e5b200ac8c7c3b92560405160405180910390a45050565b60008061274683610edb565b90508073ffffffffffffffffffffffffffffffffffffffff168473ffffffffffffffffffffffffffffffffffffffff16148061278857506127878185611d94565b5b806127c657508373ffffffffffffffffffffffffffffffffffffffff166127ae84610c3f565b73ffffffffffffffffffffffffffffffffffffffff16145b91505092915050565b8273ffffffffffffffffffffffffffffffffffffffff166127ef82610edb565b73ffffffffffffffffffffffffffffffffffffffff1614612845576040517f08c379a000000000000000000000000000000000000000000000000000000000815260040161283c906149a2565b60405180910390fd5b600073ffffffffffffffffffffffffffffffffffffffff168273ffffffffffffffffffffffffffffffffffffffff16036128b4576040517f08c379a00000000000000000000000000000000000000000000000000000000081526004016128ab90614a34565b60405180910390fd5b6128c18383836001612d8d565b8273ffffffffffffffffffffffffffffffffffffffff166128e182610edb565b73ffffffffffffffffffffffffffffffffffffffff1614612937576040517f08c379a000000000000000000000000000000000000000000000000000000000815260040161292e906149a2565b60405180910390fd5b6004600082815260200190815260200160002060006101000a81549073ffffffffffffffffffffffffffffffffffffffff02191690556001600360008573ffffffffffffffffffffffffffffffffffffffff1673ffffffffffffffffffffffffffffffffffffffff168152602001908152602001600020600082825403925050819055506001600360008473ffffffffffffffffffffffffffffffffffffffff1673ffffffffffffffffffffffffffffffffffffffff16815260200190815260200160002060008282540192505081905550816002600083815260200190815260200160002060006101000a81548173ffffffffffffffffffffffffffffffffffffffff021916908373ffffffffffffffffffffffffffffffffffffffff160217905550808273ffffffffffffffffffffffffffffffffffffffff168473ffffffffffffffffffffffffffffffffffffffff167fddf252ad1be2c89b69c2b068fc378daa952ba7f163c4a11628f55a4df523b3ef60405160405180910390a4612ac38383836001612eb3565b505050565b60006002600083815260200190815260200160002060009054906101000a900473ffffffffffffffffffffffffffffffffffffffff169050919050565b8173ffffffffffffffffffffffffffffffffffffffff168373ffffffffffffffffffffffffffffffffffffffff1603612b73576040517f08c379a0000000000000000000000000000000000000000000000000000000008152600401612b6a90614aa0565b60405180910390fd5b80600560008573ffffffffffffffffffffffffffffffffffffffff1673ffffffffffffffffffffffffffffffffffffffff16815260200190815260200160002060008473ffffffffffffffffffffffffffffffffffffffff1673ffffffffffffffffffffffffffffffffffffffff16815260200190815260200160002060006101000a81548160ff0219169083151502179055508173ffffffffffffffffffffffffffffffffffffffff168373ffffffffffffffffffffffffffffffffffffffff167f17307eab39ab6107e8899845ad3d59bd9653f200f220920489ca2b5937696c3183604051612c6491906133a2565b60405180910390a3505050565b612c7c8484846127cf565b612c8884848484612eb9565b612cc7576040517f08c379a0000000000000000000000000000000000000000000000000000000008152600401612cbe90614b32565b60405180910390fd5b50505050565b606060405180602001604052806000815250905090565b6060612cef82612636565b6000612cf9612ccd565b90506000815111612d195760405180602001604052806000815250612d44565b80612d2384613040565b604051602001612d349291906147a2565b6040516020818303038152906040525b915050919050565b60008073ffffffffffffffffffffffffffffffffffffffff16612d6e83612ac8565b73ffffffffffffffffffffffffffffffffffffffff1614159050919050565b6001811115612ead57600073ffffffffffffffffffffffffffffffffffffffff168473ffffffffffffffffffffffffffffffffffffffff1614612e215780600360008673ffffffffffffffffffffffffffffffffffffffff1673ffffffffffffffffffffffffffffffffffffffff1681526020019081526020016000206000828254612e199190614703565b925050819055505b600073ffffffffffffffffffffffffffffffffffffffff168373ffffffffffffffffffffffffffffffffffffffff1614612eac5780600360008573ffffffffffffffffffffffffffffffffffffffff1673ffffffffffffffffffffffffffffffffffffffff1681526020019081526020016000206000828254612ea49190614b52565b925050819055505b5b50505050565b50505050565b6000612eda8473ffffffffffffffffffffffffffffffffffffffff1661310e565b15613033578373ffffffffffffffffffffffffffffffffffffffff1663150b7a02612f03612380565b8786866040518563ffffffff1660e01b8152600401612f259493929190614bdb565b6020604051808303816000875af1925050508015612f6157506040513d601f19601f82011682018060405250810190612f5e9190614c3c565b60015b612fe3573d8060008114612f91576040519150601f19603f3d011682016040523d82523d6000602084013e612f96565b606091505b506000815103612fdb576040517f08c379a0000000000000000000000000000000000000000000000000000000008152600401612fd290614b32565b60405180910390fd5b805181602001fd5b63150b7a0260e01b7bffffffffffffffffffffffffffffffffffffffffffffffffffffffff1916817bffffffffffffffffffffffffffffffffffffffffffffffffffffffff191614915050613038565b600190505b949350505050565b60606000600161304f84613131565b01905060008167ffffffffffffffff81111561306e5761306d613d99565b5b6040519080825280601f01601f1916602001820160405280156130a05781602001600182028036833780820191505090505b509050600082602001820190505b600115613103578080600190039150507f3031323334353637383961626364656600000000000000000000000000000000600a86061a8153600a85816130f7576130f6614c69565b5b049450600085036130ae575b819350505050919050565b6000808273ffffffffffffffffffffffffffffffffffffffff163b119050919050565b600080600090507a184f03e93ff9f4daa797ed6e38ed64bf6a1f010000000000000000831061318f577a184f03e93ff9f4daa797ed6e38ed64bf6a1f010000000000000000838161318557613184614c69565b5b0492506040810190505b6d04ee2d6d415b85acef810000000083106131cc576d04ee2d6d415b85acef810000000083816131c2576131c1614c69565b5b0492506020810190505b662386f26fc1000083106131fb57662386f26fc1000083816131f1576131f0614c69565b5b0492506010810190505b6305f5e1008310613224576305f5e100838161321a57613219614c69565b5b0492506008810190505b612710831061324957612710838161323f5761323e614c69565b5b0492506004810190505b6064831061326c576064838161326257613261614c69565b5b0492506002810190505b600a831061327b576001810190505b80915050919050565b6040518060800160405280600060028111156132a3576132a26138d5565b5b81526020016132b06132c6565b8152602001600081526020016000151581525090565b6040518060800160405280600081526020016060815260200160608152602001606081525090565b6000604051905090565b600080fd5b600080fd5b60007fffffffff0000000000000000000000000000000000000000000000000000000082169050919050565b61333781613302565b811461334257600080fd5b50565b6000813590506133548161332e565b92915050565b6000602082840312156133705761336f6132f8565b5b600061337e84828501613345565b91505092915050565b60008115159050919050565b61339c81613387565b82525050565b60006020820190506133b76000830184613393565b92915050565b6000819050919050565b6133d0816133bd565b81146133db57600080fd5b50565b6000813590506133ed816133c7565b92915050565b6004811061340057600080fd5b50565b600081359050613412816133f3565b92915050565b600080fd5b600080fd5b600080fd5b60008083601f84011261343d5761343c613418565b5b8235905067ffffffffffffffff81111561345a5761345961341d565b5b60208301915083600182028301111561347657613475613422565b5b9250929050565b60008060008060008060a0878903121561349a576134996132f8565b5b60006134a889828a016133de565b96505060206134b989828a016133de565b95505060406134ca89828a01613403565b94505060606134db89828a016133de565b935050608087013567ffffffffffffffff8111156134fc576134fb6132fd565b5b61350889828a01613427565b92509250509295509295509295565b600081519050919050565b600082825260208201905092915050565b60005b83811015613551578082015181840152602081019050613536565b60008484015250505050565b6000601f19601f8301169050919050565b600061357982613517565b6135838185613522565b9350613593818560208601613533565b61359c8161355d565b840191505092915050565b600060208201905081810360008301526135c1818461356e565b905092915050565b600073ffffffffffffffffffffffffffffffffffffffff82169050919050565b60006135f4826135c9565b9050919050565b613604816135e9565b811461360f57600080fd5b50565b600081359050613621816135fb565b92915050565b60008083601f84011261363d5761363c613418565b5b8235905067ffffffffffffffff81111561365a5761365961341d565b5b60208301915083602082028301111561367657613675613422565b5b9250929050565b6003811061368a57600080fd5b50565b60008135905061369c8161367d565b92915050565b6136ab81613387565b81146136b657600080fd5b50565b6000813590506136c8816136a2565b92915050565b60008060008060008060a087890312156136eb576136ea6132f8565b5b60006136f989828a01613612565b965050602061370a89828a016133de565b955050604087013567ffffffffffffffff81111561372b5761372a6132fd565b5b61373789828a01613627565b9450945050606061374a89828a0161368d565b925050608061375b89828a016136b9565b9150509295509295509295565b613771816133bd565b82525050565b600060208201905061378c6000830184613768565b92915050565b6000602082840312156137a8576137a76132f8565b5b60006137b6848285016133de565b91505092915050565b6137c8816135e9565b82525050565b60006020820190506137e360008301846137bf565b92915050565b60008060408385031215613800576137ff6132f8565b5b600061380e85828601613612565b925050602061381f858286016133de565b9150509250929050565b600080600060608486031215613842576138416132f8565b5b600061385086828701613612565b935050602061386186828701613612565b9250506040613872868287016133de565b9150509250925092565b600060208284031215613892576138916132f8565b5b60006138a084828501613612565b91505092915050565b600081519050919050565b600082825260208201905092915050565b6000819050602082019050919050565b7f4e487b7100000000000000000000000000000000000000000000000000000000600052602160045260246000fd5b60038110613915576139146138d5565b5b50565b600081905061392682613904565b919050565b600061393682613918565b9050919050565b6139468161392b565b82525050565b613955816133bd565b82525050565b600082825260208201905092915050565b600061397782613517565b613981818561395b565b9350613991818560208601613533565b61399a8161355d565b840191505092915050565b60006080830160008301516139bd600086018261394c565b50602083015184820360208601526139d5828261396c565b915050604083015184820360408601526139ef828261396c565b91505060608301518482036060860152613a09828261396c565b9150508091505092915050565b613a1f81613387565b82525050565b6000608083016000830151613a3d600086018261393d565b5060208301518482036020860152613a5582826139a5565b9150506040830151613a6a604086018261394c565b506060830151613a7d6060860182613a16565b508091505092915050565b6000613a948383613a25565b905092915050565b6000602082019050919050565b6000613ab4826138a9565b613abe81856138b4565b935083602082028501613ad0856138c5565b8060005b85811015613b0c5784840389528151613aed8582613a88565b9450613af883613a9c565b925060208a01995050600181019050613ad4565b50829750879550505050505092915050565b60006020820190508181036000830152613b388184613aa9565b905092915050565b6000608083016000830151613b58600086018261393d565b5060208301518482036020860152613b7082826139a5565b9150506040830151613b85604086018261394c565b506060830151613b986060860182613a16565b508091505092915050565b60006020820190508181036000830152613bbd8184613b40565b905092915050565b60008060408385031215613bdc57613bdb6132f8565b5b6000613bea85828601613612565b9250506020613bfb858286016136b9565b9150509250929050565b600081519050919050565b600082825260208201905092915050565b6000819050602082019050919050565b60048110613c4257613c416138d5565b5b50565b6000819050613c5382613c31565b919050565b6000613c6382613c45565b9050919050565b613c7381613c58565b82525050565b6000608083016000830151613c91600086018261394c565b506020830151613ca4602086018261394c565b506040830151613cb76040860182613c6a565b5060608301518482036060860152613ccf828261396c565b9150508091505092915050565b6000613ce88383613c79565b905092915050565b6000602082019050919050565b6000613d0882613c05565b613d128185613c10565b935083602082028501613d2485613c21565b8060005b85811015613d605784840389528151613d418582613cdc565b9450613d4c83613cf0565b925060208a01995050600181019050613d28565b50829750879550505050505092915050565b60006020820190508181036000830152613d8c8184613cfd565b905092915050565b600080fd5b7f4e487b7100000000000000000000000000000000000000000000000000000000600052604160045260246000fd5b613dd18261355d565b810181811067ffffffffffffffff82111715613df057613def613d99565b5b80604052505050565b6000613e036132ee565b9050613e0f8282613dc8565b919050565b600067ffffffffffffffff821115613e2f57613e2e613d99565b5b613e388261355d565b9050602081019050919050565b82818337600083830152505050565b6000613e67613e6284613e14565b613df9565b905082815260208101848484011115613e8357613e82613d94565b5b613e8e848285613e45565b509392505050565b600082601f830112613eab57613eaa613418565b5b8135613ebb848260208601613e54565b91505092915050565b60008060008060808587031215613ede57613edd6132f8565b5b6000613eec87828801613612565b9450506020613efd87828801613612565b9350506040613f0e878288016133de565b925050606085013567ffffffffffffffff811115613f2f57613f2e6132fd565b5b613f3b87828801613e96565b91505092959194509250565b60008060408385031215613f5e57613f5d6132f8565b5b6000613f6c85828601613612565b9250506020613f7d85828601613612565b9150509250929050565b60008060408385031215613f9e57613f9d6132f8565b5b6000613fac858286016133de565b9250506020613fbd858286016133de565b9150509250929050565b7f4572726f723a20796f7520617265206e6f7420746865206f776e6572206f662060008201527f7468652063617200000000000000000000000000000000000000000000000000602082015250565b6000614023602783613522565b915061402e82613fc7565b604082019050919050565b6000602082019050818103600083015261405281614016565b9050919050565b7f4e487b7100000000000000000000000000000000000000000000000000000000600052602260045260246000fd5b600060028204905060018216806140a057607f821691505b6020821081036140b3576140b2614059565b5b50919050565b60008190508160005260206000209050919050565b60006020601f8301049050919050565b600082821b905092915050565b60006008830261411b7fffffffffffffffffffffffffffffffffffffffffffffffffffffffffffffffff826140de565b61412586836140de565b95508019841693508086168417925050509392505050565b6000819050919050565b600061416261415d614158846133bd565b61413d565b6133bd565b9050919050565b6000819050919050565b61417c83614147565b61419061418882614169565b8484546140eb565b825550505050565b600090565b6141a5614198565b6141b0818484614173565b505050565b5b818110156141d4576141c960008261419d565b6001810190506141b6565b5050565b601f821115614219576141ea816140b9565b6141f3846140ce565b81016020851015614202578190505b61421661420e856140ce565b8301826141b5565b50505b505050565b600082821c905092915050565b600061423c6000198460080261421e565b1980831691505092915050565b6000614255838361422b565b9150826002028217905092915050565b61426e82613517565b67ffffffffffffffff81111561428757614286613d99565b5b6142918254614088565b61429c8282856141d8565b600060209050601f8311600181146142cf57600084156142bd578287015190505b6142c78582614249565b86555061432f565b601f1984166142dd866140b9565b60005b82811015614305578489015182556001820191506020850194506020810190506142e0565b86831015614322578489015161431e601f89168261422b565b8355505b6001600288020188555050505b505050505050565b7f4e487b7100000000000000000000000000000000000000000000000000000000600052603260045260246000fd5b600080fd5b600080fd5b600080fd5b6000808335600160200384360303811261439257614391614366565b5b80840192508235915067ffffffffffffffff8211156143b4576143b361436b565b5b6020830192506001820236038313156143d0576143cf614370565b5b509250929050565b7f4552433732313a20617070726f76616c20746f2063757272656e74206f776e6560008201527f7200000000000000000000000000000000000000000000000000000000000000602082015250565b6000614434602183613522565b915061443f826143d8565b604082019050919050565b6000602082019050818103600083015261446381614427565b9050919050565b7f4552433732313a20617070726f76652063616c6c6572206973206e6f7420746f60008201527f6b656e206f776e6572206f7220617070726f76656420666f7220616c6c000000602082015250565b60006144c6603d83613522565b91506144d18261446a565b604082019050919050565b600060208201905081810360008301526144f5816144b9565b9050919050565b7f4552433732313a2063616c6c6572206973206e6f7420746f6b656e206f776e6560008201527f72206f7220617070726f76656400000000000000000000000000000000000000602082015250565b6000614558602d83613522565b9150614563826144fc565b604082019050919050565b600060208201905081810360008301526145878161454b565b9050919050565b7f4552433732313a20696e76616c696420746f6b656e2049440000000000000000600082015250565b60006145c4601883613522565b91506145cf8261458e565b602082019050919050565b600060208201905081810360008301526145f3816145b7565b9050919050565b7f4552433732313a2061646472657373207a65726f206973206e6f74206120766160008201527f6c6964206f776e65720000000000000000000000000000000000000000000000602082015250565b6000614656602983613522565b9150614661826145fa565b604082019050919050565b6000602082019050818103600083015261468581614649565b9050919050565b7f4e487b7100000000000000000000000000000000000000000000000000000000600052601160045260246000fd5b60006146c6826133bd565b91507fffffffffffffffffffffffffffffffffffffffffffffffffffffffffffffffff82036146f8576146f761468c565b5b600182019050919050565b600061470e826133bd565b9150614719836133bd565b92508282039050818111156147315761473061468c565b5b92915050565b7f4e487b7100000000000000000000000000000000000000000000000000000000600052603160045260246000fd5b600081905092915050565b600061477c82613517565b6147868185614766565b9350614796818560208601613533565b80840191505092915050565b60006147ae8285614771565b91506147ba8284614771565b91508190509392505050565b7f4552433732313a206d696e7420746f20746865207a65726f2061646472657373600082015250565b60006147fc602083613522565b9150614807826147c6565b602082019050919050565b6000602082019050818103600083015261482b816147ef565b9050919050565b7f4552433732313a20746f6b656e20616c7265616479206d696e74656400000000600082015250565b6000614868601c83613522565b915061487382614832565b602082019050919050565b600060208201905081810360008301526148978161485b565b9050919050565b7f45524337323155524953746f726167653a2055524920736574206f66206e6f6e60008201527f6578697374656e7420746f6b656e000000000000000000000000000000000000602082015250565b60006148fa602e83613522565b91506149058261489e565b604082019050919050565b60006020820190508181036000830152614929816148ed565b9050919050565b7f4552433732313a207472616e736665722066726f6d20696e636f72726563742060008201527f6f776e6572000000000000000000000000000000000000000000000000000000602082015250565b600061498c602583613522565b915061499782614930565b604082019050919050565b600060208201905081810360008301526149bb8161497f565b9050919050565b7f4552433732313a207472616e7366657220746f20746865207a65726f2061646460008201527f7265737300000000000000000000000000000000000000000000000000000000602082015250565b6000614a1e602483613522565b9150614a29826149c2565b604082019050919050565b60006020820190508181036000830152614a4d81614a11565b9050919050565b7f4552433732313a20617070726f766520746f2063616c6c657200000000000000600082015250565b6000614a8a601983613522565b9150614a9582614a54565b602082019050919050565b60006020820190508181036000830152614ab981614a7d565b9050919050565b7f4552433732313a207472616e7366657220746f206e6f6e20455243373231526560008201527f63656976657220696d706c656d656e7465720000000000000000000000000000602082015250565b6000614b1c603283613522565b9150614b2782614ac0565b604082019050919050565b60006020820190508181036000830152614b4b81614b0f565b9050919050565b6000614b5d826133bd565b9150614b68836133bd565b9250828201905080821115614b8057614b7f61468c565b5b92915050565b600081519050919050565b600082825260208201905092915050565b6000614bad82614b86565b614bb78185614b91565b9350614bc7818560208601613533565b614bd08161355d565b840191505092915050565b6000608082019050614bf060008301876137bf565b614bfd60208301866137bf565b614c0a6040830185613768565b8181036060830152614c1c8184614ba2565b905095945050505050565b600081519050614c368161332e565b92915050565b600060208284031215614c5257614c516132f8565b5b6000614c6084828501614c27565b91505092915050565b7f4e487b7100000000000000000000000000000000000000000000000000000000600052601260045260246000fdfea2646970667358221220da64f4fe693931ba674e6c13f3baaeb4841b785a6b3dc1b59421f49d1c14ee2564736f6c63430008110033a26469706673582212202811cf040f37514ac9b870635bd7a89b2c244939b5e9f6f2c59a45e8cd75bdf064736f6c63430008110033",
  "immutableReferences": {},
  "source": "// SPDX-License-Identifier: MIT\npragma solidity 0.8.17;\n\nimport \"./CarBlocks.sol\";\n\n/// @title The CarBlocksFactory Smart Contract\n/// @author Quentin COLLETTE & Maxime LESBROS\n/// @notice Smart Contract allowing to create & manage Carblocks NFT collections\n/// @dev Stay away from this or you're facing sleep deprivation\n//TODO : nat spec\ncontract CarBlocksFactory {\n    CarBlocks[] private _carblocksCollection;\n\n    event CarblocksCollectionCreated(\n        address contractAddress,\n        string energyType\n    );\n\n    function createCarblocksCollection(string calldata _energyType)\n        external\n        returns (CarBlocks)\n    {\n        CarBlocks carblocks = new CarBlocks(_energyType);\n        _carblocksCollection.push(carblocks);\n\n        emit CarblocksCollectionCreated(address(carblocks), _energyType);\n\n        return carblocks;\n    }\n\n    function getCarblocksCollection()\n        external\n        view\n        returns (CarBlocks[] memory)\n    {\n        return _carblocksCollection;\n    }\n}\n",
  "sourcePath": "/home/mlazzje/projects/alyra/CarBlocks/truffle/contracts/CarBlocksFactory.sol",
  "compiler": {
    "name": "solc",
    "version": "0.8.17+commit.8df45f5f.Emscripten.clang"
  },
  "schemaVersion": "3.4.10",
  "updatedAt": "2022-12-10T18:50:42.022Z",
  "networkType": "ethereum",
  "devdoc": {
    "author": "Quentin COLLETTE & Maxime LESBROS",
    "details": "Stay away from this or you're facing sleep deprivation",
    "kind": "dev",
    "methods": {},
    "title": "The CarBlocksFactory Smart Contract",
    "version": 1
  },
  "userdoc": {
    "kind": "user",
    "methods": {},
    "notice": "Smart Contract allowing to create & manage Carblocks NFT collections",
    "version": 1
  }
}