{
  "contractName": "CarBlocks",
  "abi": [
    {
      "inputs": [
        {
          "internalType": "string",
          "name": "_energyType",
          "type": "string"
        }
      ],
      "stateMutability": "nonpayable",
      "type": "constructor"
    },
    {
      "anonymous": false,
      "inputs": [
        {
          "indexed": true,
          "internalType": "address",
          "name": "owner",
          "type": "address"
        },
        {
          "indexed": true,
          "internalType": "address",
          "name": "approved",
          "type": "address"
        },
        {
          "indexed": true,
          "internalType": "uint256",
          "name": "tokenId",
          "type": "uint256"
        }
      ],
      "name": "Approval",
      "type": "event"
    },
    {
      "anonymous": false,
      "inputs": [
        {
          "indexed": true,
          "internalType": "address",
          "name": "owner",
          "type": "address"
        },
        {
          "indexed": true,
          "internalType": "address",
          "name": "operator",
          "type": "address"
        },
        {
          "indexed": false,
          "internalType": "bool",
          "name": "approved",
          "type": "bool"
        }
      ],
      "name": "ApprovalForAll",
      "type": "event"
    },
    {
      "anonymous": false,
      "inputs": [
        {
          "indexed": false,
          "internalType": "uint256",
          "name": "tokenId",
          "type": "uint256"
        },
        {
          "indexed": false,
          "internalType": "uint256",
          "name": "date",
          "type": "uint256"
        },
        {
          "indexed": false,
          "internalType": "uint256",
          "name": "kilometers",
          "type": "uint256"
        }
      ],
      "name": "MaintenanceAdded",
      "type": "event"
    },
    {
      "anonymous": false,
      "inputs": [
        {
          "indexed": true,
          "internalType": "address",
          "name": "from",
          "type": "address"
        },
        {
          "indexed": true,
          "internalType": "address",
          "name": "to",
          "type": "address"
        },
        {
          "indexed": true,
          "internalType": "uint256",
          "name": "tokenId",
          "type": "uint256"
        }
      ],
      "name": "Transfer",
      "type": "event"
    },
    {
      "inputs": [
        {
          "internalType": "address",
          "name": "to",
          "type": "address"
        },
        {
          "internalType": "uint256",
          "name": "tokenId",
          "type": "uint256"
        }
      ],
      "name": "approve",
      "outputs": [],
      "stateMutability": "nonpayable",
      "type": "function"
    },
    {
      "inputs": [
        {
          "internalType": "address",
          "name": "owner",
          "type": "address"
        }
      ],
      "name": "balanceOf",
      "outputs": [
        {
          "internalType": "uint256",
          "name": "",
          "type": "uint256"
        }
      ],
      "stateMutability": "view",
      "type": "function"
    },
    {
      "inputs": [],
      "name": "energyType",
      "outputs": [
        {
          "internalType": "string",
          "name": "",
          "type": "string"
        }
      ],
      "stateMutability": "view",
      "type": "function"
    },
    {
      "inputs": [
        {
          "internalType": "uint256",
          "name": "tokenId",
          "type": "uint256"
        }
      ],
      "name": "getApproved",
      "outputs": [
        {
          "internalType": "address",
          "name": "",
          "type": "address"
        }
      ],
      "stateMutability": "view",
      "type": "function"
    },
    {
      "inputs": [
        {
          "internalType": "address",
          "name": "owner",
          "type": "address"
        },
        {
          "internalType": "address",
          "name": "operator",
          "type": "address"
        }
      ],
      "name": "isApprovedForAll",
      "outputs": [
        {
          "internalType": "bool",
          "name": "",
          "type": "bool"
        }
      ],
      "stateMutability": "view",
      "type": "function"
    },
    {
      "inputs": [],
      "name": "name",
      "outputs": [
        {
          "internalType": "string",
          "name": "",
          "type": "string"
        }
      ],
      "stateMutability": "view",
      "type": "function"
    },
    {
      "inputs": [
        {
          "internalType": "uint256",
          "name": "tokenId",
          "type": "uint256"
        }
      ],
      "name": "ownerOf",
      "outputs": [
        {
          "internalType": "address",
          "name": "",
          "type": "address"
        }
      ],
      "stateMutability": "view",
      "type": "function"
    },
    {
      "inputs": [
        {
          "internalType": "address",
          "name": "from",
          "type": "address"
        },
        {
          "internalType": "address",
          "name": "to",
          "type": "address"
        },
        {
          "internalType": "uint256",
          "name": "tokenId",
          "type": "uint256"
        }
      ],
      "name": "safeTransferFrom",
      "outputs": [],
      "stateMutability": "nonpayable",
      "type": "function"
    },
    {
      "inputs": [
        {
          "internalType": "address",
          "name": "from",
          "type": "address"
        },
        {
          "internalType": "address",
          "name": "to",
          "type": "address"
        },
        {
          "internalType": "uint256",
          "name": "tokenId",
          "type": "uint256"
        },
        {
          "internalType": "bytes",
          "name": "data",
          "type": "bytes"
        }
      ],
      "name": "safeTransferFrom",
      "outputs": [],
      "stateMutability": "nonpayable",
      "type": "function"
    },
    {
      "inputs": [
        {
          "internalType": "address",
          "name": "operator",
          "type": "address"
        },
        {
          "internalType": "bool",
          "name": "approved",
          "type": "bool"
        }
      ],
      "name": "setApprovalForAll",
      "outputs": [],
      "stateMutability": "nonpayable",
      "type": "function"
    },
    {
      "inputs": [
        {
          "internalType": "bytes4",
          "name": "interfaceId",
          "type": "bytes4"
        }
      ],
      "name": "supportsInterface",
      "outputs": [
        {
          "internalType": "bool",
          "name": "",
          "type": "bool"
        }
      ],
      "stateMutability": "view",
      "type": "function"
    },
    {
      "inputs": [],
      "name": "symbol",
      "outputs": [
        {
          "internalType": "string",
          "name": "",
          "type": "string"
        }
      ],
      "stateMutability": "view",
      "type": "function"
    },
    {
      "inputs": [
        {
          "internalType": "uint256",
          "name": "tokenId",
          "type": "uint256"
        }
      ],
      "name": "tokenURI",
      "outputs": [
        {
          "internalType": "string",
          "name": "",
          "type": "string"
        }
      ],
      "stateMutability": "view",
      "type": "function"
    },
    {
      "inputs": [
        {
          "internalType": "address",
          "name": "from",
          "type": "address"
        },
        {
          "internalType": "address",
          "name": "to",
          "type": "address"
        },
        {
          "internalType": "uint256",
          "name": "tokenId",
          "type": "uint256"
        }
      ],
      "name": "transferFrom",
      "outputs": [],
      "stateMutability": "nonpayable",
      "type": "function"
    },
    {
      "inputs": [
        {
          "internalType": "uint256",
          "name": "_tokenId",
          "type": "uint256"
        }
      ],
      "name": "getCarblock",
      "outputs": [
        {
          "components": [
            {
              "internalType": "uint256",
              "name": "tokenId",
              "type": "uint256"
            },
            {
              "internalType": "enum CarBlocks.CarState",
              "name": "carState",
              "type": "uint8"
            },
            {
              "components": [
                {
                  "internalType": "uint256",
                  "name": "circulationStartDate",
                  "type": "uint256"
                },
                {
                  "internalType": "string",
                  "name": "VIN",
                  "type": "string"
                },
                {
                  "internalType": "string",
                  "name": "brand",
                  "type": "string"
                },
                {
                  "internalType": "string",
                  "name": "model",
                  "type": "string"
                }
              ],
              "internalType": "struct CarBlocks.Car",
              "name": "car",
              "type": "tuple"
            },
            {
              "internalType": "uint256",
              "name": "price",
              "type": "uint256"
            },
            {
              "internalType": "bool",
              "name": "isForSale",
              "type": "bool"
            }
          ],
          "internalType": "struct CarBlocks.Carblock",
          "name": "",
          "type": "tuple"
        }
      ],
      "stateMutability": "view",
      "type": "function"
    },
    {
      "inputs": [],
      "name": "getCarblocks",
      "outputs": [
        {
          "components": [
            {
              "internalType": "uint256",
              "name": "tokenId",
              "type": "uint256"
            },
            {
              "internalType": "enum CarBlocks.CarState",
              "name": "carState",
              "type": "uint8"
            },
            {
              "components": [
                {
                  "internalType": "uint256",
                  "name": "circulationStartDate",
                  "type": "uint256"
                },
                {
                  "internalType": "string",
                  "name": "VIN",
                  "type": "string"
                },
                {
                  "internalType": "string",
                  "name": "brand",
                  "type": "string"
                },
                {
                  "internalType": "string",
                  "name": "model",
                  "type": "string"
                }
              ],
              "internalType": "struct CarBlocks.Car",
              "name": "car",
              "type": "tuple"
            },
            {
              "internalType": "uint256",
              "name": "price",
              "type": "uint256"
            },
            {
              "internalType": "bool",
              "name": "isForSale",
              "type": "bool"
            }
          ],
          "internalType": "struct CarBlocks.Carblock[]",
          "name": "",
          "type": "tuple[]"
        }
      ],
      "stateMutability": "view",
      "type": "function"
    },
    {
      "inputs": [],
      "name": "getCarblocksForSale",
      "outputs": [
        {
          "components": [
            {
              "internalType": "uint256",
              "name": "tokenId",
              "type": "uint256"
            },
            {
              "internalType": "enum CarBlocks.CarState",
              "name": "carState",
              "type": "uint8"
            },
            {
              "components": [
                {
                  "internalType": "uint256",
                  "name": "circulationStartDate",
                  "type": "uint256"
                },
                {
                  "internalType": "string",
                  "name": "VIN",
                  "type": "string"
                },
                {
                  "internalType": "string",
                  "name": "brand",
                  "type": "string"
                },
                {
                  "internalType": "string",
                  "name": "model",
                  "type": "string"
                }
              ],
              "internalType": "struct CarBlocks.Car",
              "name": "car",
              "type": "tuple"
            },
            {
              "internalType": "uint256",
              "name": "price",
              "type": "uint256"
            },
            {
              "internalType": "bool",
              "name": "isForSale",
              "type": "bool"
            }
          ],
          "internalType": "struct CarBlocks.Carblock[]",
          "name": "",
          "type": "tuple[]"
        }
      ],
      "stateMutability": "view",
      "type": "function"
    },
    {
      "inputs": [
        {
          "internalType": "uint256",
          "name": "_tokenId",
          "type": "uint256"
        },
        {
          "internalType": "uint256",
          "name": "_price",
          "type": "uint256"
        }
      ],
      "name": "setPrice",
      "outputs": [],
      "stateMutability": "nonpayable",
      "type": "function"
    },
    {
      "inputs": [
        {
          "internalType": "uint256",
          "name": "_tokenId",
          "type": "uint256"
        },
        {
          "internalType": "uint256",
          "name": "_date",
          "type": "uint256"
        },
        {
          "internalType": "enum CarBlocks.MaintenanceType",
          "name": "_mType",
          "type": "uint8"
        },
        {
          "internalType": "uint256",
          "name": "_kilometers",
          "type": "uint256"
        },
        {
          "internalType": "string",
          "name": "_maintenanceURI",
          "type": "string"
        }
      ],
      "name": "addMaintenance",
      "outputs": [],
      "stateMutability": "nonpayable",
      "type": "function"
    },
    {
      "inputs": [
        {
          "internalType": "uint256",
          "name": "_tokenId",
          "type": "uint256"
        }
      ],
      "name": "getMaintenances",
      "outputs": [
        {
          "components": [
            {
              "internalType": "uint256",
              "name": "date",
              "type": "uint256"
            },
            {
              "internalType": "uint256",
              "name": "kilometers",
              "type": "uint256"
            },
            {
              "internalType": "enum CarBlocks.MaintenanceType",
              "name": "mType",
              "type": "uint8"
            },
            {
              "internalType": "string",
              "name": "maintenanceURI",
              "type": "string"
            }
          ],
          "internalType": "struct CarBlocks.Maintenance[]",
          "name": "",
          "type": "tuple[]"
        }
      ],
      "stateMutability": "view",
      "type": "function"
    },
    {
      "inputs": [
        {
          "internalType": "address",
          "name": "_user",
          "type": "address"
        },
        {
          "internalType": "uint256",
          "name": "_circulationStartDate",
          "type": "uint256"
        },
        {
          "internalType": "string[]",
          "name": "_vInfo",
          "type": "string[]"
        },
        {
          "internalType": "enum CarBlocks.CarState",
          "name": "_state",
          "type": "uint8"
        },
        {
          "internalType": "bool",
          "name": "_isForSale",
          "type": "bool"
        }
      ],
      "name": "mintCarblock",
      "outputs": [
        {
          "internalType": "uint256",
          "name": "",
          "type": "uint256"
        }
      ],
      "stateMutability": "nonpayable",
      "type": "function"
    },
    {
      "inputs": [
        {
          "internalType": "uint256",
          "name": "_tokenId",
          "type": "uint256"
        },
        {
          "internalType": "uint256",
          "name": "_price",
          "type": "uint256"
        },
        {
          "internalType": "address",
          "name": "_recipient",
          "type": "address"
        }
      ],
      "name": "makeOffer",
      "outputs": [],
      "stateMutability": "nonpayable",
      "type": "function"
    },
    {
      "inputs": [
        {
          "internalType": "uint256",
          "name": "_tokenId",
          "type": "uint256"
        }
      ],
      "name": "getOffers",
      "outputs": [
        {
          "components": [
            {
              "internalType": "uint256",
              "name": "price",
              "type": "uint256"
            },
            {
              "internalType": "address",
              "name": "user",
              "type": "address"
            },
            {
              "internalType": "address",
              "name": "recipient",
              "type": "address"
            }
          ],
          "internalType": "struct CarBlocks.Offer[]",
          "name": "",
          "type": "tuple[]"
        }
      ],
      "stateMutability": "view",
      "type": "function"
    },
    {
      "inputs": [
        {
          "internalType": "uint256",
          "name": "_tokenId",
          "type": "uint256"
        }
      ],
      "name": "getOffer",
      "outputs": [
        {
          "components": [
            {
              "internalType": "uint256",
              "name": "price",
              "type": "uint256"
            },
            {
              "internalType": "address",
              "name": "user",
              "type": "address"
            },
            {
              "internalType": "address",
              "name": "recipient",
              "type": "address"
            }
          ],
          "internalType": "struct CarBlocks.Offer",
          "name": "",
          "type": "tuple"
        }
      ],
      "stateMutability": "view",
      "type": "function"
    },
    {
      "inputs": [
        {
          "internalType": "uint256",
          "name": "_tokenId",
          "type": "uint256"
        },
        {
          "internalType": "address",
          "name": "_bider",
          "type": "address"
        }
      ],
      "name": "rejectOffer",
      "outputs": [],
      "stateMutability": "nonpayable",
      "type": "function"
    },
    {
      "inputs": [
        {
          "internalType": "uint256",
          "name": "_tokenId",
          "type": "uint256"
        }
      ],
      "name": "hasMadeOffer",
      "outputs": [
        {
          "internalType": "bool",
          "name": "",
          "type": "bool"
        }
      ],
      "stateMutability": "view",
      "type": "function"
    },
    {
      "inputs": [
        {
          "internalType": "uint256",
          "name": "_tokenId",
          "type": "uint256"
        },
        {
          "internalType": "address",
          "name": "_bider",
          "type": "address"
        }
      ],
      "name": "acceptOffer",
      "outputs": [],
      "stateMutability": "payable",
      "type": "function"
    },
    {
      "inputs": [
        {
          "internalType": "string",
          "name": "_brand",
          "type": "string"
        },
        {
          "internalType": "string",
          "name": "_model",
          "type": "string"
        }
      ],
      "name": "hasCar",
      "outputs": [
        {
          "internalType": "bool",
          "name": "",
          "type": "bool"
        }
      ],
      "stateMutability": "view",
      "type": "function"
    }
  ],
  "bytecode": "0x60806040523480156200001157600080fd5b5060405162003c1a38038062003c1a8339810160408190526200003491620000c2565b60405180604001604052806008815260200167436172426c6f636b60c01b8152506040518060400160405280600381526020016243424b60e81b815250816000908162000082919062000226565b50600162000091828262000226565b5060089150620000a49050828262000226565b5050620002f2565b634e487b7160e01b600052604160045260246000fd5b60006020808385031215620000d657600080fd5b82516001600160401b0380821115620000ee57600080fd5b818501915085601f8301126200010357600080fd5b815181811115620001185762000118620000ac565b604051601f8201601f19908116603f01168101908382118183101715620001435762000143620000ac565b8160405282815288868487010111156200015c57600080fd5b600093505b8284101562000180578484018601518185018701529285019262000161565b600086848301015280965050505050505092915050565b600181811c90821680620001ac57607f821691505b602082108103620001cd57634e487b7160e01b600052602260045260246000fd5b50919050565b601f8211156200022157600081815260208120601f850160051c81016020861015620001fc5750805b601f850160051c820191505b818110156200021d5782815560010162000208565b5050505b505050565b81516001600160401b03811115620002425762000242620000ac565b6200025a8162000253845462000197565b84620001d3565b602080601f831160018114620002925760008415620002795750858301515b600019600386901b1c1916600185901b1785556200021d565b600085815260208120601f198616915b82811015620002c357888601518255948401946001909101908401620002a2565b5085821015620002e25787850151600019600388901b60f8161c191681555b5050505050600190811b01905550565b61391880620003026000396000f3fe6080604052600436106101b75760003560e01c8063918d407d116100ec578063b88d4fde1161008a578063dfa49e6f11610064578063dfa49e6f14610501578063e985e9c51461052e578063eff2ef7b14610577578063f7d975771461058c57600080fd5b8063b88d4fde146104a1578063c87b56dd146104c1578063db9371c2146104e157600080fd5b8063a1481709116100c6578063a148170914610407578063a22cb46514610434578063a823790114610454578063ad248ef61461048157600080fd5b8063918d407d146103bf57806395d89b41146103d257806397d1a88d146103e757600080fd5b806342842e0e116101595780636352211e116101335780636352211e1461033d5780636457c4f81461035d57806370a082311461037d5780638d16a7951461039d57600080fd5b806342842e0e146102db5780634579268a146102fb57806350c9496a1461032857600080fd5b806307dd094f1161019557806307dd094f14610235578063081812fc14610263578063095ea7b31461029b57806323b872dd146102bb57600080fd5b806301ffc9a7146101bc57806305604026146101f157806306fdde0314610213575b600080fd5b3480156101c857600080fd5b506101dc6101d7366004612d90565b6105ac565b60405190151581526020015b60405180910390f35b3480156101fd57600080fd5b5061021161020c366004612dad565b6105fe565b005b34801561021f57600080fd5b506102286107e8565b6040516101e89190612ea2565b34801561024157600080fd5b50610255610250366004612ef0565b61087a565b6040519081526020016101e8565b34801561026f57600080fd5b5061028361027e366004612fa0565b610b6f565b6040516001600160a01b0390911681526020016101e8565b3480156102a757600080fd5b506102116102b6366004612fb9565b610b96565b3480156102c757600080fd5b506102116102d6366004612fe3565b610cab565b3480156102e757600080fd5b506102116102f6366004612fe3565b610cdc565b34801561030757600080fd5b5061031b610316366004612fa0565b610cf7565b6040516101e8919061301f565b34801561033457600080fd5b50610228610e13565b34801561034957600080fd5b50610283610358366004612fa0565b610ea1565b34801561036957600080fd5b50610211610378366004613050565b610f01565b34801561038957600080fd5b50610255610398366004613085565b61109a565b3480156103a957600080fd5b506103b2611120565b6040516101e89190613163565b6102116103cd3660046131c5565b61145f565b3480156103de57600080fd5b50610228611484565b3480156103f357600080fd5b506101dc610402366004612fa0565b611493565b34801561041357600080fd5b50610427610422366004612fa0565b611516565b6040516101e891906131f1565b34801561044057600080fd5b5061021161044f366004613204565b6117c8565b34801561046057600080fd5b5061047461046f366004612fa0565b6117d3565b6040516101e8919061322e565b34801561048d57600080fd5b506101dc61049c366004613374565b611955565b3480156104ad57600080fd5b506102116104bc3660046133d8565b611a7e565b3480156104cd57600080fd5b506102286104dc366004612fa0565b611ab6565b3480156104ed57600080fd5b506102116104fc3660046131c5565b611bc6565b34801561050d57600080fd5b5061052161051c366004612fa0565b611d84565b6040516101e89190613454565b34801561053a57600080fd5b506101dc6105493660046134c5565b6001600160a01b03918216600090815260056020908152604080832093909416825291909152205460ff1690565b34801561058357600080fd5b506103b2611e43565b34801561059857600080fd5b506102116105a73660046134ef565b61218d565b60006001600160e01b031982166380ac58cd60e01b14806105dd57506001600160e01b03198216635b5e139f60e01b145b806105f857506301ffc9a760e01b6001600160e01b03198316145b92915050565b8561060881610ea1565b6001600160a01b0316336001600160a01b0316146106415760405162461bcd60e51b815260040161063890613511565b60405180910390fd5b6000878152600b60205260409020546064116106b85760405162461bcd60e51b815260206004820152603060248201527f4572723a206e6f206d6f7265207468616e20313030206d61696e74656e616e6360448201526f195cc818d85b881899481cdd1bdc995960821b6064820152608401610638565b600b600088815260200190815260200160002060405180608001604052808881526020018681526020018760038111156106f4576106f46130a0565b815260200185858080601f0160208091040260200160405190810160405280939291908181526020018383808284376000920182905250939094525050835460018181018655948252602091829020845160049092020190815590830151818501556040830151600282018054949592949193509160ff1990911690836003811115610782576107826130a0565b02179055506060820151600382019061079b90826135ca565b505060408051898152602081018990529081018690527fb06a1fb447a9e5dea6ce414eef858787d2548d4272f157aa8e2f706d0730cd5d915060600160405180910390a150505050505050565b6060600080546107f790613548565b80601f016020809104026020016040519081016040528092919081815260200182805461082390613548565b80156108705780601f1061084557610100808354040283529160200191610870565b820191906000526020600020905b81548152906001019060200180831161085357829003601f168201915b5050505050905090565b600061088a600780546001019055565b60096040518060a001604052806108a060075490565b81526020018560028111156108b7576108b76130a0565b815260200160405180608001604052808a8152602001898960008181106108e0576108e061368a565b90506020028101906108f291906136a0565b8080601f0160208091040260200160405190810160405280939291908181526020018383808284376000920191909152505050908252506020018989600181811061093f5761093f61368a565b905060200281019061095191906136a0565b8080601f0160208091040260200160405190810160405280939291908181526020018383808284376000920191909152505050908252506020018989600281811061099e5761099e61368a565b90506020028101906109b091906136a0565b8080601f0160208091040260200160405190810160405280939291908181526020018383808284376000920182905250939094525050918352506020808301829052861515604090930192909252835460018181018655948252908290208351600890920201908155908201518184018054939492939192909160ff191690836002811115610a4157610a416130a0565b0217905550604082015180516002830190815560208201516003840190610a6890826135ca565b5060408201516002820190610a7d90826135ca565b5060608201516003820190610a9290826135ca565b505050606082015160068201556080909101516007918201805460ff191691151591909117905554610ac590889061223e565b610b30610ad160075490565b86866003818110610ae457610ae461368a565b9050602002810190610af691906136a0565b8080601f0160208091040260200160405190810160405280939291908181526020018383808284376000920191909152506123d792505050565b6001600160a01b0387166000908152600a6020526040902060075481546001810183556000928352602090922090910155600754979650505050505050565b6000610b7a8261246a565b506000908152600460205260409020546001600160a01b031690565b6000610ba182610ea1565b9050806001600160a01b0316836001600160a01b031603610c0e5760405162461bcd60e51b815260206004820152602160248201527f4552433732313a20617070726f76616c20746f2063757272656e74206f776e656044820152603960f91b6064820152608401610638565b336001600160a01b0382161480610c2a5750610c2a8133610549565b610c9c5760405162461bcd60e51b815260206004820152603d60248201527f4552433732313a20617070726f76652063616c6c6572206973206e6f7420746f60448201527f6b656e206f776e6572206f7220617070726f76656420666f7220616c6c0000006064820152608401610638565b610ca683836124cc565b505050565b610cb5338261253a565b610cd15760405162461bcd60e51b8152600401610638906136ee565b610ca68383836125b8565b610ca683838360405180602001604052806000815250611a7e565b60408051606081018252600080825260208201819052918101829052905b6000838152600c6020526040902054811015610def576000838152600c60205260409020805433919083908110610d4e57610d4e61368a565b60009182526020909120600160039092020101546001600160a01b031603610ddd576000838152600c60205260409020805482908110610d9057610d9061368a565b60009182526020918290206040805160608101825260039093029091018054835260018101546001600160a01b039081169484019490945260020154909216918101919091529392505050565b80610de781613751565b915050610d15565b50506040805160608101825260008082526020820181905291810191909152919050565b60088054610e2090613548565b80601f0160208091040260200160405190810160405280929190818152602001828054610e4c90613548565b8015610e995780601f10610e6e57610100808354040283529160200191610e99565b820191906000526020600020905b815481529060010190602001808311610e7c57829003601f168201915b505050505081565b6000818152600260205260408120546001600160a01b0316806105f85760405162461bcd60e51b8152602060048201526018602482015277115490cdcc8c4e881a5b9d985b1a59081d1bdad95b88125160421b6044820152606401610638565b806001600160a01b0316610f1484610ea1565b6001600160a01b031614610f6a5760405162461bcd60e51b815260206004820152601f60248201527f4572723a20726563697069656e74206e6f74206f776e6572206f66204e4654006044820152606401610638565b6000838152600c6020526040902054600a11610fc15760405162461bcd60e51b815260206004820152601660248201527508ae4e47440626040decccccae4e65e9c8ca840dac2f60531b6044820152606401610638565b610fca83611493565b156110175760405162461bcd60e51b815260206004820152601f60248201527f4572723a206f6e6c79206f6e65206f666665722f4e465420616c6c6f776564006044820152606401610638565b6000928352600c602090815260408085208151606081018352948552338584019081526001600160a01b039485169286019283528154600181810184559288529390962094516003909302909401918255935192810180549383166001600160a01b03199485161790559251600290930180549390911692909116919091179055565b60006001600160a01b0382166111045760405162461bcd60e51b815260206004820152602960248201527f4552433732313a2061646472657373207a65726f206973206e6f7420612076616044820152683634b21037bbb732b960b91b6064820152608401610638565b506001600160a01b031660009081526003602052604090205490565b60095460609060009067ffffffffffffffff811115611141576111416132c8565b60405190808252806020026020018201604052801561117a57816020015b611167612ccc565b81526020019060019003908161115f5790505b5090506000805b600954811015611457576009818154811061119e5761119e61368a565b600091825260209091206007600890920201015460ff161561144557600981815481106111cd576111cd61368a565b90600052602060002090600802016040518060a0016040529081600082015481526020016001820160009054906101000a900460ff166002811115611214576112146130a0565b6002811115611225576112256130a0565b8152602001600282016040518060800160405290816000820154815260200160018201805461125390613548565b80601f016020809104026020016040519081016040528092919081815260200182805461127f90613548565b80156112cc5780601f106112a1576101008083540402835291602001916112cc565b820191906000526020600020905b8154815290600101906020018083116112af57829003601f168201915b505050505081526020016002820180546112e590613548565b80601f016020809104026020016040519081016040528092919081815260200182805461131190613548565b801561135e5780601f106113335761010080835404028352916020019161135e565b820191906000526020600020905b81548152906001019060200180831161134157829003601f168201915b5050505050815260200160038201805461137790613548565b80601f01602080910402602001604051908101604052809291908181526020018280546113a390613548565b80156113f05780601f106113c5576101008083540402835291602001916113f0565b820191906000526020600020905b8154815290600101906020018083116113d357829003601f168201915b5050509190925250505081526006820154602082015260079091015460ff161515604090910152835184908490811061142b5761142b61368a565b6020026020010181905250818061144190613751565b9250505b8061144f81613751565b915050611181565b509092915050565b6114698183612729565b6000828152600c6020526040812061148091612d25565b5050565b6060600180546107f790613548565b6000805b6000838152600c602052604090205481101561150d576000838152600c602052604090208054339190839081106114d0576114d061368a565b60009182526020909120600160039092020101546001600160a01b0316036114fb5750600192915050565b8061150581613751565b915050611497565b50600092915050565b61151e612ccc565b8161152881610ea1565b6001600160a01b0316336001600160a01b0316146115585760405162461bcd60e51b815260040161063890613511565b600961156560018561376a565b815481106115755761157561368a565b90600052602060002090600802016040518060a0016040529081600082015481526020016001820160009054906101000a900460ff1660028111156115bc576115bc6130a0565b60028111156115cd576115cd6130a0565b815260200160028201604051806080016040529081600082015481526020016001820180546115fb90613548565b80601f016020809104026020016040519081016040528092919081815260200182805461162790613548565b80156116745780601f1061164957610100808354040283529160200191611674565b820191906000526020600020905b81548152906001019060200180831161165757829003601f168201915b5050505050815260200160028201805461168d90613548565b80601f01602080910402602001604051908101604052809291908181526020018280546116b990613548565b80156117065780601f106116db57610100808354040283529160200191611706565b820191906000526020600020905b8154815290600101906020018083116116e957829003601f168201915b5050505050815260200160038201805461171f90613548565b80601f016020809104026020016040519081016040528092919081815260200182805461174b90613548565b80156117985780601f1061176d57610100808354040283529160200191611798565b820191906000526020600020905b81548152906001019060200180831161177b57829003601f168201915b5050509190925250505081526006820154602082015260079091015460ff16151560409091015291505b50919050565b611480338383612862565b6060816117df81610ea1565b6001600160a01b0316336001600160a01b03161461180f5760405162461bcd60e51b815260040161063890613511565b6000838152600b6020908152604080832080548251818502810185019093528083529193909284015b82821015611949578382906000526020600020906004020160405180608001604052908160008201548152602001600182015481526020016002820160009054906101000a900460ff166003811115611893576118936130a0565b60038111156118a4576118a46130a0565b81526020016003820180546118b890613548565b80601f01602080910402602001604051908101604052809291908181526020018280546118e490613548565b80156119315780601f1061190657610100808354040283529160200191611931565b820191906000526020600020905b81548152906001019060200180831161191457829003601f168201915b50505050508152505081526020019060010190611838565b50505050915050919050565b600080611960611e43565b905060005b8151811015611a73578460405160200161197f919061377d565b604051602081830303815290604052805190602001208282815181106119a7576119a761368a565b602002602001015160400151604001516040516020016119c7919061377d565b6040516020818303038152906040528051906020012003611a6157836040516020016119f3919061377d565b60405160208183030381529060405280519060200120828281518110611a1b57611a1b61368a565b60200260200101516040015160600151604051602001611a3b919061377d565b6040516020818303038152906040528051906020012003611a61576001925050506105f8565b80611a6b81613751565b915050611965565b506000949350505050565b611a88338361253a565b611aa45760405162461bcd60e51b8152600401610638906136ee565b611ab084848484612930565b50505050565b6060611ac18261246a565b60008281526006602052604081208054611ada90613548565b80601f0160208091040260200160405190810160405280929190818152602001828054611b0690613548565b8015611b535780601f10611b2857610100808354040283529160200191611b53565b820191906000526020600020905b815481529060010190602001808311611b3657829003601f168201915b505050505090506000611b7160408051602081019091526000815290565b90508051600003611b83575092915050565b815115611bb5578082604051602001611b9d929190613799565b60405160208183030381529060405292505050919050565b611bbe84612963565b949350505050565b81611bd081610ea1565b6001600160a01b0316336001600160a01b031614611c005760405162461bcd60e51b815260040161063890613511565b60005b6000848152600c6020526040902054811015611ab0576000848152600c6020526040902080546001600160a01b038516919083908110611c4557611c4561368a565b60009182526020909120600160039092020101546001600160a01b031603611d72576000848152600c602052604090208054611c839060019061376a565b81548110611c9357611c9361368a565b9060005260206000209060030201600c60008681526020019081526020016000208281548110611cc557611cc561368a565b60009182526020808320845460039093020191825560018085015490830180546001600160a01b03199081166001600160a01b03938416179091556002958601549590930180549093169416939093179055858152600c90915260409020805480611d3257611d326137c8565b6000828152602081206003600019909301928302019081556001810180546001600160a01b03199081169091556002909101805490911690559055611ab0565b80611d7c81613751565b915050611c03565b606081611d9081610ea1565b6001600160a01b0316336001600160a01b031614611dc05760405162461bcd60e51b815260040161063890613511565b6000838152600c6020908152604080832080548251818502810185019093528083529193909284015b828210156119495760008481526020908190206040805160608101825260038602909201805483526001808201546001600160a01b0390811685870152600290920154909116918301919091529083529092019101611de9565b336000908152600a60205260408120546060919067ffffffffffffffff811115611e6f57611e6f6132c8565b604051908082528060200260200182016040528015611ea857816020015b611e95612ccc565b815260200190600190039081611e8d5790505b50905060005b336000908152600a60205260409020548110156117c257336000908152600a60205260409020805460099160019184908110611eec57611eec61368a565b9060005260206000200154611f01919061376a565b81548110611f1157611f1161368a565b90600052602060002090600802016040518060a0016040529081600082015481526020016001820160009054906101000a900460ff166002811115611f5857611f586130a0565b6002811115611f6957611f696130a0565b81526020016002820160405180608001604052908160008201548152602001600182018054611f9790613548565b80601f0160208091040260200160405190810160405280929190818152602001828054611fc390613548565b80156120105780601f10611fe557610100808354040283529160200191612010565b820191906000526020600020905b815481529060010190602001808311611ff357829003601f168201915b5050505050815260200160028201805461202990613548565b80601f016020809104026020016040519081016040528092919081815260200182805461205590613548565b80156120a25780601f10612077576101008083540402835291602001916120a2565b820191906000526020600020905b81548152906001019060200180831161208557829003601f168201915b505050505081526020016003820180546120bb90613548565b80601f01602080910402602001604051908101604052809291908181526020018280546120e790613548565b80156121345780601f1061210957610100808354040283529160200191612134565b820191906000526020600020905b81548152906001019060200180831161211757829003601f168201915b5050509190925250505081526006820154602082015260079091015460ff161515604090910152825183908390811061216f5761216f61368a565b6020026020010181905250808061218590613751565b915050611eae565b8161219781610ea1565b6001600160a01b0316336001600160a01b0316146121c75760405162461bcd60e51b815260040161063890613511565b8160096121d560018661376a565b815481106121e5576121e561368a565b600091825260209091206006600890920201015560016009612207828661376a565b815481106122175761221761368a565b60009182526020909120600890910201600701805460ff1916911515919091179055505050565b6001600160a01b0382166122945760405162461bcd60e51b815260206004820181905260248201527f4552433732313a206d696e7420746f20746865207a65726f20616464726573736044820152606401610638565b6000818152600260205260409020546001600160a01b0316156122f95760405162461bcd60e51b815260206004820152601c60248201527f4552433732313a20746f6b656e20616c7265616479206d696e746564000000006044820152606401610638565b6123076000838360016129d7565b6000818152600260205260409020546001600160a01b03161561236c5760405162461bcd60e51b815260206004820152601c60248201527f4552433732313a20746f6b656e20616c7265616479206d696e746564000000006044820152606401610638565b6001600160a01b038216600081815260036020908152604080832080546001019055848352600290915280822080546001600160a01b0319168417905551839291907fddf252ad1be2c89b69c2b068fc378daa952ba7f163c4a11628f55a4df523b3ef908290a45050565b6000828152600260205260409020546001600160a01b03166124525760405162461bcd60e51b815260206004820152602e60248201527f45524337323155524953746f726167653a2055524920736574206f66206e6f6e60448201526d32bc34b9ba32b73a103a37b5b2b760911b6064820152608401610638565b6000828152600660205260409020610ca682826135ca565b6000818152600260205260409020546001600160a01b03166124c95760405162461bcd60e51b8152602060048201526018602482015277115490cdcc8c4e881a5b9d985b1a59081d1bdad95b88125160421b6044820152606401610638565b50565b600081815260046020526040902080546001600160a01b0319166001600160a01b038416908117909155819061250182610ea1565b6001600160a01b03167f8c5be1e5ebec7d5bd14f71427d1e84f3dd0314c0f7b2291e5b200ac8c7c3b92560405160405180910390a45050565b60008061254683610ea1565b9050806001600160a01b0316846001600160a01b0316148061258d57506001600160a01b0380821660009081526005602090815260408083209388168352929052205460ff165b80611bbe5750836001600160a01b03166125a684610b6f565b6001600160a01b031614949350505050565b826001600160a01b03166125cb82610ea1565b6001600160a01b0316146125f15760405162461bcd60e51b8152600401610638906137de565b6001600160a01b0382166126535760405162461bcd60e51b8152602060048201526024808201527f4552433732313a207472616e7366657220746f20746865207a65726f206164646044820152637265737360e01b6064820152608401610638565b61266083838360016129d7565b826001600160a01b031661267382610ea1565b6001600160a01b0316146126995760405162461bcd60e51b8152600401610638906137de565b600081815260046020908152604080832080546001600160a01b03199081169091556001600160a01b0387811680865260038552838620805460001901905590871680865283862080546001019055868652600290945282852080549092168417909155905184937fddf252ad1be2c89b69c2b068fc378daa952ba7f163c4a11628f55a4df523b3ef91a4505050565b6127343383836125b8565b60005b336000908152600a602052604090205481101561283557336000908152600a602052604090208054839190839081106127725761277261368a565b90600052602060002001540361282357336000908152600a60205260409020805461279f9060019061376a565b815481106127af576127af61368a565b6000918252602080832090910154338352600a90915260409091208054839081106127dc576127dc61368a565b6000918252602080832090910192909255338152600a90915260409020805480612808576128086137c8565b60019003818190600052602060002001600090559055612835565b8061282d81613751565b915050612737565b506001600160a01b039091166000908152600a602090815260408220805460018101825590835291200155565b816001600160a01b0316836001600160a01b0316036128c35760405162461bcd60e51b815260206004820152601960248201527f4552433732313a20617070726f766520746f2063616c6c6572000000000000006044820152606401610638565b6001600160a01b03838116600081815260056020908152604080832094871680845294825291829020805460ff191686151590811790915591519182527f17307eab39ab6107e8899845ad3d59bd9653f200f220920489ca2b5937696c31910160405180910390a3505050565b61293b8484846125b8565b61294784848484612a5f565b611ab05760405162461bcd60e51b815260040161063890613823565b606061296e8261246a565b600061298560408051602081019091526000815290565b905060008151116129a557604051806020016040528060008152506129d0565b806129af84612b60565b6040516020016129c0929190613799565b6040516020818303038152906040525b9392505050565b6001811115611ab0576001600160a01b03841615612a1d576001600160a01b03841660009081526003602052604081208054839290612a1790849061376a565b90915550505b6001600160a01b03831615611ab0576001600160a01b03831660009081526003602052604081208054839290612a54908490613875565b909155505050505050565b60006001600160a01b0384163b15612b5557604051630a85bd0160e11b81526001600160a01b0385169063150b7a0290612aa3903390899088908890600401613888565b6020604051808303816000875af1925050508015612ade575060408051601f3d908101601f19168201909252612adb918101906138c5565b60015b612b3b573d808015612b0c576040519150601f19603f3d011682016040523d82523d6000602084013e612b11565b606091505b508051600003612b335760405162461bcd60e51b815260040161063890613823565b805181602001fd5b6001600160e01b031916630a85bd0160e11b149050611bbe565b506001949350505050565b60606000612b6d83612bf4565b600101905060008167ffffffffffffffff811115612b8d57612b8d6132c8565b6040519080825280601f01601f191660200182016040528015612bb7576020820181803683370190505b5090508181016020015b600019016f181899199a1a9b1b9c1cb0b131b232b360811b600a86061a8153600a8504945084612bc1575b509392505050565b60008072184f03e93ff9f4daa797ed6e38ed64bf6a1f0160401b8310612c335772184f03e93ff9f4daa797ed6e38ed64bf6a1f0160401b830492506040015b6d04ee2d6d415b85acef81000000008310612c5f576d04ee2d6d415b85acef8100000000830492506020015b662386f26fc100008310612c7d57662386f26fc10000830492506010015b6305f5e1008310612c95576305f5e100830492506008015b6127108310612ca957612710830492506004015b60648310612cbb576064830492506002015b600a83106105f85760010192915050565b6040805160a08101909152600080825260208201908152602001612d116040518060800160405280600081526020016060815260200160608152602001606081525090565b815260006020820181905260409091015290565b50805460008255600302906000526020600020908101906124c991905b80821115612d7657600081556001810180546001600160a01b03199081169091556002820180549091169055600301612d42565b5090565b6001600160e01b0319811681146124c957600080fd5b600060208284031215612da257600080fd5b81356129d081612d7a565b60008060008060008060a08789031215612dc657600080fd5b8635955060208701359450604087013560048110612de357600080fd5b935060608701359250608087013567ffffffffffffffff80821115612e0757600080fd5b818901915089601f830112612e1b57600080fd5b813581811115612e2a57600080fd5b8a6020828501011115612e3c57600080fd5b6020830194508093505050509295509295509295565b60005b83811015612e6d578181015183820152602001612e55565b50506000910152565b60008151808452612e8e816020860160208601612e52565b601f01601f19169290920160200192915050565b6020815260006129d06020830184612e76565b80356001600160a01b0381168114612ecc57600080fd5b919050565b803560038110612ecc57600080fd5b80358015158114612ecc57600080fd5b60008060008060008060a08789031215612f0957600080fd5b612f1287612eb5565b955060208701359450604087013567ffffffffffffffff80821115612f3657600080fd5b818901915089601f830112612f4a57600080fd5b813581811115612f5957600080fd5b8a60208260051b8501011115612f6e57600080fd5b602083019650809550505050612f8660608801612ed1565b9150612f9460808801612ee0565b90509295509295509295565b600060208284031215612fb257600080fd5b5035919050565b60008060408385031215612fcc57600080fd5b612fd583612eb5565b946020939093013593505050565b600080600060608486031215612ff857600080fd5b61300184612eb5565b925061300f60208501612eb5565b9150604084013590509250925092565b606081016105f88284805182526020808201516001600160a01b039081169184019190915260409182015116910152565b60008060006060848603121561306557600080fd5b833592506020840135915061307c60408501612eb5565b90509250925092565b60006020828403121561309757600080fd5b6129d082612eb5565b634e487b7160e01b600052602160045260246000fd5b8051825260006020820151600381106130d1576130d16130a0565b80602085015250604082015160a06040850152805160a08501526020810151608060c0860152613105610120860182612e76565b90506040820151609f19808784030160e08801526131238383612e76565b925060608401519350808784030161010088015250506131438183612e76565b915050606083015160608501526080830151612bec608086018215159052565b6000602080830181845280855180835260408601915060408160051b870101925083870160005b828110156131b857603f198886030184526131a68583516130b6565b9450928501929085019060010161318a565b5092979650505050505050565b600080604083850312156131d857600080fd5b823591506131e860208401612eb5565b90509250929050565b6020815260006129d060208301846130b6565b6000806040838503121561321757600080fd5b61322083612eb5565b91506131e860208401612ee0565b60006020808301818452808551808352604092508286019150828160051b87010184880160005b838110156132ba57603f1989840301855281516080815185528882015189860152878201516004811061328a5761328a6130a0565b858901526060918201519185018190526132a681860183612e76565b968901969450505090860190600101613255565b509098975050505050505050565b634e487b7160e01b600052604160045260246000fd5b600067ffffffffffffffff808411156132f9576132f96132c8565b604051601f8501601f19908116603f01168101908282118183101715613321576133216132c8565b8160405280935085815286868601111561333a57600080fd5b858560208301376000602087830101525050509392505050565b600082601f83011261336557600080fd5b6129d0838335602085016132de565b6000806040838503121561338757600080fd5b823567ffffffffffffffff8082111561339f57600080fd5b6133ab86838701613354565b935060208501359150808211156133c157600080fd5b506133ce85828601613354565b9150509250929050565b600080600080608085870312156133ee57600080fd5b6133f785612eb5565b935061340560208601612eb5565b925060408501359150606085013567ffffffffffffffff81111561342857600080fd5b8501601f8101871361343957600080fd5b613448878235602084016132de565b91505092959194509250565b6020808252825182820181905260009190848201906040850190845b818110156134b9576134a6838551805182526020808201516001600160a01b039081169184019190915260409182015116910152565b9284019260609290920191600101613470565b50909695505050505050565b600080604083850312156134d857600080fd5b6134e183612eb5565b91506131e860208401612eb5565b6000806040838503121561350257600080fd5b50508035926020909101359150565b6020808252601b908201527f4572723a206e6f7420746865206f776e6572206f6620746f6b656e0000000000604082015260600190565b600181811c9082168061355c57607f821691505b6020821081036117c257634e487b7160e01b600052602260045260246000fd5b601f821115610ca657600081815260208120601f850160051c810160208610156135a35750805b601f850160051c820191505b818110156135c2578281556001016135af565b505050505050565b815167ffffffffffffffff8111156135e4576135e46132c8565b6135f8816135f28454613548565b8461357c565b602080601f83116001811461362d57600084156136155750858301515b600019600386901b1c1916600185901b1785556135c2565b600085815260208120601f198616915b8281101561365c5788860151825594840194600190910190840161363d565b508582101561367a5787850151600019600388901b60f8161c191681555b5050505050600190811b01905550565b634e487b7160e01b600052603260045260246000fd5b6000808335601e198436030181126136b757600080fd5b83018035915067ffffffffffffffff8211156136d257600080fd5b6020019150368190038213156136e757600080fd5b9250929050565b6020808252602d908201527f4552433732313a2063616c6c6572206973206e6f7420746f6b656e206f776e6560408201526c1c881bdc88185c1c1c9bdd9959609a1b606082015260800190565b634e487b7160e01b600052601160045260246000fd5b6000600182016137635761376361373b565b5060010190565b818103818111156105f8576105f861373b565b6000825161378f818460208701612e52565b9190910192915050565b600083516137ab818460208801612e52565b8351908301906137bf818360208801612e52565b01949350505050565b634e487b7160e01b600052603160045260246000fd5b60208082526025908201527f4552433732313a207472616e736665722066726f6d20696e636f72726563742060408201526437bbb732b960d91b606082015260800190565b60208082526032908201527f4552433732313a207472616e7366657220746f206e6f6e20455243373231526560408201527131b2b4bb32b91034b6b83632b6b2b73a32b960711b606082015260800190565b808201808211156105f8576105f861373b565b6001600160a01b03858116825284166020820152604081018390526080606082018190526000906138bb90830184612e76565b9695505050505050565b6000602082840312156138d757600080fd5b81516129d081612d7a56fea2646970667358221220c889813a54ea2a292a123d513b1e18228b0789aec303e77e1a2cada9a21099ac64736f6c63430008110033",
  "immutableReferences": {},
  "source": "// SPDX-License-Identifier: MIT\npragma solidity 0.8.17;\n\nimport \"../node_modules/@openzeppelin/contracts/token/ERC721/extensions/ERC721URIStorage.sol\";\nimport \"../node_modules/@openzeppelin/contracts/utils/Counters.sol\";\n\n/// @title The CarBlocks Smart Contract\n/// @author Quentin COLLETTE & Maxime LESBROS\n/// @notice Smart Contract allowing to manage NFT associated with cars\n/// @dev This contract is deployed thanks to CarBlocksFactory\ncontract CarBlocks is ERC721URIStorage {\n    using Counters for Counters.Counter;\n\n    /// @notice counter to increment id of carblock NFT\n    Counters.Counter private _tokenIds;\n\n    /// @notice this will differentiate the various collections (gasoline, diesel, hybrid...)\n    string public energyType;\n\n    /// @notice forcing the name and symbol for our Carblock token\n    string constant _NAME = \"CarBlock\";\n    string constant _SYMBOL = \"CBK\";\n\n    /// @notice Defines the various states a car can be in\n    enum CarState {\n        circulation,\n        accident,\n        scrapped\n    }\n\n    /// @notice Defines the various maintenance types that can occur\n    enum MaintenanceType {\n        revision,\n        technicalControl,\n        partsChange,\n        tireChange\n    }\n\n    /// @notice Holds constant information about a Car\n    struct Car {\n        uint256 circulationStartDate;\n        string VIN;\n        string brand;\n        string model;\n    }\n\n    /// @notice Holds information linked to a maintenance operation\n    struct Maintenance {\n        uint256 date;\n        uint256 kilometers;\n        MaintenanceType mType;\n        string maintenanceURI;\n    }\n\n    /// @notice Defines the carblock NFT structure\n    struct Carblock {\n        uint256 tokenId;\n        CarState carState;\n        Car car;\n        uint256 price;\n        bool isForSale;\n    }\n\n    ///@notice Defines a way to store offers made by users\n    struct Offer {\n        uint256 price;\n        address user;\n        address recipient;\n    }\n\n    /// @notice Make sure contract caller is owner of _tokenId\n    modifier isNFTOwner(uint256 _tokenId) {\n        require(msg.sender == ownerOf(_tokenId), \"Err: not the owner of token\");\n        _;\n    }\n\n    /// @notice emit this event when new maintenance is added\n    event MaintenanceAdded(uint256 tokenId, uint256 date, uint256 kilometers);\n\n    /// @notice This array holds all the minted NFTs\n    Carblock[] private carblocksNFT;\n\n    /// @notice address => [tokenID]\n    mapping(address => uint256[]) private _users;\n\n    /// @notice tokenID => Maintenance[]\n    mapping(uint256 => Maintenance[]) private _allMaintenances;\n\n    /// @notice tokenId => Offer[]\n    mapping(uint256 => Offer[]) private _allOffers;\n\n    constructor(string memory _energyType) ERC721(_NAME, _SYMBOL) {\n        energyType = _energyType;\n    }\n\n    /// @notice Retrieve NFT from token ID\n    /// @dev Get the Carblock struct with the NFT token ID\n    /// @param _tokenId NFT token ID\n    /// @return Carblock\n    function getCarblock(uint256 _tokenId)\n        external\n        view\n        isNFTOwner(_tokenId)\n        returns (Carblock memory)\n    {\n        return carblocksNFT[_tokenId - 1];\n    }\n\n    /// @notice Retrieve all NFTs of contract caller\n    /// @dev Get an array of Carblock struct with the NFT token ID\n    /// @return carblocks an array of carblock NFT\n    function getCarblocks() public view returns (Carblock[] memory) {\n        Carblock[] memory carblocks = new Carblock[](_users[msg.sender].length);\n\n        for (uint256 i = 0; i < _users[msg.sender].length; i++) {\n            carblocks[i] = carblocksNFT[_users[msg.sender][i] - 1];\n        }\n        return carblocks;\n    }\n\n    /// @notice Retrieve all NFTs that are for sale\n    /// @dev The returned array of Carblock might not be completely full\n    /// @return Carblock[] the list of carblocks NFT\n    function getCarblocksForSale() external view returns (Carblock[] memory) {\n        Carblock[] memory carblocksForSale = new Carblock[](\n            carblocksNFT.length\n        );\n        uint256 counter;\n        for (uint256 i = 0; i < carblocksNFT.length; i++) {\n            if (carblocksNFT[i].isForSale) {\n                carblocksForSale[counter] = carblocksNFT[i];\n                counter++;\n            }\n        }\n        return carblocksForSale;\n    }\n\n    /// @notice Allow NFT Owner to set a price for his car\n    /// @param _tokenId NFT token ID\n    /// @param _price expected price\n    function setPrice(uint256 _tokenId, uint256 _price)\n        external\n        isNFTOwner(_tokenId)\n    {\n        carblocksNFT[_tokenId - 1].price = _price;\n        carblocksNFT[_tokenId - 1].isForSale = true;\n    }\n\n    /// @notice Add a new maintenance to a specific NFT\n    /// @dev After the maintenance file has been upload to IPFS call this method to update maintenanceURI\n    /// @param _tokenId NFT token ID\n    /// @param _date Date of maintenance\n    /// @param _mType Type of maintenance (enum)\n    /// @param _kilometers Total distance of the car at time of maintenance\n    /// @param _maintenanceURI URI of maintenance JSON file on IPFS\n    function addMaintenance(\n        uint256 _tokenId,\n        uint256 _date,\n        MaintenanceType _mType,\n        uint256 _kilometers,\n        string calldata _maintenanceURI\n    ) external isNFTOwner(_tokenId) {\n        require(\n            _allMaintenances[_tokenId].length < 100,\n            \"Err: no more than 100 maintenances can be stored\"\n        );\n        _allMaintenances[_tokenId].push(\n            Maintenance(_date, _kilometers, _mType, _maintenanceURI)\n        );\n        emit MaintenanceAdded(_tokenId, _date, _kilometers);\n    }\n\n    /// @notice Get list of all maintenances done on a car from a NFT token ID\n    /// @dev Return an array of Maintenance struct\n    /// @param _tokenId NFT token ID\n    /// @return Maintenance[]\n    function getMaintenances(uint256 _tokenId)\n        external\n        view\n        isNFTOwner(_tokenId)\n        returns (Maintenance[] memory)\n    {\n        return _allMaintenances[_tokenId];\n    }\n\n    /// @notice Allow user to mint a new Carblock NFT\n    /// @dev We use _mint instead of _safeMint as we don't need to check if _user is a contract\n    /// @param _user address of the future owner of minted NFT\n    /// @param _circulationStartDate first circulation date of owner's car\n    /// @param _vInfo array with [VIN, brand, model, tokenURI] in this order\n    /// @param _state car's state (ENUM)\n    /// @param _isForSale wether the car is for sale\n    function mintCarblock(\n        address _user,\n        uint256 _circulationStartDate,\n        string[] calldata _vInfo,\n        CarState _state,\n        bool _isForSale\n    ) external returns (uint256) {\n        _tokenIds.increment(); // Increment NFT ID (starts at 0)\n\n        carblocksNFT.push(\n            Carblock(\n                _tokenIds.current(),\n                _state,\n                Car(_circulationStartDate, _vInfo[0], _vInfo[1], _vInfo[2]),\n                0,\n                _isForSale\n            )\n        );\n        _mint(_user, _tokenIds.current());\n        _setTokenURI(_tokenIds.current(), _vInfo[3]);\n        _users[_user].push(_tokenIds.current());\n\n        return _tokenIds.current();\n    }\n\n    /** -- OFFERS MANAGEMENT --*/\n\n    /// @notice Allow user to make an offer for NFT\n    /// @dev Limit to 10 offers per NFT\n    /// @param _tokenId Token ID of NFT that user wants to purchase\n    /// @param _price price offer of user\n    /// @param _recipient address of offer recipient\n    function makeOffer(\n        uint256 _tokenId,\n        uint256 _price,\n        address _recipient\n    ) external {\n        require(\n            ownerOf(_tokenId) == _recipient,\n            \"Err: recipient not owner of NFT\"\n        );\n        require(_allOffers[_tokenId].length < 10, \"Err: 10 offers/NFT max\");\n        require(!hasMadeOffer(_tokenId), \"Err: only one offer/NFT allowed\");\n        _allOffers[_tokenId].push(Offer(_price, msg.sender, _recipient));\n    }\n\n    /// @notice Allow user to retrieve all offers for a NFT\n    /// @dev Limit to 10 offers per NFT\n    /// @param _tokenId Token ID of NFT that user wants to purchase\n    /// @return allOffers an array of offers\n    function getOffers(uint256 _tokenId)\n        external\n        view\n        isNFTOwner(_tokenId)\n        returns (Offer[] memory)\n    {\n        return _allOffers[_tokenId];\n    }\n\n    /// @notice Allow user to retrieve an offer he previously made for a NFT\n    /// @dev If no offer, just send back an offer with price at 0 from 0X0 to 0X0\n    /// @param _tokenId Token ID of NFT on which user made an offer\n    /// @return offer an Offer\n    function getOffer(uint256 _tokenId) external view returns (Offer memory) {\n        for (uint256 i = 0; i < _allOffers[_tokenId].length; i++) {\n            if (_allOffers[_tokenId][i].user == msg.sender) {\n                return _allOffers[_tokenId][i];\n            }\n        }\n        return Offer(0, address(0), address(0));\n    }\n\n    /// @notice Reject an offer\n    /// @dev Remove offer of _bider from allOffers\n    /// @param _tokenId of offer to reject\n    /// @param _bider address of user who made the offer\n    function rejectOffer(uint256 _tokenId, address _bider)\n        external\n        isNFTOwner(_tokenId)\n    {\n        for (uint256 i = 0; i < _allOffers[_tokenId].length; i++) {\n            if (_allOffers[_tokenId][i].user == _bider) {\n                // We switch with the last element in array\n                _allOffers[_tokenId][i] = _allOffers[_tokenId][\n                    _allOffers[_tokenId].length - 1\n                ];\n                _allOffers[_tokenId].pop();\n                break;\n            }\n        }\n    }\n\n    /// @notice Check if user has made an offer on NFT\n    /// @param _tokenId NFT token ID\n    /// @return bool true if contract caller has already made an offer\n    function hasMadeOffer(uint256 _tokenId) public view returns (bool) {\n        for (uint256 i = 0; i < _allOffers[_tokenId].length; i++) {\n            if (_allOffers[_tokenId][i].user == msg.sender) {\n                return true;\n            }\n        }\n        return false;\n    }\n\n    //TODO v2: payable function to collect fees before transferring ETH back to NFT saler\n    /// @notice Accept an offer and transfer NFT to bider\n    /// @dev Delete all offers in _allOffers and call transfertCarblockNFT\n    /// @param _tokenId NFT token ID\n    /// @param _bider user that made the accepted offer\n    function acceptOffer(uint256 _tokenId, address _bider) external payable {\n        transferCarblockNFT(_bider, _tokenId);\n        delete _allOffers[_tokenId];\n    }\n\n    /** - OFFERS MANAGEMENT - */\n\n    /// @notice Transfer a NFT when an owner is selling his vehicle to new owner\n    /// @dev Uses _transfer to update owner and update the '_users' mapping (don't need _safeTransfer for same reason as _safeMint)\n    /// @param _to address of the new NFT owner\n    /// @param _tokenId Token ID of NFT to transfer\n    function transferCarblockNFT(address _to, uint256 _tokenId) internal {\n        _transfer(msg.sender, _to, _tokenId);\n\n        for (uint256 i = 0; i < _users[msg.sender].length; i++) {\n            if (_users[msg.sender][i] == _tokenId) {\n                // We switch with the last element of array\n                _users[msg.sender][i] = _users[msg.sender][\n                    _users[msg.sender].length - 1\n                ];\n                _users[msg.sender].pop();\n                break;\n            }\n        }\n        _users[_to].push(_tokenId);\n    }\n\n    /// @notice Check if user has a specific brand & model of car so that he can give his opinion\n    /// @dev Uses getCarblocks to retrieve list of car and then string compares _brand & _model\n    /// @param _brand brand of car\n    /// @param _model model of car\n    function hasCar(string memory _brand, string memory _model)\n        external\n        view\n        returns (bool)\n    {\n        Carblock[] memory carblocks = getCarblocks();\n        for (uint256 i = 0; i < carblocks.length; i++) {\n            if (\n                (keccak256(abi.encodePacked(carblocks[i].car.brand)) ==\n                    keccak256(abi.encodePacked(_brand)))\n            ) {\n                if (\n                    (keccak256(abi.encodePacked(carblocks[i].car.model)) ==\n                        keccak256(abi.encodePacked(_model)))\n                ) {\n                    return true;\n                }\n            }\n        }\n        return false;\n    }\n\n    //TODO v2: withdraw function to collect fees when transferring NFT\n}\n",
  "sourcePath": "/home/mlazzje/projects/alyra/CarBlocks/truffle/contracts/CarBlocks.sol",
  "compiler": {
    "name": "solc",
    "version": "0.8.17+commit.8df45f5f.Emscripten.clang"
  },
  "schemaVersion": "3.4.10",
  "updatedAt": "2022-12-12T05:29:43.030Z",
  "devdoc": {
    "author": "Quentin COLLETTE & Maxime LESBROS",
    "details": "This contract is deployed thanks to CarBlocksFactory",
    "kind": "dev",
    "methods": {
      "acceptOffer(uint256,address)": {
        "details": "Delete all offers in _allOffers and call transfertCarblockNFT",
        "params": {
          "_bider": "user that made the accepted offer",
          "_tokenId": "NFT token ID"
        }
      },
      "addMaintenance(uint256,uint256,uint8,uint256,string)": {
        "details": "After the maintenance file has been upload to IPFS call this method to update maintenanceURI",
        "params": {
          "_date": "Date of maintenance",
          "_kilometers": "Total distance of the car at time of maintenance",
          "_mType": "Type of maintenance (enum)",
          "_maintenanceURI": "URI of maintenance JSON file on IPFS",
          "_tokenId": "NFT token ID"
        }
      },
      "approve(address,uint256)": {
        "details": "See {IERC721-approve}."
      },
      "balanceOf(address)": {
        "details": "See {IERC721-balanceOf}."
      },
      "getApproved(uint256)": {
        "details": "See {IERC721-getApproved}."
      },
      "getCarblock(uint256)": {
        "details": "Get the Carblock struct with the NFT token ID",
        "params": {
          "_tokenId": "NFT token ID"
        },
        "returns": {
          "_0": "Carblock"
        }
      },
      "getCarblocks()": {
        "details": "Get an array of Carblock struct with the NFT token ID",
        "returns": {
          "_0": "carblocks an array of carblock NFT"
        }
      },
      "getCarblocksForSale()": {
        "details": "The returned array of Carblock might not be completely full",
        "returns": {
          "_0": "Carblock[] the list of carblocks NFT"
        }
      },
      "getMaintenances(uint256)": {
        "details": "Return an array of Maintenance struct",
        "params": {
          "_tokenId": "NFT token ID"
        },
        "returns": {
          "_0": "Maintenance[]"
        }
      },
      "getOffer(uint256)": {
        "details": "If no offer, just send back an offer with price at 0 from 0X0 to 0X0",
        "params": {
          "_tokenId": "Token ID of NFT on which user made an offer"
        },
        "returns": {
          "_0": "offer an Offer"
        }
      },
      "getOffers(uint256)": {
        "details": "Limit to 10 offers per NFT",
        "params": {
          "_tokenId": "Token ID of NFT that user wants to purchase"
        },
        "returns": {
          "_0": "allOffers an array of offers"
        }
      },
      "hasCar(string,string)": {
        "details": "Uses getCarblocks to retrieve list of car and then string compares _brand & _model",
        "params": {
          "_brand": "brand of car",
          "_model": "model of car"
        }
      },
      "hasMadeOffer(uint256)": {
        "params": {
          "_tokenId": "NFT token ID"
        },
        "returns": {
          "_0": "bool true if contract caller has already made an offer"
        }
      },
      "isApprovedForAll(address,address)": {
        "details": "See {IERC721-isApprovedForAll}."
      },
      "makeOffer(uint256,uint256,address)": {
        "details": "Limit to 10 offers per NFT",
        "params": {
          "_price": "price offer of user",
          "_recipient": "address of offer recipient",
          "_tokenId": "Token ID of NFT that user wants to purchase"
        }
      },
      "mintCarblock(address,uint256,string[],uint8,bool)": {
        "details": "We use _mint instead of _safeMint as we don't need to check if _user is a contract",
        "params": {
          "_circulationStartDate": "first circulation date of owner's car",
          "_isForSale": "wether the car is for sale",
          "_state": "car's state (ENUM)",
          "_user": "address of the future owner of minted NFT",
          "_vInfo": "array with [VIN, brand, model, tokenURI] in this order"
        }
      },
      "name()": {
        "details": "See {IERC721Metadata-name}."
      },
      "ownerOf(uint256)": {
        "details": "See {IERC721-ownerOf}."
      },
      "rejectOffer(uint256,address)": {
        "details": "Remove offer of _bider from allOffers",
        "params": {
          "_bider": "address of user who made the offer",
          "_tokenId": "of offer to reject"
        }
      },
      "safeTransferFrom(address,address,uint256)": {
        "details": "See {IERC721-safeTransferFrom}."
      },
      "safeTransferFrom(address,address,uint256,bytes)": {
        "details": "See {IERC721-safeTransferFrom}."
      },
      "setApprovalForAll(address,bool)": {
        "details": "See {IERC721-setApprovalForAll}."
      },
      "setPrice(uint256,uint256)": {
        "params": {
          "_price": "expected price",
          "_tokenId": "NFT token ID"
        }
      },
      "supportsInterface(bytes4)": {
        "details": "See {IERC165-supportsInterface}."
      },
      "symbol()": {
        "details": "See {IERC721Metadata-symbol}."
      },
      "tokenURI(uint256)": {
        "details": "See {IERC721Metadata-tokenURI}."
      },
      "transferFrom(address,address,uint256)": {
        "details": "See {IERC721-transferFrom}."
      }
    },
    "title": "The CarBlocks Smart Contract",
    "version": 1
  },
  "userdoc": {
    "events": {
      "MaintenanceAdded(uint256,uint256,uint256)": {
        "notice": "emit this event when new maintenance is added"
      }
    },
    "kind": "user",
    "methods": {
      "acceptOffer(uint256,address)": {
        "notice": "Accept an offer and transfer NFT to bider"
      },
      "addMaintenance(uint256,uint256,uint8,uint256,string)": {
        "notice": "Add a new maintenance to a specific NFT"
      },
      "energyType()": {
        "notice": "this will differentiate the various collections (gasoline, diesel, hybrid...)"
      },
      "getCarblock(uint256)": {
        "notice": "Retrieve NFT from token ID"
      },
      "getCarblocks()": {
        "notice": "Retrieve all NFTs of contract caller"
      },
      "getCarblocksForSale()": {
        "notice": "Retrieve all NFTs that are for sale"
      },
      "getMaintenances(uint256)": {
        "notice": "Get list of all maintenances done on a car from a NFT token ID"
      },
      "getOffer(uint256)": {
        "notice": "Allow user to retrieve an offer he previously made for a NFT"
      },
      "getOffers(uint256)": {
        "notice": "Allow user to retrieve all offers for a NFT"
      },
      "hasCar(string,string)": {
        "notice": "Check if user has a specific brand & model of car so that he can give his opinion"
      },
      "hasMadeOffer(uint256)": {
        "notice": "Check if user has made an offer on NFT"
      },
      "makeOffer(uint256,uint256,address)": {
        "notice": "Allow user to make an offer for NFT"
      },
      "mintCarblock(address,uint256,string[],uint8,bool)": {
        "notice": "Allow user to mint a new Carblock NFT"
      },
      "rejectOffer(uint256,address)": {
        "notice": "Reject an offer"
      },
      "setPrice(uint256,uint256)": {
        "notice": "Allow NFT Owner to set a price for his car"
      }
    },
    "notice": "Smart Contract allowing to manage NFT associated with cars",
    "version": 1
  }
}