{
  "contractName": "CarBlocks",
  "abi": [
    {
      "inputs": [],
      "stateMutability": "nonpayable",
      "type": "constructor"
    },
    {
      "anonymous": false,
      "inputs": [
        {
          "indexed": true,
          "internalType": "address",
          "name": "owner",
          "type": "address"
        },
        {
          "indexed": true,
          "internalType": "address",
          "name": "approved",
          "type": "address"
        },
        {
          "indexed": true,
          "internalType": "uint256",
          "name": "tokenId",
          "type": "uint256"
        }
      ],
      "name": "Approval",
      "type": "event"
    },
    {
      "anonymous": false,
      "inputs": [
        {
          "indexed": true,
          "internalType": "address",
          "name": "owner",
          "type": "address"
        },
        {
          "indexed": true,
          "internalType": "address",
          "name": "operator",
          "type": "address"
        },
        {
          "indexed": false,
          "internalType": "bool",
          "name": "approved",
          "type": "bool"
        }
      ],
      "name": "ApprovalForAll",
      "type": "event"
    },
    {
      "anonymous": false,
      "inputs": [
        {
          "indexed": true,
          "internalType": "address",
          "name": "from",
          "type": "address"
        },
        {
          "indexed": true,
          "internalType": "address",
          "name": "to",
          "type": "address"
        },
        {
          "indexed": true,
          "internalType": "uint256",
          "name": "tokenId",
          "type": "uint256"
        }
      ],
      "name": "Transfer",
      "type": "event"
    },
    {
      "inputs": [
        {
          "internalType": "address",
          "name": "to",
          "type": "address"
        },
        {
          "internalType": "uint256",
          "name": "tokenId",
          "type": "uint256"
        }
      ],
      "name": "approve",
      "outputs": [],
      "stateMutability": "nonpayable",
      "type": "function"
    },
    {
      "inputs": [
        {
          "internalType": "address",
          "name": "owner",
          "type": "address"
        }
      ],
      "name": "balanceOf",
      "outputs": [
        {
          "internalType": "uint256",
          "name": "",
          "type": "uint256"
        }
      ],
      "stateMutability": "view",
      "type": "function",
      "constant": true
    },
    {
      "inputs": [
        {
          "internalType": "uint256",
          "name": "tokenId",
          "type": "uint256"
        }
      ],
      "name": "getApproved",
      "outputs": [
        {
          "internalType": "address",
          "name": "",
          "type": "address"
        }
      ],
      "stateMutability": "view",
      "type": "function",
      "constant": true
    },
    {
      "inputs": [
        {
          "internalType": "address",
          "name": "owner",
          "type": "address"
        },
        {
          "internalType": "address",
          "name": "operator",
          "type": "address"
        }
      ],
      "name": "isApprovedForAll",
      "outputs": [
        {
          "internalType": "bool",
          "name": "",
          "type": "bool"
        }
      ],
      "stateMutability": "view",
      "type": "function",
      "constant": true
    },
    {
      "inputs": [],
      "name": "name",
      "outputs": [
        {
          "internalType": "string",
          "name": "",
          "type": "string"
        }
      ],
      "stateMutability": "view",
      "type": "function",
      "constant": true
    },
    {
      "inputs": [
        {
          "internalType": "uint256",
          "name": "tokenId",
          "type": "uint256"
        }
      ],
      "name": "ownerOf",
      "outputs": [
        {
          "internalType": "address",
          "name": "",
          "type": "address"
        }
      ],
      "stateMutability": "view",
      "type": "function",
      "constant": true
    },
    {
      "inputs": [
        {
          "internalType": "address",
          "name": "from",
          "type": "address"
        },
        {
          "internalType": "address",
          "name": "to",
          "type": "address"
        },
        {
          "internalType": "uint256",
          "name": "tokenId",
          "type": "uint256"
        }
      ],
      "name": "safeTransferFrom",
      "outputs": [],
      "stateMutability": "nonpayable",
      "type": "function"
    },
    {
      "inputs": [
        {
          "internalType": "address",
          "name": "from",
          "type": "address"
        },
        {
          "internalType": "address",
          "name": "to",
          "type": "address"
        },
        {
          "internalType": "uint256",
          "name": "tokenId",
          "type": "uint256"
        },
        {
          "internalType": "bytes",
          "name": "data",
          "type": "bytes"
        }
      ],
      "name": "safeTransferFrom",
      "outputs": [],
      "stateMutability": "nonpayable",
      "type": "function"
    },
    {
      "inputs": [
        {
          "internalType": "address",
          "name": "operator",
          "type": "address"
        },
        {
          "internalType": "bool",
          "name": "approved",
          "type": "bool"
        }
      ],
      "name": "setApprovalForAll",
      "outputs": [],
      "stateMutability": "nonpayable",
      "type": "function"
    },
    {
      "inputs": [
        {
          "internalType": "bytes4",
          "name": "interfaceId",
          "type": "bytes4"
        }
      ],
      "name": "supportsInterface",
      "outputs": [
        {
          "internalType": "bool",
          "name": "",
          "type": "bool"
        }
      ],
      "stateMutability": "view",
      "type": "function",
      "constant": true
    },
    {
      "inputs": [],
      "name": "symbol",
      "outputs": [
        {
          "internalType": "string",
          "name": "",
          "type": "string"
        }
      ],
      "stateMutability": "view",
      "type": "function",
      "constant": true
    },
    {
      "inputs": [
        {
          "internalType": "uint256",
          "name": "tokenId",
          "type": "uint256"
        }
      ],
      "name": "tokenURI",
      "outputs": [
        {
          "internalType": "string",
          "name": "",
          "type": "string"
        }
      ],
      "stateMutability": "view",
      "type": "function",
      "constant": true
    },
    {
      "inputs": [
        {
          "internalType": "address",
          "name": "from",
          "type": "address"
        },
        {
          "internalType": "address",
          "name": "to",
          "type": "address"
        },
        {
          "internalType": "uint256",
          "name": "tokenId",
          "type": "uint256"
        }
      ],
      "name": "transferFrom",
      "outputs": [],
      "stateMutability": "nonpayable",
      "type": "function"
    },
    {
      "inputs": [
        {
          "internalType": "address",
          "name": "_user",
          "type": "address"
        },
        {
          "internalType": "uint256",
          "name": "_circulationStartDate",
          "type": "uint256"
        },
        {
          "internalType": "string",
          "name": "_VIN",
          "type": "string"
        },
        {
          "internalType": "string",
          "name": "_brand",
          "type": "string"
        },
        {
          "internalType": "string",
          "name": "_model",
          "type": "string"
        },
        {
          "internalType": "string",
          "name": "_tokenURI",
          "type": "string"
        },
        {
          "internalType": "enum CarBlocks.CarState",
          "name": "_state",
          "type": "uint8"
        }
      ],
      "name": "mintCarblock",
      "outputs": [],
      "stateMutability": "nonpayable",
      "type": "function"
    }
  ],
  "bytecode": "0x60806040523480156200001157600080fd5b506040518060400160405280600881526020017f436172626c6f636b0000000000000000000000000000000000000000000000008152506040518060400160405280600381526020017f43424b000000000000000000000000000000000000000000000000000000000081525081600090816200008f919062000324565b508060019081620000a1919062000324565b5050506200040b565b600081519050919050565b7f4e487b7100000000000000000000000000000000000000000000000000000000600052604160045260246000fd5b7f4e487b7100000000000000000000000000000000000000000000000000000000600052602260045260246000fd5b600060028204905060018216806200012c57607f821691505b602082108103620001425762000141620000e4565b5b50919050565b60008190508160005260206000209050919050565b60006020601f8301049050919050565b600082821b905092915050565b600060088302620001ac7fffffffffffffffffffffffffffffffffffffffffffffffffffffffffffffffff826200016d565b620001b886836200016d565b95508019841693508086168417925050509392505050565b6000819050919050565b6000819050919050565b600062000205620001ff620001f984620001d0565b620001da565b620001d0565b9050919050565b6000819050919050565b6200022183620001e4565b6200023962000230826200020c565b8484546200017a565b825550505050565b600090565b6200025062000241565b6200025d81848462000216565b505050565b5b8181101562000285576200027960008262000246565b60018101905062000263565b5050565b601f821115620002d4576200029e8162000148565b620002a9846200015d565b81016020851015620002b9578190505b620002d1620002c8856200015d565b83018262000262565b50505b505050565b600082821c905092915050565b6000620002f960001984600802620002d9565b1980831691505092915050565b6000620003148383620002e6565b9150826002028217905092915050565b6200032f82620000aa565b67ffffffffffffffff8111156200034b576200034a620000b5565b5b62000357825462000113565b6200036482828562000289565b600060209050601f8311600181146200039c576000841562000387578287015190505b62000393858262000306565b86555062000403565b601f198416620003ac8662000148565b60005b82811015620003d657848901518255600182019150602085019450602081019050620003af565b86831015620003f65784890151620003f2601f891682620002e6565b8355505b6001600288020188555050505b505050505050565b612f26806200041b6000396000f3fe608060405234801561001057600080fd5b50600436106100ea5760003560e01c806370a082311161008c578063b88d4fde11610066578063b88d4fde1461025b578063c87b56dd14610277578063e985e9c5146102a7578063f2a1d04d146102d7576100ea565b806370a08231146101f157806395d89b4114610221578063a22cb4651461023f576100ea565b8063095ea7b3116100c8578063095ea7b31461016d57806323b872dd1461018957806342842e0e146101a55780636352211e146101c1576100ea565b806301ffc9a7146100ef57806306fdde031461011f578063081812fc1461013d575b600080fd5b61010960048036038101906101049190611ca3565b6102f3565b6040516101169190611ceb565b60405180910390f35b6101276103d5565b6040516101349190611d96565b60405180910390f35b61015760048036038101906101529190611dee565b610467565b6040516101649190611e5c565b60405180910390f35b61018760048036038101906101829190611ea3565b6104ad565b005b6101a3600480360381019061019e9190611ee3565b6105c4565b005b6101bf60048036038101906101ba9190611ee3565b610624565b005b6101db60048036038101906101d69190611dee565b610644565b6040516101e89190611e5c565b60405180910390f35b61020b60048036038101906102069190611f36565b6106ca565b6040516102189190611f72565b60405180910390f35b610229610781565b6040516102369190611d96565b60405180910390f35b61025960048036038101906102549190611fb9565b610813565b005b6102756004803603810190610270919061212e565b610829565b005b610291600480360381019061028c9190611dee565b61088b565b60405161029e9190611d96565b60405180910390f35b6102c160048036038101906102bc91906121b1565b61099d565b6040516102ce9190611ceb565b60405180910390f35b6102f160048036038101906102ec9190612276565b610a31565b005b60007f80ac58cd000000000000000000000000000000000000000000000000000000007bffffffffffffffffffffffffffffffffffffffffffffffffffffffff1916827bffffffffffffffffffffffffffffffffffffffffffffffffffffffff191614806103be57507f5b5e139f000000000000000000000000000000000000000000000000000000007bffffffffffffffffffffffffffffffffffffffffffffffffffffffff1916827bffffffffffffffffffffffffffffffffffffffffffffffffffffffff1916145b806103ce57506103cd82610c50565b5b9050919050565b6060600080546103e4906123c9565b80601f0160208091040260200160405190810160405280929190818152602001828054610410906123c9565b801561045d5780601f106104325761010080835404028352916020019161045d565b820191906000526020600020905b81548152906001019060200180831161044057829003601f168201915b5050505050905090565b600061047282610cba565b6004600083815260200190815260200160002060009054906101000a900473ffffffffffffffffffffffffffffffffffffffff169050919050565b60006104b882610644565b90508073ffffffffffffffffffffffffffffffffffffffff168373ffffffffffffffffffffffffffffffffffffffff1603610528576040517f08c379a000000000000000000000000000000000000000000000000000000000815260040161051f9061246c565b60405180910390fd5b8073ffffffffffffffffffffffffffffffffffffffff16610547610d05565b73ffffffffffffffffffffffffffffffffffffffff161480610576575061057581610570610d05565b61099d565b5b6105b5576040517f08c379a00000000000000000000000000000000000000000000000000000000081526004016105ac906124fe565b60405180910390fd5b6105bf8383610d0d565b505050565b6105d56105cf610d05565b82610dc6565b610614576040517f08c379a000000000000000000000000000000000000000000000000000000000815260040161060b90612590565b60405180910390fd5b61061f838383610e5b565b505050565b61063f83838360405180602001604052806000815250610829565b505050565b60008061065083611154565b9050600073ffffffffffffffffffffffffffffffffffffffff168173ffffffffffffffffffffffffffffffffffffffff16036106c1576040517f08c379a00000000000000000000000000000000000000000000000000000000081526004016106b8906125fc565b60405180910390fd5b80915050919050565b60008073ffffffffffffffffffffffffffffffffffffffff168273ffffffffffffffffffffffffffffffffffffffff160361073a576040517f08c379a00000000000000000000000000000000000000000000000000000000081526004016107319061268e565b60405180910390fd5b600360008373ffffffffffffffffffffffffffffffffffffffff1673ffffffffffffffffffffffffffffffffffffffff168152602001908152602001600020549050919050565b606060018054610790906123c9565b80601f01602080910402602001604051908101604052809291908181526020018280546107bc906123c9565b80156108095780601f106107de57610100808354040283529160200191610809565b820191906000526020600020905b8154815290600101906020018083116107ec57829003601f168201915b5050505050905090565b61082561081e610d05565b8383611191565b5050565b61083a610834610d05565b83610dc6565b610879576040517f08c379a000000000000000000000000000000000000000000000000000000000815260040161087090612590565b60405180910390fd5b610885848484846112fd565b50505050565b606061089682610cba565b60006006600084815260200190815260200160002080546108b6906123c9565b80601f01602080910402602001604051908101604052809291908181526020018280546108e2906123c9565b801561092f5780601f106109045761010080835404028352916020019161092f565b820191906000526020600020905b81548152906001019060200180831161091257829003601f168201915b505050505090506000610940611359565b90506000815103610955578192505050610998565b60008251111561098a5780826040516020016109729291906126ea565b60405160208183030381529060405292505050610998565b61099384611370565b925050505b919050565b6000600560008473ffffffffffffffffffffffffffffffffffffffff1673ffffffffffffffffffffffffffffffffffffffff16815260200190815260200160002060008373ffffffffffffffffffffffffffffffffffffffff1673ffffffffffffffffffffffffffffffffffffffff16815260200190815260200160002060009054906101000a900460ff16905092915050565b610a3b60076113d8565b600060405180608001604052808c81526020018b8b8080601f016020809104026020016040519081016040528093929190818152602001838380828437600081840152601f19601f82011690508083019250505050505050815260200189898080601f016020809104026020016040519081016040528093929190818152602001838380828437600081840152601f19601f82011690508083019250505050505050815260200187878080601f016020809104026020016040519081016040528093929190818152602001838380828437600081840152601f19601f820116905080830192505050505050508152509050600060086001816001815401808255809150500390600052602060002090600702019050828160000160006101000a81548160ff02191690836002811115610b7757610b7661270e565b5b02179055508181600101600082015181600001556020820151816001019081610ba091906128e9565b506040820151816002019081610bb691906128e9565b506060820151816003019081610bcc91906128e9565b50905050600081600601819055506000610be660076113ee565b9050610bf28e826113fc565b610c408187878080601f016020809104026020016040519081016040528093929190818152602001838380828437600081840152601f19601f8201169050808301925050505050505061141a565b5050505050505050505050505050565b60007f01ffc9a7000000000000000000000000000000000000000000000000000000007bffffffffffffffffffffffffffffffffffffffffffffffffffffffff1916827bffffffffffffffffffffffffffffffffffffffffffffffffffffffff1916149050919050565b610cc381611487565b610d02576040517f08c379a0000000000000000000000000000000000000000000000000000000008152600401610cf9906125fc565b60405180910390fd5b50565b600033905090565b816004600083815260200190815260200160002060006101000a81548173ffffffffffffffffffffffffffffffffffffffff021916908373ffffffffffffffffffffffffffffffffffffffff160217905550808273ffffffffffffffffffffffffffffffffffffffff16610d8083610644565b73ffffffffffffffffffffffffffffffffffffffff167f8c5be1e5ebec7d5bd14f71427d1e84f3dd0314c0f7b2291e5b200ac8c7c3b92560405160405180910390a45050565b600080610dd283610644565b90508073ffffffffffffffffffffffffffffffffffffffff168473ffffffffffffffffffffffffffffffffffffffff161480610e145750610e13818561099d565b5b80610e5257508373ffffffffffffffffffffffffffffffffffffffff16610e3a84610467565b73ffffffffffffffffffffffffffffffffffffffff16145b91505092915050565b8273ffffffffffffffffffffffffffffffffffffffff16610e7b82610644565b73ffffffffffffffffffffffffffffffffffffffff1614610ed1576040517f08c379a0000000000000000000000000000000000000000000000000000000008152600401610ec890612a2d565b60405180910390fd5b600073ffffffffffffffffffffffffffffffffffffffff168273ffffffffffffffffffffffffffffffffffffffff1603610f40576040517f08c379a0000000000000000000000000000000000000000000000000000000008152600401610f3790612abf565b60405180910390fd5b610f4d83838360016114c8565b8273ffffffffffffffffffffffffffffffffffffffff16610f6d82610644565b73ffffffffffffffffffffffffffffffffffffffff1614610fc3576040517f08c379a0000000000000000000000000000000000000000000000000000000008152600401610fba90612a2d565b60405180910390fd5b6004600082815260200190815260200160002060006101000a81549073ffffffffffffffffffffffffffffffffffffffff02191690556001600360008573ffffffffffffffffffffffffffffffffffffffff1673ffffffffffffffffffffffffffffffffffffffff168152602001908152602001600020600082825403925050819055506001600360008473ffffffffffffffffffffffffffffffffffffffff1673ffffffffffffffffffffffffffffffffffffffff16815260200190815260200160002060008282540192505081905550816002600083815260200190815260200160002060006101000a81548173ffffffffffffffffffffffffffffffffffffffff021916908373ffffffffffffffffffffffffffffffffffffffff160217905550808273ffffffffffffffffffffffffffffffffffffffff168473ffffffffffffffffffffffffffffffffffffffff167fddf252ad1be2c89b69c2b068fc378daa952ba7f163c4a11628f55a4df523b3ef60405160405180910390a461114f83838360016115ee565b505050565b60006002600083815260200190815260200160002060009054906101000a900473ffffffffffffffffffffffffffffffffffffffff169050919050565b8173ffffffffffffffffffffffffffffffffffffffff168373ffffffffffffffffffffffffffffffffffffffff16036111ff576040517f08c379a00000000000000000000000000000000000000000000000000000000081526004016111f690612b2b565b60405180910390fd5b80600560008573ffffffffffffffffffffffffffffffffffffffff1673ffffffffffffffffffffffffffffffffffffffff16815260200190815260200160002060008473ffffffffffffffffffffffffffffffffffffffff1673ffffffffffffffffffffffffffffffffffffffff16815260200190815260200160002060006101000a81548160ff0219169083151502179055508173ffffffffffffffffffffffffffffffffffffffff168373ffffffffffffffffffffffffffffffffffffffff167f17307eab39ab6107e8899845ad3d59bd9653f200f220920489ca2b5937696c31836040516112f09190611ceb565b60405180910390a3505050565b611308848484610e5b565b611314848484846115f4565b611353576040517f08c379a000000000000000000000000000000000000000000000000000000000815260040161134a90612bbd565b60405180910390fd5b50505050565b606060405180602001604052806000815250905090565b606061137b82610cba565b6000611385611359565b905060008151116113a557604051806020016040528060008152506113d0565b806113af8461177b565b6040516020016113c09291906126ea565b6040516020818303038152906040525b915050919050565b6001816000016000828254019250508190555050565b600081600001549050919050565b611416828260405180602001604052806000815250611849565b5050565b61142382611487565b611462576040517f08c379a000000000000000000000000000000000000000000000000000000000815260040161145990612c4f565b60405180910390fd5b8060066000848152602001908152602001600020908161148291906128e9565b505050565b60008073ffffffffffffffffffffffffffffffffffffffff166114a983611154565b73ffffffffffffffffffffffffffffffffffffffff1614159050919050565b60018111156115e857600073ffffffffffffffffffffffffffffffffffffffff168473ffffffffffffffffffffffffffffffffffffffff161461155c5780600360008673ffffffffffffffffffffffffffffffffffffffff1673ffffffffffffffffffffffffffffffffffffffff16815260200190815260200160002060008282546115549190612c9e565b925050819055505b600073ffffffffffffffffffffffffffffffffffffffff168373ffffffffffffffffffffffffffffffffffffffff16146115e75780600360008573ffffffffffffffffffffffffffffffffffffffff1673ffffffffffffffffffffffffffffffffffffffff16815260200190815260200160002060008282546115df9190612cd2565b925050819055505b5b50505050565b50505050565b60006116158473ffffffffffffffffffffffffffffffffffffffff166118a4565b1561176e578373ffffffffffffffffffffffffffffffffffffffff1663150b7a0261163e610d05565b8786866040518563ffffffff1660e01b81526004016116609493929190612d5b565b6020604051808303816000875af192505050801561169c57506040513d601f19601f820116820180604052508101906116999190612dbc565b60015b61171e573d80600081146116cc576040519150601f19603f3d011682016040523d82523d6000602084013e6116d1565b606091505b506000815103611716576040517f08c379a000000000000000000000000000000000000000000000000000000000815260040161170d90612bbd565b60405180910390fd5b805181602001fd5b63150b7a0260e01b7bffffffffffffffffffffffffffffffffffffffffffffffffffffffff1916817bffffffffffffffffffffffffffffffffffffffffffffffffffffffff191614915050611773565b600190505b949350505050565b60606000600161178a846118c7565b01905060008167ffffffffffffffff8111156117a9576117a8612003565b5b6040519080825280601f01601f1916602001820160405280156117db5781602001600182028036833780820191505090505b509050600082602001820190505b60011561183e578080600190039150507f3031323334353637383961626364656600000000000000000000000000000000600a86061a8153600a858161183257611831612de9565b5b049450600085036117e9575b819350505050919050565b6118538383611a1a565b61186060008484846115f4565b61189f576040517f08c379a000000000000000000000000000000000000000000000000000000000815260040161189690612bbd565b60405180910390fd5b505050565b6000808273ffffffffffffffffffffffffffffffffffffffff163b119050919050565b600080600090507a184f03e93ff9f4daa797ed6e38ed64bf6a1f0100000000000000008310611925577a184f03e93ff9f4daa797ed6e38ed64bf6a1f010000000000000000838161191b5761191a612de9565b5b0492506040810190505b6d04ee2d6d415b85acef81000000008310611962576d04ee2d6d415b85acef8100000000838161195857611957612de9565b5b0492506020810190505b662386f26fc10000831061199157662386f26fc10000838161198757611986612de9565b5b0492506010810190505b6305f5e10083106119ba576305f5e10083816119b0576119af612de9565b5b0492506008810190505b61271083106119df5761271083816119d5576119d4612de9565b5b0492506004810190505b60648310611a0257606483816119f8576119f7612de9565b5b0492506002810190505b600a8310611a11576001810190505b80915050919050565b600073ffffffffffffffffffffffffffffffffffffffff168273ffffffffffffffffffffffffffffffffffffffff1603611a89576040517f08c379a0000000000000000000000000000000000000000000000000000000008152600401611a8090612e64565b60405180910390fd5b611a9281611487565b15611ad2576040517f08c379a0000000000000000000000000000000000000000000000000000000008152600401611ac990612ed0565b60405180910390fd5b611ae06000838360016114c8565b611ae981611487565b15611b29576040517f08c379a0000000000000000000000000000000000000000000000000000000008152600401611b2090612ed0565b60405180910390fd5b6001600360008473ffffffffffffffffffffffffffffffffffffffff1673ffffffffffffffffffffffffffffffffffffffff16815260200190815260200160002060008282540192505081905550816002600083815260200190815260200160002060006101000a81548173ffffffffffffffffffffffffffffffffffffffff021916908373ffffffffffffffffffffffffffffffffffffffff160217905550808273ffffffffffffffffffffffffffffffffffffffff16600073ffffffffffffffffffffffffffffffffffffffff167fddf252ad1be2c89b69c2b068fc378daa952ba7f163c4a11628f55a4df523b3ef60405160405180910390a4611c336000838360016115ee565b5050565b6000604051905090565b600080fd5b600080fd5b60007fffffffff0000000000000000000000000000000000000000000000000000000082169050919050565b611c8081611c4b565b8114611c8b57600080fd5b50565b600081359050611c9d81611c77565b92915050565b600060208284031215611cb957611cb8611c41565b5b6000611cc784828501611c8e565b91505092915050565b60008115159050919050565b611ce581611cd0565b82525050565b6000602082019050611d006000830184611cdc565b92915050565b600081519050919050565b600082825260208201905092915050565b60005b83811015611d40578082015181840152602081019050611d25565b60008484015250505050565b6000601f19601f8301169050919050565b6000611d6882611d06565b611d728185611d11565b9350611d82818560208601611d22565b611d8b81611d4c565b840191505092915050565b60006020820190508181036000830152611db08184611d5d565b905092915050565b6000819050919050565b611dcb81611db8565b8114611dd657600080fd5b50565b600081359050611de881611dc2565b92915050565b600060208284031215611e0457611e03611c41565b5b6000611e1284828501611dd9565b91505092915050565b600073ffffffffffffffffffffffffffffffffffffffff82169050919050565b6000611e4682611e1b565b9050919050565b611e5681611e3b565b82525050565b6000602082019050611e716000830184611e4d565b92915050565b611e8081611e3b565b8114611e8b57600080fd5b50565b600081359050611e9d81611e77565b92915050565b60008060408385031215611eba57611eb9611c41565b5b6000611ec885828601611e8e565b9250506020611ed985828601611dd9565b9150509250929050565b600080600060608486031215611efc57611efb611c41565b5b6000611f0a86828701611e8e565b9350506020611f1b86828701611e8e565b9250506040611f2c86828701611dd9565b9150509250925092565b600060208284031215611f4c57611f4b611c41565b5b6000611f5a84828501611e8e565b91505092915050565b611f6c81611db8565b82525050565b6000602082019050611f876000830184611f63565b92915050565b611f9681611cd0565b8114611fa157600080fd5b50565b600081359050611fb381611f8d565b92915050565b60008060408385031215611fd057611fcf611c41565b5b6000611fde85828601611e8e565b9250506020611fef85828601611fa4565b9150509250929050565b600080fd5b600080fd5b7f4e487b7100000000000000000000000000000000000000000000000000000000600052604160045260246000fd5b61203b82611d4c565b810181811067ffffffffffffffff8211171561205a57612059612003565b5b80604052505050565b600061206d611c37565b90506120798282612032565b919050565b600067ffffffffffffffff82111561209957612098612003565b5b6120a282611d4c565b9050602081019050919050565b82818337600083830152505050565b60006120d16120cc8461207e565b612063565b9050828152602081018484840111156120ed576120ec611ffe565b5b6120f88482856120af565b509392505050565b600082601f83011261211557612114611ff9565b5b81356121258482602086016120be565b91505092915050565b6000806000806080858703121561214857612147611c41565b5b600061215687828801611e8e565b945050602061216787828801611e8e565b935050604061217887828801611dd9565b925050606085013567ffffffffffffffff81111561219957612198611c46565b5b6121a587828801612100565b91505092959194509250565b600080604083850312156121c8576121c7611c41565b5b60006121d685828601611e8e565b92505060206121e785828601611e8e565b9150509250929050565b600080fd5b600080fd5b60008083601f84011261221157612210611ff9565b5b8235905067ffffffffffffffff81111561222e5761222d6121f1565b5b60208301915083600182028301111561224a576122496121f6565b5b9250929050565b6003811061225e57600080fd5b50565b60008135905061227081612251565b92915050565b600080600080600080600080600080600060e08c8e03121561229b5761229a611c41565b5b60006122a98e828f01611e8e565b9b505060206122ba8e828f01611dd9565b9a505060408c013567ffffffffffffffff8111156122db576122da611c46565b5b6122e78e828f016121fb565b995099505060608c013567ffffffffffffffff81111561230a57612309611c46565b5b6123168e828f016121fb565b975097505060808c013567ffffffffffffffff81111561233957612338611c46565b5b6123458e828f016121fb565b955095505060a08c013567ffffffffffffffff81111561236857612367611c46565b5b6123748e828f016121fb565b935093505060c06123878e828f01612261565b9150509295989b509295989b9093969950565b7f4e487b7100000000000000000000000000000000000000000000000000000000600052602260045260246000fd5b600060028204905060018216806123e157607f821691505b6020821081036123f4576123f361239a565b5b50919050565b7f4552433732313a20617070726f76616c20746f2063757272656e74206f776e6560008201527f7200000000000000000000000000000000000000000000000000000000000000602082015250565b6000612456602183611d11565b9150612461826123fa565b604082019050919050565b6000602082019050818103600083015261248581612449565b9050919050565b7f4552433732313a20617070726f76652063616c6c6572206973206e6f7420746f60008201527f6b656e206f776e6572206f7220617070726f76656420666f7220616c6c000000602082015250565b60006124e8603d83611d11565b91506124f38261248c565b604082019050919050565b60006020820190508181036000830152612517816124db565b9050919050565b7f4552433732313a2063616c6c6572206973206e6f7420746f6b656e206f776e6560008201527f72206f7220617070726f76656400000000000000000000000000000000000000602082015250565b600061257a602d83611d11565b91506125858261251e565b604082019050919050565b600060208201905081810360008301526125a98161256d565b9050919050565b7f4552433732313a20696e76616c696420746f6b656e2049440000000000000000600082015250565b60006125e6601883611d11565b91506125f1826125b0565b602082019050919050565b60006020820190508181036000830152612615816125d9565b9050919050565b7f4552433732313a2061646472657373207a65726f206973206e6f74206120766160008201527f6c6964206f776e65720000000000000000000000000000000000000000000000602082015250565b6000612678602983611d11565b91506126838261261c565b604082019050919050565b600060208201905081810360008301526126a78161266b565b9050919050565b600081905092915050565b60006126c482611d06565b6126ce81856126ae565b93506126de818560208601611d22565b80840191505092915050565b60006126f682856126b9565b915061270282846126b9565b91508190509392505050565b7f4e487b7100000000000000000000000000000000000000000000000000000000600052602160045260246000fd5b60008190508160005260206000209050919050565b60006020601f8301049050919050565b600082821b905092915050565b60006008830261279f7fffffffffffffffffffffffffffffffffffffffffffffffffffffffffffffffff82612762565b6127a98683612762565b95508019841693508086168417925050509392505050565b6000819050919050565b60006127e66127e16127dc84611db8565b6127c1565b611db8565b9050919050565b6000819050919050565b612800836127cb565b61281461280c826127ed565b84845461276f565b825550505050565b600090565b61282961281c565b6128348184846127f7565b505050565b5b818110156128585761284d600082612821565b60018101905061283a565b5050565b601f82111561289d5761286e8161273d565b61287784612752565b81016020851015612886578190505b61289a61289285612752565b830182612839565b50505b505050565b600082821c905092915050565b60006128c0600019846008026128a2565b1980831691505092915050565b60006128d983836128af565b9150826002028217905092915050565b6128f282611d06565b67ffffffffffffffff81111561290b5761290a612003565b5b61291582546123c9565b61292082828561285c565b600060209050601f8311600181146129535760008415612941578287015190505b61294b85826128cd565b8655506129b3565b601f1984166129618661273d565b60005b8281101561298957848901518255600182019150602085019450602081019050612964565b868310156129a657848901516129a2601f8916826128af565b8355505b6001600288020188555050505b505050505050565b7f4552433732313a207472616e736665722066726f6d20696e636f72726563742060008201527f6f776e6572000000000000000000000000000000000000000000000000000000602082015250565b6000612a17602583611d11565b9150612a22826129bb565b604082019050919050565b60006020820190508181036000830152612a4681612a0a565b9050919050565b7f4552433732313a207472616e7366657220746f20746865207a65726f2061646460008201527f7265737300000000000000000000000000000000000000000000000000000000602082015250565b6000612aa9602483611d11565b9150612ab482612a4d565b604082019050919050565b60006020820190508181036000830152612ad881612a9c565b9050919050565b7f4552433732313a20617070726f766520746f2063616c6c657200000000000000600082015250565b6000612b15601983611d11565b9150612b2082612adf565b602082019050919050565b60006020820190508181036000830152612b4481612b08565b9050919050565b7f4552433732313a207472616e7366657220746f206e6f6e20455243373231526560008201527f63656976657220696d706c656d656e7465720000000000000000000000000000602082015250565b6000612ba7603283611d11565b9150612bb282612b4b565b604082019050919050565b60006020820190508181036000830152612bd681612b9a565b9050919050565b7f45524337323155524953746f726167653a2055524920736574206f66206e6f6e60008201527f6578697374656e7420746f6b656e000000000000000000000000000000000000602082015250565b6000612c39602e83611d11565b9150612c4482612bdd565b604082019050919050565b60006020820190508181036000830152612c6881612c2c565b9050919050565b7f4e487b7100000000000000000000000000000000000000000000000000000000600052601160045260246000fd5b6000612ca982611db8565b9150612cb483611db8565b9250828203905081811115612ccc57612ccb612c6f565b5b92915050565b6000612cdd82611db8565b9150612ce883611db8565b9250828201905080821115612d0057612cff612c6f565b5b92915050565b600081519050919050565b600082825260208201905092915050565b6000612d2d82612d06565b612d378185612d11565b9350612d47818560208601611d22565b612d5081611d4c565b840191505092915050565b6000608082019050612d706000830187611e4d565b612d7d6020830186611e4d565b612d8a6040830185611f63565b8181036060830152612d9c8184612d22565b905095945050505050565b600081519050612db681611c77565b92915050565b600060208284031215612dd257612dd1611c41565b5b6000612de084828501612da7565b91505092915050565b7f4e487b7100000000000000000000000000000000000000000000000000000000600052601260045260246000fd5b7f4552433732313a206d696e7420746f20746865207a65726f2061646472657373600082015250565b6000612e4e602083611d11565b9150612e5982612e18565b602082019050919050565b60006020820190508181036000830152612e7d81612e41565b9050919050565b7f4552433732313a20746f6b656e20616c7265616479206d696e74656400000000600082015250565b6000612eba601c83611d11565b9150612ec582612e84565b602082019050919050565b60006020820190508181036000830152612ee981612ead565b905091905056fea26469706673582212209c1bb0aa8d4b277148405ece4b458f9d8ad4ffd07939e5d7ccce489cb793186164736f6c63430008110033",
  "immutableReferences": {},
  "source": "// SPDX-License-Identifier: MIT\npragma solidity 0.8.17;\n\nimport \"../node_modules/@openzeppelin/contracts/token/ERC721/extensions/ERC721URIStorage.sol\";\nimport \"../node_modules/@openzeppelin/contracts/utils/Counters.sol\";\n\n/// @title The CarBlocks Smart Contract\n/// @author Quentin COLLETTE & Maxime LESBROS\n/// @notice Smart Contract allowing to manage NFT associated with cars\n/// @dev Stay away from this or you're facing sleep deprivation\ncontract CarBlocks is ERC721URIStorage {\n    using Counters for Counters.Counter;\n\n    /// @notice counter to increment id of carblock NFT\n    Counters.Counter private _tokenIds;\n\n    /// @notice Defines the various states a car can be in\n    enum CarState {\n        circulation,\n        accident,\n        scrapped\n    }\n\n    /// @notice Defines the various maintenance types that can occur\n    enum MaintenanceType {\n        revision,\n        technicalControl,\n        partsChange,\n        tireChange\n    }\n\n    /// @notice Holds constant information about a Car\n    struct Car {\n        uint256 circulationStartDate;\n        string VIN;\n        string brand;\n        string model;\n    }\n\n    /// @notice Holds information linked to a maintenance operation\n    struct Maintenance {\n        uint256 date;\n        MaintenanceType mType;\n        string billsUri;\n    }\n\n    /// @notice Defines the carblock NFT structure\n    struct Carblock {\n        CarState carState;\n        Car car;\n        // Maintenance[] maintenances; // QCO: this does not work, we need to use mapping instead\n        mapping(uint256 => Maintenance) maintenances;\n        uint256 maintenancesNumber;\n    }\n\n    /// @notice This array holds all the minted NFTs\n    Carblock[] carblocksNFT;\n\n    constructor() ERC721(\"Carblock\", \"CBK\") {}\n\n    //TODO : onlyOwner ?\n    //TODO : check memory vs calldata\n    //TODO : payable\n    /// @notice Allow user to mint a new Carblock NFT\n    /// @dev\n    /// @param _user address of the futur owner of minted NFT\n    /// @param _circulationStartDate first circulation date of owner's car\n    /// @param _VIN car serial number\n    /// @param _brand brand of car\n    /// @param _model model of car\n    /// @param _tokenURI URI to json stored on IPFS\n    /// @param _state car's state (ENUM)\n    function mintCarblock(\n        address _user,\n        uint256 _circulationStartDate,\n        string calldata _VIN,\n        string calldata _brand,\n        string calldata _model,\n        string calldata _tokenURI,\n        CarState _state\n    ) external {\n        // Increment NFT ID (starts at 0)\n        _tokenIds.increment(); \n\n        Car memory car = Car(_circulationStartDate, _VIN, _brand, _model);\n        Carblock storage carblockNFT = carblocksNFT.push();\n        carblockNFT.carState = _state;\n        carblockNFT.car = car;\n        carblockNFT.maintenancesNumber = 0;\n\n        uint256 newTokenId = _tokenIds.current();\n        _safeMint(_user, newTokenId);\n        _setTokenURI(newTokenId, _tokenURI);\n    }\n}\n",
  "sourcePath": "/Users/quentin/Documents/Alyra/projects/CarBlocks/truffle/contracts/CarBlocks.sol",
  "compiler": {
    "name": "solc",
    "version": "0.8.17+commit.8df45f5f.Emscripten.clang"
  },
  "schemaVersion": "3.4.10",
  "updatedAt": "2022-12-04T22:12:15.198Z",
  "networkType": "ethereum",
  "devdoc": {
    "author": "Quentin COLLETTE & Maxime LESBROS",
    "details": "Stay away from this or you're facing sleep deprivation",
    "kind": "dev",
    "methods": {
      "approve(address,uint256)": {
        "details": "See {IERC721-approve}."
      },
      "balanceOf(address)": {
        "details": "See {IERC721-balanceOf}."
      },
      "getApproved(uint256)": {
        "details": "See {IERC721-getApproved}."
      },
      "isApprovedForAll(address,address)": {
        "details": "See {IERC721-isApprovedForAll}."
      },
      "mintCarblock(address,uint256,string,string,string,string,uint8)": {
        "details": "@param _user address of the futur owner of minted NFT",
        "params": {
          "_VIN": "car serial number",
          "_brand": "brand of car",
          "_circulationStartDate": "first circulation date of owner's car",
          "_model": "model of car",
          "_state": "car's state (ENUM)",
          "_tokenURI": "URI to json stored on IPFS"
        }
      },
      "name()": {
        "details": "See {IERC721Metadata-name}."
      },
      "ownerOf(uint256)": {
        "details": "See {IERC721-ownerOf}."
      },
      "safeTransferFrom(address,address,uint256)": {
        "details": "See {IERC721-safeTransferFrom}."
      },
      "safeTransferFrom(address,address,uint256,bytes)": {
        "details": "See {IERC721-safeTransferFrom}."
      },
      "setApprovalForAll(address,bool)": {
        "details": "See {IERC721-setApprovalForAll}."
      },
      "supportsInterface(bytes4)": {
        "details": "See {IERC165-supportsInterface}."
      },
      "symbol()": {
        "details": "See {IERC721Metadata-symbol}."
      },
      "tokenURI(uint256)": {
        "details": "See {IERC721Metadata-tokenURI}."
      },
      "transferFrom(address,address,uint256)": {
        "details": "See {IERC721-transferFrom}."
      }
    },
    "title": "The CarBlocks Smart Contract",
    "version": 1
  },
  "userdoc": {
    "kind": "user",
    "methods": {
      "mintCarblock(address,uint256,string,string,string,string,uint8)": {
        "notice": "Allow user to mint a new Carblock NFT"
      }
    },
    "notice": "Smart Contract allowing to manage NFT associated with cars",
    "version": 1
  }
}