{
  "contractName": "CarBlocks",
  "abi": [
    {
      "inputs": [
        {
          "internalType": "string",
          "name": "_energyType",
          "type": "string"
        }
      ],
      "stateMutability": "nonpayable",
      "type": "constructor"
    },
    {
      "anonymous": false,
      "inputs": [
        {
          "indexed": true,
          "internalType": "address",
          "name": "owner",
          "type": "address"
        },
        {
          "indexed": true,
          "internalType": "address",
          "name": "approved",
          "type": "address"
        },
        {
          "indexed": true,
          "internalType": "uint256",
          "name": "tokenId",
          "type": "uint256"
        }
      ],
      "name": "Approval",
      "type": "event"
    },
    {
      "anonymous": false,
      "inputs": [
        {
          "indexed": true,
          "internalType": "address",
          "name": "owner",
          "type": "address"
        },
        {
          "indexed": true,
          "internalType": "address",
          "name": "operator",
          "type": "address"
        },
        {
          "indexed": false,
          "internalType": "bool",
          "name": "approved",
          "type": "bool"
        }
      ],
      "name": "ApprovalForAll",
      "type": "event"
    },
    {
      "anonymous": false,
      "inputs": [
        {
          "indexed": true,
          "internalType": "address",
          "name": "from",
          "type": "address"
        },
        {
          "indexed": true,
          "internalType": "address",
          "name": "to",
          "type": "address"
        },
        {
          "indexed": true,
          "internalType": "uint256",
          "name": "tokenId",
          "type": "uint256"
        }
      ],
      "name": "Transfer",
      "type": "event"
    },
    {
      "inputs": [
        {
          "internalType": "address",
          "name": "to",
          "type": "address"
        },
        {
          "internalType": "uint256",
          "name": "tokenId",
          "type": "uint256"
        }
      ],
      "name": "approve",
      "outputs": [],
      "stateMutability": "nonpayable",
      "type": "function"
    },
    {
      "inputs": [
        {
          "internalType": "address",
          "name": "owner",
          "type": "address"
        }
      ],
      "name": "balanceOf",
      "outputs": [
        {
          "internalType": "uint256",
          "name": "",
          "type": "uint256"
        }
      ],
      "stateMutability": "view",
      "type": "function"
    },
    {
      "inputs": [],
      "name": "energyType",
      "outputs": [
        {
          "internalType": "string",
          "name": "",
          "type": "string"
        }
      ],
      "stateMutability": "view",
      "type": "function"
    },
    {
      "inputs": [
        {
          "internalType": "uint256",
          "name": "tokenId",
          "type": "uint256"
        }
      ],
      "name": "getApproved",
      "outputs": [
        {
          "internalType": "address",
          "name": "",
          "type": "address"
        }
      ],
      "stateMutability": "view",
      "type": "function"
    },
    {
      "inputs": [
        {
          "internalType": "address",
          "name": "owner",
          "type": "address"
        },
        {
          "internalType": "address",
          "name": "operator",
          "type": "address"
        }
      ],
      "name": "isApprovedForAll",
      "outputs": [
        {
          "internalType": "bool",
          "name": "",
          "type": "bool"
        }
      ],
      "stateMutability": "view",
      "type": "function"
    },
    {
      "inputs": [],
      "name": "name",
      "outputs": [
        {
          "internalType": "string",
          "name": "",
          "type": "string"
        }
      ],
      "stateMutability": "view",
      "type": "function"
    },
    {
      "inputs": [
        {
          "internalType": "uint256",
          "name": "tokenId",
          "type": "uint256"
        }
      ],
      "name": "ownerOf",
      "outputs": [
        {
          "internalType": "address",
          "name": "",
          "type": "address"
        }
      ],
      "stateMutability": "view",
      "type": "function"
    },
    {
      "inputs": [
        {
          "internalType": "address",
          "name": "from",
          "type": "address"
        },
        {
          "internalType": "address",
          "name": "to",
          "type": "address"
        },
        {
          "internalType": "uint256",
          "name": "tokenId",
          "type": "uint256"
        }
      ],
      "name": "safeTransferFrom",
      "outputs": [],
      "stateMutability": "nonpayable",
      "type": "function"
    },
    {
      "inputs": [
        {
          "internalType": "address",
          "name": "from",
          "type": "address"
        },
        {
          "internalType": "address",
          "name": "to",
          "type": "address"
        },
        {
          "internalType": "uint256",
          "name": "tokenId",
          "type": "uint256"
        },
        {
          "internalType": "bytes",
          "name": "data",
          "type": "bytes"
        }
      ],
      "name": "safeTransferFrom",
      "outputs": [],
      "stateMutability": "nonpayable",
      "type": "function"
    },
    {
      "inputs": [
        {
          "internalType": "address",
          "name": "operator",
          "type": "address"
        },
        {
          "internalType": "bool",
          "name": "approved",
          "type": "bool"
        }
      ],
      "name": "setApprovalForAll",
      "outputs": [],
      "stateMutability": "nonpayable",
      "type": "function"
    },
    {
      "inputs": [
        {
          "internalType": "bytes4",
          "name": "interfaceId",
          "type": "bytes4"
        }
      ],
      "name": "supportsInterface",
      "outputs": [
        {
          "internalType": "bool",
          "name": "",
          "type": "bool"
        }
      ],
      "stateMutability": "view",
      "type": "function"
    },
    {
      "inputs": [],
      "name": "symbol",
      "outputs": [
        {
          "internalType": "string",
          "name": "",
          "type": "string"
        }
      ],
      "stateMutability": "view",
      "type": "function"
    },
    {
      "inputs": [
        {
          "internalType": "uint256",
          "name": "tokenId",
          "type": "uint256"
        }
      ],
      "name": "tokenURI",
      "outputs": [
        {
          "internalType": "string",
          "name": "",
          "type": "string"
        }
      ],
      "stateMutability": "view",
      "type": "function"
    },
    {
      "inputs": [
        {
          "internalType": "address",
          "name": "from",
          "type": "address"
        },
        {
          "internalType": "address",
          "name": "to",
          "type": "address"
        },
        {
          "internalType": "uint256",
          "name": "tokenId",
          "type": "uint256"
        }
      ],
      "name": "transferFrom",
      "outputs": [],
      "stateMutability": "nonpayable",
      "type": "function"
    },
    {
      "inputs": [
        {
          "internalType": "uint256",
          "name": "_tokenId",
          "type": "uint256"
        }
      ],
      "name": "getCarblock",
      "outputs": [
        {
          "components": [
            {
              "internalType": "uint256",
              "name": "tokenId",
              "type": "uint256"
            },
            {
              "internalType": "enum CarBlocks.CarState",
              "name": "carState",
              "type": "uint8"
            },
            {
              "components": [
                {
                  "internalType": "uint256",
                  "name": "circulationStartDate",
                  "type": "uint256"
                },
                {
                  "internalType": "string",
                  "name": "VIN",
                  "type": "string"
                },
                {
                  "internalType": "string",
                  "name": "brand",
                  "type": "string"
                },
                {
                  "internalType": "string",
                  "name": "model",
                  "type": "string"
                }
              ],
              "internalType": "struct CarBlocks.Car",
              "name": "car",
              "type": "tuple"
            },
            {
              "internalType": "uint256",
              "name": "price",
              "type": "uint256"
            },
            {
              "internalType": "bool",
              "name": "isForSale",
              "type": "bool"
            }
          ],
          "internalType": "struct CarBlocks.Carblock",
          "name": "",
          "type": "tuple"
        }
      ],
      "stateMutability": "view",
      "type": "function"
    },
    {
      "inputs": [],
      "name": "getCarblocks",
      "outputs": [
        {
          "components": [
            {
              "internalType": "uint256",
              "name": "tokenId",
              "type": "uint256"
            },
            {
              "internalType": "enum CarBlocks.CarState",
              "name": "carState",
              "type": "uint8"
            },
            {
              "components": [
                {
                  "internalType": "uint256",
                  "name": "circulationStartDate",
                  "type": "uint256"
                },
                {
                  "internalType": "string",
                  "name": "VIN",
                  "type": "string"
                },
                {
                  "internalType": "string",
                  "name": "brand",
                  "type": "string"
                },
                {
                  "internalType": "string",
                  "name": "model",
                  "type": "string"
                }
              ],
              "internalType": "struct CarBlocks.Car",
              "name": "car",
              "type": "tuple"
            },
            {
              "internalType": "uint256",
              "name": "price",
              "type": "uint256"
            },
            {
              "internalType": "bool",
              "name": "isForSale",
              "type": "bool"
            }
          ],
          "internalType": "struct CarBlocks.Carblock[]",
          "name": "",
          "type": "tuple[]"
        }
      ],
      "stateMutability": "view",
      "type": "function"
    },
    {
      "inputs": [],
      "name": "getCarblocksForSale",
      "outputs": [
        {
          "components": [
            {
              "internalType": "uint256",
              "name": "tokenId",
              "type": "uint256"
            },
            {
              "internalType": "enum CarBlocks.CarState",
              "name": "carState",
              "type": "uint8"
            },
            {
              "components": [
                {
                  "internalType": "uint256",
                  "name": "circulationStartDate",
                  "type": "uint256"
                },
                {
                  "internalType": "string",
                  "name": "VIN",
                  "type": "string"
                },
                {
                  "internalType": "string",
                  "name": "brand",
                  "type": "string"
                },
                {
                  "internalType": "string",
                  "name": "model",
                  "type": "string"
                }
              ],
              "internalType": "struct CarBlocks.Car",
              "name": "car",
              "type": "tuple"
            },
            {
              "internalType": "uint256",
              "name": "price",
              "type": "uint256"
            },
            {
              "internalType": "bool",
              "name": "isForSale",
              "type": "bool"
            }
          ],
          "internalType": "struct CarBlocks.Carblock[]",
          "name": "",
          "type": "tuple[]"
        }
      ],
      "stateMutability": "view",
      "type": "function"
    },
    {
      "inputs": [
        {
          "internalType": "uint256",
          "name": "_tokenId",
          "type": "uint256"
        },
        {
          "internalType": "uint256",
          "name": "_price",
          "type": "uint256"
        }
      ],
      "name": "setPrice",
      "outputs": [],
      "stateMutability": "nonpayable",
      "type": "function"
    },
    {
      "inputs": [
        {
          "internalType": "uint256",
          "name": "_tokenId",
          "type": "uint256"
        },
        {
          "internalType": "uint256",
          "name": "_date",
          "type": "uint256"
        },
        {
          "internalType": "enum CarBlocks.MaintenanceType",
          "name": "_mType",
          "type": "uint8"
        },
        {
          "internalType": "uint256",
          "name": "_kilometers",
          "type": "uint256"
        },
        {
          "internalType": "string",
          "name": "_maintenanceURI",
          "type": "string"
        }
      ],
      "name": "addMaintenance",
      "outputs": [],
      "stateMutability": "nonpayable",
      "type": "function"
    },
    {
      "inputs": [
        {
          "internalType": "uint256",
          "name": "_tokenId",
          "type": "uint256"
        }
      ],
      "name": "getMaintenances",
      "outputs": [
        {
          "components": [
            {
              "internalType": "uint256",
              "name": "date",
              "type": "uint256"
            },
            {
              "internalType": "uint256",
              "name": "kilometers",
              "type": "uint256"
            },
            {
              "internalType": "enum CarBlocks.MaintenanceType",
              "name": "mType",
              "type": "uint8"
            },
            {
              "internalType": "string",
              "name": "maintenanceURI",
              "type": "string"
            }
          ],
          "internalType": "struct CarBlocks.Maintenance[]",
          "name": "",
          "type": "tuple[]"
        }
      ],
      "stateMutability": "view",
      "type": "function"
    },
    {
      "inputs": [
        {
          "internalType": "address",
          "name": "_user",
          "type": "address"
        },
        {
          "internalType": "uint256",
          "name": "_circulationStartDate",
          "type": "uint256"
        },
        {
          "internalType": "string[]",
          "name": "_vInfo",
          "type": "string[]"
        },
        {
          "internalType": "enum CarBlocks.CarState",
          "name": "_state",
          "type": "uint8"
        },
        {
          "internalType": "bool",
          "name": "_isForSale",
          "type": "bool"
        }
      ],
      "name": "mintCarblock",
      "outputs": [
        {
          "internalType": "uint256",
          "name": "",
          "type": "uint256"
        }
      ],
      "stateMutability": "nonpayable",
      "type": "function"
    },
    {
      "inputs": [
        {
          "internalType": "uint256",
          "name": "_tokenId",
          "type": "uint256"
        },
        {
          "internalType": "uint256",
          "name": "_price",
          "type": "uint256"
        },
        {
          "internalType": "address",
          "name": "_recipient",
          "type": "address"
        }
      ],
      "name": "makeOffer",
      "outputs": [],
      "stateMutability": "nonpayable",
      "type": "function"
    },
    {
      "inputs": [
        {
          "internalType": "uint256",
          "name": "_tokenId",
          "type": "uint256"
        }
      ],
      "name": "getOffers",
      "outputs": [
        {
          "components": [
            {
              "internalType": "uint256",
              "name": "price",
              "type": "uint256"
            },
            {
              "internalType": "address",
              "name": "user",
              "type": "address"
            },
            {
              "internalType": "address",
              "name": "recipient",
              "type": "address"
            }
          ],
          "internalType": "struct CarBlocks.Offer[]",
          "name": "",
          "type": "tuple[]"
        }
      ],
      "stateMutability": "view",
      "type": "function"
    },
    {
      "inputs": [
        {
          "internalType": "uint256",
          "name": "_tokenId",
          "type": "uint256"
        }
      ],
      "name": "getOffer",
      "outputs": [
        {
          "components": [
            {
              "internalType": "uint256",
              "name": "price",
              "type": "uint256"
            },
            {
              "internalType": "address",
              "name": "user",
              "type": "address"
            },
            {
              "internalType": "address",
              "name": "recipient",
              "type": "address"
            }
          ],
          "internalType": "struct CarBlocks.Offer",
          "name": "",
          "type": "tuple"
        }
      ],
      "stateMutability": "view",
      "type": "function"
    },
    {
      "inputs": [
        {
          "internalType": "uint256",
          "name": "_tokenId",
          "type": "uint256"
        },
        {
          "internalType": "address",
          "name": "_bider",
          "type": "address"
        }
      ],
      "name": "rejectOffer",
      "outputs": [],
      "stateMutability": "nonpayable",
      "type": "function"
    },
    {
      "inputs": [
        {
          "internalType": "uint256",
          "name": "_tokenId",
          "type": "uint256"
        }
      ],
      "name": "hasMadeOffer",
      "outputs": [
        {
          "internalType": "bool",
          "name": "",
          "type": "bool"
        }
      ],
      "stateMutability": "view",
      "type": "function"
    },
    {
      "inputs": [
        {
          "internalType": "uint256",
          "name": "_tokenId",
          "type": "uint256"
        },
        {
          "internalType": "address",
          "name": "_bider",
          "type": "address"
        }
      ],
      "name": "acceptOffer",
      "outputs": [],
      "stateMutability": "payable",
      "type": "function"
    },
    {
      "inputs": [
        {
          "internalType": "string",
          "name": "_brand",
          "type": "string"
        },
        {
          "internalType": "string",
          "name": "_model",
          "type": "string"
        }
      ],
      "name": "hasCar",
      "outputs": [
        {
          "internalType": "bool",
          "name": "",
          "type": "bool"
        }
      ],
      "stateMutability": "view",
      "type": "function"
    }
  ],
  "bytecode": "0x60806040523480156200001157600080fd5b5060405162003b6238038062003b628339810160408190526200003491620000c2565b60405180604001604052806008815260200167436172426c6f636b60c01b8152506040518060400160405280600381526020016243424b60e81b815250816000908162000082919062000226565b50600162000091828262000226565b5060089150620000a49050828262000226565b5050620002f2565b634e487b7160e01b600052604160045260246000fd5b60006020808385031215620000d657600080fd5b82516001600160401b0380821115620000ee57600080fd5b818501915085601f8301126200010357600080fd5b815181811115620001185762000118620000ac565b604051601f8201601f19908116603f01168101908382118183101715620001435762000143620000ac565b8160405282815288868487010111156200015c57600080fd5b600093505b8284101562000180578484018601518185018701529285019262000161565b600086848301015280965050505050505092915050565b600181811c90821680620001ac57607f821691505b602082108103620001cd57634e487b7160e01b600052602260045260246000fd5b50919050565b601f8211156200022157600081815260208120601f850160051c81016020861015620001fc5750805b601f850160051c820191505b818110156200021d5782815560010162000208565b5050505b505050565b81516001600160401b03811115620002425762000242620000ac565b6200025a8162000253845462000197565b84620001d3565b602080601f831160018114620002925760008415620002795750858301515b600019600386901b1c1916600185901b1785556200021d565b600085815260208120601f198616915b82811015620002c357888601518255948401946001909101908401620002a2565b5085821015620002e25787850151600019600388901b60f8161c191681555b5050505050600190811b01905550565b61386080620003026000396000f3fe6080604052600436106101b75760003560e01c8063918d407d116100ec578063b88d4fde1161008a578063dfa49e6f11610064578063dfa49e6f14610501578063e985e9c51461052e578063eff2ef7b14610577578063f7d975771461058c57600080fd5b8063b88d4fde146104a1578063c87b56dd146104c1578063db9371c2146104e157600080fd5b8063a1481709116100c6578063a148170914610407578063a22cb46514610434578063a823790114610454578063ad248ef61461048157600080fd5b8063918d407d146103bf57806395d89b41146103d257806397d1a88d146103e757600080fd5b806342842e0e116101595780636352211e116101335780636352211e1461033d5780636457c4f81461035d57806370a082311461037d5780638d16a7951461039d57600080fd5b806342842e0e146102db5780634579268a146102fb57806350c9496a1461032857600080fd5b806307dd094f1161019557806307dd094f14610235578063081812fc14610263578063095ea7b31461029b57806323b872dd146102bb57600080fd5b806301ffc9a7146101bc57806305604026146101f157806306fdde0314610213575b600080fd5b3480156101c857600080fd5b506101dc6101d7366004612cd8565b6105ac565b60405190151581526020015b60405180910390f35b3480156101fd57600080fd5b5061021161020c366004612cf5565b6105fe565b005b34801561021f57600080fd5b50610228610730565b6040516101e89190612dea565b34801561024157600080fd5b50610255610250366004612e38565b6107c2565b6040519081526020016101e8565b34801561026f57600080fd5b5061028361027e366004612ee8565b610ab7565b6040516001600160a01b0390911681526020016101e8565b3480156102a757600080fd5b506102116102b6366004612f01565b610ade565b3480156102c757600080fd5b506102116102d6366004612f2b565b610bf3565b3480156102e757600080fd5b506102116102f6366004612f2b565b610c24565b34801561030757600080fd5b5061031b610316366004612ee8565b610c3f565b6040516101e89190612f67565b34801561033457600080fd5b50610228610d5b565b34801561034957600080fd5b50610283610358366004612ee8565b610de9565b34801561036957600080fd5b50610211610378366004612f98565b610e49565b34801561038957600080fd5b50610255610398366004612fcd565b610fe2565b3480156103a957600080fd5b506103b2611068565b6040516101e891906130ab565b6102116103cd36600461310d565b6113a7565b3480156103de57600080fd5b506102286113cc565b3480156103f357600080fd5b506101dc610402366004612ee8565b6113db565b34801561041357600080fd5b50610427610422366004612ee8565b61145e565b6040516101e89190613139565b34801561044057600080fd5b5061021161044f36600461314c565b611710565b34801561046057600080fd5b5061047461046f366004612ee8565b61171b565b6040516101e89190613176565b34801561048d57600080fd5b506101dc61049c3660046132bc565b61189d565b3480156104ad57600080fd5b506102116104bc366004613320565b6119c6565b3480156104cd57600080fd5b506102286104dc366004612ee8565b6119fe565b3480156104ed57600080fd5b506102116104fc36600461310d565b611b0e565b34801561050d57600080fd5b5061052161051c366004612ee8565b611ccc565b6040516101e8919061339c565b34801561053a57600080fd5b506101dc61054936600461340d565b6001600160a01b03918216600090815260056020908152604080832093909416825291909152205460ff1690565b34801561058357600080fd5b506103b2611d8b565b34801561059857600080fd5b506102116105a7366004613437565b6120d5565b60006001600160e01b031982166380ac58cd60e01b14806105dd57506001600160e01b03198216635b5e139f60e01b145b806105f857506301ffc9a760e01b6001600160e01b03198316145b92915050565b8561060881610de9565b6001600160a01b0316336001600160a01b0316146106415760405162461bcd60e51b815260040161063890613459565b60405180910390fd5b600b6000888152602001908152602001600020604051806080016040528088815260200186815260200187600381111561067d5761067d612fe8565b815260200185858080601f0160208091040260200160405190810160405280939291908181526020018383808284376000920182905250939094525050835460018181018655948252602091829020845160049092020190815590830151818501556040830151600282018054949592949193509160ff199091169083600381111561070b5761070b612fe8565b0217905550606082015160038201906107249082613512565b50505050505050505050565b60606000805461073f90613490565b80601f016020809104026020016040519081016040528092919081815260200182805461076b90613490565b80156107b85780601f1061078d576101008083540402835291602001916107b8565b820191906000526020600020905b81548152906001019060200180831161079b57829003601f168201915b5050505050905090565b60006107d2600780546001019055565b60096040518060a001604052806107e860075490565b81526020018560028111156107ff576107ff612fe8565b815260200160405180608001604052808a815260200189896000818110610828576108286135d2565b905060200281019061083a91906135e8565b8080601f01602080910402602001604051908101604052809392919081815260200183838082843760009201919091525050509082525060200189896001818110610887576108876135d2565b905060200281019061089991906135e8565b8080601f016020809104026020016040519081016040528093929190818152602001838380828437600092019190915250505090825250602001898960028181106108e6576108e66135d2565b90506020028101906108f891906135e8565b8080601f0160208091040260200160405190810160405280939291908181526020018383808284376000920182905250939094525050918352506020808301829052861515604090930192909252835460018181018655948252908290208351600890920201908155908201518184018054939492939192909160ff19169083600281111561098957610989612fe8565b02179055506040820151805160028301908155602082015160038401906109b09082613512565b50604082015160028201906109c59082613512565b50606082015160038201906109da9082613512565b505050606082015160068201556080909101516007918201805460ff191691151591909117905554610a0d908890612186565b610a78610a1960075490565b86866003818110610a2c57610a2c6135d2565b9050602002810190610a3e91906135e8565b8080601f01602080910402602001604051908101604052809392919081815260200183838082843760009201919091525061231f92505050565b6001600160a01b0387166000908152600a6020526040902060075481546001810183556000928352602090922090910155600754979650505050505050565b6000610ac2826123b2565b506000908152600460205260409020546001600160a01b031690565b6000610ae982610de9565b9050806001600160a01b0316836001600160a01b031603610b565760405162461bcd60e51b815260206004820152602160248201527f4552433732313a20617070726f76616c20746f2063757272656e74206f776e656044820152603960f91b6064820152608401610638565b336001600160a01b0382161480610b725750610b728133610549565b610be45760405162461bcd60e51b815260206004820152603d60248201527f4552433732313a20617070726f76652063616c6c6572206973206e6f7420746f60448201527f6b656e206f776e6572206f7220617070726f76656420666f7220616c6c0000006064820152608401610638565b610bee8383612414565b505050565b610bfd3382612482565b610c195760405162461bcd60e51b815260040161063890613636565b610bee838383612500565b610bee838383604051806020016040528060008152506119c6565b60408051606081018252600080825260208201819052918101829052905b6000838152600c6020526040902054811015610d37576000838152600c60205260409020805433919083908110610c9657610c966135d2565b60009182526020909120600160039092020101546001600160a01b031603610d25576000838152600c60205260409020805482908110610cd857610cd86135d2565b60009182526020918290206040805160608101825260039093029091018054835260018101546001600160a01b039081169484019490945260020154909216918101919091529392505050565b80610d2f81613699565b915050610c5d565b50506040805160608101825260008082526020820181905291810191909152919050565b60088054610d6890613490565b80601f0160208091040260200160405190810160405280929190818152602001828054610d9490613490565b8015610de15780601f10610db657610100808354040283529160200191610de1565b820191906000526020600020905b815481529060010190602001808311610dc457829003601f168201915b505050505081565b6000818152600260205260408120546001600160a01b0316806105f85760405162461bcd60e51b8152602060048201526018602482015277115490cdcc8c4e881a5b9d985b1a59081d1bdad95b88125160421b6044820152606401610638565b806001600160a01b0316610e5c84610de9565b6001600160a01b031614610eb25760405162461bcd60e51b815260206004820152601f60248201527f4572723a20726563697069656e74206e6f74206f776e6572206f66204e4654006044820152606401610638565b6000838152600c6020526040902054600a11610f095760405162461bcd60e51b815260206004820152601660248201527508ae4e47440626040decccccae4e65e9c8ca840dac2f60531b6044820152606401610638565b610f12836113db565b15610f5f5760405162461bcd60e51b815260206004820152601f60248201527f4572723a206f6e6c79206f6e65206f666665722f4e465420616c6c6f776564006044820152606401610638565b6000928352600c602090815260408085208151606081018352948552338584019081526001600160a01b039485169286019283528154600181810184559288529390962094516003909302909401918255935192810180549383166001600160a01b03199485161790559251600290930180549390911692909116919091179055565b60006001600160a01b03821661104c5760405162461bcd60e51b815260206004820152602960248201527f4552433732313a2061646472657373207a65726f206973206e6f7420612076616044820152683634b21037bbb732b960b91b6064820152608401610638565b506001600160a01b031660009081526003602052604090205490565b60095460609060009067ffffffffffffffff81111561108957611089613210565b6040519080825280602002602001820160405280156110c257816020015b6110af612c14565b8152602001906001900390816110a75790505b5090506000805b60095481101561139f57600981815481106110e6576110e66135d2565b600091825260209091206007600890920201015460ff161561138d5760098181548110611115576111156135d2565b90600052602060002090600802016040518060a0016040529081600082015481526020016001820160009054906101000a900460ff16600281111561115c5761115c612fe8565b600281111561116d5761116d612fe8565b8152602001600282016040518060800160405290816000820154815260200160018201805461119b90613490565b80601f01602080910402602001604051908101604052809291908181526020018280546111c790613490565b80156112145780601f106111e957610100808354040283529160200191611214565b820191906000526020600020905b8154815290600101906020018083116111f757829003601f168201915b5050505050815260200160028201805461122d90613490565b80601f016020809104026020016040519081016040528092919081815260200182805461125990613490565b80156112a65780601f1061127b576101008083540402835291602001916112a6565b820191906000526020600020905b81548152906001019060200180831161128957829003601f168201915b505050505081526020016003820180546112bf90613490565b80601f01602080910402602001604051908101604052809291908181526020018280546112eb90613490565b80156113385780601f1061130d57610100808354040283529160200191611338565b820191906000526020600020905b81548152906001019060200180831161131b57829003601f168201915b5050509190925250505081526006820154602082015260079091015460ff1615156040909101528351849084908110611373576113736135d2565b6020026020010181905250818061138990613699565b9250505b8061139781613699565b9150506110c9565b509092915050565b6113b18183612671565b6000828152600c602052604081206113c891612c6d565b5050565b60606001805461073f90613490565b6000805b6000838152600c6020526040902054811015611455576000838152600c60205260409020805433919083908110611418576114186135d2565b60009182526020909120600160039092020101546001600160a01b0316036114435750600192915050565b8061144d81613699565b9150506113df565b50600092915050565b611466612c14565b8161147081610de9565b6001600160a01b0316336001600160a01b0316146114a05760405162461bcd60e51b815260040161063890613459565b60096114ad6001856136b2565b815481106114bd576114bd6135d2565b90600052602060002090600802016040518060a0016040529081600082015481526020016001820160009054906101000a900460ff16600281111561150457611504612fe8565b600281111561151557611515612fe8565b8152602001600282016040518060800160405290816000820154815260200160018201805461154390613490565b80601f016020809104026020016040519081016040528092919081815260200182805461156f90613490565b80156115bc5780601f10611591576101008083540402835291602001916115bc565b820191906000526020600020905b81548152906001019060200180831161159f57829003601f168201915b505050505081526020016002820180546115d590613490565b80601f016020809104026020016040519081016040528092919081815260200182805461160190613490565b801561164e5780601f106116235761010080835404028352916020019161164e565b820191906000526020600020905b81548152906001019060200180831161163157829003601f168201915b5050505050815260200160038201805461166790613490565b80601f016020809104026020016040519081016040528092919081815260200182805461169390613490565b80156116e05780601f106116b5576101008083540402835291602001916116e0565b820191906000526020600020905b8154815290600101906020018083116116c357829003601f168201915b5050509190925250505081526006820154602082015260079091015460ff16151560409091015291505b50919050565b6113c83383836127aa565b60608161172781610de9565b6001600160a01b0316336001600160a01b0316146117575760405162461bcd60e51b815260040161063890613459565b6000838152600b6020908152604080832080548251818502810185019093528083529193909284015b82821015611891578382906000526020600020906004020160405180608001604052908160008201548152602001600182015481526020016002820160009054906101000a900460ff1660038111156117db576117db612fe8565b60038111156117ec576117ec612fe8565b815260200160038201805461180090613490565b80601f016020809104026020016040519081016040528092919081815260200182805461182c90613490565b80156118795780601f1061184e57610100808354040283529160200191611879565b820191906000526020600020905b81548152906001019060200180831161185c57829003601f168201915b50505050508152505081526020019060010190611780565b50505050915050919050565b6000806118a8611d8b565b905060005b81518110156119bb57846040516020016118c791906136c5565b604051602081830303815290604052805190602001208282815181106118ef576118ef6135d2565b6020026020010151604001516040015160405160200161190f91906136c5565b60405160208183030381529060405280519060200120036119a9578360405160200161193b91906136c5565b60405160208183030381529060405280519060200120828281518110611963576119636135d2565b6020026020010151604001516060015160405160200161198391906136c5565b60405160208183030381529060405280519060200120036119a9576001925050506105f8565b806119b381613699565b9150506118ad565b506000949350505050565b6119d03383612482565b6119ec5760405162461bcd60e51b815260040161063890613636565b6119f884848484612878565b50505050565b6060611a09826123b2565b60008281526006602052604081208054611a2290613490565b80601f0160208091040260200160405190810160405280929190818152602001828054611a4e90613490565b8015611a9b5780601f10611a7057610100808354040283529160200191611a9b565b820191906000526020600020905b815481529060010190602001808311611a7e57829003601f168201915b505050505090506000611ab960408051602081019091526000815290565b90508051600003611acb575092915050565b815115611afd578082604051602001611ae59291906136e1565b60405160208183030381529060405292505050919050565b611b06846128ab565b949350505050565b81611b1881610de9565b6001600160a01b0316336001600160a01b031614611b485760405162461bcd60e51b815260040161063890613459565b60005b6000848152600c60205260409020548110156119f8576000848152600c6020526040902080546001600160a01b038516919083908110611b8d57611b8d6135d2565b60009182526020909120600160039092020101546001600160a01b031603611cba576000848152600c602052604090208054611bcb906001906136b2565b81548110611bdb57611bdb6135d2565b9060005260206000209060030201600c60008681526020019081526020016000208281548110611c0d57611c0d6135d2565b60009182526020808320845460039093020191825560018085015490830180546001600160a01b03199081166001600160a01b03938416179091556002958601549590930180549093169416939093179055858152600c90915260409020805480611c7a57611c7a613710565b6000828152602081206003600019909301928302019081556001810180546001600160a01b031990811690915560029091018054909116905590556119f8565b80611cc481613699565b915050611b4b565b606081611cd881610de9565b6001600160a01b0316336001600160a01b031614611d085760405162461bcd60e51b815260040161063890613459565b6000838152600c6020908152604080832080548251818502810185019093528083529193909284015b828210156118915760008481526020908190206040805160608101825260038602909201805483526001808201546001600160a01b0390811685870152600290920154909116918301919091529083529092019101611d31565b336000908152600a60205260408120546060919067ffffffffffffffff811115611db757611db7613210565b604051908082528060200260200182016040528015611df057816020015b611ddd612c14565b815260200190600190039081611dd55790505b50905060005b336000908152600a602052604090205481101561170a57336000908152600a60205260409020805460099160019184908110611e3457611e346135d2565b9060005260206000200154611e4991906136b2565b81548110611e5957611e596135d2565b90600052602060002090600802016040518060a0016040529081600082015481526020016001820160009054906101000a900460ff166002811115611ea057611ea0612fe8565b6002811115611eb157611eb1612fe8565b81526020016002820160405180608001604052908160008201548152602001600182018054611edf90613490565b80601f0160208091040260200160405190810160405280929190818152602001828054611f0b90613490565b8015611f585780601f10611f2d57610100808354040283529160200191611f58565b820191906000526020600020905b815481529060010190602001808311611f3b57829003601f168201915b50505050508152602001600282018054611f7190613490565b80601f0160208091040260200160405190810160405280929190818152602001828054611f9d90613490565b8015611fea5780601f10611fbf57610100808354040283529160200191611fea565b820191906000526020600020905b815481529060010190602001808311611fcd57829003601f168201915b5050505050815260200160038201805461200390613490565b80601f016020809104026020016040519081016040528092919081815260200182805461202f90613490565b801561207c5780601f106120515761010080835404028352916020019161207c565b820191906000526020600020905b81548152906001019060200180831161205f57829003601f168201915b5050509190925250505081526006820154602082015260079091015460ff16151560409091015282518390839081106120b7576120b76135d2565b602002602001018190525080806120cd90613699565b915050611df6565b816120df81610de9565b6001600160a01b0316336001600160a01b03161461210f5760405162461bcd60e51b815260040161063890613459565b81600961211d6001866136b2565b8154811061212d5761212d6135d2565b60009182526020909120600660089092020101556001600961214f82866136b2565b8154811061215f5761215f6135d2565b60009182526020909120600890910201600701805460ff1916911515919091179055505050565b6001600160a01b0382166121dc5760405162461bcd60e51b815260206004820181905260248201527f4552433732313a206d696e7420746f20746865207a65726f20616464726573736044820152606401610638565b6000818152600260205260409020546001600160a01b0316156122415760405162461bcd60e51b815260206004820152601c60248201527f4552433732313a20746f6b656e20616c7265616479206d696e746564000000006044820152606401610638565b61224f60008383600161291f565b6000818152600260205260409020546001600160a01b0316156122b45760405162461bcd60e51b815260206004820152601c60248201527f4552433732313a20746f6b656e20616c7265616479206d696e746564000000006044820152606401610638565b6001600160a01b038216600081815260036020908152604080832080546001019055848352600290915280822080546001600160a01b0319168417905551839291907fddf252ad1be2c89b69c2b068fc378daa952ba7f163c4a11628f55a4df523b3ef908290a45050565b6000828152600260205260409020546001600160a01b031661239a5760405162461bcd60e51b815260206004820152602e60248201527f45524337323155524953746f726167653a2055524920736574206f66206e6f6e60448201526d32bc34b9ba32b73a103a37b5b2b760911b6064820152608401610638565b6000828152600660205260409020610bee8282613512565b6000818152600260205260409020546001600160a01b03166124115760405162461bcd60e51b8152602060048201526018602482015277115490cdcc8c4e881a5b9d985b1a59081d1bdad95b88125160421b6044820152606401610638565b50565b600081815260046020526040902080546001600160a01b0319166001600160a01b038416908117909155819061244982610de9565b6001600160a01b03167f8c5be1e5ebec7d5bd14f71427d1e84f3dd0314c0f7b2291e5b200ac8c7c3b92560405160405180910390a45050565b60008061248e83610de9565b9050806001600160a01b0316846001600160a01b031614806124d557506001600160a01b0380821660009081526005602090815260408083209388168352929052205460ff165b80611b065750836001600160a01b03166124ee84610ab7565b6001600160a01b031614949350505050565b826001600160a01b031661251382610de9565b6001600160a01b0316146125395760405162461bcd60e51b815260040161063890613726565b6001600160a01b03821661259b5760405162461bcd60e51b8152602060048201526024808201527f4552433732313a207472616e7366657220746f20746865207a65726f206164646044820152637265737360e01b6064820152608401610638565b6125a8838383600161291f565b826001600160a01b03166125bb82610de9565b6001600160a01b0316146125e15760405162461bcd60e51b815260040161063890613726565b600081815260046020908152604080832080546001600160a01b03199081169091556001600160a01b0387811680865260038552838620805460001901905590871680865283862080546001019055868652600290945282852080549092168417909155905184937fddf252ad1be2c89b69c2b068fc378daa952ba7f163c4a11628f55a4df523b3ef91a4505050565b61267c338383612500565b60005b336000908152600a602052604090205481101561277d57336000908152600a602052604090208054839190839081106126ba576126ba6135d2565b90600052602060002001540361276b57336000908152600a6020526040902080546126e7906001906136b2565b815481106126f7576126f76135d2565b6000918252602080832090910154338352600a9091526040909120805483908110612724576127246135d2565b6000918252602080832090910192909255338152600a9091526040902080548061275057612750613710565b6001900381819060005260206000200160009055905561277d565b8061277581613699565b91505061267f565b506001600160a01b039091166000908152600a602090815260408220805460018101825590835291200155565b816001600160a01b0316836001600160a01b03160361280b5760405162461bcd60e51b815260206004820152601960248201527f4552433732313a20617070726f766520746f2063616c6c6572000000000000006044820152606401610638565b6001600160a01b03838116600081815260056020908152604080832094871680845294825291829020805460ff191686151590811790915591519182527f17307eab39ab6107e8899845ad3d59bd9653f200f220920489ca2b5937696c31910160405180910390a3505050565b612883848484612500565b61288f848484846129a7565b6119f85760405162461bcd60e51b81526004016106389061376b565b60606128b6826123b2565b60006128cd60408051602081019091526000815290565b905060008151116128ed5760405180602001604052806000815250612918565b806128f784612aa8565b6040516020016129089291906136e1565b6040516020818303038152906040525b9392505050565b60018111156119f8576001600160a01b03841615612965576001600160a01b0384166000908152600360205260408120805483929061295f9084906136b2565b90915550505b6001600160a01b038316156119f8576001600160a01b0383166000908152600360205260408120805483929061299c9084906137bd565b909155505050505050565b60006001600160a01b0384163b15612a9d57604051630a85bd0160e11b81526001600160a01b0385169063150b7a02906129eb9033908990889088906004016137d0565b6020604051808303816000875af1925050508015612a26575060408051601f3d908101601f19168201909252612a239181019061380d565b60015b612a83573d808015612a54576040519150601f19603f3d011682016040523d82523d6000602084013e612a59565b606091505b508051600003612a7b5760405162461bcd60e51b81526004016106389061376b565b805181602001fd5b6001600160e01b031916630a85bd0160e11b149050611b06565b506001949350505050565b60606000612ab583612b3c565b600101905060008167ffffffffffffffff811115612ad557612ad5613210565b6040519080825280601f01601f191660200182016040528015612aff576020820181803683370190505b5090508181016020015b600019016f181899199a1a9b1b9c1cb0b131b232b360811b600a86061a8153600a8504945084612b09575b509392505050565b60008072184f03e93ff9f4daa797ed6e38ed64bf6a1f0160401b8310612b7b5772184f03e93ff9f4daa797ed6e38ed64bf6a1f0160401b830492506040015b6d04ee2d6d415b85acef81000000008310612ba7576d04ee2d6d415b85acef8100000000830492506020015b662386f26fc100008310612bc557662386f26fc10000830492506010015b6305f5e1008310612bdd576305f5e100830492506008015b6127108310612bf157612710830492506004015b60648310612c03576064830492506002015b600a83106105f85760010192915050565b6040805160a08101909152600080825260208201908152602001612c596040518060800160405280600081526020016060815260200160608152602001606081525090565b815260006020820181905260409091015290565b508054600082556003029060005260206000209081019061241191905b80821115612cbe57600081556001810180546001600160a01b03199081169091556002820180549091169055600301612c8a565b5090565b6001600160e01b03198116811461241157600080fd5b600060208284031215612cea57600080fd5b813561291881612cc2565b60008060008060008060a08789031215612d0e57600080fd5b8635955060208701359450604087013560048110612d2b57600080fd5b935060608701359250608087013567ffffffffffffffff80821115612d4f57600080fd5b818901915089601f830112612d6357600080fd5b813581811115612d7257600080fd5b8a6020828501011115612d8457600080fd5b6020830194508093505050509295509295509295565b60005b83811015612db5578181015183820152602001612d9d565b50506000910152565b60008151808452612dd6816020860160208601612d9a565b601f01601f19169290920160200192915050565b6020815260006129186020830184612dbe565b80356001600160a01b0381168114612e1457600080fd5b919050565b803560038110612e1457600080fd5b80358015158114612e1457600080fd5b60008060008060008060a08789031215612e5157600080fd5b612e5a87612dfd565b955060208701359450604087013567ffffffffffffffff80821115612e7e57600080fd5b818901915089601f830112612e9257600080fd5b813581811115612ea157600080fd5b8a60208260051b8501011115612eb657600080fd5b602083019650809550505050612ece60608801612e19565b9150612edc60808801612e28565b90509295509295509295565b600060208284031215612efa57600080fd5b5035919050565b60008060408385031215612f1457600080fd5b612f1d83612dfd565b946020939093013593505050565b600080600060608486031215612f4057600080fd5b612f4984612dfd565b9250612f5760208501612dfd565b9150604084013590509250925092565b606081016105f88284805182526020808201516001600160a01b039081169184019190915260409182015116910152565b600080600060608486031215612fad57600080fd5b8335925060208401359150612fc460408501612dfd565b90509250925092565b600060208284031215612fdf57600080fd5b61291882612dfd565b634e487b7160e01b600052602160045260246000fd5b80518252600060208201516003811061301957613019612fe8565b80602085015250604082015160a06040850152805160a08501526020810151608060c086015261304d610120860182612dbe565b90506040820151609f19808784030160e088015261306b8383612dbe565b9250606084015193508087840301610100880152505061308b8183612dbe565b915050606083015160608501526080830151612b34608086018215159052565b6000602080830181845280855180835260408601915060408160051b870101925083870160005b8281101561310057603f198886030184526130ee858351612ffe565b945092850192908501906001016130d2565b5092979650505050505050565b6000806040838503121561312057600080fd5b8235915061313060208401612dfd565b90509250929050565b6020815260006129186020830184612ffe565b6000806040838503121561315f57600080fd5b61316883612dfd565b915061313060208401612e28565b60006020808301818452808551808352604092508286019150828160051b87010184880160005b8381101561320257603f198984030185528151608081518552888201518986015287820151600481106131d2576131d2612fe8565b858901526060918201519185018190526131ee81860183612dbe565b96890196945050509086019060010161319d565b509098975050505050505050565b634e487b7160e01b600052604160045260246000fd5b600067ffffffffffffffff8084111561324157613241613210565b604051601f8501601f19908116603f0116810190828211818310171561326957613269613210565b8160405280935085815286868601111561328257600080fd5b858560208301376000602087830101525050509392505050565b600082601f8301126132ad57600080fd5b61291883833560208501613226565b600080604083850312156132cf57600080fd5b823567ffffffffffffffff808211156132e757600080fd5b6132f38683870161329c565b9350602085013591508082111561330957600080fd5b506133168582860161329c565b9150509250929050565b6000806000806080858703121561333657600080fd5b61333f85612dfd565b935061334d60208601612dfd565b925060408501359150606085013567ffffffffffffffff81111561337057600080fd5b8501601f8101871361338157600080fd5b61339087823560208401613226565b91505092959194509250565b6020808252825182820181905260009190848201906040850190845b81811015613401576133ee838551805182526020808201516001600160a01b039081169184019190915260409182015116910152565b92840192606092909201916001016133b8565b50909695505050505050565b6000806040838503121561342057600080fd5b61342983612dfd565b915061313060208401612dfd565b6000806040838503121561344a57600080fd5b50508035926020909101359150565b6020808252601b908201527f4572723a206e6f7420746865206f776e6572206f6620746f6b656e0000000000604082015260600190565b600181811c908216806134a457607f821691505b60208210810361170a57634e487b7160e01b600052602260045260246000fd5b601f821115610bee57600081815260208120601f850160051c810160208610156134eb5750805b601f850160051c820191505b8181101561350a578281556001016134f7565b505050505050565b815167ffffffffffffffff81111561352c5761352c613210565b6135408161353a8454613490565b846134c4565b602080601f831160018114613575576000841561355d5750858301515b600019600386901b1c1916600185901b17855561350a565b600085815260208120601f198616915b828110156135a457888601518255948401946001909101908401613585565b50858210156135c25787850151600019600388901b60f8161c191681555b5050505050600190811b01905550565b634e487b7160e01b600052603260045260246000fd5b6000808335601e198436030181126135ff57600080fd5b83018035915067ffffffffffffffff82111561361a57600080fd5b60200191503681900382131561362f57600080fd5b9250929050565b6020808252602d908201527f4552433732313a2063616c6c6572206973206e6f7420746f6b656e206f776e6560408201526c1c881bdc88185c1c1c9bdd9959609a1b606082015260800190565b634e487b7160e01b600052601160045260246000fd5b6000600182016136ab576136ab613683565b5060010190565b818103818111156105f8576105f8613683565b600082516136d7818460208701612d9a565b9190910192915050565b600083516136f3818460208801612d9a565b835190830190613707818360208801612d9a565b01949350505050565b634e487b7160e01b600052603160045260246000fd5b60208082526025908201527f4552433732313a207472616e736665722066726f6d20696e636f72726563742060408201526437bbb732b960d91b606082015260800190565b60208082526032908201527f4552433732313a207472616e7366657220746f206e6f6e20455243373231526560408201527131b2b4bb32b91034b6b83632b6b2b73a32b960711b606082015260800190565b808201808211156105f8576105f8613683565b6001600160a01b038581168252841660208201526040810183905260806060820181905260009061380390830184612dbe565b9695505050505050565b60006020828403121561381f57600080fd5b815161291881612cc256fea264697066735822122044d90084838268ed162a6a39dd9cd03c51e269a9944acf1cc3e065f437ccd73964736f6c63430008110033",
  "immutableReferences": {},
  "source": "// SPDX-License-Identifier: MIT\npragma solidity 0.8.17;\n\nimport \"../node_modules/@openzeppelin/contracts/token/ERC721/extensions/ERC721URIStorage.sol\";\nimport \"../node_modules/@openzeppelin/contracts/utils/Counters.sol\";\n\n/// @title The CarBlocks Smart Contract\n/// @author Quentin COLLETTE & Maxime LESBROS\n/// @notice Smart Contract allowing to manage NFT associated with cars\n/// @dev Stay away from this or you're facing sleep deprivation\ncontract CarBlocks is ERC721URIStorage {\n    using Counters for Counters.Counter;\n\n    /// @notice counter to increment id of carblock NFT\n    Counters.Counter private _tokenIds;\n\n    /// @notice this will differentiate the various collections (gasoline, diesel, hybrid...)\n    string public energyType;\n\n    /// @notice forcing the name and symbol for our Carblock token\n    string constant _NAME = \"CarBlock\";\n    string constant _SYMBOL = \"CBK\";\n\n    /// @notice Defines the various states a car can be in\n    enum CarState {\n        circulation,\n        accident,\n        scrapped\n    }\n\n    /// @notice Defines the various maintenance types that can occur\n    enum MaintenanceType {\n        revision,\n        technicalControl,\n        partsChange,\n        tireChange\n    }\n\n    /// @notice Holds constant information about a Car\n    struct Car {\n        uint256 circulationStartDate;\n        string VIN;\n        string brand;\n        string model;\n    }\n\n    /// @notice Holds information linked to a maintenance operation\n    struct Maintenance {\n        uint256 date;\n        uint256 kilometers;\n        MaintenanceType mType;\n        string maintenanceURI;\n    }\n\n    /// @notice Defines the carblock NFT structure\n    struct Carblock {\n        uint256 tokenId;\n        CarState carState;\n        Car car;\n        uint256 price;\n        bool isForSale;\n    }\n\n    ///@notice Defines a way to store offers made by users\n    struct Offer {\n        uint256 price;\n        address user;\n        address recipient;\n    }\n\n    /// @notice Make sure contract caller is owner of _tokenId\n    modifier isNFTOwner(uint256 _tokenId) {\n        require(msg.sender == ownerOf(_tokenId), \"Err: not the owner of token\");\n        _;\n    }\n\n    /// @notice This array holds all the minted NFTs\n    Carblock[] private carblocksNFT;\n\n    //TODO : qui peut appeler _users ?\n    mapping(address => uint256[]) private _users; // address => [tokenID]\n    mapping(uint256 => Maintenance[]) private _allMaintenances; // tokenID => [Maintenance1, Maintenance2]\n    mapping(uint256 => Offer[]) private _allOffers; // tokenId => [{price, user}]\n\n    constructor(string memory _energyType) ERC721(_NAME, _SYMBOL) {\n        energyType = _energyType;\n    }\n\n    /// @notice Retrieve NFT from token ID\n    /// @dev Get the Carblock struct with the NFT token ID\n    /// @param _tokenId NFT token ID\n    /// @return Carblock\n    function getCarblock(uint256 _tokenId)\n        external\n        view\n        isNFTOwner(_tokenId)\n        returns (Carblock memory)\n    {\n        return carblocksNFT[_tokenId - 1];\n    }\n\n    //TODO: accessible only to NFT owner ?\n    /// @notice Retrieve all NFTs of contract caller\n    /// @dev Get an array of Carblock struct with the NFT token ID\n    /// @return carblocks an array of carblock NFT\n    function getCarblocks() public view returns (Carblock[] memory) {\n        Carblock[] memory carblocks = new Carblock[](_users[msg.sender].length);\n\n        for (uint256 i = 0; i < _users[msg.sender].length; i++) {\n            carblocks[i] = carblocksNFT[_users[msg.sender][i] - 1];\n        }\n        return carblocks;\n    }\n\n    /// @notice Retrieve all NFTs that are for sale\n    /// @dev The returned array of Carblock might not be completely full\n    /// @return Carblock[] the list of carblocks NFT\n    function getCarblocksForSale() external view returns (Carblock[] memory) {\n        Carblock[] memory carblocksForSale = new Carblock[](\n            carblocksNFT.length\n        );\n        uint256 counter;\n        for (uint256 i = 0; i < carblocksNFT.length; i++) {\n            if (carblocksNFT[i].isForSale) {\n                carblocksForSale[counter] = carblocksNFT[i];\n                counter++;\n            }\n        }\n        return carblocksForSale;\n    }\n\n    /// @notice Allow NFT Owner to set a price for his car\n    /// @dev _\n    /// @param _tokenId NFT token ID\n    /// @param _price expected price\n    function setPrice(uint256 _tokenId, uint256 _price)\n        external\n        isNFTOwner(_tokenId)\n    {\n        carblocksNFT[_tokenId - 1].price = _price;\n        carblocksNFT[_tokenId - 1].isForSale = true;\n    }\n\n    /// @notice Add a new maintenance to a specific NFT\n    /// @dev After the maintenance file has been upload to IPFS call this method to update maintenanceURI\n    /// @param _tokenId NFT token ID\n    /// @param _date Date of maintenance\n    /// @param _mType Type of maintenance (enum)\n    /// @param _kilometers Total distance of the car at time of maintenance\n    /// @param _maintenanceURI URI of maintenance JSON file on IPFS\n    function addMaintenance(\n        uint256 _tokenId,\n        uint256 _date,\n        MaintenanceType _mType,\n        uint256 _kilometers,\n        string calldata _maintenanceURI\n    ) external isNFTOwner(_tokenId) {\n        _allMaintenances[_tokenId].push(\n            Maintenance(_date, _kilometers, _mType, _maintenanceURI)\n        );\n    }\n\n    /// @notice Get list of all maintenances done on a car from a NFT token ID\n    /// @dev Return an array of Maintenance struct\n    /// @param _tokenId NFT token ID\n    /// @return Maintenance[]\n    function getMaintenances(uint256 _tokenId)\n        external\n        view\n        isNFTOwner(_tokenId)\n        returns (Maintenance[] memory)\n    {\n        return _allMaintenances[_tokenId];\n    }\n\n    //TODO : check memory vs calldata\n    //TODO : payable\n    /// @notice Allow user to mint a new Carblock NFT\n    /// @dev We use _mint instead of _safeMint as we don't need to check if _user is a contract\n    /// @param _user address of the future owner of minted NFT\n    /// @param _circulationStartDate first circulation date of owner's car\n    /// @param _vInfo array with [VIN, brand, model, tokenURI] in this order\n    /// @param _state car's state (ENUM)\n    /// @param _isForSale wether the car is for sale\n    function mintCarblock(\n        address _user,\n        uint256 _circulationStartDate,\n        string[] calldata _vInfo,\n        CarState _state,\n        bool _isForSale\n    ) external returns (uint256) {\n        _tokenIds.increment(); // Increment NFT ID (starts at 0)\n\n        carblocksNFT.push(\n            Carblock(\n                _tokenIds.current(),\n                _state,\n                Car(_circulationStartDate, _vInfo[0], _vInfo[1], _vInfo[2]),\n                0,\n                _isForSale\n            )\n        );\n\n        //uint256 newTokenId = _tokenIds.current();\n        _mint(_user, _tokenIds.current());\n        _setTokenURI(_tokenIds.current(), _vInfo[3]);\n        _users[_user].push(_tokenIds.current());\n\n        return _tokenIds.current();\n    }\n\n    /** -- OFFERS MANAGEMENT --*/\n\n    /// @notice Allow user to make an offer for NFT\n    /// @dev Limit to 10 offers per NFT\n    /// @param _tokenId Token ID of NFT that user wants to purchase\n    /// @param _price price offer of user\n    /// @param _recipient address of offer recipient\n    function makeOffer(\n        uint256 _tokenId,\n        uint256 _price,\n        address _recipient\n    ) external {\n        require(\n            ownerOf(_tokenId) == _recipient,\n            \"Err: recipient not owner of NFT\"\n        );\n        require(_allOffers[_tokenId].length < 10, \"Err: 10 offers/NFT max\");\n        require(!hasMadeOffer(_tokenId), \"Err: only one offer/NFT allowed\");\n        _allOffers[_tokenId].push(Offer(_price, msg.sender, _recipient));\n    }\n\n    /// @notice Allow user to retrieve all offers for a NFT\n    /// @dev Limit to 10 offers per NFT\n    /// @param _tokenId Token ID of NFT that user wants to purchase\n    /// @return allOffers an array of offers\n    function getOffers(uint256 _tokenId)\n        external\n        view\n        isNFTOwner(_tokenId)\n        returns (Offer[] memory)\n    {\n        return _allOffers[_tokenId];\n    }\n\n    /// @notice Allow user to retrieve an offer he previously made for a NFT\n    /// @dev If no offer, just send back an offer with price at 0 from 0X0 to 0X0\n    /// @param _tokenId Token ID of NFT on which user made an offer\n    /// @return offer an Offer\n    function getOffer(uint256 _tokenId) external view returns (Offer memory) {\n        for (uint256 i = 0; i < _allOffers[_tokenId].length; i++) {\n            if (_allOffers[_tokenId][i].user == msg.sender) {\n                return _allOffers[_tokenId][i];\n            }\n        }\n        return Offer(0, address(0), address(0));\n    }\n\n    /// @notice Reject an offer\n    /// @dev Remove offer of _bider from allOffers\n    /// @param _tokenId of offer to reject\n    /// @param _bider address of user who made the offer\n    function rejectOffer(uint256 _tokenId, address _bider)\n        external\n        isNFTOwner(_tokenId)\n    {\n        for (uint256 i = 0; i < _allOffers[_tokenId].length; i++) {\n            if (_allOffers[_tokenId][i].user == _bider) {\n                // We switch with the last element in array\n                _allOffers[_tokenId][i] = _allOffers[_tokenId][\n                    _allOffers[_tokenId].length - 1\n                ];\n                _allOffers[_tokenId].pop();\n                break;\n            }\n        }\n    }\n\n    /// @notice Check if user has made an offer on NFT\n    /// @param _tokenId NFT token ID\n    /// @return bool true if contract caller has already made an offer\n    function hasMadeOffer(uint256 _tokenId) public view returns (bool) {\n        for (uint256 i = 0; i < _allOffers[_tokenId].length; i++) {\n            if (_allOffers[_tokenId][i].user == msg.sender) {\n                return true;\n            }\n        }\n        return false;\n    }\n\n    /// @notice Accept an offer and transfer NFT to bider\n    /// @dev Delete all offers in _allOffers and call transfertCarblockNFT\n    /// @param _tokenId NFT token ID\n    /// @param _bider user that made the accepted offer\n    function acceptOffer(uint256 _tokenId, address _bider) external payable {\n        transferCarblockNFT(_bider, _tokenId);\n        delete _allOffers[_tokenId];\n    }\n\n    /** - OFFERS MANAGEMENT - */\n\n    //TODO : check visibility\n    /// @notice Transfer a NFT when an owner is selling his vehicle to new owner\n    /// @dev Uses _transfer to update owner and update the '_users' mapping (don't need _safeTransfer for same reason as _safeMint)\n    /// @param _to address of the new NFT owner\n    /// @param _tokenId Token ID of NFT to transfer\n    function transferCarblockNFT(address _to, uint256 _tokenId) internal {\n        _transfer(msg.sender, _to, _tokenId);\n\n        for (uint256 i = 0; i < _users[msg.sender].length; i++) {\n            if (_users[msg.sender][i] == _tokenId) {\n                // We switch with the last element of array\n                _users[msg.sender][i] = _users[msg.sender][\n                    _users[msg.sender].length - 1\n                ];\n                _users[msg.sender].pop();\n                break;\n            }\n        }\n        _users[_to].push(_tokenId);\n    }\n\n    /// @notice Check if user has a specific brand & model of car so that he can give his opinion\n    /// @dev Uses getCarblocks to retrieve list of car and then string compares _brand & _model\n    /// @param _brand brand of car\n    /// @param _model model of car\n    function hasCar(string memory _brand, string memory _model)\n        external\n        view\n        returns (bool)\n    {\n        Carblock[] memory carblocks = getCarblocks();\n        for (uint256 i = 0; i < carblocks.length; i++) {\n            if (\n                (keccak256(abi.encodePacked(carblocks[i].car.brand)) ==\n                    keccak256(abi.encodePacked(_brand)))\n            ) {\n                if (\n                    (keccak256(abi.encodePacked(carblocks[i].car.model)) ==\n                        keccak256(abi.encodePacked(_model)))\n                ) {\n                    return true;\n                }\n            }\n        }\n        return false;\n    }\n}\n",
  "sourcePath": "/home/mlazzje/projects/alyra/CarBlocks/truffle/contracts/CarBlocks.sol",
  "compiler": {
    "name": "solc",
    "version": "0.8.17+commit.8df45f5f.Emscripten.clang"
  },
  "schemaVersion": "3.4.10",
  "updatedAt": "2022-12-12T01:33:23.810Z",
  "devdoc": {
    "author": "Quentin COLLETTE & Maxime LESBROS",
    "details": "Stay away from this or you're facing sleep deprivation",
    "kind": "dev",
    "methods": {
      "acceptOffer(uint256,address)": {
        "details": "Delete all offers in _allOffers and call transfertCarblockNFT",
        "params": {
          "_bider": "user that made the accepted offer",
          "_tokenId": "NFT token ID"
        }
      },
      "addMaintenance(uint256,uint256,uint8,uint256,string)": {
        "details": "After the maintenance file has been upload to IPFS call this method to update maintenanceURI",
        "params": {
          "_date": "Date of maintenance",
          "_kilometers": "Total distance of the car at time of maintenance",
          "_mType": "Type of maintenance (enum)",
          "_maintenanceURI": "URI of maintenance JSON file on IPFS",
          "_tokenId": "NFT token ID"
        }
      },
      "approve(address,uint256)": {
        "details": "See {IERC721-approve}."
      },
      "balanceOf(address)": {
        "details": "See {IERC721-balanceOf}."
      },
      "getApproved(uint256)": {
        "details": "See {IERC721-getApproved}."
      },
      "getCarblock(uint256)": {
        "details": "Get the Carblock struct with the NFT token ID",
        "params": {
          "_tokenId": "NFT token ID"
        },
        "returns": {
          "_0": "Carblock"
        }
      },
      "getCarblocks()": {
        "details": "Get an array of Carblock struct with the NFT token ID",
        "returns": {
          "_0": "carblocks an array of carblock NFT"
        }
      },
      "getCarblocksForSale()": {
        "details": "The returned array of Carblock might not be completely full",
        "returns": {
          "_0": "Carblock[] the list of carblocks NFT"
        }
      },
      "getMaintenances(uint256)": {
        "details": "Return an array of Maintenance struct",
        "params": {
          "_tokenId": "NFT token ID"
        },
        "returns": {
          "_0": "Maintenance[]"
        }
      },
      "getOffer(uint256)": {
        "details": "If no offer, just send back an offer with price at 0 from 0X0 to 0X0",
        "params": {
          "_tokenId": "Token ID of NFT on which user made an offer"
        },
        "returns": {
          "_0": "offer an Offer"
        }
      },
      "getOffers(uint256)": {
        "details": "Limit to 10 offers per NFT",
        "params": {
          "_tokenId": "Token ID of NFT that user wants to purchase"
        },
        "returns": {
          "_0": "allOffers an array of offers"
        }
      },
      "hasCar(string,string)": {
        "details": "Uses getCarblocks to retrieve list of car and then string compares _brand & _model",
        "params": {
          "_brand": "brand of car",
          "_model": "model of car"
        }
      },
      "hasMadeOffer(uint256)": {
        "params": {
          "_tokenId": "NFT token ID"
        },
        "returns": {
          "_0": "bool true if contract caller has already made an offer"
        }
      },
      "isApprovedForAll(address,address)": {
        "details": "See {IERC721-isApprovedForAll}."
      },
      "makeOffer(uint256,uint256,address)": {
        "details": "Limit to 10 offers per NFT",
        "params": {
          "_price": "price offer of user",
          "_recipient": "address of offer recipient",
          "_tokenId": "Token ID of NFT that user wants to purchase"
        }
      },
      "mintCarblock(address,uint256,string[],uint8,bool)": {
        "details": "We use _mint instead of _safeMint as we don't need to check if _user is a contract",
        "params": {
          "_circulationStartDate": "first circulation date of owner's car",
          "_isForSale": "wether the car is for sale",
          "_state": "car's state (ENUM)",
          "_user": "address of the future owner of minted NFT",
          "_vInfo": "array with [VIN, brand, model, tokenURI] in this order"
        }
      },
      "name()": {
        "details": "See {IERC721Metadata-name}."
      },
      "ownerOf(uint256)": {
        "details": "See {IERC721-ownerOf}."
      },
      "rejectOffer(uint256,address)": {
        "details": "Remove offer of _bider from allOffers",
        "params": {
          "_bider": "address of user who made the offer",
          "_tokenId": "of offer to reject"
        }
      },
      "safeTransferFrom(address,address,uint256)": {
        "details": "See {IERC721-safeTransferFrom}."
      },
      "safeTransferFrom(address,address,uint256,bytes)": {
        "details": "See {IERC721-safeTransferFrom}."
      },
      "setApprovalForAll(address,bool)": {
        "details": "See {IERC721-setApprovalForAll}."
      },
      "setPrice(uint256,uint256)": {
        "details": "_",
        "params": {
          "_price": "expected price",
          "_tokenId": "NFT token ID"
        }
      },
      "supportsInterface(bytes4)": {
        "details": "See {IERC165-supportsInterface}."
      },
      "symbol()": {
        "details": "See {IERC721Metadata-symbol}."
      },
      "tokenURI(uint256)": {
        "details": "See {IERC721Metadata-tokenURI}."
      },
      "transferFrom(address,address,uint256)": {
        "details": "See {IERC721-transferFrom}."
      }
    },
    "title": "The CarBlocks Smart Contract",
    "version": 1
  },
  "userdoc": {
    "kind": "user",
    "methods": {
      "acceptOffer(uint256,address)": {
        "notice": "Accept an offer and transfer NFT to bider"
      },
      "addMaintenance(uint256,uint256,uint8,uint256,string)": {
        "notice": "Add a new maintenance to a specific NFT"
      },
      "energyType()": {
        "notice": "this will differentiate the various collections (gasoline, diesel, hybrid...)"
      },
      "getCarblock(uint256)": {
        "notice": "Retrieve NFT from token ID"
      },
      "getCarblocks()": {
        "notice": "Retrieve all NFTs of contract caller"
      },
      "getCarblocksForSale()": {
        "notice": "Retrieve all NFTs that are for sale"
      },
      "getMaintenances(uint256)": {
        "notice": "Get list of all maintenances done on a car from a NFT token ID"
      },
      "getOffer(uint256)": {
        "notice": "Allow user to retrieve an offer he previously made for a NFT"
      },
      "getOffers(uint256)": {
        "notice": "Allow user to retrieve all offers for a NFT"
      },
      "hasCar(string,string)": {
        "notice": "Check if user has a specific brand & model of car so that he can give his opinion"
      },
      "hasMadeOffer(uint256)": {
        "notice": "Check if user has made an offer on NFT"
      },
      "makeOffer(uint256,uint256,address)": {
        "notice": "Allow user to make an offer for NFT"
      },
      "mintCarblock(address,uint256,string[],uint8,bool)": {
        "notice": "Allow user to mint a new Carblock NFT"
      },
      "rejectOffer(uint256,address)": {
        "notice": "Reject an offer"
      },
      "setPrice(uint256,uint256)": {
        "notice": "Allow NFT Owner to set a price for his car"
      }
    },
    "notice": "Smart Contract allowing to manage NFT associated with cars",
    "version": 1
  }
}