{
  "contractName": "CarBlocks",
  "abi": [
    {
      "inputs": [],
      "stateMutability": "nonpayable",
      "type": "constructor"
    },
    {
      "anonymous": false,
      "inputs": [
        {
          "indexed": true,
          "internalType": "address",
          "name": "owner",
          "type": "address"
        },
        {
          "indexed": true,
          "internalType": "address",
          "name": "approved",
          "type": "address"
        },
        {
          "indexed": true,
          "internalType": "uint256",
          "name": "tokenId",
          "type": "uint256"
        }
      ],
      "name": "Approval",
      "type": "event"
    },
    {
      "anonymous": false,
      "inputs": [
        {
          "indexed": true,
          "internalType": "address",
          "name": "owner",
          "type": "address"
        },
        {
          "indexed": true,
          "internalType": "address",
          "name": "operator",
          "type": "address"
        },
        {
          "indexed": false,
          "internalType": "bool",
          "name": "approved",
          "type": "bool"
        }
      ],
      "name": "ApprovalForAll",
      "type": "event"
    },
    {
      "anonymous": false,
      "inputs": [
        {
          "indexed": true,
          "internalType": "address",
          "name": "from",
          "type": "address"
        },
        {
          "indexed": true,
          "internalType": "address",
          "name": "to",
          "type": "address"
        },
        {
          "indexed": true,
          "internalType": "uint256",
          "name": "tokenId",
          "type": "uint256"
        }
      ],
      "name": "Transfer",
      "type": "event"
    },
    {
      "inputs": [
        {
          "internalType": "address",
          "name": "to",
          "type": "address"
        },
        {
          "internalType": "uint256",
          "name": "tokenId",
          "type": "uint256"
        }
      ],
      "name": "approve",
      "outputs": [],
      "stateMutability": "nonpayable",
      "type": "function"
    },
    {
      "inputs": [
        {
          "internalType": "address",
          "name": "owner",
          "type": "address"
        }
      ],
      "name": "balanceOf",
      "outputs": [
        {
          "internalType": "uint256",
          "name": "",
          "type": "uint256"
        }
      ],
      "stateMutability": "view",
      "type": "function",
      "constant": true
    },
    {
      "inputs": [
        {
          "internalType": "uint256",
          "name": "tokenId",
          "type": "uint256"
        }
      ],
      "name": "getApproved",
      "outputs": [
        {
          "internalType": "address",
          "name": "",
          "type": "address"
        }
      ],
      "stateMutability": "view",
      "type": "function",
      "constant": true
    },
    {
      "inputs": [
        {
          "internalType": "address",
          "name": "owner",
          "type": "address"
        },
        {
          "internalType": "address",
          "name": "operator",
          "type": "address"
        }
      ],
      "name": "isApprovedForAll",
      "outputs": [
        {
          "internalType": "bool",
          "name": "",
          "type": "bool"
        }
      ],
      "stateMutability": "view",
      "type": "function",
      "constant": true
    },
    {
      "inputs": [],
      "name": "name",
      "outputs": [
        {
          "internalType": "string",
          "name": "",
          "type": "string"
        }
      ],
      "stateMutability": "view",
      "type": "function",
      "constant": true
    },
    {
      "inputs": [
        {
          "internalType": "uint256",
          "name": "tokenId",
          "type": "uint256"
        }
      ],
      "name": "ownerOf",
      "outputs": [
        {
          "internalType": "address",
          "name": "",
          "type": "address"
        }
      ],
      "stateMutability": "view",
      "type": "function",
      "constant": true
    },
    {
      "inputs": [
        {
          "internalType": "address",
          "name": "from",
          "type": "address"
        },
        {
          "internalType": "address",
          "name": "to",
          "type": "address"
        },
        {
          "internalType": "uint256",
          "name": "tokenId",
          "type": "uint256"
        }
      ],
      "name": "safeTransferFrom",
      "outputs": [],
      "stateMutability": "nonpayable",
      "type": "function"
    },
    {
      "inputs": [
        {
          "internalType": "address",
          "name": "from",
          "type": "address"
        },
        {
          "internalType": "address",
          "name": "to",
          "type": "address"
        },
        {
          "internalType": "uint256",
          "name": "tokenId",
          "type": "uint256"
        },
        {
          "internalType": "bytes",
          "name": "data",
          "type": "bytes"
        }
      ],
      "name": "safeTransferFrom",
      "outputs": [],
      "stateMutability": "nonpayable",
      "type": "function"
    },
    {
      "inputs": [
        {
          "internalType": "address",
          "name": "operator",
          "type": "address"
        },
        {
          "internalType": "bool",
          "name": "approved",
          "type": "bool"
        }
      ],
      "name": "setApprovalForAll",
      "outputs": [],
      "stateMutability": "nonpayable",
      "type": "function"
    },
    {
      "inputs": [
        {
          "internalType": "bytes4",
          "name": "interfaceId",
          "type": "bytes4"
        }
      ],
      "name": "supportsInterface",
      "outputs": [
        {
          "internalType": "bool",
          "name": "",
          "type": "bool"
        }
      ],
      "stateMutability": "view",
      "type": "function",
      "constant": true
    },
    {
      "inputs": [],
      "name": "symbol",
      "outputs": [
        {
          "internalType": "string",
          "name": "",
          "type": "string"
        }
      ],
      "stateMutability": "view",
      "type": "function",
      "constant": true
    },
    {
      "inputs": [
        {
          "internalType": "uint256",
          "name": "tokenId",
          "type": "uint256"
        }
      ],
      "name": "tokenURI",
      "outputs": [
        {
          "internalType": "string",
          "name": "",
          "type": "string"
        }
      ],
      "stateMutability": "view",
      "type": "function",
      "constant": true
    },
    {
      "inputs": [
        {
          "internalType": "address",
          "name": "from",
          "type": "address"
        },
        {
          "internalType": "address",
          "name": "to",
          "type": "address"
        },
        {
          "internalType": "uint256",
          "name": "tokenId",
          "type": "uint256"
        }
      ],
      "name": "transferFrom",
      "outputs": [],
      "stateMutability": "nonpayable",
      "type": "function"
    },
    {
      "inputs": [],
      "name": "test",
      "outputs": [
        {
          "internalType": "uint256",
          "name": "",
          "type": "uint256"
        }
      ],
      "stateMutability": "pure",
      "type": "function",
      "constant": true
    }
  ],
  "bytecode": "0x60806040523480156200001157600080fd5b506040518060400160405280600981526020017f436172626c6f636b7300000000000000000000000000000000000000000000008152506040518060400160405280600381526020017f43424b000000000000000000000000000000000000000000000000000000000081525081600090816200008f919062000324565b508060019081620000a1919062000324565b5050506200040b565b600081519050919050565b7f4e487b7100000000000000000000000000000000000000000000000000000000600052604160045260246000fd5b7f4e487b7100000000000000000000000000000000000000000000000000000000600052602260045260246000fd5b600060028204905060018216806200012c57607f821691505b602082108103620001425762000141620000e4565b5b50919050565b60008190508160005260206000209050919050565b60006020601f8301049050919050565b600082821b905092915050565b600060088302620001ac7fffffffffffffffffffffffffffffffffffffffffffffffffffffffffffffffff826200016d565b620001b886836200016d565b95508019841693508086168417925050509392505050565b6000819050919050565b6000819050919050565b600062000205620001ff620001f984620001d0565b620001da565b620001d0565b9050919050565b6000819050919050565b6200022183620001e4565b6200023962000230826200020c565b8484546200017a565b825550505050565b600090565b6200025062000241565b6200025d81848462000216565b505050565b5b8181101562000285576200027960008262000246565b60018101905062000263565b5050565b601f821115620002d4576200029e8162000148565b620002a9846200015d565b81016020851015620002b9578190505b620002d1620002c8856200015d565b83018262000262565b50505b505050565b600082821c905092915050565b6000620002f960001984600802620002d9565b1980831691505092915050565b6000620003148383620002e6565b9150826002028217905092915050565b6200032f82620000aa565b67ffffffffffffffff8111156200034b576200034a620000b5565b5b62000357825462000113565b6200036482828562000289565b600060209050601f8311600181146200039c576000841562000387578287015190505b62000393858262000306565b86555062000403565b601f198416620003ac8662000148565b60005b82811015620003d657848901518255600182019150602085019450602081019050620003af565b86831015620003f65784890151620003f2601f891682620002e6565b8355505b6001600288020188555050505b505050505050565b612319806200041b6000396000f3fe608060405234801561001057600080fd5b50600436106100ea5760003560e01c806370a082311161008c578063b88d4fde11610066578063b88d4fde1461025b578063c87b56dd14610277578063e985e9c5146102a7578063f8a8fd6d146102d7576100ea565b806370a08231146101f157806395d89b4114610221578063a22cb4651461023f576100ea565b8063095ea7b3116100c8578063095ea7b31461016d57806323b872dd1461018957806342842e0e146101a55780636352211e146101c1576100ea565b806301ffc9a7146100ef57806306fdde031461011f578063081812fc1461013d575b600080fd5b61010960048036038101906101049190611656565b6102f5565b604051610116919061169e565b60405180910390f35b6101276103d7565b6040516101349190611749565b60405180910390f35b610157600480360381019061015291906117a1565b610469565b604051610164919061180f565b60405180910390f35b61018760048036038101906101829190611856565b6104af565b005b6101a3600480360381019061019e9190611896565b6105c6565b005b6101bf60048036038101906101ba9190611896565b610626565b005b6101db60048036038101906101d691906117a1565b610646565b6040516101e8919061180f565b60405180910390f35b61020b600480360381019061020691906118e9565b6106cc565b6040516102189190611925565b60405180910390f35b610229610783565b6040516102369190611749565b60405180910390f35b6102596004803603810190610254919061196c565b610815565b005b61027560048036038101906102709190611ae1565b61082b565b005b610291600480360381019061028c91906117a1565b61088d565b60405161029e9190611749565b60405180910390f35b6102c160048036038101906102bc9190611b64565b6108f5565b6040516102ce919061169e565b60405180910390f35b6102df610989565b6040516102ec9190611925565b60405180910390f35b60007f80ac58cd000000000000000000000000000000000000000000000000000000007bffffffffffffffffffffffffffffffffffffffffffffffffffffffff1916827bffffffffffffffffffffffffffffffffffffffffffffffffffffffff191614806103c057507f5b5e139f000000000000000000000000000000000000000000000000000000007bffffffffffffffffffffffffffffffffffffffffffffffffffffffff1916827bffffffffffffffffffffffffffffffffffffffffffffffffffffffff1916145b806103d057506103cf82610992565b5b9050919050565b6060600080546103e690611bd3565b80601f016020809104026020016040519081016040528092919081815260200182805461041290611bd3565b801561045f5780601f106104345761010080835404028352916020019161045f565b820191906000526020600020905b81548152906001019060200180831161044257829003601f168201915b5050505050905090565b6000610474826109fc565b6004600083815260200190815260200160002060009054906101000a900473ffffffffffffffffffffffffffffffffffffffff169050919050565b60006104ba82610646565b90508073ffffffffffffffffffffffffffffffffffffffff168373ffffffffffffffffffffffffffffffffffffffff160361052a576040517f08c379a000000000000000000000000000000000000000000000000000000000815260040161052190611c76565b60405180910390fd5b8073ffffffffffffffffffffffffffffffffffffffff16610549610a47565b73ffffffffffffffffffffffffffffffffffffffff161480610578575061057781610572610a47565b6108f5565b5b6105b7576040517f08c379a00000000000000000000000000000000000000000000000000000000081526004016105ae90611d08565b60405180910390fd5b6105c18383610a4f565b505050565b6105d76105d1610a47565b82610b08565b610616576040517f08c379a000000000000000000000000000000000000000000000000000000000815260040161060d90611d9a565b60405180910390fd5b610621838383610b9d565b505050565b6106418383836040518060200160405280600081525061082b565b505050565b60008061065283610e96565b9050600073ffffffffffffffffffffffffffffffffffffffff168173ffffffffffffffffffffffffffffffffffffffff16036106c3576040517f08c379a00000000000000000000000000000000000000000000000000000000081526004016106ba90611e06565b60405180910390fd5b80915050919050565b60008073ffffffffffffffffffffffffffffffffffffffff168273ffffffffffffffffffffffffffffffffffffffff160361073c576040517f08c379a000000000000000000000000000000000000000000000000000000000815260040161073390611e98565b60405180910390fd5b600360008373ffffffffffffffffffffffffffffffffffffffff1673ffffffffffffffffffffffffffffffffffffffff168152602001908152602001600020549050919050565b60606001805461079290611bd3565b80601f01602080910402602001604051908101604052809291908181526020018280546107be90611bd3565b801561080b5780601f106107e05761010080835404028352916020019161080b565b820191906000526020600020905b8154815290600101906020018083116107ee57829003601f168201915b5050505050905090565b610827610820610a47565b8383610ed3565b5050565b61083c610836610a47565b83610b08565b61087b576040517f08c379a000000000000000000000000000000000000000000000000000000000815260040161087290611d9a565b60405180910390fd5b6108878484848461103f565b50505050565b6060610898826109fc565b60006108a261109b565b905060008151116108c257604051806020016040528060008152506108ed565b806108cc846110b2565b6040516020016108dd929190611ef4565b6040516020818303038152906040525b915050919050565b6000600560008473ffffffffffffffffffffffffffffffffffffffff1673ffffffffffffffffffffffffffffffffffffffff16815260200190815260200160002060008373ffffffffffffffffffffffffffffffffffffffff1673ffffffffffffffffffffffffffffffffffffffff16815260200190815260200160002060009054906101000a900460ff16905092915050565b6000602a905090565b60007f01ffc9a7000000000000000000000000000000000000000000000000000000007bffffffffffffffffffffffffffffffffffffffffffffffffffffffff1916827bffffffffffffffffffffffffffffffffffffffffffffffffffffffff1916149050919050565b610a0581611180565b610a44576040517f08c379a0000000000000000000000000000000000000000000000000000000008152600401610a3b90611e06565b60405180910390fd5b50565b600033905090565b816004600083815260200190815260200160002060006101000a81548173ffffffffffffffffffffffffffffffffffffffff021916908373ffffffffffffffffffffffffffffffffffffffff160217905550808273ffffffffffffffffffffffffffffffffffffffff16610ac283610646565b73ffffffffffffffffffffffffffffffffffffffff167f8c5be1e5ebec7d5bd14f71427d1e84f3dd0314c0f7b2291e5b200ac8c7c3b92560405160405180910390a45050565b600080610b1483610646565b90508073ffffffffffffffffffffffffffffffffffffffff168473ffffffffffffffffffffffffffffffffffffffff161480610b565750610b5581856108f5565b5b80610b9457508373ffffffffffffffffffffffffffffffffffffffff16610b7c84610469565b73ffffffffffffffffffffffffffffffffffffffff16145b91505092915050565b8273ffffffffffffffffffffffffffffffffffffffff16610bbd82610646565b73ffffffffffffffffffffffffffffffffffffffff1614610c13576040517f08c379a0000000000000000000000000000000000000000000000000000000008152600401610c0a90611f8a565b60405180910390fd5b600073ffffffffffffffffffffffffffffffffffffffff168273ffffffffffffffffffffffffffffffffffffffff1603610c82576040517f08c379a0000000000000000000000000000000000000000000000000000000008152600401610c799061201c565b60405180910390fd5b610c8f83838360016111c1565b8273ffffffffffffffffffffffffffffffffffffffff16610caf82610646565b73ffffffffffffffffffffffffffffffffffffffff1614610d05576040517f08c379a0000000000000000000000000000000000000000000000000000000008152600401610cfc90611f8a565b60405180910390fd5b6004600082815260200190815260200160002060006101000a81549073ffffffffffffffffffffffffffffffffffffffff02191690556001600360008573ffffffffffffffffffffffffffffffffffffffff1673ffffffffffffffffffffffffffffffffffffffff168152602001908152602001600020600082825403925050819055506001600360008473ffffffffffffffffffffffffffffffffffffffff1673ffffffffffffffffffffffffffffffffffffffff16815260200190815260200160002060008282540192505081905550816002600083815260200190815260200160002060006101000a81548173ffffffffffffffffffffffffffffffffffffffff021916908373ffffffffffffffffffffffffffffffffffffffff160217905550808273ffffffffffffffffffffffffffffffffffffffff168473ffffffffffffffffffffffffffffffffffffffff167fddf252ad1be2c89b69c2b068fc378daa952ba7f163c4a11628f55a4df523b3ef60405160405180910390a4610e9183838360016112e7565b505050565b60006002600083815260200190815260200160002060009054906101000a900473ffffffffffffffffffffffffffffffffffffffff169050919050565b8173ffffffffffffffffffffffffffffffffffffffff168373ffffffffffffffffffffffffffffffffffffffff1603610f41576040517f08c379a0000000000000000000000000000000000000000000000000000000008152600401610f3890612088565b60405180910390fd5b80600560008573ffffffffffffffffffffffffffffffffffffffff1673ffffffffffffffffffffffffffffffffffffffff16815260200190815260200160002060008473ffffffffffffffffffffffffffffffffffffffff1673ffffffffffffffffffffffffffffffffffffffff16815260200190815260200160002060006101000a81548160ff0219169083151502179055508173ffffffffffffffffffffffffffffffffffffffff168373ffffffffffffffffffffffffffffffffffffffff167f17307eab39ab6107e8899845ad3d59bd9653f200f220920489ca2b5937696c3183604051611032919061169e565b60405180910390a3505050565b61104a848484610b9d565b611056848484846112ed565b611095576040517f08c379a000000000000000000000000000000000000000000000000000000000815260040161108c9061211a565b60405180910390fd5b50505050565b606060405180602001604052806000815250905090565b6060600060016110c184611474565b01905060008167ffffffffffffffff8111156110e0576110df6119b6565b5b6040519080825280601f01601f1916602001820160405280156111125781602001600182028036833780820191505090505b509050600082602001820190505b600115611175578080600190039150507f3031323334353637383961626364656600000000000000000000000000000000600a86061a8153600a85816111695761116861213a565b5b04945060008503611120575b819350505050919050565b60008073ffffffffffffffffffffffffffffffffffffffff166111a283610e96565b73ffffffffffffffffffffffffffffffffffffffff1614159050919050565b60018111156112e157600073ffffffffffffffffffffffffffffffffffffffff168473ffffffffffffffffffffffffffffffffffffffff16146112555780600360008673ffffffffffffffffffffffffffffffffffffffff1673ffffffffffffffffffffffffffffffffffffffff168152602001908152602001600020600082825461124d9190612198565b925050819055505b600073ffffffffffffffffffffffffffffffffffffffff168373ffffffffffffffffffffffffffffffffffffffff16146112e05780600360008573ffffffffffffffffffffffffffffffffffffffff1673ffffffffffffffffffffffffffffffffffffffff16815260200190815260200160002060008282546112d891906121cc565b925050819055505b5b50505050565b50505050565b600061130e8473ffffffffffffffffffffffffffffffffffffffff166115c7565b15611467578373ffffffffffffffffffffffffffffffffffffffff1663150b7a02611337610a47565b8786866040518563ffffffff1660e01b81526004016113599493929190612255565b6020604051808303816000875af192505050801561139557506040513d601f19601f8201168201806040525081019061139291906122b6565b60015b611417573d80600081146113c5576040519150601f19603f3d011682016040523d82523d6000602084013e6113ca565b606091505b50600081510361140f576040517f08c379a00000000000000000000000000000000000000000000000000000000081526004016114069061211a565b60405180910390fd5b805181602001fd5b63150b7a0260e01b7bffffffffffffffffffffffffffffffffffffffffffffffffffffffff1916817bffffffffffffffffffffffffffffffffffffffffffffffffffffffff19161491505061146c565b600190505b949350505050565b600080600090507a184f03e93ff9f4daa797ed6e38ed64bf6a1f01000000000000000083106114d2577a184f03e93ff9f4daa797ed6e38ed64bf6a1f01000000000000000083816114c8576114c761213a565b5b0492506040810190505b6d04ee2d6d415b85acef8100000000831061150f576d04ee2d6d415b85acef810000000083816115055761150461213a565b5b0492506020810190505b662386f26fc10000831061153e57662386f26fc1000083816115345761153361213a565b5b0492506010810190505b6305f5e1008310611567576305f5e100838161155d5761155c61213a565b5b0492506008810190505b612710831061158c5761271083816115825761158161213a565b5b0492506004810190505b606483106115af57606483816115a5576115a461213a565b5b0492506002810190505b600a83106115be576001810190505b80915050919050565b6000808273ffffffffffffffffffffffffffffffffffffffff163b119050919050565b6000604051905090565b600080fd5b600080fd5b60007fffffffff0000000000000000000000000000000000000000000000000000000082169050919050565b611633816115fe565b811461163e57600080fd5b50565b6000813590506116508161162a565b92915050565b60006020828403121561166c5761166b6115f4565b5b600061167a84828501611641565b91505092915050565b60008115159050919050565b61169881611683565b82525050565b60006020820190506116b3600083018461168f565b92915050565b600081519050919050565b600082825260208201905092915050565b60005b838110156116f35780820151818401526020810190506116d8565b60008484015250505050565b6000601f19601f8301169050919050565b600061171b826116b9565b61172581856116c4565b93506117358185602086016116d5565b61173e816116ff565b840191505092915050565b600060208201905081810360008301526117638184611710565b905092915050565b6000819050919050565b61177e8161176b565b811461178957600080fd5b50565b60008135905061179b81611775565b92915050565b6000602082840312156117b7576117b66115f4565b5b60006117c58482850161178c565b91505092915050565b600073ffffffffffffffffffffffffffffffffffffffff82169050919050565b60006117f9826117ce565b9050919050565b611809816117ee565b82525050565b60006020820190506118246000830184611800565b92915050565b611833816117ee565b811461183e57600080fd5b50565b6000813590506118508161182a565b92915050565b6000806040838503121561186d5761186c6115f4565b5b600061187b85828601611841565b925050602061188c8582860161178c565b9150509250929050565b6000806000606084860312156118af576118ae6115f4565b5b60006118bd86828701611841565b93505060206118ce86828701611841565b92505060406118df8682870161178c565b9150509250925092565b6000602082840312156118ff576118fe6115f4565b5b600061190d84828501611841565b91505092915050565b61191f8161176b565b82525050565b600060208201905061193a6000830184611916565b92915050565b61194981611683565b811461195457600080fd5b50565b60008135905061196681611940565b92915050565b60008060408385031215611983576119826115f4565b5b600061199185828601611841565b92505060206119a285828601611957565b9150509250929050565b600080fd5b600080fd5b7f4e487b7100000000000000000000000000000000000000000000000000000000600052604160045260246000fd5b6119ee826116ff565b810181811067ffffffffffffffff82111715611a0d57611a0c6119b6565b5b80604052505050565b6000611a206115ea565b9050611a2c82826119e5565b919050565b600067ffffffffffffffff821115611a4c57611a4b6119b6565b5b611a55826116ff565b9050602081019050919050565b82818337600083830152505050565b6000611a84611a7f84611a31565b611a16565b905082815260208101848484011115611aa057611a9f6119b1565b5b611aab848285611a62565b509392505050565b600082601f830112611ac857611ac76119ac565b5b8135611ad8848260208601611a71565b91505092915050565b60008060008060808587031215611afb57611afa6115f4565b5b6000611b0987828801611841565b9450506020611b1a87828801611841565b9350506040611b2b8782880161178c565b925050606085013567ffffffffffffffff811115611b4c57611b4b6115f9565b5b611b5887828801611ab3565b91505092959194509250565b60008060408385031215611b7b57611b7a6115f4565b5b6000611b8985828601611841565b9250506020611b9a85828601611841565b9150509250929050565b7f4e487b7100000000000000000000000000000000000000000000000000000000600052602260045260246000fd5b60006002820490506001821680611beb57607f821691505b602082108103611bfe57611bfd611ba4565b5b50919050565b7f4552433732313a20617070726f76616c20746f2063757272656e74206f776e6560008201527f7200000000000000000000000000000000000000000000000000000000000000602082015250565b6000611c606021836116c4565b9150611c6b82611c04565b604082019050919050565b60006020820190508181036000830152611c8f81611c53565b9050919050565b7f4552433732313a20617070726f76652063616c6c6572206973206e6f7420746f60008201527f6b656e206f776e6572206f7220617070726f76656420666f7220616c6c000000602082015250565b6000611cf2603d836116c4565b9150611cfd82611c96565b604082019050919050565b60006020820190508181036000830152611d2181611ce5565b9050919050565b7f4552433732313a2063616c6c6572206973206e6f7420746f6b656e206f776e6560008201527f72206f7220617070726f76656400000000000000000000000000000000000000602082015250565b6000611d84602d836116c4565b9150611d8f82611d28565b604082019050919050565b60006020820190508181036000830152611db381611d77565b9050919050565b7f4552433732313a20696e76616c696420746f6b656e2049440000000000000000600082015250565b6000611df06018836116c4565b9150611dfb82611dba565b602082019050919050565b60006020820190508181036000830152611e1f81611de3565b9050919050565b7f4552433732313a2061646472657373207a65726f206973206e6f74206120766160008201527f6c6964206f776e65720000000000000000000000000000000000000000000000602082015250565b6000611e826029836116c4565b9150611e8d82611e26565b604082019050919050565b60006020820190508181036000830152611eb181611e75565b9050919050565b600081905092915050565b6000611ece826116b9565b611ed88185611eb8565b9350611ee88185602086016116d5565b80840191505092915050565b6000611f008285611ec3565b9150611f0c8284611ec3565b91508190509392505050565b7f4552433732313a207472616e736665722066726f6d20696e636f72726563742060008201527f6f776e6572000000000000000000000000000000000000000000000000000000602082015250565b6000611f746025836116c4565b9150611f7f82611f18565b604082019050919050565b60006020820190508181036000830152611fa381611f67565b9050919050565b7f4552433732313a207472616e7366657220746f20746865207a65726f2061646460008201527f7265737300000000000000000000000000000000000000000000000000000000602082015250565b60006120066024836116c4565b915061201182611faa565b604082019050919050565b6000602082019050818103600083015261203581611ff9565b9050919050565b7f4552433732313a20617070726f766520746f2063616c6c657200000000000000600082015250565b60006120726019836116c4565b915061207d8261203c565b602082019050919050565b600060208201905081810360008301526120a181612065565b9050919050565b7f4552433732313a207472616e7366657220746f206e6f6e20455243373231526560008201527f63656976657220696d706c656d656e7465720000000000000000000000000000602082015250565b60006121046032836116c4565b915061210f826120a8565b604082019050919050565b60006020820190508181036000830152612133816120f7565b9050919050565b7f4e487b7100000000000000000000000000000000000000000000000000000000600052601260045260246000fd5b7f4e487b7100000000000000000000000000000000000000000000000000000000600052601160045260246000fd5b60006121a38261176b565b91506121ae8361176b565b92508282039050818111156121c6576121c5612169565b5b92915050565b60006121d78261176b565b91506121e28361176b565b92508282019050808211156121fa576121f9612169565b5b92915050565b600081519050919050565b600082825260208201905092915050565b600061222782612200565b612231818561220b565b93506122418185602086016116d5565b61224a816116ff565b840191505092915050565b600060808201905061226a6000830187611800565b6122776020830186611800565b6122846040830185611916565b8181036060830152612296818461221c565b905095945050505050565b6000815190506122b08161162a565b92915050565b6000602082840312156122cc576122cb6115f4565b5b60006122da848285016122a1565b9150509291505056fea2646970667358221220e5d7b6699df6e99340ddddde8d16567d2e099557866f1c141e1b124ad05769cd64736f6c63430008110033",
  "immutableReferences": {},
  "source": "// SPDX-License-Identifier: MIT\npragma solidity 0.8.17;\nimport \"../node_modules/@openzeppelin/contracts/token/ERC721/ERC721.sol\";\nimport \"../node_modules/@openzeppelin/contracts/utils/Counters.sol\";\n\ncontract CarBlocks is ERC721 {\n    using Counters for Counters.Counter;\n\n    constructor() ERC721(\"Carblocks\", \"CBK\") {}\n\n    function test() public pure returns (uint256) {\n        return 42;\n    }\n}\n",
  "sourcePath": "/Users/quentin/Documents/Alyra/projects/CarBlocks/truffle/contracts/CarBlocks.sol",
  "compiler": {
    "name": "solc",
    "version": "0.8.17+commit.8df45f5f.Emscripten.clang"
  },
  "schemaVersion": "3.4.10",
  "updatedAt": "2022-12-04T11:09:06.364Z",
  "networkType": "ethereum",
  "devdoc": {
    "kind": "dev",
    "methods": {
      "approve(address,uint256)": {
        "details": "See {IERC721-approve}."
      },
      "balanceOf(address)": {
        "details": "See {IERC721-balanceOf}."
      },
      "getApproved(uint256)": {
        "details": "See {IERC721-getApproved}."
      },
      "isApprovedForAll(address,address)": {
        "details": "See {IERC721-isApprovedForAll}."
      },
      "name()": {
        "details": "See {IERC721Metadata-name}."
      },
      "ownerOf(uint256)": {
        "details": "See {IERC721-ownerOf}."
      },
      "safeTransferFrom(address,address,uint256)": {
        "details": "See {IERC721-safeTransferFrom}."
      },
      "safeTransferFrom(address,address,uint256,bytes)": {
        "details": "See {IERC721-safeTransferFrom}."
      },
      "setApprovalForAll(address,bool)": {
        "details": "See {IERC721-setApprovalForAll}."
      },
      "supportsInterface(bytes4)": {
        "details": "See {IERC165-supportsInterface}."
      },
      "symbol()": {
        "details": "See {IERC721Metadata-symbol}."
      },
      "tokenURI(uint256)": {
        "details": "See {IERC721Metadata-tokenURI}."
      },
      "transferFrom(address,address,uint256)": {
        "details": "See {IERC721-transferFrom}."
      }
    },
    "version": 1
  },
  "userdoc": {
    "kind": "user",
    "methods": {},
    "version": 1
  }
}