{
  "contractName": "CarBlocks",
  "abi": [
    {
      "inputs": [
        {
          "internalType": "string",
          "name": "_energyType",
          "type": "string"
        }
      ],
      "stateMutability": "nonpayable",
      "type": "constructor"
    },
    {
      "anonymous": false,
      "inputs": [
        {
          "indexed": true,
          "internalType": "address",
          "name": "owner",
          "type": "address"
        },
        {
          "indexed": true,
          "internalType": "address",
          "name": "approved",
          "type": "address"
        },
        {
          "indexed": true,
          "internalType": "uint256",
          "name": "tokenId",
          "type": "uint256"
        }
      ],
      "name": "Approval",
      "type": "event"
    },
    {
      "anonymous": false,
      "inputs": [
        {
          "indexed": true,
          "internalType": "address",
          "name": "owner",
          "type": "address"
        },
        {
          "indexed": true,
          "internalType": "address",
          "name": "operator",
          "type": "address"
        },
        {
          "indexed": false,
          "internalType": "bool",
          "name": "approved",
          "type": "bool"
        }
      ],
      "name": "ApprovalForAll",
      "type": "event"
    },
    {
      "anonymous": false,
      "inputs": [
        {
          "indexed": true,
          "internalType": "address",
          "name": "from",
          "type": "address"
        },
        {
          "indexed": true,
          "internalType": "address",
          "name": "to",
          "type": "address"
        },
        {
          "indexed": true,
          "internalType": "uint256",
          "name": "tokenId",
          "type": "uint256"
        }
      ],
      "name": "Transfer",
      "type": "event"
    },
    {
      "inputs": [
        {
          "internalType": "address",
          "name": "to",
          "type": "address"
        },
        {
          "internalType": "uint256",
          "name": "tokenId",
          "type": "uint256"
        }
      ],
      "name": "approve",
      "outputs": [],
      "stateMutability": "nonpayable",
      "type": "function"
    },
    {
      "inputs": [
        {
          "internalType": "address",
          "name": "owner",
          "type": "address"
        }
      ],
      "name": "balanceOf",
      "outputs": [
        {
          "internalType": "uint256",
          "name": "",
          "type": "uint256"
        }
      ],
      "stateMutability": "view",
      "type": "function"
    },
    {
      "inputs": [],
      "name": "energyType",
      "outputs": [
        {
          "internalType": "string",
          "name": "",
          "type": "string"
        }
      ],
      "stateMutability": "view",
      "type": "function"
    },
    {
      "inputs": [
        {
          "internalType": "uint256",
          "name": "tokenId",
          "type": "uint256"
        }
      ],
      "name": "getApproved",
      "outputs": [
        {
          "internalType": "address",
          "name": "",
          "type": "address"
        }
      ],
      "stateMutability": "view",
      "type": "function"
    },
    {
      "inputs": [
        {
          "internalType": "address",
          "name": "owner",
          "type": "address"
        },
        {
          "internalType": "address",
          "name": "operator",
          "type": "address"
        }
      ],
      "name": "isApprovedForAll",
      "outputs": [
        {
          "internalType": "bool",
          "name": "",
          "type": "bool"
        }
      ],
      "stateMutability": "view",
      "type": "function"
    },
    {
      "inputs": [],
      "name": "name",
      "outputs": [
        {
          "internalType": "string",
          "name": "",
          "type": "string"
        }
      ],
      "stateMutability": "view",
      "type": "function"
    },
    {
      "inputs": [
        {
          "internalType": "uint256",
          "name": "tokenId",
          "type": "uint256"
        }
      ],
      "name": "ownerOf",
      "outputs": [
        {
          "internalType": "address",
          "name": "",
          "type": "address"
        }
      ],
      "stateMutability": "view",
      "type": "function"
    },
    {
      "inputs": [
        {
          "internalType": "address",
          "name": "from",
          "type": "address"
        },
        {
          "internalType": "address",
          "name": "to",
          "type": "address"
        },
        {
          "internalType": "uint256",
          "name": "tokenId",
          "type": "uint256"
        }
      ],
      "name": "safeTransferFrom",
      "outputs": [],
      "stateMutability": "nonpayable",
      "type": "function"
    },
    {
      "inputs": [
        {
          "internalType": "address",
          "name": "from",
          "type": "address"
        },
        {
          "internalType": "address",
          "name": "to",
          "type": "address"
        },
        {
          "internalType": "uint256",
          "name": "tokenId",
          "type": "uint256"
        },
        {
          "internalType": "bytes",
          "name": "data",
          "type": "bytes"
        }
      ],
      "name": "safeTransferFrom",
      "outputs": [],
      "stateMutability": "nonpayable",
      "type": "function"
    },
    {
      "inputs": [
        {
          "internalType": "address",
          "name": "operator",
          "type": "address"
        },
        {
          "internalType": "bool",
          "name": "approved",
          "type": "bool"
        }
      ],
      "name": "setApprovalForAll",
      "outputs": [],
      "stateMutability": "nonpayable",
      "type": "function"
    },
    {
      "inputs": [
        {
          "internalType": "bytes4",
          "name": "interfaceId",
          "type": "bytes4"
        }
      ],
      "name": "supportsInterface",
      "outputs": [
        {
          "internalType": "bool",
          "name": "",
          "type": "bool"
        }
      ],
      "stateMutability": "view",
      "type": "function"
    },
    {
      "inputs": [],
      "name": "symbol",
      "outputs": [
        {
          "internalType": "string",
          "name": "",
          "type": "string"
        }
      ],
      "stateMutability": "view",
      "type": "function"
    },
    {
      "inputs": [
        {
          "internalType": "uint256",
          "name": "tokenId",
          "type": "uint256"
        }
      ],
      "name": "tokenURI",
      "outputs": [
        {
          "internalType": "string",
          "name": "",
          "type": "string"
        }
      ],
      "stateMutability": "view",
      "type": "function"
    },
    {
      "inputs": [
        {
          "internalType": "address",
          "name": "from",
          "type": "address"
        },
        {
          "internalType": "address",
          "name": "to",
          "type": "address"
        },
        {
          "internalType": "uint256",
          "name": "tokenId",
          "type": "uint256"
        }
      ],
      "name": "transferFrom",
      "outputs": [],
      "stateMutability": "nonpayable",
      "type": "function"
    },
    {
      "inputs": [
        {
          "internalType": "uint256",
          "name": "_tokenId",
          "type": "uint256"
        }
      ],
      "name": "getCarblock",
      "outputs": [
        {
          "components": [
            {
              "internalType": "uint256",
              "name": "tokenId",
              "type": "uint256"
            },
            {
              "internalType": "enum CarBlocks.CarState",
              "name": "carState",
              "type": "uint8"
            },
            {
              "components": [
                {
                  "internalType": "uint256",
                  "name": "circulationStartDate",
                  "type": "uint256"
                },
                {
                  "internalType": "string",
                  "name": "VIN",
                  "type": "string"
                },
                {
                  "internalType": "string",
                  "name": "brand",
                  "type": "string"
                },
                {
                  "internalType": "string",
                  "name": "model",
                  "type": "string"
                }
              ],
              "internalType": "struct CarBlocks.Car",
              "name": "car",
              "type": "tuple"
            },
            {
              "internalType": "uint256",
              "name": "price",
              "type": "uint256"
            },
            {
              "internalType": "bool",
              "name": "isForSale",
              "type": "bool"
            }
          ],
          "internalType": "struct CarBlocks.Carblock",
          "name": "",
          "type": "tuple"
        }
      ],
      "stateMutability": "view",
      "type": "function"
    },
    {
      "inputs": [],
      "name": "getCarblocks",
      "outputs": [
        {
          "components": [
            {
              "internalType": "uint256",
              "name": "tokenId",
              "type": "uint256"
            },
            {
              "internalType": "enum CarBlocks.CarState",
              "name": "carState",
              "type": "uint8"
            },
            {
              "components": [
                {
                  "internalType": "uint256",
                  "name": "circulationStartDate",
                  "type": "uint256"
                },
                {
                  "internalType": "string",
                  "name": "VIN",
                  "type": "string"
                },
                {
                  "internalType": "string",
                  "name": "brand",
                  "type": "string"
                },
                {
                  "internalType": "string",
                  "name": "model",
                  "type": "string"
                }
              ],
              "internalType": "struct CarBlocks.Car",
              "name": "car",
              "type": "tuple"
            },
            {
              "internalType": "uint256",
              "name": "price",
              "type": "uint256"
            },
            {
              "internalType": "bool",
              "name": "isForSale",
              "type": "bool"
            }
          ],
          "internalType": "struct CarBlocks.Carblock[]",
          "name": "",
          "type": "tuple[]"
        }
      ],
      "stateMutability": "view",
      "type": "function"
    },
    {
      "inputs": [],
      "name": "getCarblocksForSale",
      "outputs": [
        {
          "components": [
            {
              "internalType": "uint256",
              "name": "tokenId",
              "type": "uint256"
            },
            {
              "internalType": "enum CarBlocks.CarState",
              "name": "carState",
              "type": "uint8"
            },
            {
              "components": [
                {
                  "internalType": "uint256",
                  "name": "circulationStartDate",
                  "type": "uint256"
                },
                {
                  "internalType": "string",
                  "name": "VIN",
                  "type": "string"
                },
                {
                  "internalType": "string",
                  "name": "brand",
                  "type": "string"
                },
                {
                  "internalType": "string",
                  "name": "model",
                  "type": "string"
                }
              ],
              "internalType": "struct CarBlocks.Car",
              "name": "car",
              "type": "tuple"
            },
            {
              "internalType": "uint256",
              "name": "price",
              "type": "uint256"
            },
            {
              "internalType": "bool",
              "name": "isForSale",
              "type": "bool"
            }
          ],
          "internalType": "struct CarBlocks.Carblock[]",
          "name": "",
          "type": "tuple[]"
        }
      ],
      "stateMutability": "view",
      "type": "function"
    },
    {
      "inputs": [
        {
          "internalType": "uint256",
          "name": "_tokenId",
          "type": "uint256"
        },
        {
          "internalType": "uint256",
          "name": "_price",
          "type": "uint256"
        }
      ],
      "name": "setPrice",
      "outputs": [],
      "stateMutability": "nonpayable",
      "type": "function"
    },
    {
      "inputs": [
        {
          "internalType": "uint256",
          "name": "_tokenId",
          "type": "uint256"
        },
        {
          "internalType": "uint256",
          "name": "_date",
          "type": "uint256"
        },
        {
          "internalType": "enum CarBlocks.MaintenanceType",
          "name": "_mType",
          "type": "uint8"
        },
        {
          "internalType": "uint256",
          "name": "_kilometers",
          "type": "uint256"
        },
        {
          "internalType": "string",
          "name": "_maintenanceURI",
          "type": "string"
        }
      ],
      "name": "addMaintenance",
      "outputs": [],
      "stateMutability": "nonpayable",
      "type": "function"
    },
    {
      "inputs": [
        {
          "internalType": "uint256",
          "name": "_tokenId",
          "type": "uint256"
        }
      ],
      "name": "getMaintenances",
      "outputs": [
        {
          "components": [
            {
              "internalType": "uint256",
              "name": "date",
              "type": "uint256"
            },
            {
              "internalType": "uint256",
              "name": "kilometers",
              "type": "uint256"
            },
            {
              "internalType": "enum CarBlocks.MaintenanceType",
              "name": "mType",
              "type": "uint8"
            },
            {
              "internalType": "string",
              "name": "maintenanceURI",
              "type": "string"
            }
          ],
          "internalType": "struct CarBlocks.Maintenance[]",
          "name": "",
          "type": "tuple[]"
        }
      ],
      "stateMutability": "view",
      "type": "function"
    },
    {
      "inputs": [
        {
          "internalType": "address",
          "name": "_user",
          "type": "address"
        },
        {
          "internalType": "uint256",
          "name": "_circulationStartDate",
          "type": "uint256"
        },
        {
          "internalType": "string[]",
          "name": "_vInfo",
          "type": "string[]"
        },
        {
          "internalType": "enum CarBlocks.CarState",
          "name": "_state",
          "type": "uint8"
        },
        {
          "internalType": "bool",
          "name": "_isForSale",
          "type": "bool"
        }
      ],
      "name": "mintCarblock",
      "outputs": [
        {
          "internalType": "uint256",
          "name": "",
          "type": "uint256"
        }
      ],
      "stateMutability": "nonpayable",
      "type": "function"
    },
    {
      "inputs": [
        {
          "internalType": "uint256",
          "name": "_tokenId",
          "type": "uint256"
        },
        {
          "internalType": "uint256",
          "name": "_price",
          "type": "uint256"
        }
      ],
      "name": "makeOffer",
      "outputs": [],
      "stateMutability": "nonpayable",
      "type": "function"
    },
    {
      "inputs": [
        {
          "internalType": "uint256",
          "name": "_tokenId",
          "type": "uint256"
        }
      ],
      "name": "getOffers",
      "outputs": [
        {
          "components": [
            {
              "internalType": "uint256",
              "name": "price",
              "type": "uint256"
            },
            {
              "internalType": "address",
              "name": "user",
              "type": "address"
            }
          ],
          "internalType": "struct CarBlocks.Offer[]",
          "name": "",
          "type": "tuple[]"
        }
      ],
      "stateMutability": "view",
      "type": "function"
    },
    {
      "inputs": [
        {
          "internalType": "uint256",
          "name": "_tokenId",
          "type": "uint256"
        },
        {
          "internalType": "address",
          "name": "_bider",
          "type": "address"
        }
      ],
      "name": "rejectOffer",
      "outputs": [],
      "stateMutability": "nonpayable",
      "type": "function"
    },
    {
      "inputs": [
        {
          "internalType": "uint256",
          "name": "_tokenId",
          "type": "uint256"
        }
      ],
      "name": "hasMadeOffer",
      "outputs": [
        {
          "internalType": "bool",
          "name": "",
          "type": "bool"
        }
      ],
      "stateMutability": "view",
      "type": "function"
    },
    {
      "inputs": [
        {
          "internalType": "uint256",
          "name": "_tokenId",
          "type": "uint256"
        },
        {
          "internalType": "address",
          "name": "_bider",
          "type": "address"
        }
      ],
      "name": "acceptOffer",
      "outputs": [],
      "stateMutability": "payable",
      "type": "function"
    }
  ],
  "bytecode": "0x60806040523480156200001157600080fd5b5060405162003628380380620036288339810160408190526200003491620000c2565b60405180604001604052806008815260200167436172426c6f636b60c01b8152506040518060400160405280600381526020016243424b60e81b815250816000908162000082919062000226565b50600162000091828262000226565b5060089150620000a49050828262000226565b5050620002f2565b634e487b7160e01b600052604160045260246000fd5b60006020808385031215620000d657600080fd5b82516001600160401b0380821115620000ee57600080fd5b818501915085601f8301126200010357600080fd5b815181811115620001185762000118620000ac565b604051601f8201601f19908116603f01168101908382118183101715620001435762000143620000ac565b8160405282815288868487010111156200015c57600080fd5b600093505b8284101562000180578484018601518185018701529285019262000161565b600086848301015280965050505050505092915050565b600181811c90821680620001ac57607f821691505b602082108103620001cd57634e487b7160e01b600052602260045260246000fd5b50919050565b601f8211156200022157600081815260208120601f850160051c81016020861015620001fc5750805b601f850160051c820191505b818110156200021d5782815560010162000208565b5050505b505050565b81516001600160401b03811115620002425762000242620000ac565b6200025a8162000253845462000197565b84620001d3565b602080601f831160018114620002925760008415620002795750858301515b600019600386901b1c1916600185901b1785556200021d565b600085815260208120601f198616915b82811015620002c357888601518255948401946001909101908401620002a2565b5085821015620002e25787850151600019600388901b60f8161c191681555b5050505050600190811b01905550565b61332680620003026000396000f3fe6080604052600436106101815760003560e01c8063918d407d116100d1578063b88d4fde1161008a578063dfa49e6f11610064578063dfa49e6f1461047e578063e985e9c5146104ab578063eff2ef7b146104cb578063f7d97577146104e057600080fd5b8063b88d4fde1461041e578063c87b56dd1461043e578063db9371c21461045e57600080fd5b8063918d407d1461035c57806395d89b411461036f57806397d1a88d14610384578063a1481709146103a4578063a22cb465146103d1578063a8237901146103f157600080fd5b8063095ea7b31161013e57806350c9496a1161011857806350c9496a146102e55780636352211e146102fa57806370a082311461031a5780638d16a7951461033a57600080fd5b8063095ea7b31461028557806323b872dd146102a557806342842e0e146102c557600080fd5b806301ffc9a71461018657806305604026146101bb57806305b7cdd3146101dd57806306fdde03146101fd57806307dd094f1461021f578063081812fc1461024d575b600080fd5b34801561019257600080fd5b506101a66101a13660046128d3565b610500565b60405190151581526020015b60405180910390f35b3480156101c757600080fd5b506101db6101d63660046128f0565b610552565b005b3480156101e957600080fd5b506101db6101f8366004612995565b610684565b34801561020957600080fd5b5061021261073c565b6040516101b29190612a07565b34801561022b57600080fd5b5061023f61023a366004612a55565b6107ce565b6040519081526020016101b2565b34801561025957600080fd5b5061026d610268366004612b05565b610ac3565b6040516001600160a01b0390911681526020016101b2565b34801561029157600080fd5b506101db6102a0366004612b1e565b610aea565b3480156102b157600080fd5b506101db6102c0366004612b48565b610bff565b3480156102d157600080fd5b506101db6102e0366004612b48565b610c30565b3480156102f157600080fd5b50610212610c4b565b34801561030657600080fd5b5061026d610315366004612b05565b610cd9565b34801561032657600080fd5b5061023f610335366004612b84565b610d39565b34801561034657600080fd5b5061034f610dbf565b6040516101b29190612c62565b6101db61036a366004612cc4565b611102565b34801561037b57600080fd5b50610212611127565b34801561039057600080fd5b506101a661039f366004612b05565b611136565b3480156103b057600080fd5b506103c46103bf366004612b05565b6111b9565b6040516101b29190612cf0565b3480156103dd57600080fd5b506101db6103ec366004612d03565b61146b565b3480156103fd57600080fd5b5061041161040c366004612b05565b611476565b6040516101b29190612d2d565b34801561042a57600080fd5b506101db610439366004612ddd565b6115f8565b34801561044a57600080fd5b50610212610459366004612b05565b611630565b34801561046a57600080fd5b506101db610479366004612cc4565b611740565b34801561048a57600080fd5b5061049e610499366004612b05565b6118d9565b6040516101b29190612eb9565b3480156104b757600080fd5b506101a66104c6366004612f11565b611986565b3480156104d757600080fd5b5061034f6119b4565b3480156104ec57600080fd5b506101db6104fb366004612995565b611cfe565b60006001600160e01b031982166380ac58cd60e01b148061053157506001600160e01b03198216635b5e139f60e01b145b8061054c57506301ffc9a760e01b6001600160e01b03198316145b92915050565b8561055c81610cd9565b6001600160a01b0316336001600160a01b0316146105955760405162461bcd60e51b815260040161058c90612f3b565b60405180910390fd5b600b600088815260200190815260200160002060405180608001604052808881526020018681526020018760038111156105d1576105d1612b9f565b815260200185858080601f0160208091040260200160405190810160405280939291908181526020018383808284376000920182905250939094525050835460018181018655948252602091829020845160049092020190815590830151818501556040830151600282018054949592949193509160ff199091169083600381111561065f5761065f612b9f565b0217905550606082015160038201906106789082612ff4565b50505050505050505050565b6000828152600c6020526040902054600a116106db5760405162461bcd60e51b815260206004820152601660248201527508ae4e47440626040decccccae4e65e9c8ca840dac2f60531b604482015260640161058c565b6000918252600c602090815260408084208151808301909252928152338183019081528354600180820186559486529290942090516002909202019081559151910180546001600160a01b0319166001600160a01b03909216919091179055565b60606000805461074b90612f72565b80601f016020809104026020016040519081016040528092919081815260200182805461077790612f72565b80156107c45780601f10610799576101008083540402835291602001916107c4565b820191906000526020600020905b8154815290600101906020018083116107a757829003601f168201915b5050505050905090565b60006107de600780546001019055565b60096040518060a001604052806107f460075490565b815260200185600281111561080b5761080b612b9f565b815260200160405180608001604052808a815260200189896000818110610834576108346130b4565b905060200281019061084691906130ca565b8080601f01602080910402602001604051908101604052809392919081815260200183838082843760009201919091525050509082525060200189896001818110610893576108936130b4565b90506020028101906108a591906130ca565b8080601f016020809104026020016040519081016040528093929190818152602001838380828437600092019190915250505090825250602001898960028181106108f2576108f26130b4565b905060200281019061090491906130ca565b8080601f0160208091040260200160405190810160405280939291908181526020018383808284376000920182905250939094525050918352506020808301829052861515604090930192909252835460018181018655948252908290208351600890920201908155908201518184018054939492939192909160ff19169083600281111561099557610995612b9f565b02179055506040820151805160028301908155602082015160038401906109bc9082612ff4565b50604082015160028201906109d19082612ff4565b50606082015160038201906109e69082612ff4565b505050606082015160068201556080909101516007918201805460ff191691151591909117905554610a19908890611daf565b610a84610a2560075490565b86866003818110610a3857610a386130b4565b9050602002810190610a4a91906130ca565b8080601f016020809104026020016040519081016040528093929190818152602001838380828437600092019190915250611f4892505050565b6001600160a01b0387166000908152600a6020526040902060075481546001810183556000928352602090922090910155600754979650505050505050565b6000610ace82611fdb565b506000908152600460205260409020546001600160a01b031690565b6000610af582610cd9565b9050806001600160a01b0316836001600160a01b031603610b625760405162461bcd60e51b815260206004820152602160248201527f4552433732313a20617070726f76616c20746f2063757272656e74206f776e656044820152603960f91b606482015260840161058c565b336001600160a01b0382161480610b7e5750610b7e8133611986565b610bf05760405162461bcd60e51b815260206004820152603d60248201527f4552433732313a20617070726f76652063616c6c6572206973206e6f7420746f60448201527f6b656e206f776e6572206f7220617070726f76656420666f7220616c6c000000606482015260840161058c565b610bfa838361203d565b505050565b610c0933826120ab565b610c255760405162461bcd60e51b815260040161058c90613118565b610bfa838383612109565b610bfa838383604051806020016040528060008152506115f8565b60088054610c5890612f72565b80601f0160208091040260200160405190810160405280929190818152602001828054610c8490612f72565b8015610cd15780601f10610ca657610100808354040283529160200191610cd1565b820191906000526020600020905b815481529060010190602001808311610cb457829003601f168201915b505050505081565b6000818152600260205260408120546001600160a01b03168061054c5760405162461bcd60e51b8152602060048201526018602482015277115490cdcc8c4e881a5b9d985b1a59081d1bdad95b88125160421b604482015260640161058c565b60006001600160a01b038216610da35760405162461bcd60e51b815260206004820152602960248201527f4552433732313a2061646472657373207a65726f206973206e6f7420612076616044820152683634b21037bbb732b960b91b606482015260840161058c565b506001600160a01b031660009081526003602052604090205490565b60095460609060009067ffffffffffffffff811115610de057610de0612dc7565b604051908082528060200260200182016040528015610e1957816020015b610e0661281d565b815260200190600190039081610dfe5790505b5090506000805b6009548110156110fa5760098181548110610e3d57610e3d6130b4565b600091825260209091206007600890920201015460ff1615156001036110e85760098181548110610e7057610e706130b4565b90600052602060002090600802016040518060a0016040529081600082015481526020016001820160009054906101000a900460ff166002811115610eb757610eb7612b9f565b6002811115610ec857610ec8612b9f565b81526020016002820160405180608001604052908160008201548152602001600182018054610ef690612f72565b80601f0160208091040260200160405190810160405280929190818152602001828054610f2290612f72565b8015610f6f5780601f10610f4457610100808354040283529160200191610f6f565b820191906000526020600020905b815481529060010190602001808311610f5257829003601f168201915b50505050508152602001600282018054610f8890612f72565b80601f0160208091040260200160405190810160405280929190818152602001828054610fb490612f72565b80156110015780601f10610fd657610100808354040283529160200191611001565b820191906000526020600020905b815481529060010190602001808311610fe457829003601f168201915b5050505050815260200160038201805461101a90612f72565b80601f016020809104026020016040519081016040528092919081815260200182805461104690612f72565b80156110935780601f1061106857610100808354040283529160200191611093565b820191906000526020600020905b81548152906001019060200180831161107657829003601f168201915b5050509190925250505081526006820154602082015260079091015460ff16151560409091015283518490849081106110ce576110ce6130b4565b602002602001018190525081806110e49061317b565b9250505b806110f28161317b565b915050610e20565b509092915050565b61110c818361227a565b6000828152600c6020526040812061112391612876565b5050565b60606001805461074b90612f72565b6000805b6000838152600c60205260409020548110156111b0576000838152600c60205260409020805433919083908110611173576111736130b4565b60009182526020909120600160029092020101546001600160a01b03160361119e5750600192915050565b806111a88161317b565b91505061113a565b50600092915050565b6111c161281d565b816111cb81610cd9565b6001600160a01b0316336001600160a01b0316146111fb5760405162461bcd60e51b815260040161058c90612f3b565b6009611208600185613194565b81548110611218576112186130b4565b90600052602060002090600802016040518060a0016040529081600082015481526020016001820160009054906101000a900460ff16600281111561125f5761125f612b9f565b600281111561127057611270612b9f565b8152602001600282016040518060800160405290816000820154815260200160018201805461129e90612f72565b80601f01602080910402602001604051908101604052809291908181526020018280546112ca90612f72565b80156113175780601f106112ec57610100808354040283529160200191611317565b820191906000526020600020905b8154815290600101906020018083116112fa57829003601f168201915b5050505050815260200160028201805461133090612f72565b80601f016020809104026020016040519081016040528092919081815260200182805461135c90612f72565b80156113a95780601f1061137e576101008083540402835291602001916113a9565b820191906000526020600020905b81548152906001019060200180831161138c57829003601f168201915b505050505081526020016003820180546113c290612f72565b80601f01602080910402602001604051908101604052809291908181526020018280546113ee90612f72565b801561143b5780601f106114105761010080835404028352916020019161143b565b820191906000526020600020905b81548152906001019060200180831161141e57829003601f168201915b5050509190925250505081526006820154602082015260079091015460ff16151560409091015291505b50919050565b6111233383836123b3565b60608161148281610cd9565b6001600160a01b0316336001600160a01b0316146114b25760405162461bcd60e51b815260040161058c90612f3b565b6000838152600b6020908152604080832080548251818502810185019093528083529193909284015b828210156115ec578382906000526020600020906004020160405180608001604052908160008201548152602001600182015481526020016002820160009054906101000a900460ff16600381111561153657611536612b9f565b600381111561154757611547612b9f565b815260200160038201805461155b90612f72565b80601f016020809104026020016040519081016040528092919081815260200182805461158790612f72565b80156115d45780601f106115a9576101008083540402835291602001916115d4565b820191906000526020600020905b8154815290600101906020018083116115b757829003601f168201915b505050505081525050815260200190600101906114db565b50505050915050919050565b61160233836120ab565b61161e5760405162461bcd60e51b815260040161058c90613118565b61162a84848484612481565b50505050565b606061163b82611fdb565b6000828152600660205260408120805461165490612f72565b80601f016020809104026020016040519081016040528092919081815260200182805461168090612f72565b80156116cd5780601f106116a2576101008083540402835291602001916116cd565b820191906000526020600020905b8154815290600101906020018083116116b057829003601f168201915b5050505050905060006116eb60408051602081019091526000815290565b905080516000036116fd575092915050565b81511561172f5780826040516020016117179291906131a7565b60405160208183030381529060405292505050919050565b611738846124b4565b949350505050565b8161174a81610cd9565b6001600160a01b0316336001600160a01b03161461177a5760405162461bcd60e51b815260040161058c90612f3b565b60005b6000848152600c602052604090205481101561162a576000848152600c6020526040902080546001600160a01b0385169190839081106117bf576117bf6130b4565b60009182526020909120600160029092020101546001600160a01b0316036118c7576000848152600c6020526040902080546117fd90600190613194565b8154811061180d5761180d6130b4565b9060005260206000209060020201600c6000868152602001908152602001600020828154811061183f5761183f6130b4565b6000918252602080832084546002909302019182556001938401549390910180546001600160a01b0319166001600160a01b0390941693909317909255858152600c90915260409020805480611897576118976131d6565b60008281526020812060026000199093019283020190815560010180546001600160a01b0319169055905561162a565b806118d18161317b565b91505061177d565b6060816118e581610cd9565b6001600160a01b0316336001600160a01b0316146119155760405162461bcd60e51b815260040161058c90612f3b565b6000838152600c6020908152604080832080548251818502810185019093528083529193909284015b828210156115ec5760008481526020908190206040805180820190915260028502909101805482526001908101546001600160a01b031682840152908352909201910161193e565b6001600160a01b03918216600090815260056020908152604080832093909416825291909152205460ff1690565b336000908152600a60205260408120546060919067ffffffffffffffff8111156119e0576119e0612dc7565b604051908082528060200260200182016040528015611a1957816020015b611a0661281d565b8152602001906001900390816119fe5790505b50905060005b336000908152600a602052604090205481101561146557336000908152600a60205260409020805460099160019184908110611a5d57611a5d6130b4565b9060005260206000200154611a729190613194565b81548110611a8257611a826130b4565b90600052602060002090600802016040518060a0016040529081600082015481526020016001820160009054906101000a900460ff166002811115611ac957611ac9612b9f565b6002811115611ada57611ada612b9f565b81526020016002820160405180608001604052908160008201548152602001600182018054611b0890612f72565b80601f0160208091040260200160405190810160405280929190818152602001828054611b3490612f72565b8015611b815780601f10611b5657610100808354040283529160200191611b81565b820191906000526020600020905b815481529060010190602001808311611b6457829003601f168201915b50505050508152602001600282018054611b9a90612f72565b80601f0160208091040260200160405190810160405280929190818152602001828054611bc690612f72565b8015611c135780601f10611be857610100808354040283529160200191611c13565b820191906000526020600020905b815481529060010190602001808311611bf657829003601f168201915b50505050508152602001600382018054611c2c90612f72565b80601f0160208091040260200160405190810160405280929190818152602001828054611c5890612f72565b8015611ca55780601f10611c7a57610100808354040283529160200191611ca5565b820191906000526020600020905b815481529060010190602001808311611c8857829003601f168201915b5050509190925250505081526006820154602082015260079091015460ff1615156040909101528251839083908110611ce057611ce06130b4565b60200260200101819052508080611cf69061317b565b915050611a1f565b81611d0881610cd9565b6001600160a01b0316336001600160a01b031614611d385760405162461bcd60e51b815260040161058c90612f3b565b816009611d46600186613194565b81548110611d5657611d566130b4565b600091825260209091206006600890920201015560016009611d788286613194565b81548110611d8857611d886130b4565b60009182526020909120600890910201600701805460ff1916911515919091179055505050565b6001600160a01b038216611e055760405162461bcd60e51b815260206004820181905260248201527f4552433732313a206d696e7420746f20746865207a65726f2061646472657373604482015260640161058c565b6000818152600260205260409020546001600160a01b031615611e6a5760405162461bcd60e51b815260206004820152601c60248201527f4552433732313a20746f6b656e20616c7265616479206d696e74656400000000604482015260640161058c565b611e78600083836001612528565b6000818152600260205260409020546001600160a01b031615611edd5760405162461bcd60e51b815260206004820152601c60248201527f4552433732313a20746f6b656e20616c7265616479206d696e74656400000000604482015260640161058c565b6001600160a01b038216600081815260036020908152604080832080546001019055848352600290915280822080546001600160a01b0319168417905551839291907fddf252ad1be2c89b69c2b068fc378daa952ba7f163c4a11628f55a4df523b3ef908290a45050565b6000828152600260205260409020546001600160a01b0316611fc35760405162461bcd60e51b815260206004820152602e60248201527f45524337323155524953746f726167653a2055524920736574206f66206e6f6e60448201526d32bc34b9ba32b73a103a37b5b2b760911b606482015260840161058c565b6000828152600660205260409020610bfa8282612ff4565b6000818152600260205260409020546001600160a01b031661203a5760405162461bcd60e51b8152602060048201526018602482015277115490cdcc8c4e881a5b9d985b1a59081d1bdad95b88125160421b604482015260640161058c565b50565b600081815260046020526040902080546001600160a01b0319166001600160a01b038416908117909155819061207282610cd9565b6001600160a01b03167f8c5be1e5ebec7d5bd14f71427d1e84f3dd0314c0f7b2291e5b200ac8c7c3b92560405160405180910390a45050565b6000806120b783610cd9565b9050806001600160a01b0316846001600160a01b031614806120de57506120de8185611986565b806117385750836001600160a01b03166120f784610ac3565b6001600160a01b031614949350505050565b826001600160a01b031661211c82610cd9565b6001600160a01b0316146121425760405162461bcd60e51b815260040161058c906131ec565b6001600160a01b0382166121a45760405162461bcd60e51b8152602060048201526024808201527f4552433732313a207472616e7366657220746f20746865207a65726f206164646044820152637265737360e01b606482015260840161058c565b6121b18383836001612528565b826001600160a01b03166121c482610cd9565b6001600160a01b0316146121ea5760405162461bcd60e51b815260040161058c906131ec565b600081815260046020908152604080832080546001600160a01b03199081169091556001600160a01b0387811680865260038552838620805460001901905590871680865283862080546001019055868652600290945282852080549092168417909155905184937fddf252ad1be2c89b69c2b068fc378daa952ba7f163c4a11628f55a4df523b3ef91a4505050565b612285338383612109565b60005b336000908152600a602052604090205481101561238657336000908152600a602052604090208054839190839081106122c3576122c36130b4565b90600052602060002001540361237457336000908152600a6020526040902080546122f090600190613194565b81548110612300576123006130b4565b6000918252602080832090910154338352600a909152604090912080548390811061232d5761232d6130b4565b6000918252602080832090910192909255338152600a90915260409020805480612359576123596131d6565b60019003818190600052602060002001600090559055612386565b8061237e8161317b565b915050612288565b506001600160a01b039091166000908152600a602090815260408220805460018101825590835291200155565b816001600160a01b0316836001600160a01b0316036124145760405162461bcd60e51b815260206004820152601960248201527f4552433732313a20617070726f766520746f2063616c6c657200000000000000604482015260640161058c565b6001600160a01b03838116600081815260056020908152604080832094871680845294825291829020805460ff191686151590811790915591519182527f17307eab39ab6107e8899845ad3d59bd9653f200f220920489ca2b5937696c31910160405180910390a3505050565b61248c848484612109565b612498848484846125b0565b61162a5760405162461bcd60e51b815260040161058c90613231565b60606124bf82611fdb565b60006124d660408051602081019091526000815290565b905060008151116124f65760405180602001604052806000815250612521565b80612500846126b1565b6040516020016125119291906131a7565b6040516020818303038152906040525b9392505050565b600181111561162a576001600160a01b0384161561256e576001600160a01b03841660009081526003602052604081208054839290612568908490613194565b90915550505b6001600160a01b0383161561162a576001600160a01b038316600090815260036020526040812080548392906125a5908490613283565b909155505050505050565b60006001600160a01b0384163b156126a657604051630a85bd0160e11b81526001600160a01b0385169063150b7a02906125f4903390899088908890600401613296565b6020604051808303816000875af192505050801561262f575060408051601f3d908101601f1916820190925261262c918101906132d3565b60015b61268c573d80801561265d576040519150601f19603f3d011682016040523d82523d6000602084013e612662565b606091505b5080516000036126845760405162461bcd60e51b815260040161058c90613231565b805181602001fd5b6001600160e01b031916630a85bd0160e11b149050611738565b506001949350505050565b606060006126be83612745565b600101905060008167ffffffffffffffff8111156126de576126de612dc7565b6040519080825280601f01601f191660200182016040528015612708576020820181803683370190505b5090508181016020015b600019016f181899199a1a9b1b9c1cb0b131b232b360811b600a86061a8153600a8504945084612712575b509392505050565b60008072184f03e93ff9f4daa797ed6e38ed64bf6a1f0160401b83106127845772184f03e93ff9f4daa797ed6e38ed64bf6a1f0160401b830492506040015b6d04ee2d6d415b85acef810000000083106127b0576d04ee2d6d415b85acef8100000000830492506020015b662386f26fc1000083106127ce57662386f26fc10000830492506010015b6305f5e10083106127e6576305f5e100830492506008015b61271083106127fa57612710830492506004015b6064831061280c576064830492506002015b600a831061054c5760010192915050565b6040805160a081019091526000808252602082019081526020016128626040518060800160405280600081526020016060815260200160608152602001606081525090565b815260006020820181905260409091015290565b508054600082556002029060005260206000209081019061203a91905b808211156128b957600081556001810180546001600160a01b0319169055600201612893565b5090565b6001600160e01b03198116811461203a57600080fd5b6000602082840312156128e557600080fd5b8135612521816128bd565b60008060008060008060a0878903121561290957600080fd5b863595506020870135945060408701356004811061292657600080fd5b935060608701359250608087013567ffffffffffffffff8082111561294a57600080fd5b818901915089601f83011261295e57600080fd5b81358181111561296d57600080fd5b8a602082850101111561297f57600080fd5b6020830194508093505050509295509295509295565b600080604083850312156129a857600080fd5b50508035926020909101359150565b60005b838110156129d25781810151838201526020016129ba565b50506000910152565b600081518084526129f38160208601602086016129b7565b601f01601f19169290920160200192915050565b60208152600061252160208301846129db565b80356001600160a01b0381168114612a3157600080fd5b919050565b803560038110612a3157600080fd5b80358015158114612a3157600080fd5b60008060008060008060a08789031215612a6e57600080fd5b612a7787612a1a565b955060208701359450604087013567ffffffffffffffff80821115612a9b57600080fd5b818901915089601f830112612aaf57600080fd5b813581811115612abe57600080fd5b8a60208260051b8501011115612ad357600080fd5b602083019650809550505050612aeb60608801612a36565b9150612af960808801612a45565b90509295509295509295565b600060208284031215612b1757600080fd5b5035919050565b60008060408385031215612b3157600080fd5b612b3a83612a1a565b946020939093013593505050565b600080600060608486031215612b5d57600080fd5b612b6684612a1a565b9250612b7460208501612a1a565b9150604084013590509250925092565b600060208284031215612b9657600080fd5b61252182612a1a565b634e487b7160e01b600052602160045260246000fd5b805182526000602082015160038110612bd057612bd0612b9f565b80602085015250604082015160a06040850152805160a08501526020810151608060c0860152612c046101208601826129db565b90506040820151609f19808784030160e0880152612c2283836129db565b92506060840151935080878403016101008801525050612c4281836129db565b91505060608301516060850152608083015161273d608086018215159052565b6000602080830181845280855180835260408601915060408160051b870101925083870160005b82811015612cb757603f19888603018452612ca5858351612bb5565b94509285019290850190600101612c89565b5092979650505050505050565b60008060408385031215612cd757600080fd5b82359150612ce760208401612a1a565b90509250929050565b6020815260006125216020830184612bb5565b60008060408385031215612d1657600080fd5b612d1f83612a1a565b9150612ce760208401612a45565b60006020808301818452808551808352604092508286019150828160051b87010184880160005b83811015612db957603f19898403018552815160808151855288820151898601528782015160048110612d8957612d89612b9f565b85890152606091820151918501819052612da5818601836129db565b968901969450505090860190600101612d54565b509098975050505050505050565b634e487b7160e01b600052604160045260246000fd5b60008060008060808587031215612df357600080fd5b612dfc85612a1a565b9350612e0a60208601612a1a565b925060408501359150606085013567ffffffffffffffff80821115612e2e57600080fd5b818701915087601f830112612e4257600080fd5b813581811115612e5457612e54612dc7565b604051601f8201601f19908116603f01168101908382118183101715612e7c57612e7c612dc7565b816040528281528a6020848701011115612e9557600080fd5b82602086016020830137600060208483010152809550505050505092959194509250565b602080825282518282018190526000919060409081850190868401855b82811015612f04578151805185528601516001600160a01b0316868501529284019290850190600101612ed6565b5091979650505050505050565b60008060408385031215612f2457600080fd5b612f2d83612a1a565b9150612ce760208401612a1a565b6020808252601b908201527f4572723a206e6f7420746865206f776e6572206f6620746f6b656e0000000000604082015260600190565b600181811c90821680612f8657607f821691505b60208210810361146557634e487b7160e01b600052602260045260246000fd5b601f821115610bfa57600081815260208120601f850160051c81016020861015612fcd5750805b601f850160051c820191505b81811015612fec57828155600101612fd9565b505050505050565b815167ffffffffffffffff81111561300e5761300e612dc7565b6130228161301c8454612f72565b84612fa6565b602080601f831160018114613057576000841561303f5750858301515b600019600386901b1c1916600185901b178555612fec565b600085815260208120601f198616915b8281101561308657888601518255948401946001909101908401613067565b50858210156130a45787850151600019600388901b60f8161c191681555b5050505050600190811b01905550565b634e487b7160e01b600052603260045260246000fd5b6000808335601e198436030181126130e157600080fd5b83018035915067ffffffffffffffff8211156130fc57600080fd5b60200191503681900382131561311157600080fd5b9250929050565b6020808252602d908201527f4552433732313a2063616c6c6572206973206e6f7420746f6b656e206f776e6560408201526c1c881bdc88185c1c1c9bdd9959609a1b606082015260800190565b634e487b7160e01b600052601160045260246000fd5b60006001820161318d5761318d613165565b5060010190565b8181038181111561054c5761054c613165565b600083516131b98184602088016129b7565b8351908301906131cd8183602088016129b7565b01949350505050565b634e487b7160e01b600052603160045260246000fd5b60208082526025908201527f4552433732313a207472616e736665722066726f6d20696e636f72726563742060408201526437bbb732b960d91b606082015260800190565b60208082526032908201527f4552433732313a207472616e7366657220746f206e6f6e20455243373231526560408201527131b2b4bb32b91034b6b83632b6b2b73a32b960711b606082015260800190565b8082018082111561054c5761054c613165565b6001600160a01b03858116825284166020820152604081018390526080606082018190526000906132c9908301846129db565b9695505050505050565b6000602082840312156132e557600080fd5b8151612521816128bd56fea2646970667358221220a758f6622fa65e1aa6dc5aab44d00c1c54de8fa95193429fb92a4c3752a79c0864736f6c63430008110033",
  "immutableReferences": {},
  "source": "// SPDX-License-Identifier: MIT\npragma solidity 0.8.17;\n\nimport \"../node_modules/@openzeppelin/contracts/token/ERC721/extensions/ERC721URIStorage.sol\";\nimport \"../node_modules/@openzeppelin/contracts/utils/Counters.sol\";\n\n/// @title The CarBlocks Smart Contract\n/// @author Quentin COLLETTE & Maxime LESBROS\n/// @notice Smart Contract allowing to manage NFT associated with cars\n/// @dev Stay away from this or you're facing sleep deprivation\ncontract CarBlocks is ERC721URIStorage {\n    using Counters for Counters.Counter;\n\n    /// @notice counter to increment id of carblock NFT\n    Counters.Counter private _tokenIds;\n\n    /// @notice this will differentiate the various collections (gasoline, diesel, hybrid...)\n    string public energyType;\n\n    /// @notice forcing the name and symbol for our Carblock token\n    string constant _name = \"CarBlock\";\n    string constant _symbol = \"CBK\";\n\n    /// @notice Defines the various states a car can be in\n    enum CarState {\n        circulation,\n        accident,\n        scrapped\n    }\n\n    /// @notice Defines the various maintenance types that can occur\n    enum MaintenanceType {\n        revision,\n        technicalControl,\n        partsChange,\n        tireChange\n    }\n\n    /// @notice Holds constant information about a Car\n    struct Car {\n        uint256 circulationStartDate;\n        string VIN;\n        string brand;\n        string model;\n    }\n\n    /// @notice Holds information linked to a maintenance operation\n    struct Maintenance {\n        uint256 date;\n        uint256 kilometers;\n        MaintenanceType mType;\n        string maintenanceURI;\n    }\n\n    /// @notice Defines the carblock NFT structure\n    struct Carblock {\n        uint256 tokenId;\n        CarState carState;\n        Car car;\n        uint256 price;\n        bool isForSale;\n    }\n\n    ///@notice Defines a way to store offers made by users\n    struct Offer {\n        uint256 price;\n        address user;\n    }\n\n    /// @notice Make sure contract caller is owner of _tokenId\n    modifier isNFTOwner(uint256 _tokenId) {\n        require(msg.sender == ownerOf(_tokenId), \"Err: not the owner of token\");\n        _;\n    }\n\n    /// @notice This array holds all the minted NFTs\n    Carblock[] private carblocksNFT;\n\n    //TODO : qui peut appeler _users ?\n    mapping(address => uint256[]) private _users; // address => [tokenID]\n    mapping(uint256 => Maintenance[]) private _allMaintenances; // tokenID => [Maintenance1, Maintenance2]\n    mapping(uint256 => Offer[]) private _allOffers; // tokenId => [{price, user}]\n\n    constructor(string memory _energyType) ERC721(_name, _symbol) {\n        energyType = _energyType;\n    }\n\n    /// @notice Retrieve NFT from token ID\n    /// @dev Get the Carblock struct with the NFT token ID\n    /// @param _tokenId NFT token ID\n    /// @return Carblock\n    function getCarblock(uint256 _tokenId)\n        external\n        view\n        isNFTOwner(_tokenId)\n        returns (Carblock memory)\n    {\n        return carblocksNFT[_tokenId - 1];\n    }\n\n    //TODO: accessible only to NFT owner ?\n    /// @notice Retrieve all NFTs of contract caller\n    /// @dev Get an array of Carblock struct with the NFT token ID\n    /// @return carblocks an array of carblock NFT\n    function getCarblocks() external view returns (Carblock[] memory) {\n        Carblock[] memory carblocks = new Carblock[](_users[msg.sender].length);\n\n        for (uint256 i = 0; i < _users[msg.sender].length; i++) {\n            carblocks[i] = carblocksNFT[_users[msg.sender][i] - 1];\n        }\n        return carblocks;\n    }\n\n    /// @notice Retrieve all NFTs that are for sale\n    /// @dev The returned array of Carblock might not be completely full\n    /// @return Carblock[] the list of carblocks NFT\n    function getCarblocksForSale() external view returns (Carblock[] memory) {\n        Carblock[] memory carblocksForSale = new Carblock[](\n            carblocksNFT.length\n        );\n        uint256 counter;\n        for (uint256 i = 0; i < carblocksNFT.length; i++) {\n            if (carblocksNFT[i].isForSale == true) {\n                carblocksForSale[counter] = carblocksNFT[i];\n                counter++;\n            }\n        }\n        return carblocksForSale;\n    }\n\n    /// @notice Allow NFT Owner to set a price for his car\n    /// @dev _\n    /// @param _tokenId NFT token ID\n    /// @param _price expected price\n    function setPrice(uint256 _tokenId, uint256 _price)\n        external\n        isNFTOwner(_tokenId)\n    {\n        carblocksNFT[_tokenId - 1].price = _price;\n        carblocksNFT[_tokenId - 1].isForSale = true;\n    }\n\n    /// @notice Add a new maintenance to a specific NFT\n    /// @dev After the maintenance file has been upload to IPFS call this method to update maintenanceURI\n    /// @param _tokenId NFT token ID\n    /// @param _date Date of maintenance\n    /// @param _mType Type of maintenance (enum)\n    /// @param _kilometers Total distance of the car at time of maintenance\n    /// @param _maintenanceURI URI of maintenance JSON file on IPFS\n    function addMaintenance(\n        uint256 _tokenId,\n        uint256 _date,\n        MaintenanceType _mType,\n        uint256 _kilometers,\n        string calldata _maintenanceURI\n    ) external isNFTOwner(_tokenId) {\n        _allMaintenances[_tokenId].push(\n            Maintenance(_date, _kilometers, _mType, _maintenanceURI)\n        );\n    }\n\n    /// @notice Get list of all maintenances done on a car from a NFT token ID\n    /// @dev Return an array of Maintenance struct\n    /// @param _tokenId NFT token ID\n    /// @return Maintenance[]\n    function getMaintenances(uint256 _tokenId)\n        external\n        view\n        isNFTOwner(_tokenId)\n        returns (Maintenance[] memory)\n    {\n        return _allMaintenances[_tokenId];\n    }\n\n    //TODO : check memory vs calldata\n    //TODO : payable\n    /// @notice Allow user to mint a new Carblock NFT\n    /// @dev We use _mint instead of _safeMint as we don't need to check if _user is a contract\n    /// @param _user address of the future owner of minted NFT\n    /// @param _circulationStartDate first circulation date of owner's car\n    /// @param _vInfo array with [VIN, brand, model, tokenURI] in this order\n    /// @param _state car's state (ENUM)\n    /// @param _isForSale wether the car is for sale\n    function mintCarblock(\n        address _user,\n        uint256 _circulationStartDate,\n        string[] calldata _vInfo,\n        CarState _state,\n        bool _isForSale\n    ) external returns (uint256) {\n        _tokenIds.increment(); // Increment NFT ID (starts at 0)\n\n        carblocksNFT.push(\n            Carblock(\n                _tokenIds.current(),\n                _state,\n                Car(_circulationStartDate, _vInfo[0], _vInfo[1], _vInfo[2]),\n                0,\n                _isForSale\n            )\n        );\n\n        //uint256 newTokenId = _tokenIds.current();\n        _mint(_user, _tokenIds.current());\n        _setTokenURI(_tokenIds.current(), _vInfo[3]);\n        _users[_user].push(_tokenIds.current());\n\n        return _tokenIds.current();\n    }\n\n    /** -- OFFERS MANAGEMENT --*/\n\n    /// @notice Allow user to make an offer for NFT\n    /// @dev Limit to 10 offers per NFT\n    /// @param _tokenId Token ID of NFT that user wants to purchase\n    /// @param _price price offer of user\n    function makeOffer(uint256 _tokenId, uint256 _price) external {\n        require(_allOffers[_tokenId].length < 10, \"Err: 10 offers/NFT max\");\n        _allOffers[_tokenId].push(Offer(_price, msg.sender));\n    }\n\n    /// @notice Allow user to retrieve all offers for a NFT\n    /// @dev Limit to 10 offers per NFT\n    /// @param _tokenId Token ID of NFT that user wants to purchase\n    /// @return allOffers an array of offers\n    function getOffers(uint256 _tokenId)\n        external\n        view\n        isNFTOwner(_tokenId)\n        returns (Offer[] memory)\n    {\n        return _allOffers[_tokenId];\n    }\n\n    /// @notice Reject an offer\n    /// @dev Remove offer of _bider from allOffers\n    /// @param _tokenId of offer to reject\n    /// @param _bider address of user who made the offer\n    function rejectOffer(uint256 _tokenId, address _bider)\n        external\n        isNFTOwner(_tokenId)\n    {\n        for (uint256 i = 0; i < _allOffers[_tokenId].length; i++) {\n            if (_allOffers[_tokenId][i].user == _bider) {\n                // We switch with the last element in array\n                _allOffers[_tokenId][i] = _allOffers[_tokenId][\n                    _allOffers[_tokenId].length - 1\n                ];\n                _allOffers[_tokenId].pop();\n                break;\n            }\n        }\n    }\n\n    /// @notice Check if user has made an offer on NFT\n    /// @param _tokenId NFT token ID\n    /// @return bool true if contract caller has already made an offer\n    function hasMadeOffer(uint256 _tokenId) external view returns (bool) {\n        for (uint256 i = 0; i < _allOffers[_tokenId].length; i++) {\n            if (_allOffers[_tokenId][i].user == msg.sender) {\n                return true;\n            }\n        }\n        return false;\n    }\n\n    /// @notice Accept an offer and transfer NFT to bider\n    /// @dev Delete all offers in _allOffers and call transfertCarblockNFT\n    /// @param _tokenId NFT token ID\n    /// @param _bider user that made the accepted offer\n    function acceptOffer(uint256 _tokenId, address _bider) external payable {\n        transferCarblockNFT(_bider, _tokenId);\n        delete _allOffers[_tokenId];\n    }\n\n    /** - OFFERS MANAGEMENT - */\n\n    //TODO : check visibility\n    /// @notice Transfer a NFT when an owner is selling his vehicle to new owner\n    /// @dev Uses _transfer to update owner and update the '_users' mapping (don't need _safeTransfer for same reason as _safeMint)\n    /// @param _to address of the new NFT owner\n    /// @param _tokenId Token ID of NFT to transfer\n    function transferCarblockNFT(address _to, uint256 _tokenId) internal {\n        _transfer(msg.sender, _to, _tokenId);\n\n        for (uint256 i = 0; i < _users[msg.sender].length; i++) {\n            if (_users[msg.sender][i] == _tokenId) {\n                // We switch with the last element of array\n                _users[msg.sender][i] = _users[msg.sender][\n                    _users[msg.sender].length - 1\n                ];\n                _users[msg.sender].pop();\n                break;\n            }\n        }\n        _users[_to].push(_tokenId);\n    }\n}\n",
  "sourcePath": "/home/mlazzje/projects/alyra/CarBlocks/truffle/contracts/CarBlocks.sol",
  "compiler": {
    "name": "solc",
    "version": "0.8.17+commit.8df45f5f.Emscripten.clang"
  },
  "schemaVersion": "3.4.10",
  "updatedAt": "2022-12-10T22:53:05.054Z",
  "devdoc": {
    "author": "Quentin COLLETTE & Maxime LESBROS",
    "details": "Stay away from this or you're facing sleep deprivation",
    "kind": "dev",
    "methods": {
      "acceptOffer(uint256,address)": {
        "details": "Delete all offers in _allOffers and call transfertCarblockNFT",
        "params": {
          "_bider": "user that made the accepted offer",
          "_tokenId": "NFT token ID"
        }
      },
      "addMaintenance(uint256,uint256,uint8,uint256,string)": {
        "details": "After the maintenance file has been upload to IPFS call this method to update maintenanceURI",
        "params": {
          "_date": "Date of maintenance",
          "_kilometers": "Total distance of the car at time of maintenance",
          "_mType": "Type of maintenance (enum)",
          "_maintenanceURI": "URI of maintenance JSON file on IPFS",
          "_tokenId": "NFT token ID"
        }
      },
      "approve(address,uint256)": {
        "details": "See {IERC721-approve}."
      },
      "balanceOf(address)": {
        "details": "See {IERC721-balanceOf}."
      },
      "getApproved(uint256)": {
        "details": "See {IERC721-getApproved}."
      },
      "getCarblock(uint256)": {
        "details": "Get the Carblock struct with the NFT token ID",
        "params": {
          "_tokenId": "NFT token ID"
        },
        "returns": {
          "_0": "Carblock"
        }
      },
      "getCarblocks()": {
        "details": "Get an array of Carblock struct with the NFT token ID",
        "returns": {
          "_0": "carblocks an array of carblock NFT"
        }
      },
      "getCarblocksForSale()": {
        "details": "The returned array of Carblock might not be completely full",
        "returns": {
          "_0": "Carblock[] the list of carblocks NFT"
        }
      },
      "getMaintenances(uint256)": {
        "details": "Return an array of Maintenance struct",
        "params": {
          "_tokenId": "NFT token ID"
        },
        "returns": {
          "_0": "Maintenance[]"
        }
      },
      "getOffers(uint256)": {
        "details": "Limit to 10 offers per NFT",
        "params": {
          "_tokenId": "Token ID of NFT that user wants to purchase"
        },
        "returns": {
          "_0": "allOffers an array of offers"
        }
      },
      "hasMadeOffer(uint256)": {
        "params": {
          "_tokenId": "NFT token ID"
        },
        "returns": {
          "_0": "bool true if contract caller has already made an offer"
        }
      },
      "isApprovedForAll(address,address)": {
        "details": "See {IERC721-isApprovedForAll}."
      },
      "makeOffer(uint256,uint256)": {
        "details": "Limit to 10 offers per NFT",
        "params": {
          "_price": "price offer of user",
          "_tokenId": "Token ID of NFT that user wants to purchase"
        }
      },
      "mintCarblock(address,uint256,string[],uint8,bool)": {
        "details": "We use _mint instead of _safeMint as we don't need to check if _user is a contract",
        "params": {
          "_circulationStartDate": "first circulation date of owner's car",
          "_isForSale": "wether the car is for sale",
          "_state": "car's state (ENUM)",
          "_user": "address of the future owner of minted NFT",
          "_vInfo": "array with [VIN, brand, model, tokenURI] in this order"
        }
      },
      "name()": {
        "details": "See {IERC721Metadata-name}."
      },
      "ownerOf(uint256)": {
        "details": "See {IERC721-ownerOf}."
      },
      "rejectOffer(uint256,address)": {
        "details": "Remove offer of _bider from allOffers",
        "params": {
          "_bider": "address of user who made the offer",
          "_tokenId": "of offer to reject"
        }
      },
      "safeTransferFrom(address,address,uint256)": {
        "details": "See {IERC721-safeTransferFrom}."
      },
      "safeTransferFrom(address,address,uint256,bytes)": {
        "details": "See {IERC721-safeTransferFrom}."
      },
      "setApprovalForAll(address,bool)": {
        "details": "See {IERC721-setApprovalForAll}."
      },
      "setPrice(uint256,uint256)": {
        "details": "_",
        "params": {
          "_price": "expected price",
          "_tokenId": "NFT token ID"
        }
      },
      "supportsInterface(bytes4)": {
        "details": "See {IERC165-supportsInterface}."
      },
      "symbol()": {
        "details": "See {IERC721Metadata-symbol}."
      },
      "tokenURI(uint256)": {
        "details": "See {IERC721Metadata-tokenURI}."
      },
      "transferFrom(address,address,uint256)": {
        "details": "See {IERC721-transferFrom}."
      }
    },
    "title": "The CarBlocks Smart Contract",
    "version": 1
  },
  "userdoc": {
    "kind": "user",
    "methods": {
      "acceptOffer(uint256,address)": {
        "notice": "Accept an offer and transfer NFT to bider"
      },
      "addMaintenance(uint256,uint256,uint8,uint256,string)": {
        "notice": "Add a new maintenance to a specific NFT"
      },
      "energyType()": {
        "notice": "this will differentiate the various collections (gasoline, diesel, hybrid...)"
      },
      "getCarblock(uint256)": {
        "notice": "Retrieve NFT from token ID"
      },
      "getCarblocks()": {
        "notice": "Retrieve all NFTs of contract caller"
      },
      "getCarblocksForSale()": {
        "notice": "Retrieve all NFTs that are for sale"
      },
      "getMaintenances(uint256)": {
        "notice": "Get list of all maintenances done on a car from a NFT token ID"
      },
      "getOffers(uint256)": {
        "notice": "Allow user to retrieve all offers for a NFT"
      },
      "hasMadeOffer(uint256)": {
        "notice": "Check if user has made an offer on NFT"
      },
      "makeOffer(uint256,uint256)": {
        "notice": "Allow user to make an offer for NFT"
      },
      "mintCarblock(address,uint256,string[],uint8,bool)": {
        "notice": "Allow user to mint a new Carblock NFT"
      },
      "rejectOffer(uint256,address)": {
        "notice": "Reject an offer"
      },
      "setPrice(uint256,uint256)": {
        "notice": "Allow NFT Owner to set a price for his car"
      }
    },
    "notice": "Smart Contract allowing to manage NFT associated with cars",
    "version": 1
  }
}