{
  "contractName": "SocialNetwork",
  "abi": [
    {
      "inputs": [
        {
          "internalType": "uint256",
          "name": "_tokenId",
          "type": "uint256"
        },
        {
          "internalType": "uint256",
          "name": "_price",
          "type": "uint256"
        }
      ],
      "name": "makeOffer",
      "outputs": [],
      "stateMutability": "nonpayable",
      "type": "function"
    },
    {
      "inputs": [
        {
          "internalType": "uint256",
          "name": "_tokenId",
          "type": "uint256"
        },
        {
          "internalType": "address",
          "name": "_bider",
          "type": "address"
        }
      ],
      "name": "rejectOffer",
      "outputs": [],
      "stateMutability": "nonpayable",
      "type": "function"
    },
    {
      "inputs": [
        {
          "internalType": "uint256",
          "name": "_tokenId",
          "type": "uint256"
        },
        {
          "internalType": "address",
          "name": "_bider",
          "type": "address"
        }
      ],
      "name": "acceptOffer",
      "outputs": [],
      "stateMutability": "nonpayable",
      "type": "function"
    },
    {
      "inputs": [
        {
          "internalType": "uint256",
          "name": "_tokenId",
          "type": "uint256"
        }
      ],
      "name": "hasMadeOffer",
      "outputs": [
        {
          "internalType": "bool",
          "name": "",
          "type": "bool"
        }
      ],
      "stateMutability": "view",
      "type": "function",
      "constant": true
    }
  ],
  "bytecode": "0x608060405234801561001057600080fd5b506108cd806100206000396000f3fe608060405234801561001057600080fd5b506004361061004c5760003560e01c806305b7cdd314610051578063918d407d1461006d57806397d1a88d14610089578063db9371c2146100b9575b600080fd5b61006b600480360381019061006691906105aa565b6100d5565b005b61008760048036038101906100829190610648565b6101ea565b005b6100a3600480360381019061009e9190610688565b61020c565b6040516100b091906106d0565b60405180910390f35b6100d360048036038101906100ce9190610648565b6102e1565b005b600a600080848152602001908152602001600020805490501061012d576040517f08c379a00000000000000000000000000000000000000000000000000000000081526004016101249061076e565b60405180910390fd5b60008083815260200190815260200160002060405180604001604052808381526020013373ffffffffffffffffffffffffffffffffffffffff1681525090806001815401808255809150506001900390600052602060002090600202016000909190919091506000820151816000015560208201518160010160006101000a81548173ffffffffffffffffffffffffffffffffffffffff021916908373ffffffffffffffffffffffffffffffffffffffff16021790555050505050565b60008083815260200190815260200160002060006102089190610505565b5050565b600080600090505b600080848152602001908152602001600020805490508110156102d6573373ffffffffffffffffffffffffffffffffffffffff16600080858152602001908152602001600020828154811061026c5761026b61078e565b5b906000526020600020906002020160010160009054906101000a900473ffffffffffffffffffffffffffffffffffffffff1673ffffffffffffffffffffffffffffffffffffffff16036102c35760019150506102dc565b80806102ce906107ec565b915050610214565b50600090505b919050565b60005b60008084815260200190815260200160002080549050811015610500578173ffffffffffffffffffffffffffffffffffffffff16600080858152602001908152602001600020828154811061033c5761033b61078e565b5b906000526020600020906002020160010160009054906101000a900473ffffffffffffffffffffffffffffffffffffffff1673ffffffffffffffffffffffffffffffffffffffff16036104ed576000808481526020019081526020016000206001600080868152602001908152602001600020805490506103bd9190610834565b815481106103ce576103cd61078e565b5b90600052602060002090600202016000808581526020019081526020016000208281548110610400576103ff61078e565b5b9060005260206000209060020201600082015481600001556001820160009054906101000a900473ffffffffffffffffffffffffffffffffffffffff168160010160006101000a81548173ffffffffffffffffffffffffffffffffffffffff021916908373ffffffffffffffffffffffffffffffffffffffff1602179055509050506000808481526020019081526020016000208054806104a4576104a3610868565b5b60019003818190600052602060002090600202016000808201600090556001820160006101000a81549073ffffffffffffffffffffffffffffffffffffffff0219169055505090555b80806104f8906107ec565b9150506102e4565b505050565b50805460008255600202906000526020600020908101906105269190610529565b50565b5b8082111561056b576000808201600090556001820160006101000a81549073ffffffffffffffffffffffffffffffffffffffff02191690555060020161052a565b5090565b600080fd5b6000819050919050565b61058781610574565b811461059257600080fd5b50565b6000813590506105a48161057e565b92915050565b600080604083850312156105c1576105c061056f565b5b60006105cf85828601610595565b92505060206105e085828601610595565b9150509250929050565b600073ffffffffffffffffffffffffffffffffffffffff82169050919050565b6000610615826105ea565b9050919050565b6106258161060a565b811461063057600080fd5b50565b6000813590506106428161061c565b92915050565b6000806040838503121561065f5761065e61056f565b5b600061066d85828601610595565b925050602061067e85828601610633565b9150509250929050565b60006020828403121561069e5761069d61056f565b5b60006106ac84828501610595565b91505092915050565b60008115159050919050565b6106ca816106b5565b82525050565b60006020820190506106e560008301846106c1565b92915050565b600082825260208201905092915050565b7f4572726f72203a20757365722068617320616c7265616479207265636569766560008201527f64203130206f6666657273000000000000000000000000000000000000000000602082015250565b6000610758602b836106eb565b9150610763826106fc565b604082019050919050565b600060208201905081810360008301526107878161074b565b9050919050565b7f4e487b7100000000000000000000000000000000000000000000000000000000600052603260045260246000fd5b7f4e487b7100000000000000000000000000000000000000000000000000000000600052601160045260246000fd5b60006107f782610574565b91507fffffffffffffffffffffffffffffffffffffffffffffffffffffffffffffffff8203610829576108286107bd565b5b600182019050919050565b600061083f82610574565b915061084a83610574565b9250828203905081811115610862576108616107bd565b5b92915050565b7f4e487b7100000000000000000000000000000000000000000000000000000000600052603160045260246000fdfea26469706673582212203c62cf5c287c624a6a6f0eb428dd1ff86753587def885a45ef8cbc13ba781d5164736f6c63430008110033",
  "immutableReferences": {},
  "source": "// SPDX-License-Identifier: MIT\npragma solidity 0.8.17;\n\n/// @title The SocialNetwork Smart Contract for CarBlocks\n/// @author Quentin COLLETTE & Maxime LESBROS\n/// @notice Smart Contract allowing users to interact with each others\n/// @dev Stay away from this or you're facing sleep deprivation\ncontract SocialNetwork {\n    /*TODO:\n- stocker les utilisateurs\n- poster un commentaire sur une fiche vhicule (les commentaires sont lis  une fiche)\n- noter un vhicule correspondant  un NFT que l'utilisateur possde (marque+modle) (les notes sont lis  une fiche)\n-- stocker des commentaires\n- envoyer un message  un utilisateur (messages li  une offre)\n- envoyer une offre  un utilisateur (lie  un NFT en vente)\n\n */\n\n    struct Message {\n        uint256 timestamp;\n        address author;\n        string content;\n    }\n\n    /* uint256 price, address user, uint256 tokenId\n   partir du tokenId, je dois rcuprer le price et le user\n  tokenId peut avoir plusieurs offres\n  tokenId => [{price, user}]\n  - Faire une offre : pousser dans le tableau une nouvelle offre. Vrifier qu'une offre n'est pas dj existante\n  - Refuser une offre : supprimer l'offre dans le tableau\n  - Accepter l'offre : transfrer le token et remettre un tableau vide dans le mapping pour le tokenId\n   */\n    struct Offer {\n        uint256 price;\n        address user;\n    }\n    mapping(uint256 => Offer[]) private _allOffers; // tokenId => [{price, user}]\n\n    function makeOffer(uint256 _tokenId, uint256 _price) external {\n        require(\n            _allOffers[_tokenId].length < 10,\n            \"Error : user has already received 10 offers\"\n        );\n        _allOffers[_tokenId].push(Offer(_price, msg.sender));\n    }\n\n    function rejectOffer(uint256 _tokenId, address _bider) external {\n        //TODO: require OwnerOf(tokenId == msg.sender)\n\n        for (uint256 i = 0; i < _allOffers[_tokenId].length; i++) {\n            if (_allOffers[_tokenId][i].user == _bider) {\n                // We switch with the last element in array\n                _allOffers[_tokenId][i] = _allOffers[_tokenId][\n                    _allOffers[_tokenId].length - 1\n                ];\n                _allOffers[_tokenId].pop();\n            }\n        }\n    }\n\n    function acceptOffer(uint256 _tokenId, address _bider) external {\n        //TODO : transfer token to _bider\n        delete _allOffers[_tokenId];\n    }\n\n    function hasMadeOffer(uint256 _tokenId) external view returns (bool) {\n        for (uint256 i = 0; i < _allOffers[_tokenId].length; i++) {\n            if (_allOffers[_tokenId][i].user == msg.sender) {\n                return true;\n            }\n        }\n        return false;\n    }\n\n    /*\n    mapping(idCard => [Opinions])\n    id de card\n    string brand\nstring model\nstring photoURI\narray opinion */\n\n    /*function _getChatId(uint256 _tokenId, address _from, address _to) {\n        if(_from < _to)\n            return keccak256(abi.encodePacked(_from, _to));\n        else\n            return keccak256(abi.encodePacked(_to, _from));\n    }*/\n\n    /*\n    \n    mapping(bytes32 => []Message)\n    // concatener tokenId+hash1+hash2\n    function sendMessage(uint256 tokenId, address _to, string _content) {}\n    function getAllMessages(uint)\n     */\n}\n",
  "sourcePath": "/Users/quentin/Documents/Alyra/projects/CarBlocks/truffle/contracts/SocialNetwork.sol",
  "compiler": {
    "name": "solc",
    "version": "0.8.17+commit.8df45f5f.Emscripten.clang"
  },
  "schemaVersion": "3.4.10",
  "updatedAt": "2022-12-10T11:26:25.728Z",
  "networkType": "ethereum",
  "devdoc": {
    "author": "Quentin COLLETTE & Maxime LESBROS",
    "details": "Stay away from this or you're facing sleep deprivation",
    "kind": "dev",
    "methods": {},
    "title": "The SocialNetwork Smart Contract for CarBlocks",
    "version": 1
  },
  "userdoc": {
    "kind": "user",
    "methods": {},
    "notice": "Smart Contract allowing users to interact with each others",
    "version": 1
  }
}