{
  "contractName": "SocialNetwork",
  "abi": [
    {
      "inputs": [
        {
          "internalType": "bytes32",
          "name": "",
          "type": "bytes32"
        },
        {
          "internalType": "uint256",
          "name": "",
          "type": "uint256"
        }
      ],
      "name": "_allMessages",
      "outputs": [
        {
          "internalType": "uint256",
          "name": "timestamp",
          "type": "uint256"
        },
        {
          "internalType": "address",
          "name": "author",
          "type": "address"
        },
        {
          "internalType": "string",
          "name": "content",
          "type": "string"
        }
      ],
      "stateMutability": "view",
      "type": "function",
      "constant": true
    },
    {
      "inputs": [
        {
          "internalType": "uint256",
          "name": "",
          "type": "uint256"
        }
      ],
      "name": "cards",
      "outputs": [
        {
          "internalType": "uint256",
          "name": "cardId",
          "type": "uint256"
        },
        {
          "internalType": "string",
          "name": "brand",
          "type": "string"
        },
        {
          "internalType": "string",
          "name": "model",
          "type": "string"
        },
        {
          "internalType": "string",
          "name": "photoURI",
          "type": "string"
        }
      ],
      "stateMutability": "view",
      "type": "function",
      "constant": true
    },
    {
      "inputs": [
        {
          "internalType": "uint256",
          "name": "",
          "type": "uint256"
        },
        {
          "internalType": "uint256",
          "name": "",
          "type": "uint256"
        }
      ],
      "name": "opinions",
      "outputs": [
        {
          "internalType": "uint256",
          "name": "date",
          "type": "uint256"
        },
        {
          "internalType": "string",
          "name": "comment",
          "type": "string"
        },
        {
          "internalType": "string",
          "name": "pros",
          "type": "string"
        },
        {
          "internalType": "string",
          "name": "cons",
          "type": "string"
        }
      ],
      "stateMutability": "view",
      "type": "function",
      "constant": true
    },
    {
      "inputs": [
        {
          "internalType": "uint256",
          "name": "_cardId",
          "type": "uint256"
        },
        {
          "internalType": "string",
          "name": "_brand",
          "type": "string"
        },
        {
          "internalType": "string",
          "name": "_model",
          "type": "string"
        },
        {
          "internalType": "string",
          "name": "_photoURI",
          "type": "string"
        }
      ],
      "name": "createCard",
      "outputs": [],
      "stateMutability": "nonpayable",
      "type": "function"
    },
    {
      "inputs": [
        {
          "internalType": "uint256",
          "name": "_cardId",
          "type": "uint256"
        },
        {
          "internalType": "string",
          "name": "_comment",
          "type": "string"
        },
        {
          "internalType": "string",
          "name": "_pros",
          "type": "string"
        },
        {
          "internalType": "string",
          "name": "_cons",
          "type": "string"
        },
        {
          "internalType": "uint256[]",
          "name": "_notes",
          "type": "uint256[]"
        }
      ],
      "name": "createOpinion",
      "outputs": [],
      "stateMutability": "nonpayable",
      "type": "function"
    },
    {
      "inputs": [
        {
          "internalType": "uint256",
          "name": "_tokenId",
          "type": "uint256"
        },
        {
          "internalType": "address",
          "name": "_to",
          "type": "address"
        },
        {
          "internalType": "string",
          "name": "_content",
          "type": "string"
        }
      ],
      "name": "sendMessage",
      "outputs": [],
      "stateMutability": "nonpayable",
      "type": "function"
    },
    {
      "inputs": [
        {
          "internalType": "uint256",
          "name": "_tokenId",
          "type": "uint256"
        },
        {
          "internalType": "address",
          "name": "_to",
          "type": "address"
        }
      ],
      "name": "getChat",
      "outputs": [
        {
          "components": [
            {
              "internalType": "uint256",
              "name": "timestamp",
              "type": "uint256"
            },
            {
              "internalType": "address",
              "name": "author",
              "type": "address"
            },
            {
              "internalType": "string",
              "name": "content",
              "type": "string"
            }
          ],
          "internalType": "struct SocialNetwork.Message[]",
          "name": "",
          "type": "tuple[]"
        }
      ],
      "stateMutability": "view",
      "type": "function",
      "constant": true
    }
  ],
  "bytecode": "0x608060405234801561001057600080fd5b50610fb1806100206000396000f3fe608060405234801561001057600080fd5b506004361061007d5760003560e01c8063653a99e31161005b578063653a99e3146100d55780638454b7cd146100f85780638dc1076814610118578063957df5f71461012b57600080fd5b80632da17371146100825780635f3168a21461009757806363344111146100c2575b600080fd5b610095610090366004610a6f565b61013e565b005b6100aa6100a5366004610ac9565b610216565b6040516100b993929190610b31565b60405180910390f35b6100956100d0366004610b64565b6102ec565b6100e86100e3366004610ac9565b610417565b6040516100b99493929190610c08565b61010b610106366004610c52565b6105fc565b6040516100b99190610c7e565b6100e8610126366004610d06565b61072b565b610095610139366004610d1f565b610760565b6002600061014d8633876108f2565b81526020019081526020016000206040518060600160405280428152602001336001600160a01b0316815260200184848080601f016020809104026020016040519081016040528093929190818152602001838380828437600092018290525093909452505083546001808201865594825260209182902084516003909202019081559083015193810180546001600160a01b0319166001600160a01b0390951694909417909355506040810151909190600282019061020d9082610ebb565b50505050505050565b6002602052816000526040600020818154811061023257600080fd5b60009182526020909120600390910201805460018201546002830180549295506001600160a01b0390911693509061026990610e32565b80601f016020809104026020016040519081016040528092919081815260200182805461029590610e32565b80156102e25780601f106102b7576101008083540402835291602001916102e2565b820191906000526020600020905b8154815290600101906020018083116102c557829003601f168201915b5050505050905083565b6000604051806080016040528089815260200188888080601f016020809104026020016040519081016040528093929190818152602001838380828437600092019190915250505090825250604080516020601f890181900481028201810190925287815291810191908890889081908401838280828437600092019190915250505090825250604080516020601f87018190048102820181019092528581529181019190869086908190840183828082843760009201829052509390945250508354600181810186559482526020918290208451600490920201908155908301519293909290830191506103e19082610ebb565b50604082015160028201906103f69082610ebb565b506060820151600382019061040b9082610ebb565b50505050505050505050565b6001602052816000526040600020818154811061043357600080fd5b90600052602060002090600502016000915091505080600001549080600101805461045d90610e32565b80601f016020809104026020016040519081016040528092919081815260200182805461048990610e32565b80156104d65780601f106104ab576101008083540402835291602001916104d6565b820191906000526020600020905b8154815290600101906020018083116104b957829003601f168201915b5050505050908060020180546104eb90610e32565b80601f016020809104026020016040519081016040528092919081815260200182805461051790610e32565b80156105645780601f1061053957610100808354040283529160200191610564565b820191906000526020600020905b81548152906001019060200180831161054757829003601f168201915b50505050509080600301805461057990610e32565b80601f01602080910402602001604051908101604052809291908181526020018280546105a590610e32565b80156105f25780601f106105c7576101008083540402835291602001916105f2565b820191906000526020600020905b8154815290600101906020018083116105d557829003601f168201915b5050505050905084565b60606002600061060d8533866108f2565b8152602001908152602001600020805480602002602001604051908101604052809291908181526020016000905b8282101561071f57600084815260209081902060408051606081018252600386029092018054835260018101546001600160a01b0316938301939093526002830180549293929184019161068e90610e32565b80601f01602080910402602001604051908101604052809291908181526020018280546106ba90610e32565b80156107075780601f106106dc57610100808354040283529160200191610707565b820191906000526020600020905b8154815290600101906020018083116106ea57829003601f168201915b5050505050815250508152602001906001019061063b565b50505050905092915050565b6000818154811061073b57600080fd5b6000918252602090912060049091020180546001820180549193509061045d90610e32565b600160008a81526020019081526020016000206040518060a001604052804281526020018a8a8080601f016020809104026020016040519081016040528093929190818152602001838380828437600092019190915250505090825250604080516020601f8b0181900481028201810190925289815291810191908a908a9081908401838280828437600092019190915250505090825250604080516020601f8901819004810282018101909252878152918101919088908890819084018382808284376000920191909152505050908252506040805160208681028281018201909352868252928301929091879187918291850190849080828437600092018290525093909452505083546001818101865594825260209182902084516005909202019081559083015192939092908301915061089e9082610ebb565b50604082015160028201906108b39082610ebb565b50606082015160038201906108c89082610ebb565b50608082015180516108e49160048401916020909101906109aa565b505050505050505050505050565b6000816001600160a01b0316836001600160a01b031610156109675783838360405160200161094a93929190928352606091821b6bffffffffffffffffffffffff199081166020850152911b16603482015260480190565b6040516020818303038152906040528051906020012090506109a3565b83828460405160200161094a93929190928352606091821b6bffffffffffffffffffffffff199081166020850152911b16603482015260480190565b9392505050565b8280548282559060005260206000209081019282156109e5579160200282015b828111156109e55782518255916020019190600101906109ca565b506109f19291506109f5565b5090565b5b808211156109f157600081556001016109f6565b80356001600160a01b0381168114610a2157600080fd5b919050565b60008083601f840112610a3857600080fd5b50813567ffffffffffffffff811115610a5057600080fd5b602083019150836020828501011115610a6857600080fd5b9250929050565b60008060008060608587031215610a8557600080fd5b84359350610a9560208601610a0a565b9250604085013567ffffffffffffffff811115610ab157600080fd5b610abd87828801610a26565b95989497509550505050565b60008060408385031215610adc57600080fd5b50508035926020909101359150565b6000815180845260005b81811015610b1157602081850181015186830182015201610af5565b506000602082860101526020601f19601f83011685010191505092915050565b8381526001600160a01b0383166020820152606060408201819052600090610b5b90830184610aeb565b95945050505050565b60008060008060008060006080888a031215610b7f57600080fd5b87359650602088013567ffffffffffffffff80821115610b9e57600080fd5b610baa8b838c01610a26565b909850965060408a0135915080821115610bc357600080fd5b610bcf8b838c01610a26565b909650945060608a0135915080821115610be857600080fd5b50610bf58a828b01610a26565b989b979a50959850939692959293505050565b848152608060208201526000610c216080830186610aeb565b8281036040840152610c338186610aeb565b90508281036060840152610c478185610aeb565b979650505050505050565b60008060408385031215610c6557600080fd5b82359150610c7560208401610a0a565b90509250929050565b60006020808301818452808551808352604092508286019150828160051b87010184880160005b83811015610cf857888303603f19018552815180518452878101516001600160a01b0316888501528601516060878501819052610ce481860183610aeb565b968901969450505090860190600101610ca5565b509098975050505050505050565b600060208284031215610d1857600080fd5b5035919050565b600080600080600080600080600060a08a8c031215610d3d57600080fd5b8935985060208a013567ffffffffffffffff80821115610d5c57600080fd5b610d688d838e01610a26565b909a50985060408c0135915080821115610d8157600080fd5b610d8d8d838e01610a26565b909850965060608c0135915080821115610da657600080fd5b610db28d838e01610a26565b909650945060808c0135915080821115610dcb57600080fd5b818c0191508c601f830112610ddf57600080fd5b813581811115610dee57600080fd5b8d60208260051b8501011115610e0357600080fd5b6020830194508093505050509295985092959850929598565b634e487b7160e01b600052604160045260246000fd5b600181811c90821680610e4657607f821691505b602082108103610e6657634e487b7160e01b600052602260045260246000fd5b50919050565b601f821115610eb657600081815260208120601f850160051c81016020861015610e935750805b601f850160051c820191505b81811015610eb257828155600101610e9f565b5050505b505050565b815167ffffffffffffffff811115610ed557610ed5610e1c565b610ee981610ee38454610e32565b84610e6c565b602080601f831160018114610f1e5760008415610f065750858301515b600019600386901b1c1916600185901b178555610eb2565b600085815260208120601f198616915b82811015610f4d57888601518255948401946001909101908401610f2e565b5085821015610f6b5787850151600019600388901b60f8161c191681555b5050505050600190811b0190555056fea264697066735822122096d7af7ace4e26169066565f534363f4103c736e95cb8aa271518e0e89ba63b764736f6c63430008110033",
  "immutableReferences": {},
  "source": "// SPDX-License-Identifier: MIT\npragma solidity 0.8.17;\n\n/// @title The SocialNetwork Smart Contract for CarBlocks\n/// @author Quentin COLLETTE & Maxime LESBROS\n/// @notice Smart Contract allowing users to interact with each others\n/// @dev Stay away from this or you're facing sleep deprivation\ncontract SocialNetwork {\n    struct Message {\n        uint256 timestamp;\n        address author;\n        string content;\n    }\n\n    struct Opinion {\n        uint256 date;\n        string comment;\n        string pros;\n        string cons;\n        uint256[] notes; /* order: [safety, budget, comfort, driving, equipment, finition, reliability, ecology] */\n    }\n\n    struct Card {\n        uint256 cardId;\n        string brand;\n        string model;\n        string photoURI;\n    }\n    ///@notice store all the car card in social part\n    Card[] public cards;\n\n    ///@notice store all the car opinions : cardId => Opinion[]\n    mapping(uint256 => Opinion[]) public opinions;\n\n    ///@notice store a list of messages from a hash(tokenId, _from, _to)\n    mapping(bytes32 => Message[]) public _allMessages;\n\n    /// @notice To save car cards in social part of our DApp\n    /// @dev We use this function to import fixtures with import_fixtures.js\n    /// @param _cardId internal card ID\n    /// @param _brand brand of car\n    /// @param _model model of car\n    /// @param _photoURI photo of car on IPFS\n    function createCard(\n        uint256 _cardId,\n        string calldata _brand,\n        string calldata _model,\n        string calldata _photoURI\n    ) external {\n        cards.push(Card(_cardId, _brand, _model, _photoURI));\n    }\n\n    /// @notice To save car opinions in social part of our DApp\n    /// @dev We use this function to import fixtures with import_fixtures.js\n    /// @param _cardId internal card ID\n    /// @param _comment general comment about car\n    /// @param _pros advantages\n    /// @param _pros disadvantages\n    /// @param _notes array of 8 notes\n    function createOpinion(\n        uint256 _cardId,\n        string calldata _comment,\n        string calldata _pros,\n        string calldata _cons,\n        uint256[] calldata _notes\n    ) external {\n        opinions[_cardId].push(\n            Opinion(block.timestamp, _comment, _pros, _cons, _notes)\n        );\n    }\n\n    /// @notice Send a message to a user regarding a specific NFT\n    /// @dev store message in _allMessages with a hash\n    /// @param _tokenId NFT token ID\n    /// @param _to address of chat recipient\n    /// @param _content address of chat recipient\n    function sendMessage(\n        uint256 _tokenId,\n        address _to,\n        string calldata _content\n    ) external {\n        _allMessages[_getChatId(_tokenId, msg.sender, _to)].push(\n            Message(block.timestamp, msg.sender, _content)\n        );\n    }\n\n    /// @notice Retrieve a conversation (chat) between 2 users on a specific NFT\n    /// @dev Get an array of message between msg.sender and _to on tokenId\n    /// @param _tokenId NFT token ID\n    /// @param _to address of chat recipient\n    /// @return messages array of Message\n    function getChat(uint256 _tokenId, address _to)\n        external\n        view\n        returns (Message[] memory)\n    {\n        return _allMessages[_getChatId(_tokenId, msg.sender, _to)];\n    }\n\n    /// @notice Generate a unique id for a message between 2 users and a specific NFT\n    /// @dev Concatenate the three param, always in the same order and hash them\n    /// @param _tokenId NFT token ID\n    /// @param _to address of msg recipient\n    /// @param _from address of msg sender\n    /// @return hash of three parameters\n    function _getChatId(\n        uint256 _tokenId,\n        address _from,\n        address _to\n    ) private pure returns (bytes32) {\n        if (_from < _to)\n            return keccak256(abi.encodePacked(_tokenId, _from, _to));\n        else return keccak256(abi.encodePacked(_tokenId, _to, _from));\n    }\n}\n",
  "sourcePath": "/home/mlazzje/projects/alyra/CarBlocks/truffle/contracts/SocialNetwork.sol",
  "compiler": {
    "name": "solc",
    "version": "0.8.17+commit.8df45f5f.Emscripten.clang"
  },
  "schemaVersion": "3.4.10",
  "updatedAt": "2022-12-11T22:36:16.616Z",
  "networkType": "ethereum",
  "devdoc": {
    "author": "Quentin COLLETTE & Maxime LESBROS",
    "details": "Stay away from this or you're facing sleep deprivation",
    "kind": "dev",
    "methods": {
      "createCard(uint256,string,string,string)": {
        "details": "We use this function to import fixtures with import_fixtures.js",
        "params": {
          "_brand": "brand of car",
          "_cardId": "internal card ID",
          "_model": "model of car",
          "_photoURI": "photo of car on IPFS"
        }
      },
      "createOpinion(uint256,string,string,string,uint256[])": {
        "details": "We use this function to import fixtures with import_fixtures.js",
        "params": {
          "_cardId": "internal card ID",
          "_comment": "general comment about car",
          "_notes": "array of 8 notes",
          "_pros": "disadvantages"
        }
      },
      "getChat(uint256,address)": {
        "details": "Get an array of message between msg.sender and _to on tokenId",
        "params": {
          "_to": "address of chat recipient",
          "_tokenId": "NFT token ID"
        },
        "returns": {
          "_0": "messages array of Message"
        }
      },
      "sendMessage(uint256,address,string)": {
        "details": "store message in _allMessages with a hash",
        "params": {
          "_content": "address of chat recipient",
          "_to": "address of chat recipient",
          "_tokenId": "NFT token ID"
        }
      }
    },
    "title": "The SocialNetwork Smart Contract for CarBlocks",
    "version": 1
  },
  "userdoc": {
    "kind": "user",
    "methods": {
      "_allMessages(bytes32,uint256)": {
        "notice": "store a list of messages from a hash(tokenId, _from, _to)"
      },
      "cards(uint256)": {
        "notice": "store all the car card in social part"
      },
      "createCard(uint256,string,string,string)": {
        "notice": "To save car cards in social part of our DApp"
      },
      "createOpinion(uint256,string,string,string,uint256[])": {
        "notice": "To save car opinions in social part of our DApp"
      },
      "getChat(uint256,address)": {
        "notice": "Retrieve a conversation (chat) between 2 users on a specific NFT"
      },
      "opinions(uint256,uint256)": {
        "notice": "store all the car opinions : cardId => Opinion[]"
      },
      "sendMessage(uint256,address,string)": {
        "notice": "Send a message to a user regarding a specific NFT"
      }
    },
    "notice": "Smart Contract allowing users to interact with each others",
    "version": 1
  }
}