{
  "contractName": "SocialNetwork",
  "abi": [
    {
      "inputs": [
        {
          "internalType": "uint256",
          "name": "_cardId",
          "type": "uint256"
        },
        {
          "internalType": "string",
          "name": "_brand",
          "type": "string"
        },
        {
          "internalType": "string",
          "name": "_model",
          "type": "string"
        },
        {
          "internalType": "string",
          "name": "_photoURI",
          "type": "string"
        }
      ],
      "name": "createCard",
      "outputs": [],
      "stateMutability": "nonpayable",
      "type": "function"
    },
    {
      "inputs": [],
      "name": "getCards",
      "outputs": [
        {
          "components": [
            {
              "internalType": "uint256",
              "name": "cardId",
              "type": "uint256"
            },
            {
              "internalType": "string",
              "name": "brand",
              "type": "string"
            },
            {
              "internalType": "string",
              "name": "model",
              "type": "string"
            },
            {
              "internalType": "string",
              "name": "photoURI",
              "type": "string"
            }
          ],
          "internalType": "struct SocialNetwork.Card[]",
          "name": "",
          "type": "tuple[]"
        }
      ],
      "stateMutability": "view",
      "type": "function",
      "constant": true
    },
    {
      "inputs": [
        {
          "internalType": "uint256",
          "name": "_cardId",
          "type": "uint256"
        },
        {
          "internalType": "string",
          "name": "_comment",
          "type": "string"
        },
        {
          "internalType": "string",
          "name": "_pros",
          "type": "string"
        },
        {
          "internalType": "string",
          "name": "_cons",
          "type": "string"
        },
        {
          "internalType": "uint256[]",
          "name": "_notes",
          "type": "uint256[]"
        }
      ],
      "name": "createOpinion",
      "outputs": [],
      "stateMutability": "nonpayable",
      "type": "function"
    },
    {
      "inputs": [
        {
          "internalType": "uint256",
          "name": "_cardId",
          "type": "uint256"
        }
      ],
      "name": "getOpinions",
      "outputs": [
        {
          "components": [
            {
              "internalType": "uint256",
              "name": "date",
              "type": "uint256"
            },
            {
              "internalType": "string",
              "name": "comment",
              "type": "string"
            },
            {
              "internalType": "string",
              "name": "pros",
              "type": "string"
            },
            {
              "internalType": "string",
              "name": "cons",
              "type": "string"
            },
            {
              "internalType": "uint256[]",
              "name": "notes",
              "type": "uint256[]"
            }
          ],
          "internalType": "struct SocialNetwork.Opinion[]",
          "name": "",
          "type": "tuple[]"
        }
      ],
      "stateMutability": "view",
      "type": "function",
      "constant": true
    },
    {
      "inputs": [
        {
          "internalType": "uint256",
          "name": "_tokenId",
          "type": "uint256"
        },
        {
          "internalType": "address",
          "name": "_to",
          "type": "address"
        },
        {
          "internalType": "string",
          "name": "_content",
          "type": "string"
        }
      ],
      "name": "sendMessage",
      "outputs": [],
      "stateMutability": "nonpayable",
      "type": "function"
    },
    {
      "inputs": [
        {
          "internalType": "uint256",
          "name": "_tokenId",
          "type": "uint256"
        },
        {
          "internalType": "address",
          "name": "_to",
          "type": "address"
        }
      ],
      "name": "getChat",
      "outputs": [
        {
          "components": [
            {
              "internalType": "uint256",
              "name": "timestamp",
              "type": "uint256"
            },
            {
              "internalType": "address",
              "name": "author",
              "type": "address"
            },
            {
              "internalType": "string",
              "name": "content",
              "type": "string"
            }
          ],
          "internalType": "struct SocialNetwork.Message[]",
          "name": "",
          "type": "tuple[]"
        }
      ],
      "stateMutability": "view",
      "type": "function",
      "constant": true
    }
  ],
  "bytecode": "0x608060405234801561001057600080fd5b5061121b806100206000396000f3fe608060405234801561001057600080fd5b50600436106100625760003560e01c806310f8ad60146100675780632da173711461009057806363344111146100a55780638454b7cd146100b8578063957df5f7146100d8578063b0df9e53146100eb575b600080fd5b61007a610075366004610b85565b610100565b6040516100879190610be4565b60405180910390f35b6100a361009e366004610d39565b61038a565b005b6100a36100b3366004610d93565b610462565b6100cb6100c6366004610e37565b61058d565b6040516100879190610e63565b6100a36100e6366004610eeb565b6106bc565b6100f361084e565b6040516100879190610fe8565b606060016000838152602001908152602001600020805480602002602001604051908101604052809291908181526020016000905b8282101561037f57838290600052602060002090600502016040518060a00160405290816000820154815260200160018201805461017290611086565b80601f016020809104026020016040519081016040528092919081815260200182805461019e90611086565b80156101eb5780601f106101c0576101008083540402835291602001916101eb565b820191906000526020600020905b8154815290600101906020018083116101ce57829003601f168201915b5050505050815260200160028201805461020490611086565b80601f016020809104026020016040519081016040528092919081815260200182805461023090611086565b801561027d5780601f106102525761010080835404028352916020019161027d565b820191906000526020600020905b81548152906001019060200180831161026057829003601f168201915b5050505050815260200160038201805461029690611086565b80601f01602080910402602001604051908101604052809291908181526020018280546102c290611086565b801561030f5780601f106102e45761010080835404028352916020019161030f565b820191906000526020600020905b8154815290600101906020018083116102f257829003601f168201915b505050505081526020016004820180548060200260200160405190810160405280929190818152602001828054801561036757602002820191906000526020600020905b815481526020019060010190808311610353575b50505050508152505081526020019060010190610135565b505050509050919050565b60026000610399863387610a6d565b81526020019081526020016000206040518060600160405280428152602001336001600160a01b0316815260200184848080601f016020809104026020016040519081016040528093929190818152602001838380828437600092018290525093909452505083546001808201865594825260209182902084516003909202019081559083015193810180546001600160a01b0319166001600160a01b039095169490941790935550604081015190919060028201906104599082611125565b50505050505050565b6000604051806080016040528089815260200188888080601f016020809104026020016040519081016040528093929190818152602001838380828437600092019190915250505090825250604080516020601f890181900481028201810190925287815291810191908890889081908401838280828437600092019190915250505090825250604080516020601f87018190048102820181019092528581529181019190869086908190840183828082843760009201829052509390945250508354600181810186559482526020918290208451600490920201908155908301519293909290830191506105579082611125565b506040820151600282019061056c9082611125565b50606082015160038201906105819082611125565b50505050505050505050565b60606002600061059e853386610a6d565b8152602001908152602001600020805480602002602001604051908101604052809291908181526020016000905b828210156106b057600084815260209081902060408051606081018252600386029092018054835260018101546001600160a01b0316938301939093526002830180549293929184019161061f90611086565b80601f016020809104026020016040519081016040528092919081815260200182805461064b90611086565b80156106985780601f1061066d57610100808354040283529160200191610698565b820191906000526020600020905b81548152906001019060200180831161067b57829003601f168201915b505050505081525050815260200190600101906105cc565b50505050905092915050565b600160008a81526020019081526020016000206040518060a001604052804281526020018a8a8080601f016020809104026020016040519081016040528093929190818152602001838380828437600092019190915250505090825250604080516020601f8b0181900481028201810190925289815291810191908a908a9081908401838280828437600092019190915250505090825250604080516020601f890181900481028201810190925287815291810191908890889081908401838280828437600092019190915250505090825250604080516020868102828101820190935286825292830192909187918791829185019084908082843760009201829052509390945250508354600181810186559482526020918290208451600590920201908155908301519293909290830191506107fa9082611125565b506040820151600282019061080f9082611125565b50606082015160038201906108249082611125565b5060808201518051610840916004840191602090910190610b25565b505050505050505050505050565b60606000805480602002602001604051908101604052809291908181526020016000905b82821015610a645783829060005260206000209060040201604051806080016040529081600082015481526020016001820180546108af90611086565b80601f01602080910402602001604051908101604052809291908181526020018280546108db90611086565b80156109285780601f106108fd57610100808354040283529160200191610928565b820191906000526020600020905b81548152906001019060200180831161090b57829003601f168201915b5050505050815260200160028201805461094190611086565b80601f016020809104026020016040519081016040528092919081815260200182805461096d90611086565b80156109ba5780601f1061098f576101008083540402835291602001916109ba565b820191906000526020600020905b81548152906001019060200180831161099d57829003601f168201915b505050505081526020016003820180546109d390611086565b80601f01602080910402602001604051908101604052809291908181526020018280546109ff90611086565b8015610a4c5780601f10610a2157610100808354040283529160200191610a4c565b820191906000526020600020905b815481529060010190602001808311610a2f57829003601f168201915b50505050508152505081526020019060010190610872565b50505050905090565b6000816001600160a01b0316836001600160a01b03161015610ae257838383604051602001610ac593929190928352606091821b6bffffffffffffffffffffffff199081166020850152911b16603482015260480190565b604051602081830303815290604052805190602001209050610b1e565b838284604051602001610ac593929190928352606091821b6bffffffffffffffffffffffff199081166020850152911b16603482015260480190565b9392505050565b828054828255906000526020600020908101928215610b60579160200282015b82811115610b60578251825591602001919060010190610b45565b50610b6c929150610b70565b5090565b5b80821115610b6c5760008155600101610b71565b600060208284031215610b9757600080fd5b5035919050565b6000815180845260005b81811015610bc457602081850181015186830182015201610ba8565b506000602082860101526020601f19601f83011685010191505092915050565b60006020808301818452808551808352604092508286019150828160051b8701018488016000805b84811015610cc557603f198a8503018652825160a08151865289820151818b880152610c3a82880182610b9e565b915050888201518682038a880152610c528282610b9e565b91505060608083015187830382890152610c6c8382610b9e565b608094850151898203958a01959095528451808252948d0194879450908d01925090505b80831015610cb05783518252928b019260019290920191908b0190610c90565b50978a01979550505091870191600101610c0c565b50919998505050505050505050565b80356001600160a01b0381168114610ceb57600080fd5b919050565b60008083601f840112610d0257600080fd5b50813567ffffffffffffffff811115610d1a57600080fd5b602083019150836020828501011115610d3257600080fd5b9250929050565b60008060008060608587031215610d4f57600080fd5b84359350610d5f60208601610cd4565b9250604085013567ffffffffffffffff811115610d7b57600080fd5b610d8787828801610cf0565b95989497509550505050565b60008060008060008060006080888a031215610dae57600080fd5b87359650602088013567ffffffffffffffff80821115610dcd57600080fd5b610dd98b838c01610cf0565b909850965060408a0135915080821115610df257600080fd5b610dfe8b838c01610cf0565b909650945060608a0135915080821115610e1757600080fd5b50610e248a828b01610cf0565b989b979a50959850939692959293505050565b60008060408385031215610e4a57600080fd5b82359150610e5a60208401610cd4565b90509250929050565b60006020808301818452808551808352604092508286019150828160051b87010184880160005b83811015610edd57888303603f19018552815180518452878101516001600160a01b0316888501528601516060878501819052610ec981860183610b9e565b968901969450505090860190600101610e8a565b509098975050505050505050565b600080600080600080600080600060a08a8c031215610f0957600080fd5b8935985060208a013567ffffffffffffffff80821115610f2857600080fd5b610f348d838e01610cf0565b909a50985060408c0135915080821115610f4d57600080fd5b610f598d838e01610cf0565b909850965060608c0135915080821115610f7257600080fd5b610f7e8d838e01610cf0565b909650945060808c0135915080821115610f9757600080fd5b818c0191508c601f830112610fab57600080fd5b813581811115610fba57600080fd5b8d60208260051b8501011115610fcf57600080fd5b6020830194508093505050509295985092959850929598565b60006020808301818452808551808352604092508286019150828160051b87010184880160005b83811015610edd57603f19898403018552815160808151855288820151818a87015261103d82870182610b9e565b91505087820151858203898701526110558282610b9e565b915050606080830151925085820381870152506110728183610b9e565b96890196945050509086019060010161100f565b600181811c9082168061109a57607f821691505b6020821081036110ba57634e487b7160e01b600052602260045260246000fd5b50919050565b634e487b7160e01b600052604160045260246000fd5b601f82111561112057600081815260208120601f850160051c810160208610156110fd5750805b601f850160051c820191505b8181101561111c57828155600101611109565b5050505b505050565b815167ffffffffffffffff81111561113f5761113f6110c0565b6111538161114d8454611086565b846110d6565b602080601f83116001811461118857600084156111705750858301515b600019600386901b1c1916600185901b17855561111c565b600085815260208120601f198616915b828110156111b757888601518255948401946001909101908401611198565b50858210156111d55787850151600019600388901b60f8161c191681555b5050505050600190811b0190555056fea26469706673582212201009cadb5e37fb6b1e83c960043b35df434d787c59e2127984b344a8684b20aa64736f6c63430008110033",
  "immutableReferences": {},
  "source": "// SPDX-License-Identifier: MIT\npragma solidity 0.8.17;\n\n/// @title The SocialNetwork Smart Contract for CarBlocks\n/// @author Quentin COLLETTE & Maxime LESBROS\n/// @notice Smart Contract allowing users to interact with each others\n/// @dev Stay away from this or you're facing sleep deprivation\ncontract SocialNetwork {\n    struct Message {\n        uint256 timestamp;\n        address author;\n        string content;\n    }\n\n    struct Opinion {\n        uint256 date;\n        string comment;\n        string pros;\n        string cons;\n        uint256[] notes; /* order: [safety, budget, comfort, driving, equipment, finition, reliability, ecology] */\n    }\n\n    struct Card {\n        uint256 cardId;\n        string brand;\n        string model;\n        string photoURI;\n    }\n    ///@notice store all the car cards appearing social tab\n    Card[] private _cards;\n\n    ///@notice store all the car opinions : cardId => Opinion[]\n    mapping(uint256 => Opinion[]) private _opinions;\n\n    ///@notice store a list of messages from a hash(tokenId, _from, _to)\n    mapping(bytes32 => Message[]) private _allMessages;\n\n    /// @notice To save car cards in social part of our DApp\n    /// @dev We use this function to import fixtures with import_fixtures.js\n    /// @param _cardId internal card ID\n    /// @param _brand brand of car\n    /// @param _model model of car\n    /// @param _photoURI photo of car on IPFS\n    function createCard(\n        uint256 _cardId,\n        string calldata _brand,\n        string calldata _model,\n        string calldata _photoURI\n    ) external {\n        _cards.push(Card(_cardId, _brand, _model, _photoURI));\n    }\n\n    /// @notice Return all cards\n    /// @return cards\n    function getCards() external view returns (Card[] memory) {\n        return _cards;\n    }\n\n    /// @notice To save car opinions in social part of our DApp\n    /// @dev We use this function to import fixtures with import_fixtures.js\n    /// @param _cardId internal card ID\n    /// @param _comment general comment about car\n    /// @param _pros advantages\n    /// @param _pros disadvantages\n    /// @param _notes array of 8 notes\n    function createOpinion(\n        uint256 _cardId,\n        string calldata _comment,\n        string calldata _pros,\n        string calldata _cons,\n        uint256[] calldata _notes\n    ) external {\n        _opinions[_cardId].push(\n            Opinion(block.timestamp, _comment, _pros, _cons, _notes)\n        );\n    }\n\n    ///@notice Retrieve all opinions regarding a specific car card\n    ///@param _cardId the card ID of the car\n    ///@return array of Opinion\n    function getOpinions(uint256 _cardId)\n        external\n        view\n        returns (Opinion[] memory)\n    {\n        return _opinions[_cardId];\n    }\n\n    /// @notice Send a message to a user regarding a specific NFT\n    /// @dev store message in _allMessages with a hash\n    /// @param _tokenId NFT token ID\n    /// @param _to address of chat recipient\n    /// @param _content address of chat recipient\n    function sendMessage(\n        uint256 _tokenId,\n        address _to,\n        string calldata _content\n    ) external {\n        _allMessages[_getChatId(_tokenId, msg.sender, _to)].push(\n            Message(block.timestamp, msg.sender, _content)\n        );\n    }\n\n    /// @notice Retrieve a conversation (chat) between 2 users on a specific NFT\n    /// @dev Get an array of message between msg.sender and _to on tokenId\n    /// @param _tokenId NFT token ID\n    /// @param _to address of chat recipient\n    /// @return messages array of Message\n    function getChat(uint256 _tokenId, address _to)\n        external\n        view\n        returns (Message[] memory)\n    {\n        return _allMessages[_getChatId(_tokenId, msg.sender, _to)];\n    }\n\n    /// @notice Generate a unique id for a message between 2 users and a specific NFT\n    /// @dev Concatenate the three param, always in the same order and hash them\n    /// @param _tokenId NFT token ID\n    /// @param _to address of msg recipient\n    /// @param _from address of msg sender\n    /// @return hash of three parameters\n    function _getChatId(\n        uint256 _tokenId,\n        address _from,\n        address _to\n    ) private pure returns (bytes32) {\n        if (_from < _to)\n            return keccak256(abi.encodePacked(_tokenId, _from, _to));\n        else return keccak256(abi.encodePacked(_tokenId, _to, _from));\n    }\n}\n",
  "sourcePath": "/home/mlazzje/projects/alyra/CarBlocks/truffle/contracts/SocialNetwork.sol",
  "compiler": {
    "name": "solc",
    "version": "0.8.17+commit.8df45f5f.Emscripten.clang"
  },
  "schemaVersion": "3.4.10",
  "updatedAt": "2022-12-12T01:45:59.091Z",
  "networkType": "ethereum",
  "devdoc": {
    "author": "Quentin COLLETTE & Maxime LESBROS",
    "details": "Stay away from this or you're facing sleep deprivation",
    "kind": "dev",
    "methods": {
      "createCard(uint256,string,string,string)": {
        "details": "We use this function to import fixtures with import_fixtures.js",
        "params": {
          "_brand": "brand of car",
          "_cardId": "internal card ID",
          "_model": "model of car",
          "_photoURI": "photo of car on IPFS"
        }
      },
      "createOpinion(uint256,string,string,string,uint256[])": {
        "details": "We use this function to import fixtures with import_fixtures.js",
        "params": {
          "_cardId": "internal card ID",
          "_comment": "general comment about car",
          "_notes": "array of 8 notes",
          "_pros": "disadvantages"
        }
      },
      "getCards()": {
        "returns": {
          "_0": "cards"
        }
      },
      "getChat(uint256,address)": {
        "details": "Get an array of message between msg.sender and _to on tokenId",
        "params": {
          "_to": "address of chat recipient",
          "_tokenId": "NFT token ID"
        },
        "returns": {
          "_0": "messages array of Message"
        }
      },
      "getOpinions(uint256)": {
        "params": {
          "_cardId": "the card ID of the car"
        },
        "returns": {
          "_0": "array of Opinion"
        }
      },
      "sendMessage(uint256,address,string)": {
        "details": "store message in _allMessages with a hash",
        "params": {
          "_content": "address of chat recipient",
          "_to": "address of chat recipient",
          "_tokenId": "NFT token ID"
        }
      }
    },
    "title": "The SocialNetwork Smart Contract for CarBlocks",
    "version": 1
  },
  "userdoc": {
    "kind": "user",
    "methods": {
      "createCard(uint256,string,string,string)": {
        "notice": "To save car cards in social part of our DApp"
      },
      "createOpinion(uint256,string,string,string,uint256[])": {
        "notice": "To save car opinions in social part of our DApp"
      },
      "getCards()": {
        "notice": "Return all cards"
      },
      "getChat(uint256,address)": {
        "notice": "Retrieve a conversation (chat) between 2 users on a specific NFT"
      },
      "getOpinions(uint256)": {
        "notice": "Retrieve all opinions regarding a specific car card"
      },
      "sendMessage(uint256,address,string)": {
        "notice": "Send a message to a user regarding a specific NFT"
      }
    },
    "notice": "Smart Contract allowing users to interact with each others",
    "version": 1
  }
}