{
  "contractName": "SocialNetwork",
  "abi": [
    {
      "inputs": [
        {
          "internalType": "uint256",
          "name": "_cardId",
          "type": "uint256"
        },
        {
          "internalType": "string",
          "name": "_brand",
          "type": "string"
        },
        {
          "internalType": "string",
          "name": "_model",
          "type": "string"
        },
        {
          "internalType": "string",
          "name": "_photoURI",
          "type": "string"
        }
      ],
      "name": "createCard",
      "outputs": [],
      "stateMutability": "nonpayable",
      "type": "function"
    },
    {
      "inputs": [],
      "name": "getCards",
      "outputs": [
        {
          "components": [
            {
              "internalType": "uint256",
              "name": "cardId",
              "type": "uint256"
            },
            {
              "internalType": "string",
              "name": "brand",
              "type": "string"
            },
            {
              "internalType": "string",
              "name": "model",
              "type": "string"
            },
            {
              "internalType": "string",
              "name": "photoURI",
              "type": "string"
            }
          ],
          "internalType": "struct SocialNetwork.Card[]",
          "name": "",
          "type": "tuple[]"
        }
      ],
      "stateMutability": "view",
      "type": "function",
      "constant": true
    },
    {
      "inputs": [
        {
          "internalType": "uint256",
          "name": "_cardId",
          "type": "uint256"
        },
        {
          "internalType": "string",
          "name": "_comment",
          "type": "string"
        },
        {
          "internalType": "string",
          "name": "_pros",
          "type": "string"
        },
        {
          "internalType": "string",
          "name": "_cons",
          "type": "string"
        },
        {
          "internalType": "uint256[]",
          "name": "_notes",
          "type": "uint256[]"
        }
      ],
      "name": "createOpinion",
      "outputs": [],
      "stateMutability": "nonpayable",
      "type": "function"
    },
    {
      "inputs": [
        {
          "internalType": "uint256",
          "name": "_cardId",
          "type": "uint256"
        }
      ],
      "name": "getOpinions",
      "outputs": [
        {
          "components": [
            {
              "internalType": "uint256",
              "name": "date",
              "type": "uint256"
            },
            {
              "internalType": "string",
              "name": "comment",
              "type": "string"
            },
            {
              "internalType": "string",
              "name": "pros",
              "type": "string"
            },
            {
              "internalType": "string",
              "name": "cons",
              "type": "string"
            },
            {
              "internalType": "uint256[]",
              "name": "notes",
              "type": "uint256[]"
            }
          ],
          "internalType": "struct SocialNetwork.Opinion[]",
          "name": "",
          "type": "tuple[]"
        }
      ],
      "stateMutability": "view",
      "type": "function",
      "constant": true
    },
    {
      "inputs": [
        {
          "internalType": "uint256",
          "name": "_tokenId",
          "type": "uint256"
        },
        {
          "internalType": "address",
          "name": "_to",
          "type": "address"
        },
        {
          "internalType": "string",
          "name": "_content",
          "type": "string"
        }
      ],
      "name": "sendMessage",
      "outputs": [],
      "stateMutability": "nonpayable",
      "type": "function"
    },
    {
      "inputs": [
        {
          "internalType": "uint256",
          "name": "_tokenId",
          "type": "uint256"
        },
        {
          "internalType": "address",
          "name": "_to",
          "type": "address"
        }
      ],
      "name": "getChat",
      "outputs": [
        {
          "components": [
            {
              "internalType": "uint256",
              "name": "timestamp",
              "type": "uint256"
            },
            {
              "internalType": "address",
              "name": "author",
              "type": "address"
            },
            {
              "internalType": "string",
              "name": "content",
              "type": "string"
            }
          ],
          "internalType": "struct SocialNetwork.Message[]",
          "name": "",
          "type": "tuple[]"
        }
      ],
      "stateMutability": "view",
      "type": "function",
      "constant": true
    }
  ],
  "bytecode": "0x608060405234801561001057600080fd5b506112ed806100206000396000f3fe608060405234801561001057600080fd5b50600436106100625760003560e01c806310f8ad60146100675780632da173711461009057806363344111146100a55780638454b7cd146100b8578063957df5f7146100d8578063b0df9e53146100eb575b600080fd5b61007a610075366004610c57565b610100565b6040516100879190610cb6565b60405180910390f35b6100a361009e366004610e0b565b61038a565b005b6100a36100b3366004610e65565b6104d6565b6100cb6100c6366004610f09565b610601565b6040516100879190610f35565b6100a36100e6366004610fbd565b610730565b6100f3610920565b60405161008791906110ba565b606060016000838152602001908152602001600020805480602002602001604051908101604052809291908181526020016000905b8282101561037f57838290600052602060002090600502016040518060a00160405290816000820154815260200160018201805461017290611158565b80601f016020809104026020016040519081016040528092919081815260200182805461019e90611158565b80156101eb5780601f106101c0576101008083540402835291602001916101eb565b820191906000526020600020905b8154815290600101906020018083116101ce57829003601f168201915b5050505050815260200160028201805461020490611158565b80601f016020809104026020016040519081016040528092919081815260200182805461023090611158565b801561027d5780601f106102525761010080835404028352916020019161027d565b820191906000526020600020905b81548152906001019060200180831161026057829003601f168201915b5050505050815260200160038201805461029690611158565b80601f01602080910402602001604051908101604052809291908181526020018280546102c290611158565b801561030f5780601f106102e45761010080835404028352916020019161030f565b820191906000526020600020905b8154815290600101906020018083116102f257829003601f168201915b505050505081526020016004820180548060200260200160405190810160405280929190818152602001828054801561036757602002820191906000526020600020905b815481526020019060010190808311610353575b50505050508152505081526020019060010190610135565b505050509050919050565b60326002600061039b873388610b3f565b8152602081019190915260400160002054106103fe5760405162461bcd60e51b815260206004820152601c60248201527f4572723a206d6178206e756d626572206f66206d73672069732035300000000060448201526064015b60405180910390fd5b6002600061040d863387610b3f565b81526020019081526020016000206040518060600160405280428152602001336001600160a01b0316815260200184848080601f016020809104026020016040519081016040528093929190818152602001838380828437600092018290525093909452505083546001808201865594825260209182902084516003909202019081559083015193810180546001600160a01b0319166001600160a01b039095169490941790935550604081015190919060028201906104cd90826111f7565b50505050505050565b6000604051806080016040528089815260200188888080601f016020809104026020016040519081016040528093929190818152602001838380828437600092019190915250505090825250604080516020601f890181900481028201810190925287815291810191908890889081908401838280828437600092019190915250505090825250604080516020601f87018190048102820181019092528581529181019190869086908190840183828082843760009201829052509390945250508354600181810186559482526020918290208451600490920201908155908301519293909290830191506105cb90826111f7565b50604082015160028201906105e090826111f7565b50606082015160038201906105f590826111f7565b50505050505050505050565b606060026000610612853386610b3f565b8152602001908152602001600020805480602002602001604051908101604052809291908181526020016000905b8282101561072457600084815260209081902060408051606081018252600386029092018054835260018101546001600160a01b0316938301939093526002830180549293929184019161069390611158565b80601f01602080910402602001604051908101604052809291908181526020018280546106bf90611158565b801561070c5780601f106106e15761010080835404028352916020019161070c565b820191906000526020600020905b8154815290600101906020018083116106ef57829003601f168201915b50505050508152505081526020019060010190610640565b50505050905092915050565b60008981526001602052604090205460c81161078e5760405162461bcd60e51b815260206004820152601c60248201527f4572723a206f6e6c7920323030206f70696e696f6e732f6d6f64656c0000000060448201526064016103f5565b600160008a81526020019081526020016000206040518060a001604052804281526020018a8a8080601f016020809104026020016040519081016040528093929190818152602001838380828437600092019190915250505090825250604080516020601f8b0181900481028201810190925289815291810191908a908a9081908401838280828437600092019190915250505090825250604080516020601f890181900481028201810190925287815291810191908890889081908401838280828437600092019190915250505090825250604080516020868102828101820190935286825292830192909187918791829185019084908082843760009201829052509390945250508354600181810186559482526020918290208451600590920201908155908301519293909290830191506108cc90826111f7565b50604082015160028201906108e190826111f7565b50606082015160038201906108f690826111f7565b5060808201518051610912916004840191602090910190610bf7565b505050505050505050505050565b60606000805480602002602001604051908101604052809291908181526020016000905b82821015610b3657838290600052602060002090600402016040518060800160405290816000820154815260200160018201805461098190611158565b80601f01602080910402602001604051908101604052809291908181526020018280546109ad90611158565b80156109fa5780601f106109cf576101008083540402835291602001916109fa565b820191906000526020600020905b8154815290600101906020018083116109dd57829003601f168201915b50505050508152602001600282018054610a1390611158565b80601f0160208091040260200160405190810160405280929190818152602001828054610a3f90611158565b8015610a8c5780601f10610a6157610100808354040283529160200191610a8c565b820191906000526020600020905b815481529060010190602001808311610a6f57829003601f168201915b50505050508152602001600382018054610aa590611158565b80601f0160208091040260200160405190810160405280929190818152602001828054610ad190611158565b8015610b1e5780601f10610af357610100808354040283529160200191610b1e565b820191906000526020600020905b815481529060010190602001808311610b0157829003601f168201915b50505050508152505081526020019060010190610944565b50505050905090565b6000816001600160a01b0316836001600160a01b03161015610bb457838383604051602001610b9793929190928352606091821b6bffffffffffffffffffffffff199081166020850152911b16603482015260480190565b604051602081830303815290604052805190602001209050610bf0565b838284604051602001610b9793929190928352606091821b6bffffffffffffffffffffffff199081166020850152911b16603482015260480190565b9392505050565b828054828255906000526020600020908101928215610c32579160200282015b82811115610c32578251825591602001919060010190610c17565b50610c3e929150610c42565b5090565b5b80821115610c3e5760008155600101610c43565b600060208284031215610c6957600080fd5b5035919050565b6000815180845260005b81811015610c9657602081850181015186830182015201610c7a565b506000602082860101526020601f19601f83011685010191505092915050565b60006020808301818452808551808352604092508286019150828160051b8701018488016000805b84811015610d9757603f198a8503018652825160a08151865289820151818b880152610d0c82880182610c70565b915050888201518682038a880152610d248282610c70565b91505060608083015187830382890152610d3e8382610c70565b608094850151898203958a01959095528451808252948d0194879450908d01925090505b80831015610d825783518252928b019260019290920191908b0190610d62565b50978a01979550505091870191600101610cde565b50919998505050505050505050565b80356001600160a01b0381168114610dbd57600080fd5b919050565b60008083601f840112610dd457600080fd5b50813567ffffffffffffffff811115610dec57600080fd5b602083019150836020828501011115610e0457600080fd5b9250929050565b60008060008060608587031215610e2157600080fd5b84359350610e3160208601610da6565b9250604085013567ffffffffffffffff811115610e4d57600080fd5b610e5987828801610dc2565b95989497509550505050565b60008060008060008060006080888a031215610e8057600080fd5b87359650602088013567ffffffffffffffff80821115610e9f57600080fd5b610eab8b838c01610dc2565b909850965060408a0135915080821115610ec457600080fd5b610ed08b838c01610dc2565b909650945060608a0135915080821115610ee957600080fd5b50610ef68a828b01610dc2565b989b979a50959850939692959293505050565b60008060408385031215610f1c57600080fd5b82359150610f2c60208401610da6565b90509250929050565b60006020808301818452808551808352604092508286019150828160051b87010184880160005b83811015610faf57888303603f19018552815180518452878101516001600160a01b0316888501528601516060878501819052610f9b81860183610c70565b968901969450505090860190600101610f5c565b509098975050505050505050565b600080600080600080600080600060a08a8c031215610fdb57600080fd5b8935985060208a013567ffffffffffffffff80821115610ffa57600080fd5b6110068d838e01610dc2565b909a50985060408c013591508082111561101f57600080fd5b61102b8d838e01610dc2565b909850965060608c013591508082111561104457600080fd5b6110508d838e01610dc2565b909650945060808c013591508082111561106957600080fd5b818c0191508c601f83011261107d57600080fd5b81358181111561108c57600080fd5b8d60208260051b85010111156110a157600080fd5b6020830194508093505050509295985092959850929598565b60006020808301818452808551808352604092508286019150828160051b87010184880160005b83811015610faf57603f19898403018552815160808151855288820151818a87015261110f82870182610c70565b91505087820151858203898701526111278282610c70565b915050606080830151925085820381870152506111448183610c70565b9689019694505050908601906001016110e1565b600181811c9082168061116c57607f821691505b60208210810361118c57634e487b7160e01b600052602260045260246000fd5b50919050565b634e487b7160e01b600052604160045260246000fd5b601f8211156111f257600081815260208120601f850160051c810160208610156111cf5750805b601f850160051c820191505b818110156111ee578281556001016111db565b5050505b505050565b815167ffffffffffffffff81111561121157611211611192565b6112258161121f8454611158565b846111a8565b602080601f83116001811461125a57600084156112425750858301515b600019600386901b1c1916600185901b1785556111ee565b600085815260208120601f198616915b828110156112895788860151825594840194600190910190840161126a565b50858210156112a75787850151600019600388901b60f8161c191681555b5050505050600190811b0190555056fea2646970667358221220b5d385b0f8448bb6092b6dab7598046cd8827b294158825f82a5cd0f75785d8864736f6c63430008110033",
  "immutableReferences": {},
  "source": "// SPDX-License-Identifier: MIT\npragma solidity 0.8.17;\n\n/// @title The SocialNetwork Smart Contract for CarBlocks\n/// @author Quentin COLLETTE & Maxime LESBROS\n/// @notice Smart Contract allowing users to interact with each others\n/// @dev Stay away from this or you're facing sleep deprivation\ncontract SocialNetwork {\n    struct Message {\n        uint256 timestamp;\n        address author;\n        string content;\n    }\n\n    struct Opinion {\n        uint256 date;\n        string comment;\n        string pros;\n        string cons;\n        uint256[] notes; /* order: [safety, budget, comfort, driving, equipment, finition, reliability, ecology] */\n    }\n\n    struct Card {\n        uint256 cardId;\n        string brand;\n        string model;\n        string photoURI;\n    }\n    ///@notice store all the car cards appearing in social tab\n    Card[] private _cards;\n\n    ///@notice store all the car opinions : cardId => Opinion[]\n    mapping(uint256 => Opinion[]) private _opinions;\n\n    ///@notice store a list of messages from a hash(tokenId, _from, _to)\n    mapping(bytes32 => Message[]) private _allMessages;\n\n    /// @notice To save car cards in social part of our DApp\n    /// @dev We use this function to import fixtures with import_fixtures.js\n    /// @param _cardId internal card ID\n    /// @param _brand brand of car\n    /// @param _model model of car\n    /// @param _photoURI photo of car on IPFS\n    function createCard(\n        uint256 _cardId,\n        string calldata _brand,\n        string calldata _model,\n        string calldata _photoURI\n    ) external {\n        _cards.push(Card(_cardId, _brand, _model, _photoURI));\n    }\n\n    /// @notice Return all cards\n    /// @return cards\n    function getCards() external view returns (Card[] memory) {\n        return _cards;\n    }\n\n    /// @notice To save car opinions in social part of our DApp\n    /// @dev We use this function to import fixtures with import_fixtures.js\n    /// @param _cardId internal card ID\n    /// @param _comment general comment about car\n    /// @param _pros advantages\n    /// @param _pros disadvantages\n    /// @param _notes array of 8 notes\n    function createOpinion(\n        uint256 _cardId,\n        string calldata _comment,\n        string calldata _pros,\n        string calldata _cons,\n        uint256[] calldata _notes\n    ) external {\n        require(\n            _opinions[_cardId].length < 200,\n            \"Err: only 200 opinions/model\"\n        );\n        _opinions[_cardId].push(\n            Opinion(block.timestamp, _comment, _pros, _cons, _notes)\n        );\n    }\n\n    ///@notice Retrieve all opinions regarding a specific car card\n    ///@param _cardId the card ID of the car\n    ///@return array of Opinion\n    function getOpinions(uint256 _cardId)\n        external\n        view\n        returns (Opinion[] memory)\n    {\n        return _opinions[_cardId];\n    }\n\n    /// @notice Send a message to a user regarding a specific NFT\n    /// @dev store message in _allMessages with a hash\n    /// @param _tokenId NFT token ID\n    /// @param _to address of chat recipient\n    /// @param _content address of chat recipient\n    function sendMessage(\n        uint256 _tokenId,\n        address _to,\n        string calldata _content\n    ) external {\n        require(\n            _allMessages[_getChatId(_tokenId, msg.sender, _to)].length < 50,\n            \"Err: max number of msg is 50\"\n        );\n        _allMessages[_getChatId(_tokenId, msg.sender, _to)].push(\n            Message(block.timestamp, msg.sender, _content)\n        );\n    }\n\n    /// @notice Retrieve a conversation (chat) between 2 users on a specific NFT\n    /// @dev Get an array of message between msg.sender and _to on tokenId\n    /// @param _tokenId NFT token ID\n    /// @param _to address of chat recipient\n    /// @return messages array of Message\n    function getChat(uint256 _tokenId, address _to)\n        external\n        view\n        returns (Message[] memory)\n    {\n        return _allMessages[_getChatId(_tokenId, msg.sender, _to)];\n    }\n\n    /// @notice Generate a unique id for a message between 2 users and a specific NFT\n    /// @dev Concatenate the three param, always in the same order and hash them\n    /// @param _tokenId NFT token ID\n    /// @param _to address of msg recipient\n    /// @param _from address of msg sender\n    /// @return hash of three parameters\n    function _getChatId(\n        uint256 _tokenId,\n        address _from,\n        address _to\n    ) private pure returns (bytes32) {\n        if (_from < _to)\n            return keccak256(abi.encodePacked(_tokenId, _from, _to));\n        else return keccak256(abi.encodePacked(_tokenId, _to, _from));\n    }\n}\n",
  "sourcePath": "/home/mlazzje/projects/alyra/CarBlocks/truffle/contracts/SocialNetwork.sol",
  "compiler": {
    "name": "solc",
    "version": "0.8.17+commit.8df45f5f.Emscripten.clang"
  },
  "schemaVersion": "3.4.10",
  "updatedAt": "2022-12-12T05:31:19.325Z",
  "networkType": "ethereum",
  "devdoc": {
    "author": "Quentin COLLETTE & Maxime LESBROS",
    "details": "Stay away from this or you're facing sleep deprivation",
    "kind": "dev",
    "methods": {
      "createCard(uint256,string,string,string)": {
        "details": "We use this function to import fixtures with import_fixtures.js",
        "params": {
          "_brand": "brand of car",
          "_cardId": "internal card ID",
          "_model": "model of car",
          "_photoURI": "photo of car on IPFS"
        }
      },
      "createOpinion(uint256,string,string,string,uint256[])": {
        "details": "We use this function to import fixtures with import_fixtures.js",
        "params": {
          "_cardId": "internal card ID",
          "_comment": "general comment about car",
          "_notes": "array of 8 notes",
          "_pros": "disadvantages"
        }
      },
      "getCards()": {
        "returns": {
          "_0": "cards"
        }
      },
      "getChat(uint256,address)": {
        "details": "Get an array of message between msg.sender and _to on tokenId",
        "params": {
          "_to": "address of chat recipient",
          "_tokenId": "NFT token ID"
        },
        "returns": {
          "_0": "messages array of Message"
        }
      },
      "getOpinions(uint256)": {
        "params": {
          "_cardId": "the card ID of the car"
        },
        "returns": {
          "_0": "array of Opinion"
        }
      },
      "sendMessage(uint256,address,string)": {
        "details": "store message in _allMessages with a hash",
        "params": {
          "_content": "address of chat recipient",
          "_to": "address of chat recipient",
          "_tokenId": "NFT token ID"
        }
      }
    },
    "title": "The SocialNetwork Smart Contract for CarBlocks",
    "version": 1
  },
  "userdoc": {
    "kind": "user",
    "methods": {
      "createCard(uint256,string,string,string)": {
        "notice": "To save car cards in social part of our DApp"
      },
      "createOpinion(uint256,string,string,string,uint256[])": {
        "notice": "To save car opinions in social part of our DApp"
      },
      "getCards()": {
        "notice": "Return all cards"
      },
      "getChat(uint256,address)": {
        "notice": "Retrieve a conversation (chat) between 2 users on a specific NFT"
      },
      "getOpinions(uint256)": {
        "notice": "Retrieve all opinions regarding a specific car card"
      },
      "sendMessage(uint256,address,string)": {
        "notice": "Send a message to a user regarding a specific NFT"
      }
    },
    "notice": "Smart Contract allowing users to interact with each others",
    "version": 1
  }
}