{
  "contractName": "SocialNetwork",
  "abi": [
    {
      "inputs": [
        {
          "internalType": "bytes32",
          "name": "",
          "type": "bytes32"
        },
        {
          "internalType": "uint256",
          "name": "",
          "type": "uint256"
        }
      ],
      "name": "_allMessages",
      "outputs": [
        {
          "internalType": "uint256",
          "name": "timestamp",
          "type": "uint256"
        },
        {
          "internalType": "address",
          "name": "author",
          "type": "address"
        },
        {
          "internalType": "string",
          "name": "content",
          "type": "string"
        }
      ],
      "stateMutability": "view",
      "type": "function",
      "constant": true
    },
    {
      "inputs": [
        {
          "internalType": "uint256",
          "name": "",
          "type": "uint256"
        },
        {
          "internalType": "uint256",
          "name": "",
          "type": "uint256"
        }
      ],
      "name": "opinions",
      "outputs": [
        {
          "internalType": "uint256",
          "name": "date",
          "type": "uint256"
        },
        {
          "internalType": "string",
          "name": "comment",
          "type": "string"
        },
        {
          "internalType": "string",
          "name": "pros",
          "type": "string"
        },
        {
          "internalType": "string",
          "name": "cons",
          "type": "string"
        }
      ],
      "stateMutability": "view",
      "type": "function",
      "constant": true
    },
    {
      "inputs": [
        {
          "internalType": "uint256",
          "name": "_cardId",
          "type": "uint256"
        },
        {
          "internalType": "string",
          "name": "_brand",
          "type": "string"
        },
        {
          "internalType": "string",
          "name": "_model",
          "type": "string"
        },
        {
          "internalType": "string",
          "name": "_photoURI",
          "type": "string"
        }
      ],
      "name": "createCard",
      "outputs": [],
      "stateMutability": "nonpayable",
      "type": "function"
    },
    {
      "inputs": [],
      "name": "getCards",
      "outputs": [
        {
          "components": [
            {
              "internalType": "uint256",
              "name": "cardId",
              "type": "uint256"
            },
            {
              "internalType": "string",
              "name": "brand",
              "type": "string"
            },
            {
              "internalType": "string",
              "name": "model",
              "type": "string"
            },
            {
              "internalType": "string",
              "name": "photoURI",
              "type": "string"
            }
          ],
          "internalType": "struct SocialNetwork.Card[]",
          "name": "",
          "type": "tuple[]"
        }
      ],
      "stateMutability": "view",
      "type": "function",
      "constant": true
    },
    {
      "inputs": [
        {
          "internalType": "uint256",
          "name": "_cardId",
          "type": "uint256"
        },
        {
          "internalType": "string",
          "name": "_comment",
          "type": "string"
        },
        {
          "internalType": "string",
          "name": "_pros",
          "type": "string"
        },
        {
          "internalType": "string",
          "name": "_cons",
          "type": "string"
        },
        {
          "internalType": "uint256[]",
          "name": "_notes",
          "type": "uint256[]"
        }
      ],
      "name": "createOpinion",
      "outputs": [],
      "stateMutability": "nonpayable",
      "type": "function"
    },
    {
      "inputs": [
        {
          "internalType": "uint256",
          "name": "_tokenId",
          "type": "uint256"
        },
        {
          "internalType": "address",
          "name": "_to",
          "type": "address"
        },
        {
          "internalType": "string",
          "name": "_content",
          "type": "string"
        }
      ],
      "name": "sendMessage",
      "outputs": [],
      "stateMutability": "nonpayable",
      "type": "function"
    },
    {
      "inputs": [
        {
          "internalType": "uint256",
          "name": "_tokenId",
          "type": "uint256"
        },
        {
          "internalType": "address",
          "name": "_to",
          "type": "address"
        }
      ],
      "name": "getChat",
      "outputs": [
        {
          "components": [
            {
              "internalType": "uint256",
              "name": "timestamp",
              "type": "uint256"
            },
            {
              "internalType": "address",
              "name": "author",
              "type": "address"
            },
            {
              "internalType": "string",
              "name": "content",
              "type": "string"
            }
          ],
          "internalType": "struct SocialNetwork.Message[]",
          "name": "",
          "type": "tuple[]"
        }
      ],
      "stateMutability": "view",
      "type": "function",
      "constant": true
    }
  ],
  "bytecode": "0x608060405234801561001057600080fd5b50611222806100206000396000f3fe608060405234801561001057600080fd5b506004361061007d5760003560e01c8063653a99e31161005b578063653a99e3146100d55780638454b7cd146100f8578063957df5f714610118578063b0df9e531461012b57600080fd5b80632da17371146100825780635f3168a21461009757806363344111146100c2575b600080fd5b610095610090366004610c5b565b610140565b005b6100aa6100a5366004610cb5565b610218565b6040516100b993929190610d1d565b60405180910390f35b6100956100d0366004610d50565b6102ee565b6100e86100e3366004610cb5565b610419565b6040516100b99493929190610df4565b61010b610106366004610e3e565b6105fe565b6040516100b99190610e6a565b610095610126366004610ef2565b61072d565b6101336108bf565b6040516100b99190610fef565b6002600061014f863387610ade565b81526020019081526020016000206040518060600160405280428152602001336001600160a01b0316815260200184848080601f016020809104026020016040519081016040528093929190818152602001838380828437600092018290525093909452505083546001808201865594825260209182902084516003909202019081559083015193810180546001600160a01b0319166001600160a01b0390951694909417909355506040810151909190600282019061020f908261112c565b50505050505050565b6002602052816000526040600020818154811061023457600080fd5b60009182526020909120600390910201805460018201546002830180549295506001600160a01b0390911693509061026b906110a3565b80601f0160208091040260200160405190810160405280929190818152602001828054610297906110a3565b80156102e45780601f106102b9576101008083540402835291602001916102e4565b820191906000526020600020905b8154815290600101906020018083116102c757829003601f168201915b5050505050905083565b6000604051806080016040528089815260200188888080601f016020809104026020016040519081016040528093929190818152602001838380828437600092019190915250505090825250604080516020601f890181900481028201810190925287815291810191908890889081908401838280828437600092019190915250505090825250604080516020601f87018190048102820181019092528581529181019190869086908190840183828082843760009201829052509390945250508354600181810186559482526020918290208451600490920201908155908301519293909290830191506103e3908261112c565b50604082015160028201906103f8908261112c565b506060820151600382019061040d908261112c565b50505050505050505050565b6001602052816000526040600020818154811061043557600080fd5b90600052602060002090600502016000915091505080600001549080600101805461045f906110a3565b80601f016020809104026020016040519081016040528092919081815260200182805461048b906110a3565b80156104d85780601f106104ad576101008083540402835291602001916104d8565b820191906000526020600020905b8154815290600101906020018083116104bb57829003601f168201915b5050505050908060020180546104ed906110a3565b80601f0160208091040260200160405190810160405280929190818152602001828054610519906110a3565b80156105665780601f1061053b57610100808354040283529160200191610566565b820191906000526020600020905b81548152906001019060200180831161054957829003601f168201915b50505050509080600301805461057b906110a3565b80601f01602080910402602001604051908101604052809291908181526020018280546105a7906110a3565b80156105f45780601f106105c9576101008083540402835291602001916105f4565b820191906000526020600020905b8154815290600101906020018083116105d757829003601f168201915b5050505050905084565b60606002600061060f853386610ade565b8152602001908152602001600020805480602002602001604051908101604052809291908181526020016000905b8282101561072157600084815260209081902060408051606081018252600386029092018054835260018101546001600160a01b03169383019390935260028301805492939291840191610690906110a3565b80601f01602080910402602001604051908101604052809291908181526020018280546106bc906110a3565b80156107095780601f106106de57610100808354040283529160200191610709565b820191906000526020600020905b8154815290600101906020018083116106ec57829003601f168201915b5050505050815250508152602001906001019061063d565b50505050905092915050565b600160008a81526020019081526020016000206040518060a001604052804281526020018a8a8080601f016020809104026020016040519081016040528093929190818152602001838380828437600092019190915250505090825250604080516020601f8b0181900481028201810190925289815291810191908a908a9081908401838280828437600092019190915250505090825250604080516020601f8901819004810282018101909252878152918101919088908890819084018382808284376000920191909152505050908252506040805160208681028281018201909352868252928301929091879187918291850190849080828437600092018290525093909452505083546001818101865594825260209182902084516005909202019081559083015192939092908301915061086b908261112c565b5060408201516002820190610880908261112c565b5060608201516003820190610895908261112c565b50608082015180516108b1916004840191602090910190610b96565b505050505050505050505050565b60606000805480602002602001604051908101604052809291908181526020016000905b82821015610ad5578382906000526020600020906004020160405180608001604052908160008201548152602001600182018054610920906110a3565b80601f016020809104026020016040519081016040528092919081815260200182805461094c906110a3565b80156109995780601f1061096e57610100808354040283529160200191610999565b820191906000526020600020905b81548152906001019060200180831161097c57829003601f168201915b505050505081526020016002820180546109b2906110a3565b80601f01602080910402602001604051908101604052809291908181526020018280546109de906110a3565b8015610a2b5780601f10610a0057610100808354040283529160200191610a2b565b820191906000526020600020905b815481529060010190602001808311610a0e57829003601f168201915b50505050508152602001600382018054610a44906110a3565b80601f0160208091040260200160405190810160405280929190818152602001828054610a70906110a3565b8015610abd5780601f10610a9257610100808354040283529160200191610abd565b820191906000526020600020905b815481529060010190602001808311610aa057829003601f168201915b505050505081525050815260200190600101906108e3565b50505050905090565b6000816001600160a01b0316836001600160a01b03161015610b5357838383604051602001610b3693929190928352606091821b6bffffffffffffffffffffffff199081166020850152911b16603482015260480190565b604051602081830303815290604052805190602001209050610b8f565b838284604051602001610b3693929190928352606091821b6bffffffffffffffffffffffff199081166020850152911b16603482015260480190565b9392505050565b828054828255906000526020600020908101928215610bd1579160200282015b82811115610bd1578251825591602001919060010190610bb6565b50610bdd929150610be1565b5090565b5b80821115610bdd5760008155600101610be2565b80356001600160a01b0381168114610c0d57600080fd5b919050565b60008083601f840112610c2457600080fd5b50813567ffffffffffffffff811115610c3c57600080fd5b602083019150836020828501011115610c5457600080fd5b9250929050565b60008060008060608587031215610c7157600080fd5b84359350610c8160208601610bf6565b9250604085013567ffffffffffffffff811115610c9d57600080fd5b610ca987828801610c12565b95989497509550505050565b60008060408385031215610cc857600080fd5b50508035926020909101359150565b6000815180845260005b81811015610cfd57602081850181015186830182015201610ce1565b506000602082860101526020601f19601f83011685010191505092915050565b8381526001600160a01b0383166020820152606060408201819052600090610d4790830184610cd7565b95945050505050565b60008060008060008060006080888a031215610d6b57600080fd5b87359650602088013567ffffffffffffffff80821115610d8a57600080fd5b610d968b838c01610c12565b909850965060408a0135915080821115610daf57600080fd5b610dbb8b838c01610c12565b909650945060608a0135915080821115610dd457600080fd5b50610de18a828b01610c12565b989b979a50959850939692959293505050565b848152608060208201526000610e0d6080830186610cd7565b8281036040840152610e1f8186610cd7565b90508281036060840152610e338185610cd7565b979650505050505050565b60008060408385031215610e5157600080fd5b82359150610e6160208401610bf6565b90509250929050565b60006020808301818452808551808352604092508286019150828160051b87010184880160005b83811015610ee457888303603f19018552815180518452878101516001600160a01b0316888501528601516060878501819052610ed081860183610cd7565b968901969450505090860190600101610e91565b509098975050505050505050565b600080600080600080600080600060a08a8c031215610f1057600080fd5b8935985060208a013567ffffffffffffffff80821115610f2f57600080fd5b610f3b8d838e01610c12565b909a50985060408c0135915080821115610f5457600080fd5b610f608d838e01610c12565b909850965060608c0135915080821115610f7957600080fd5b610f858d838e01610c12565b909650945060808c0135915080821115610f9e57600080fd5b818c0191508c601f830112610fb257600080fd5b813581811115610fc157600080fd5b8d60208260051b8501011115610fd657600080fd5b6020830194508093505050509295985092959850929598565b60006020808301818452808551808352604092508286019150828160051b87010184880160005b83811015610ee457603f19898403018552815160808151855288820151818a87015261104482870182610cd7565b915050878201518582038987015261105c8282610cd7565b915050606080830151925085820381870152506110798183610cd7565b968901969450505090860190600101611016565b634e487b7160e01b600052604160045260246000fd5b600181811c908216806110b757607f821691505b6020821081036110d757634e487b7160e01b600052602260045260246000fd5b50919050565b601f82111561112757600081815260208120601f850160051c810160208610156111045750805b601f850160051c820191505b8181101561112357828155600101611110565b5050505b505050565b815167ffffffffffffffff8111156111465761114661108d565b61115a8161115484546110a3565b846110dd565b602080601f83116001811461118f57600084156111775750858301515b600019600386901b1c1916600185901b178555611123565b600085815260208120601f198616915b828110156111be5788860151825594840194600190910190840161119f565b50858210156111dc5787850151600019600388901b60f8161c191681555b5050505050600190811b0190555056fea2646970667358221220b43e0636a6db73591b7aa6604987154a34c3d1031263743662526fd9894ee5b464736f6c63430008110033",
  "immutableReferences": {},
  "source": "// SPDX-License-Identifier: MIT\npragma solidity 0.8.17;\n\n/// @title The SocialNetwork Smart Contract for CarBlocks\n/// @author Quentin COLLETTE & Maxime LESBROS\n/// @notice Smart Contract allowing users to interact with each others\n/// @dev Stay away from this or you're facing sleep deprivation\ncontract SocialNetwork {\n    struct Message {\n        uint256 timestamp;\n        address author;\n        string content;\n    }\n\n    struct Opinion {\n        uint256 date;\n        string comment;\n        string pros;\n        string cons;\n        uint256[] notes; /* order: [safety, budget, comfort, driving, equipment, finition, reliability, ecology] */\n    }\n\n    struct Card {\n        uint256 cardId;\n        string brand;\n        string model;\n        string photoURI;\n    }\n    ///@notice store all the car cards appearing social tab\n    Card[] private _cards;\n\n    ///@notice store all the car opinions : cardId => Opinion[]\n    mapping(uint256 => Opinion[]) public opinions;\n\n    ///@notice store a list of messages from a hash(tokenId, _from, _to)\n    mapping(bytes32 => Message[]) public _allMessages;\n\n    /// @notice To save car cards in social part of our DApp\n    /// @dev We use this function to import fixtures with import_fixtures.js\n    /// @param _cardId internal card ID\n    /// @param _brand brand of car\n    /// @param _model model of car\n    /// @param _photoURI photo of car on IPFS\n    function createCard(\n        uint256 _cardId,\n        string calldata _brand,\n        string calldata _model,\n        string calldata _photoURI\n    ) external {\n        _cards.push(Card(_cardId, _brand, _model, _photoURI));\n    }\n\n    /// @notice Return all cards\n    /// @return cards\n    function getCards() external view returns (Card[] memory) {\n        return _cards;\n    }\n\n    /// @notice To save car opinions in social part of our DApp\n    /// @dev We use this function to import fixtures with import_fixtures.js\n    /// @param _cardId internal card ID\n    /// @param _comment general comment about car\n    /// @param _pros advantages\n    /// @param _pros disadvantages\n    /// @param _notes array of 8 notes\n    function createOpinion(\n        uint256 _cardId,\n        string calldata _comment,\n        string calldata _pros,\n        string calldata _cons,\n        uint256[] calldata _notes\n    ) external {\n        opinions[_cardId].push(\n            Opinion(block.timestamp, _comment, _pros, _cons, _notes)\n        );\n    }\n\n    /// @notice Send a message to a user regarding a specific NFT\n    /// @dev store message in _allMessages with a hash\n    /// @param _tokenId NFT token ID\n    /// @param _to address of chat recipient\n    /// @param _content address of chat recipient\n    function sendMessage(\n        uint256 _tokenId,\n        address _to,\n        string calldata _content\n    ) external {\n        _allMessages[_getChatId(_tokenId, msg.sender, _to)].push(\n            Message(block.timestamp, msg.sender, _content)\n        );\n    }\n\n    /// @notice Retrieve a conversation (chat) between 2 users on a specific NFT\n    /// @dev Get an array of message between msg.sender and _to on tokenId\n    /// @param _tokenId NFT token ID\n    /// @param _to address of chat recipient\n    /// @return messages array of Message\n    function getChat(uint256 _tokenId, address _to)\n        external\n        view\n        returns (Message[] memory)\n    {\n        return _allMessages[_getChatId(_tokenId, msg.sender, _to)];\n    }\n\n    /// @notice Generate a unique id for a message between 2 users and a specific NFT\n    /// @dev Concatenate the three param, always in the same order and hash them\n    /// @param _tokenId NFT token ID\n    /// @param _to address of msg recipient\n    /// @param _from address of msg sender\n    /// @return hash of three parameters\n    function _getChatId(\n        uint256 _tokenId,\n        address _from,\n        address _to\n    ) private pure returns (bytes32) {\n        if (_from < _to)\n            return keccak256(abi.encodePacked(_tokenId, _from, _to));\n        else return keccak256(abi.encodePacked(_tokenId, _to, _from));\n    }\n}\n",
  "sourcePath": "/home/mlazzje/projects/alyra/CarBlocks/truffle/contracts/SocialNetwork.sol",
  "compiler": {
    "name": "solc",
    "version": "0.8.17+commit.8df45f5f.Emscripten.clang"
  },
  "schemaVersion": "3.4.10",
  "updatedAt": "2022-12-11T23:31:18.636Z",
  "networkType": "ethereum",
  "devdoc": {
    "author": "Quentin COLLETTE & Maxime LESBROS",
    "details": "Stay away from this or you're facing sleep deprivation",
    "kind": "dev",
    "methods": {
      "createCard(uint256,string,string,string)": {
        "details": "We use this function to import fixtures with import_fixtures.js",
        "params": {
          "_brand": "brand of car",
          "_cardId": "internal card ID",
          "_model": "model of car",
          "_photoURI": "photo of car on IPFS"
        }
      },
      "createOpinion(uint256,string,string,string,uint256[])": {
        "details": "We use this function to import fixtures with import_fixtures.js",
        "params": {
          "_cardId": "internal card ID",
          "_comment": "general comment about car",
          "_notes": "array of 8 notes",
          "_pros": "disadvantages"
        }
      },
      "getCards()": {
        "returns": {
          "_0": "cards"
        }
      },
      "getChat(uint256,address)": {
        "details": "Get an array of message between msg.sender and _to on tokenId",
        "params": {
          "_to": "address of chat recipient",
          "_tokenId": "NFT token ID"
        },
        "returns": {
          "_0": "messages array of Message"
        }
      },
      "sendMessage(uint256,address,string)": {
        "details": "store message in _allMessages with a hash",
        "params": {
          "_content": "address of chat recipient",
          "_to": "address of chat recipient",
          "_tokenId": "NFT token ID"
        }
      }
    },
    "title": "The SocialNetwork Smart Contract for CarBlocks",
    "version": 1
  },
  "userdoc": {
    "kind": "user",
    "methods": {
      "_allMessages(bytes32,uint256)": {
        "notice": "store a list of messages from a hash(tokenId, _from, _to)"
      },
      "createCard(uint256,string,string,string)": {
        "notice": "To save car cards in social part of our DApp"
      },
      "createOpinion(uint256,string,string,string,uint256[])": {
        "notice": "To save car opinions in social part of our DApp"
      },
      "getCards()": {
        "notice": "Return all cards"
      },
      "getChat(uint256,address)": {
        "notice": "Retrieve a conversation (chat) between 2 users on a specific NFT"
      },
      "opinions(uint256,uint256)": {
        "notice": "store all the car opinions : cardId => Opinion[]"
      },
      "sendMessage(uint256,address,string)": {
        "notice": "Send a message to a user regarding a specific NFT"
      }
    },
    "notice": "Smart Contract allowing users to interact with each others",
    "version": 1
  }
}